:020000040800F2
:10000000603B01205D0200080923000889220008E6
:1000100005230008BD1100080130000800000000A1
:100020000000000000000000000000009D0100082A
:100030005D1C000800000000F9010008E928000824
:1000400077020008770200087702000877020008AC
:10005000770200087702000877020008770200089C
:10006000770200087702000877020008770200088C
:10007000770200087702000877020008770200087C
:10008000770200087702000877020008770200086C
:10009000C111000877020008770200087702000803
:1000A000770200087702000877020008770200084C
:1000B0007702000885290008770200087702000807
:1000C000770200087702000877020008770200082C
:1000D000770200089D2C00087702000877020008CC
:1000E000770200087702000877020008770200080C
:1000F00077020008770200087702000877020008FC
:100100007702000877020008492A000877020008F1
:1001100077020008770200087702000877020008DB
:1001200077020008770200087702000877020008CB
:1001300077020008770200087702000877020008BB
:10014000F912000877020008770200087702000819
:10015000770200087702000877020008770200089B
:10016000770200087702000877020008770200088B
:10017000770200087702000877020008770200087B
:100180007702000877020008DFF80CD000F01EFCB0
:1001900000480047FB530008603B01202C4B1968C6
:1001A0000868B0E8F04F80F30988BFF36F8F4FF015
:1001B000000080F3118870470000000008480068C4
:1001C000006880F308884FF0000080F3148862B65E
:1001D00061B6BFF34F8FBFF36F8F00DF00BF00BF6B
:1001E00008ED00E0DFF80C00016841F470010160E7
:1001F000704700BF88ED00E0EFF30980BFF36F8F19
:10020000134B1A681EF0100F08BF20ED108A20E96A
:10021000F04F106009B44FF0500080F31188BFF325
:100220004F8FBFF36F8F06F0B5FA4FF0000080F3E9
:10023000118809BC19680868B0E8F04F1EF0100F6B
:1002400008BFB0EC108A80F30988BFF36F8F704746
:10025000FC000020EFF3058070470000064880474F
:1002600006480047FEE7FEE7FEE7FEE7FEE7FEE79B
:10027000FEE7FEE7FEE7FEE71D290008890100080A
:100280009FED1A1AF5EE000A40EE010ABDEEE00AF3
:10029000F5EEC00A10EE100AF1EE10FA38BF401E5B
:1002A00000EE100A1349F7EE001AB8EEC00A30EE5D
:1002B000C00ADFED0F0A20EE200AFCEEC00A10EEA5
:1002C000900AC0F3080000EE900A01EB8000F8EEFF
:1002D000600A90ED011A70EE600A90ED000A71EE6E
:1002E000E01A21EE800A00EE810A704783F9223E6F
:1002F000000000443C720008DFED190AB5EEC00AA8
:1003000060EE200ABDEEE01A11EE100AF1EE10FACE
:1003100038BF401E00EE100A1349F7EE001AB8EE7F
:10032000C00A30EEC00ADFED0F0A60EE200ABCEE14
:10033000E00A10EE100AC0F3080000EE100A01EB0C
:100340008000B8EE400A90ED011A70EEC00A90ED00
:10035000000A71EEE01A21EE800A00EE810A704771
:1003600083F9223E000000443C720008DFED3C0AA5
:1003700020EE200AFDEEC00AB5EEC00A10EE902A6B
:10038000F1EE10FA38BF521E00EE902ADFF8D8C006
:10039000B0EE084AF8EEE00A30EE600ADFED310A0E
:1003A00060EE200ABCEEE00A10EE102AC2F308024A
:1003B00000EE102A02F180030CEB8202B8EE400A34
:1003C000C3F308030CEB830330EEC00AD2ED000A3E
:1003D00093ED002A93ED011AF1EE601AD2ED010AB5
:1003E00071EE422AF1EE603ADFED200A31EEA31AF7
:1003F00021EE203AB0EE001A41EE213A01EE623AC7
:1004000062EE842A43EEE02A40EE032A60EE222ABE
:1004100041EEA02A00EE222A81ED002AD3ED001A37
:1004200093ED013AD2ED002A92ED012A71EE833A62
:1004300001EE213A32EE622A63EEA03A41EE423AF0
:1004400022EE042A03EE602A00EE232A20EE021A8E
:1004500001EEA01A40EE012AC0ED002A704700000C
:10046000610B363B000000443C720008DB0F493C46
:1004700040EA01039B0703D009E008C9121F08C026
:10048000042AFAD203E011F8013B00F8013B521EA6
:10049000F9D27047D2B201E000F8012B491EFBD21D
:1004A00070470022F6E710B513460A46044619467F
:1004B000FFF7F0FF204610BD2DE9FE4F804681EA90
:1004C0000300C00F0C46009021F0004123F00045CE
:1004D000B8EB0200A94105D24046214690461C4691
:1004E0000B46024623F00040104347D0270DC7F3C8
:1004F0000A00C3F30A510290401A019040286BDAB7
:10050000C3F3130040F4801B0098924620B10023EF
:10051000D2EB030A63EB0B0B01985946C0F1400282
:10052000504600F02FF906460D4650465946019AAE
:1005300000F037F910EB08006141002487EA1152FE
:1005400084EAE7731A4340D0009A62B3019A012A01
:100550004FEA075215DC001B61EB02014FF000422D
:1005600002EA0752CDE90042001C41F580113246F3
:100570002B4600F06EF903B0BDE8F08F40462146EF
:10058000F9E7001B61EB0201001C41F58013001824
:100590005B412018A2F5001747EB030140EAD57034
:1005A000B6196D4111E06D084FEA360645EAC0758F
:1005B0004FEA0752001B61EB0201001C41F580115C
:1005C00049084FEA30000019514132462B4603B02A
:1005D000BDE8F04F00F02EB9009801224000002342
:1005E000D0EB020263EBE073009821464FEAE0741F
:1005F000B8EB000061EB0401E9E783F000435BE73F
:1006000081F0004158E72DE9FE4F81EA030404F030
:10061000004421F0004100944FF0000B23F0004310
:1006200050EA01045ED052EA03045BD0C3F30A54DB
:10063000C1F30A552C44A4F2F3340194A0FB0254F4
:10064000C1F3130141F48011C3F3130343F4801386
:1006500001FB024400FB034E840A970A44EA8154DA
:1006600047EA8357A4FB076802958D0A05FB0785B7
:100670004FEA932C04FB0C542705029D4FEA0658C1
:1006800047EA1637B5EB08056EEB070C870E920E9E
:1006900047EA811742EA8312A7FB0201B6EB0B017E
:1006A00064EB00042B0D43EA0C335E1844EB1C5042
:1006B000DA465146E7FB0201C5F313044FEA0B3358
:1006C00043EA14534FEA0432019C43EA0603A4F1BF
:1006D0000C040294009CCDE900B400F0BAF803B019
:1006E000BDE8F08F00200146F9E70EB5C10F80EAA2
:1006F000E0700844CA07002140F233438DE80E0041
:100700000A460B4600F0A5F803B000BD0EB540F256
:10071000334102910021CDE900110A460B4600F059
:1007200098F803B000BD00F0004230F000400AD05D
:10073000C10D01F56071C0F3160042EA0151C20813
:1007400040071143704700200146704701F0004305
:1007500030B421F0004150EA010206D00A0DA2F5A2
:100760006072C1F31301002A02DC30BC0020704724
:10077000440F44EAC104C100E01830BC00EBC25091
:1007800000F021B8202A04DB203A00FA02F1002010
:1007900070479140C2F1200320FA03F319439040BF
:1007A0007047202A06DBCB17203A41FA02F043EAD1
:1007B000E07306E041FA02F3D040C2F1200291401A
:1007C0000843194670470029A8BF7047401C4900DC
:1007D00008BF20F00100704710B4B0FA80FC00FAA6
:1007E0000CF050EA010404BF10BC704749B1CCF1D1
:1007F000200421FA04F411FA0CF118BF012121435D
:100800000843A3EB0C01CB1D4FEA00614FEA102017
:1008100042BF002010BC704700EBC35010440029B9
:10082000A4BF10BC7047401C490008BF20F0010065
:1008300010BC704710B5141E73F1000408DA401C98
:1008400041F1000192185B411A4301D120F00100EF
:1008500010BD2DE9F04D92469B4611B1B1FA81F2DF
:1008600002E0B0FA80F220329046FFF78BFF044698
:100870000F4640EA0A0041EA0B0153465A46084334
:1008800013D0114653EA010019D0C8F14002504676
:1008900000F0AEF805460E46504659464246FFF770
:1008A00071FF084305D0012004E020463946BDE829
:1008B000F08D0020054346EAE0762C4337430A9842
:1008C0006305E40AA0EB08000022FD0A44EA47544D
:1008D0000A3002D500200146E9E7010510196941F7
:1008E000DDE9084500196941BDE8F04DA2E72DE9B1
:1008F000F04D81EA030404F0004B21F0004514465A
:100900004FF0000A23F0004150EA050220D054EADB
:1009100001021DD0C5F30A570246C5F31303C1F304
:100920001300C1F30A5640F4801543F48013A7EB7B
:100930000608101BD64608F2FD3873EB050002D3FB
:1009400008F1010801E092185B41B8F1000F03DAE9
:1009500000200146BDE8F08D00204FF480110646CE
:1009600084460EE0171B73EB050705D3121B63EBE0
:10097000050306434CEA010C49084FEA300092187F
:100980005B4150EA0107EDD152EA030012D082EA3E
:10099000040083EA0501084305D0101BAB4106D2D1
:1009A0000122002306E000224FF0004302E06FF036
:1009B000010253101AEB06004CEB085110EB0A0031
:1009C00041EB0B01BDE8F04DFFF734BF064C074D7E
:1009D00006E0E06840F0010394E80700984710340F
:1009E000AC42F6D3FFF7D4FBD87A0008F87A0008B7
:1009F000202A04DB203A21FA02F00021704721FA74
:100A000002F3D040C2F120029140084319467047DA
:100A100070B58C1810F8015B15F0070301D110F8C0
:100A2000013B2A1106D110F8012B03E010F8016BED
:100A300001F8016B5B1EF9D12B0705D40023521E70
:100A40000DD401F8013BFAE710F8013BCB1A921CD8
:100A500003E013F8015B01F8015B521EF9D5A142D6
:100A6000D8D3002070BD10B52DED028BB0EE408ABA
:100A7000B0EE480A02F0F2FABDEC028B10BD10B5E0
:100A80002DED028BB0EE408AF0EE608AF0EE680A3F
:100A9000B0EE480A02F0E4FCBDEC028B10BD10B5CC
:100AA0002DED028BB0EE408AB0EE480AFFF7E8FB6E
:100AB000BDEC028B10BDF0EE400AF5EEC00AF1EE7F
:100AC00010FA02DDB0EE600A7047B1EE600AFBE793
:100AD00018B19FED020A80ED000A70470000000087
:100AE00018B1B3EE060A80ED000A704770B52DED1F
:100AF0000C8B84B006460C4615469FED990AF0EE25
:100B0000408A9FED970AB0EE409A9FED950AF0EE6D
:100B100040BA9FED930AF0EE409A9FED910AB0EE35
:100B200040AA0EB104B11DB904B0BDEC0C8B70BD70
:100B30008C48FFF7CDFF8C48FFF7D2FF8A48D0EDF5
:100B4000000A9FED8A1A60EE810AB0EE600A00F09A
:100B50002DF9F0EE408A28EEA80AF0EE408A82488D
:100B6000D0ED000AB0EE001A60EE810A9FED7F1A08
:100B700060EE810AB0EE600A00F018F9B0EE409A1B
:100B800029EE090AB0EE409ADFED790AB7EE000AC5
:100B900000EEA80ADFED770A00EEC90ADFED760A5B
:100BA00020EE200A754880ED000A6E4890ED000A9C
:100BB000DFED730A80EE201AB7EE000A31EE000A6C
:100BC00020EE000A6D48D0ED000A80EE801A6D48D4
:100BD00080ED001A94ED000AB5EEC00AF1EE10FAAD
:100BE0000DD194ED010AB5EEC00AF1EE10FA06D16E
:100BF00094ED020AB5EEC00AF1EE10FA46D09FED70
:100C0000580AB0EE408A0020019002900390D4ED83
:100C1000000A60EEA00A94ED011AD4ED011A41EE2B
:100C2000210A94ED021AD4ED021A41EE210AB0EE27
:100C3000600A00F0A9F8B0EE408A94ED000A20EEB8
:100C4000080A8DED010A94ED010A20EE080A8DEDE7
:100C5000020A94ED020A20EE080A8DED030ADDED8A
:100C6000010AF1EE600AB0EE600AFFF7FCFEF0EE5A
:100C7000409A9DED031AF0EE410A9DED021AB0EE86
:100C8000410AFFF7FCFEB0EE40AA07E09FED340AF0
:100C9000F0EE409A9FED320AB0EE40AA95ED000AC0
:100CA000B5EEC00AF1EE10FA0DD195ED010AB5EEE0
:100CB000C00AF1EE10FA06D195ED020AB5EEC00AAF
:100CC000F1EE10FA3CD0B0EE690A00F06FF8B0EE29
:100CD000408AB0EE690AFFF7E2FEB0EE40DAB0EE0D
:100CE0004A0A00F063F8F0EE40AAB0EE4A0AFFF7B5
:100CF000D6FEB0EE40BA28EE2A0AD5ED010A20EE63
:100D0000200AD5ED000A0DEE200A68EE0B0A95EDDB
:100D1000021A00EE810AB0EE40CA95ED010A20EEFB
:100D20000B0AD5ED020A0AEEE00AF0EE40CAF0EE38
:100D30006C0AB0EE4C0AFFF7A2FEF0EE40BA03E0F8
:100D40009FED070AF0EE40BAB0EE4A1AF0EE690ADB
:100D5000B0EE6B0A304602F039FF00BFE4E6000057
:100D600000000000780100207C01002035FA8E3C54
:100D7000C1BFAD3B9DF8C5362F7C1C4180010020D2
:100D8000506CC24A8401002010B52DED028BB0EEEC
:100D9000408AB0EE480A02F08BFCB7EE001AC1EEB2
:100DA000000AB0EE600ABDEC028B10BD10B52DED4F
:100DB000028BB0EE408AB0EE480AFFF79DFABDEC18
:100DC000028B10BD2DE9F0412DED028B9AB0054646
:100DD000B0EE408A0E4617469846002017901890AD
:100DE00019901490159016904DB146B13FB1B8F1DD
:100DF000000F04D0B5EEC08AF1EE10FA05D1002044
:100E00001AB0BDEC028BBDE8F08196ED000A8DEDC5
:100E1000170A96ED010A8DED180A96ED020A8DED7E
:100E2000190A97ED000A8DED140A97ED010A8DED70
:100E3000150A97ED020A8DED160A17AA14A928467D
:100E400002F016FD402104A8FFF72BFB00200090C4
:100E5000019002900390002417A904A805F043FA1A
:100E600000BF30E004A800EB041090ED000AD5EDBF
:100E7000000A20EE200A04A800EB0410D0ED010ABD
:100E800095ED011A00EE810A04A800EB0410D0EDE4
:100E9000020A95ED021A00EE810A04A800EB041084
:100EA000D0ED030A95ED031A00EE810A20EE080A40
:100EB000F0EE000A80EE201A684600EB840080ED18
:100EC000001A601CC4B2042CCCDB002410E005EB3B
:100ED000840090ED000A684600EB8400D0ED000A23
:100EE00030EE200A05EB840080ED000A601CC4B2DD
:100EF000042CECDB284605F053F9012080E70000C4
:100F000010B51021014800F0EDFF10BD00000240B7
:100F100010B51021014800F0E3FF10BD00000240B1
:100F200010B50121014800F0DDFF10BD00040240B2
:100F300010B50121014800F0D3FF10BD00040240AC
:100F40002DE9F04104460D461746FFF7E1FF44F056
:100F500080010B4801F038FC44F08001084801F0A2
:100F600033FC002606E05521054801F02DFC2870D1
:100F70006D1C761C062EF6DBFFF7C2FFBDE8F08184
:100F80000030014010B50446204605F01FFB10BD9F
:100F900000B50346184600F062FE00BD2DE9F041A1
:100FA00005460C461746FFF7C3FF45F08001094888
:100FB00001F00AFC002606E05521064801F004FC79
:100FC0002070641C761C082EF6DBFFF7A9FFBDE835
:100FD000F08100000030014010B5002402F040FF15
:100FE00010B144F0800402E002F0A6FE044303F0D6
:100FF00029F910B144F0400402E003F0A9F80443D9
:10100000204610BD2DE9F04105460E4617469221B7
:10101000514801F0D9FB062250491220FFF790FFFA
:101020004E484078000200B24C49097840EA010479
:1010300000EE104AF8EEC00A9FED491A9FED490AEA
:1010400010EE810A86ED000A4448C078000200B222
:101050004249897840EA010400EE104AF8EEC00ADD
:101060009FED3F1A9FED400A10EE810A86ED010ABE
:101070003A484079000200B23849097940EA01044F
:1010800000EE104AF8EEC00A9FED351A9FED370AC0
:1010900010EE810A86ED020A082230490020FFF78F
:1010A0007DFF2E4800780F2835D12C48C0780002EB
:1010B00000B22A49897840EA010400EE104AB8EEED
:1010C000C00ADFED2B0A20EE200A85ED000A234836
:1010D0004079000200B22149097940EA010400EE9A
:1010E000104AB8EEC00ADFED220A20EE200A85ED94
:1010F000010A1A48C079000200B21849897940EA09
:10110000010400EE104AB8EEC00ADFED190A20EE25
:10111000200A85ED020A022210492220FFF710FF63
:101120000E480078C0000D49497840EA6114B4F5D2
:10113000806F02DBA4F5006004B200EE104AF8EE06
:10114000C00AB4EE001AB3EE070A00EE810A87ED7A
:10115000000ABDE8F081000000300140F1000020ED
:10116000E7416B3A00000000000000800AD7233EF0
:1011700058A08B3A70B504460D4644F0800000F04C
:1011800005F8552000F002F8287070BD10B504462F
:101190002146024801F018FB10BD0000003001405C
:1011A00070B504460D462146034801F00DFB294663
:1011B000014801F009FB70BD0030014000BFFEE7AF
:1011C00000B585B002210D4800F00CFAA0B1022153
:1011D0000A4800F02FF96A460021084800F025FB74
:1011E0000099091FC8B2064A0DF10B0104F060F91D
:1011F0000099C8B200F0D2FC05B000BD0064004008
:10120000DC05002000B58BB00121082001F040F979
:101210000121480601F04CF909220021344800F070
:101220003CFE09220121324800F037FE02208DF8F1
:101230001C0000208DF81E008DF81F0003208DF883
:101240001D00069006A92A4800F0DFFD0320ADF836
:10125000200000208DF8220001208DF823000820B6
:101260008DF8240003208DF8250000208DF827003C
:101270008DF8280001208DF8290000208DF82A0023
:101280008DF826008DF82B0008A91A4800F043FAC3
:1012900000208DF812008DF8130001208DF8140045
:1012A0000020ADF80800ADF80A00ADF80C00ADF86C
:1012B0000E00ADF8100001208DF8150002A800F016
:1012C0000DF9012202210B4800F01CFA14208DF8C0
:1012D000040001208DF8050000208DF80600012093
:1012E0008DF8070001A801F011F80BB000BD000057
:1012F000000C02400064004000B585B002210D489A
:1013000000F070F998B102210A4800F093F86A469B
:101310000021084800F089FA0099C8B2064A0DF188
:101320000B0104F081F80099C8B200F037FC05B059
:1013300000BD0000006800400802002000B58BB02E
:101340000121022001F0A4F80121880601F0B0F883
:1013500009220521354800F0A0FD09220621334865
:1013600000F09BFD02208DF81C0000208DF81E006F
:101370008DF81F0003208DF81D006020069006A93F
:101380002A4800F042FD0320ADF8200000208DF82F
:10139000220001208DF8230008208DF8240003206E
:1013A0008DF8250000208DF827008DF828000120F9
:1013B0008DF8290000208DF82A008DF826008DF880
:1013C0002B0008A91A4800F0A6F90F208DF812008A
:1013D00000208DF8130001208DF814000020ADF8D6
:1013E0000800ADF80A00ADF80C00ADF80E00ADF83D
:1013F000100001208DF8150002A800F06FF80122FE
:1014000002210B4800F07EF940208DF804000120F5
:101410008DF8050000208DF8060001208DF80700EA
:1014200001A800F073FF0BB000BD000000040240F3
:1014300000680040B1F5007F3AD00FDC202928D0A9
:1014400006DC01291CD004291DD0082940D11DE04B
:10145000402921D0B1F5807F3AD126E0B1F5004F87
:1014600031D006DCB1F5806F25D0B1F5006F2FD1FA
:1014700024E0B1F5803F12D0B1F5003F28D111E052
:10148000154A826025E00822C26022E01022C26074
:101490001FE0082202611CE01022026119E008220C
:1014A000426016E01022426013E00422426010E025
:1014B000042242600DE0042242600AE000228261C0
:1014C0000422426005E0002282610422426000E0C2
:1014D00000BF00BF704700000101010010B50021EE
:1014E000837A012202FA03F13D4A126842F00102B6
:1014F0003B4B1A603A4A1C3212688A43384B1C3301
:101500001A60027BCAB9364A0C3212688A43344BDD
:101510000C331A604288C38842EA0343304A40329F
:10152000847A42F834300288838842EA03432C4AA2
:101530004032847A02EBC4025360027B012A19D143
:10154000274A0C3212680A43254B0C331A60428832
:10155000038842EA0343224A4032847A42F8343014
:10156000C288838842EA03431D4A4032847A02EBF0
:10157000C4025360C27A3AB9194A121D12688A43EA
:10158000174B1B1D1A6006E0154A121D12680A430C
:10159000134B1B1D1A60028932B9114A14321268AA
:1015A0008A430F4B14331A600289012A06D10C4A70
:1015B000143212680A430A4B14331A60427B012A20
:1015C00006D1074A1C3212680A43054B1C331A60C5
:1015D000034A126822F00102014B1A6010BD00009C
:1015E0000066004070B504460D460026606928403C
:1015F000002871D0B5F5807F5CD010DC082D35D087
:1016000006DC012D20D0022D24D0042D72D127E03C
:10161000102D31D0202D35D0402D6BD138E0B5F5CF
:10162000004F60D009DCB5F5007F49D0B5F5806F7B
:101630004CD0B5F5006F5DD14FE0B5F5803F2DD0B2
:10164000B5F5003F56D12FE0A0682D4900F09CFA77
:10165000064651E0E068032100F096FA06464BE0AA
:10166000E068082100F090FA064645E0E0681021A5
:1016700000F08AFA06463FE02069032100F084FA70
:10168000064639E02069082100F07EFA064633E07C
:101690002069102100F078FA06462DE060680821E4
:1016A00000F072FA064627E06068102100F06CFA3C
:1016B000064621E0A069012100F066FA06461BE01B
:1016C000A069022100F060FA064615E0A069042135
:1016D00000F05AFA06460FE00FE0A069702100F012
:1016E00053FA064608E06068042100F04DFA064609
:1016F00002E0FFE7002600BF00E00026304670BD94
:10170000010101001AB143690B43436102E04369DF
:101710008B434361704730B50246002000231468B4
:1017200024F002041460146844F00104146000E022
:101730005B1C546804F001041CB94FF6FF74A3420B
:10174000F6D1546804F001040CB900206CE08C79E7
:10175000012C04D1146844F08004146003E0146880
:1017600024F080041460CC79012C04D1146844F076
:101770004004146003E0146824F0400414600C7A00
:10178000012C04D1146844F02004146003E01468B0
:1017900024F0200414604C7A012C04D1146844F025
:1017A0001004146003E0146824F0100414608C7AB0
:1017B000012C04D1146844F00804146003E0146898
:1017C00024F008041460CC7A012C04D1146844F08D
:1017D0000404146003E0146824F0040414608C789A
:1017E000A407CD7844EA05640D7944EA05444D79AF
:1017F00044EA05540D886D1E2C43D461146824F00E
:1018000001041460002300E05B1C546804F0010430
:101810001CB14FF6FF74A342F6D1546804F00104E2
:101820000CB1002000E0012030BD10B500F5D873E8
:1018300003EB01131B6803F004031372137A53B90B
:1018400000F5D87303EB01131B6840F2FF7404EA40
:101850005353136009E000F5D87303EB01131B68C1
:101860006FF0604404EAD303536000F5D87303EBD0
:1018700001131B6803F00203537200F5D87303EBE6
:1018800001135B6803F00F03937200F5D87303EB49
:1018900001135B681B0AD37400F5D87303EB0113C3
:1018A0009B68D37200F5D87303EB01139B681C0A85
:1018B000147300F5D87303EB01139B681C0C54736D
:1018C00000F5D87303EB01139B681B0E937300F5AF
:1018D000D87303EB0113DB68D37300F5D87303EB04
:1018E0000113DB681C0A147400F5D87303EB0113B1
:1018F000DB681C0C547400F5D87303EB0113DB6830
:101900001B0E937421B9C36843F02003C36003E046
:10191000036943F02003036110BD10B502460020A7
:10192000936803F08063B3F1806F00D110E0936897
:1019300003F00063B3F1006F01D1012008E0936868
:1019400003F08053B3F1805F01D1022000E0042056
:10195000042874D002F5C07303EB00131B6803F076
:10196000010402F5C07303EB00131C600B7A7BB912
:101970004B7A0C8843EA445302F5C07404EB00141C
:101980002468234302F5C07404EB0014236010E0C4
:101990000B7A4C6843EAC4034C7A234302F5C074C3
:1019A00004EB00142468234302F5C07404EB001414
:1019B00023608B7A03F00F038B7202F5C07303EB85
:1019C00000135B6823F00F0402F5C07303EB0013F0
:1019D0005C6002F5C07303EB00135B688C7A2343F1
:1019E00002F5C07404EB001463608B7B1C064B7B18
:1019F00044EA03440B7B44EA0323CC7A234302F5F5
:101A0000C07404EB0014A3608B7C1C064B7C44EA7E
:101A100003440B7C44EA0323CC7B234302F5C074CC
:101A200004EB0014E36002F5C07303EB00131B68C2
:101A300043F0010402F5C07303EB00131C6010BDFA
:101A400010B50246002321B1012907D002290FD188
:101A500009E090681D4C00EA04030BE090681C4C00
:101A600000EA040306E090681A4C00EA040301E06F
:101A7000002300BF00BF184C181BA34216D007DC80
:101A800083B16FF08060184470B1022818D111E062
:101A9000B0F5007F10D0114C204448B1B0F5003FA4
:101AA0000ED10BE002230DE000230BE0002309E040
:101AB000002307E0012305E0012303E0012301E007
:101AC000002300BF00BFD8B210BD00000300000417
:101AD0000003000800000310000100080001FFF7E8
:101AE000084803F079FA642004F070FD08E0054826
:101AF00003F066FA034803F047FA012004F066FD9C
:101B0000F5E70000CC0900201CB51C4803F024F8C0
:101B100033E01A4803F0D6F8184803F019F91748CB
:101B200002F030FD154803F0F4F8144802F01CFCF4
:101B30004FF400711148B0F94E00CDE900010F4893
:101B4000B0F94C30B0F94A20B0F948100C4800F018
:101B500043FD40F2FF110948B0F95600CDE90001FC
:101B60000648B0F95430B0F95220B0F95010054889
:101B700000F032FD052004F029FDCAE78C010020A9
:101B800000680040006400400246002002EA0103B1
:101B90000BB1012000E000207047000002490A68F4
:101BA000091D41F820207047CC0900200246094B4E
:101BB0009A4201D2084801E00648103801F000536B
:101BC0001BB1064B0B40C36002E0044B0B4083602B
:101BD0007047000010640240006002407D0F7D0FDE
:101BE00021B1026842F00102026003E0026822F0C3
:101BF0000102026070470146486880B270470000E9
:101C000010B500220268134B1A40CC680B682343BE
:101C10004C6923438C692343CC6923430C6A2343D7
:101C20004C6A23438C6A23434C6B23438C6B2343C2
:101C30001A430260426922F00702D1E90B342343C0
:101C40001A4342610B6943604B6883608B68C360D1
:101C500010BD00003F801CF04160704770470021BC
:101C600000BF00E0491CA82242438A42FAD87047CC
:101C7000B0EE401A80ED001AC0ED020AB5EEC01AAF
:101C8000F1EE10FA08DD90ED010AD0ED021A30EE07
:101C9000210A80ED010A07E090ED010AD0ED021A59
:101CA00030EE610A80ED010AB5EEC01AF1EE10FACD
:101CB0000DDD90ED010AD0ED001AB4EEE10AF1EE6F
:101CC00010FA04DB90ED000A80ED010A11E0B5EE98
:101CD000C01AF1EE10FA0CD290ED010AD0ED001A04
:101CE000B4EEE10AF1EE10FA03D890ED000A80EDAF
:101CF000010A90ED010A7047F0EE400AF5EEC00AC5
:101D0000F1EE10FA02D19FED0A0A7047F5EEC00A13
:101D1000F1EE10FA02DDB0EE600AF6E7F5EEC00A69
:101D2000F1EE10FA02D2B1EE600AEEE700BFECE786
:101D300000000000F0EE401A31EE610AB4EEE00A55
:101D4000F1EE10FA09D831EE210AB4EEE00AF1EE14
:101D500010FA02DDB0EE410A7047B0EE600AFBE710
:101D6000B4EEE00AF1EE10FA02DDB0EE600A06E031
:101D7000B4EEC10AF1EE10FA01D2B0EE410A70479A
:101D800000B9704743888268D1544288521C42800F
:101D900043880288521E934201DD00224280C2889D
:101DA000521CC280C28803889A4201DDC288C28068
:101DB00000BFE6E7F0B507460C46164604B9F0BD8D
:101DC000002504E0615D3846FFF7DAFF6D1CB5427F
:101DD000F8DB00BFF3E7014609B900207047C88867
:101DE00088B1C888401EC8808B888868C25C888893
:101DF000401C88808B880888401E834201DD0020BB
:101E000088801046EAE70020E8E7F0B50A4600219E
:101E10000023002400BF3DE0012505FA01F3156809
:101E200005EA03049C4234D105684F000326BE40F6
:101E3000B543056015794E00B54006683543056029
:101E40001579012D02D01579022D16D185684F0024
:101E50000326BE40B543856055794E00B54086687F
:101E600035438560456801268E40B5434560456829
:101E700096798E40B6B235434560C5684F0003265B
:101E8000BE40B543C560D5794E00B540C668354300
:101E9000C560491C1029BFD3F0BDF0B50023002454
:101EA0004D07ED0E02FA05F3CE1000F1200555F8AE
:101EB00026504E07F70E0F26BE40B543CF1000F157
:101EC000200646F82750CE1000F1200555F8265080
:101ED00045EA0304CE1000F1200545F82640F0BD88
:101EE00041837047018370472DED028B82B002E081
:101EF000642004F06BFBFFF76FF80028F8D1C94AA3
:101F0000A2F10C01101DFFF77DF8C748C54B103B2F
:101F1000C64AC7490090C74803F080F9C34AC4497C
:101F2000C548FEF7E3FDC24890ED000AC34880EDC6
:101F3000000AC34880ED000AC24880ED000ABC4890
:101F400090ED010ABD4880ED010ABD4880ED010A0F
:101F5000BC4880ED010AB64890ED020AB74880ED12
:101F6000020AB74880ED020AB64880ED020A03F083
:101F70003FF956E1AB4AA2F10C01101DFFF742F800
:101F8000A948A84B103BA94AA9490090A94803F0C9
:101F900045F9AB4890ED000AAA4880ED000AA74831
:101FA00090ED000AA64880ED000A90ED000AA648D0
:101FB000D0ED000A20EE200AA248D0ED000AA24887
:101FC00090ED011A00EE810A9948D0ED000A9E4872
:101FD00090ED021A00EE810A984880ED000A9848B8
:101FE00090ED010A974880ED010A944890ED010AAE
:101FF000934880ED010A90ED010A9348D0ED000A64
:1020000020EE200A8F48D0ED010A8F4890ED011A8A
:1020100000EE810A8648D0ED010A8B4890ED021A45
:1020200000EE810A854880ED010A854890ED020A9C
:10203000844880ED020A814890ED020A804880EDD4
:10204000020A90ED020A8048D0ED000A20EE200A34
:102050007C48D0ED020A7C4890ED011A00EE810A1E
:102060007348D0ED020A784890ED021A00EE810A1A
:10207000724880ED020A6D4B02466E499FED730A6D
:102080006D48FEF79FFE724B1A1F111F6A4803F03E
:1020900033F86F48083890ED000ADFED6E0A30EE35
:1020A000200A80ED000A90ED010ADFED6A0A30EEA9
:1020B000200A80ED010A90ED020ADFED660A30EE9B
:1020C000200A80ED020A90ED000A6348D0ED000A74
:1020D00030EE600ADFED610AB4EEE00AF1EE10FACC
:1020E00005D25F480068401C5D49086014E058480C
:1020F000083890ED000A5848D0ED000A30EE600A2A
:10210000DFED580AB4EEE00AF1EE10FA04DD5448AF
:102110000068401E524908604D48083890ED010A99
:102120004D48D0ED010A30EE600ADFED4C0AB4EE06
:10213000E00AF1EE10FA05D249484068401E4849CD
:10214000486014E04248083890ED010A4248D0ED5A
:10215000010A30EE600ADFED430AB4EEE00AF1EE68
:1021600010FA04DD3E484068401C3D49486038484C
:10217000083890ED020A3848D0ED020A30EE600AC5
:10218000DFED360AB4EEE00AF1EE10FA05D234487B
:102190008068401E3249886014E02D48083890ED70
:1021A000020A2D48D0ED020A30EE600ADFED2D0A5A
:1021B000B4EEE00AF1EE10FA04DD29488068401C14
:1021C000274988602248083890ED000A224880EDAF
:1021D000000A1F48083890ED010A1F4880ED010AE7
:1021E0001B48083890ED020A1B4880ED020ADFED1B
:1021F0001E0A9FED1E0A1E4800F0E2F8B0EE408A6B
:102200009FED191ADFED1B0AFFF7AAFDBCEEC00A0D
:1022100010EE104A2146184800F0F7FC012004F0A7
:10222000D5F9A7E62C09002040090020B0090020BC
:10223000A409002098090020BC0900208C09002076
:102240008009002074090020047200086F12833A8C
:10225000BC080020DA0F4940C0080020C3F5C8C000
:10226000CC080020C3F5C840000000000000204258
:10227000D80800200080ED4400440140014890F857
:1022800028007047CC09002000BFFEE71CB50121E3
:10229000802000F0FDF80121102000F0F9F8012065
:1022A0008DF8040000208DF8060001208DF807004D
:1022B00000208DF805004FF48050009069461048CA
:1022C000FFF7A3FD4FF40060009069460C48FFF74C
:1022D0009CFD4FF48060009069460948FFF795FD2A
:1022E0004FF480510648FFF7FBFD4FF400610448AE
:1022F000FFF7F6FD4FF480610148FFF7F1FD1CBDCB
:10230000001C024000BFFEE77047000070B50021CE
:1023100000230F22C4781CB3174C246804F4E06433
:10232000C4F5E064C4F30721C1F10404E3B20A4137
:1023300044789C40E1B28478144021430C07210E7C
:102340000E4C05786155047804F01F050124AC405B
:1023500005786D11AD0005F1E025C5F8004109E0F3
:10236000047804F01F050124AC40054D0678761171
:1023700045F8264070BD00000CED00E000E400E0F0
:1023800080E100E002490143024A11607047000009
:102390000000FA050CED00E000B9704791ED001A5D
:1023A00080ED001A91ED011A80ED011A91ED021AEB
:1023B00080ED021A80ED030AC0ED040A00BFECE7CD
:1023C00010B52DED028B0446B0EE408AF0EE608A27
:1023D00084ED0F8A94ED0A0A84ED0B0A94ED090A44
:1023E00084ED0A0A38EE680A84ED090AC4ED108A01
:1023F00094ED000AD4ED090A20EE200A84ED050AC6
:1024000094ED060AD4ED010A94ED091A00EE810A52
:1024100084ED060A94ED0D0A84ED0E0A94ED0C0A83
:1024200084ED0D0A94ED090AD4ED0A0A30EE600A33
:1024300084ED0C0A94ED020AD4ED0C0A20EE200A79
:1024400084ED070A94ED041AF0EE410A94ED061AA1
:10245000B0EE410A02F0BAFF84ED060A94ED061AC6
:10246000D4ED051A31EE211AD4ED071A31EE211AF6
:10247000B0EE410A94ED031AF0EE410A02F0A6FF15
:1024800084ED080A94ED080ABDEC028B10BD000033
:1024900029B1064A12680243044B1A6004E0034A59
:1024A00012688243014B1A607047000030380240C6
:1024B00029B1064A12680243044B1A6004E0034A39
:1024C00012688243014B1A60704700004038024096
:1024D00029B1064A12680243044B1A6004E0034A19
:1024E00012688243014B1A60704700004438024072
:1024F000F0B5002100220024022500260223324FDD
:102500003F6807F00C0121B1042905D0082937D113
:1025100005E02E4F076036E02D4F076033E02A4F6D
:102520003F1F3F68C7F38056274F3F1F3F6807F0A4
:102530003F036EB1264FB7FBF3F7DFF88CC0ACF169
:10254000040CDCF800C0CCF3881C07FB0CF40CE096
:102550001E4FB7FBF3F7DFF870C0ACF1040CDCF8EA
:1025600000C0CCF3881C07FB0CF4174F3F1F3F68DB
:10257000C7F301477F1C7D00B4FBF5F7076002E05D
:10258000124F076000BF00BF0F4F3F6807F0F00118
:102590000909104F7A5C0768D74047600A4F3F68C7
:1025A00007F4E051890A0B4F7A5C4768D74087608F
:1025B000054F3F6807F46041490B064F7A5C476856
:1025C000D740C760F0BD0000083802400024F40086
:1025D000001BB700140000202DE9F04786B08046AC
:1025E0000C4615461E46DDE90E79CDF80490002014
:1025F0008DF80C008DF80D0008208DF80E00200AD3
:102600008DF80F008DF81040290A8DF811108DF803
:102610001250310A8DF813108DF81460390A8DF8B4
:1026200015108DF8167001A94046FFF776F982461D
:1026300000BF0AF0FF014046FFF702FA0028F8D079
:1026400006B0BDE8F087000000B587B00121022088
:10265000FFF71EFF01210803FFF73AFF012108469B
:10266000FFF716FF01208DF8180000208DF81A00E2
:1026700001208DF81B008DF81900059005A92D4843
:10268000FFF7C3FB1020059005A92B48FFF7BDFB02
:1026900002208DF8180000208DF81A0001208DF816
:1026A0001B0003208DF819001820059005A921486A
:1026B000FFF7ABFB8020059005A91F48FFF7A5FB9E
:1026C000052203211B48FFF7E8FB052204211948D6
:1026D000FFF7E3FB052207211748FFF7DEFB002089
:1026E000ADF800004FF48270ADF802000020ADF8A4
:1026F00004000220ADF806000120ADF808004002F9
:10270000ADF80A003820ADF80C000020ADF80E003E
:102710000A20ADF810006946084800F037F800219B
:10272000064800F00DF80121044800F015F807B044
:1027300000BD0000000402400000024000300140E3
:1027400021B1028842F40052028004E002884DF672
:10275000FF731A400280704721B1028842F04002A4
:10276000028004E002884FF6BF731A40028070476F
:102770000246002013890B400BB1012000E000202D
:1027800070470146888970478181704710B50022E3
:10279000028802F441520B884C8823438C882343DF
:1027A000CC8823430C8923434C8923438C892343BE
:1027B000CC8923431A430280838B4FF2FF7423405A
:1027C00083830B8A038210BD70B504460D4600BF9B
:1027D00002212046FFF7CCFF0028F9D029462046E9
:1027E000FFF7D2FF00BF01212046FFF7C1FF0028FD
:1027F000F9D02046FFF7C5FFC0B270BD0CB5002070
:10280000019000903448006840F4803032490860FC
:1028100000BF3148006800F4003000900198401C6F
:102820000190009818B90198B0F5A04FF1D12A484D
:10283000006800F4003010B10120009001E0002099
:1028400000900098012846D123484030006840F0AD
:1028500080502149403108602048006840F44040E1
:102860001E4908601C48083000681B490831086090
:102870000846006840F4004008600846006840F4DC
:10288000A05008601648091F0860081F006840F043
:102890008070091F086000BF0F48006800F00070DA
:1028A0000028F9D040F205700E4908600A48083047
:1028B000006820F0030008490831086008460068F5
:1028C00040F00200086000BF03480830006800F0D4
:1028D0000C000828F8D10CBD003802400070004000
:1028E0000C544007003C024010B500BF502080F35C
:1028F0001188BFF34F8FBFF36F8F00BF04F02CFA26
:1029000018B14FF080500449086000BF002080F3E8
:10291000118800BF10BD000004ED00E010B515489F
:10292000006840F47000134908601348006840F0E4
:1029300001001149086000200F49083108600E4865
:1029400000680E4908400C4908600D48091D0860E0
:10295000081F006820F48020091F08600020064935
:102960000C310860FFF74AFF4FF0006001498039E1
:10297000086010BD88ED00E000380240FFFFF6FE61
:102980001030002410B50121044800F0CBF80128D4
:1029900003D10121014800F0B3F810BD000400404C
:1029A00000B58BB001210420FFF782FD0121082032
:1029B000FFF76EFD4FF48040099002208DF828004B
:1029C00000208DF82A0001208DF82B0003208DF8BF
:1029D000290009A91A48FFF718FA02220E211848FF
:1029E000FFF75BFA0F20ADF8180045F207200790BB
:1029F0000020ADF82000ADF81A0006A9114800F03B
:102A00000BF96020ADF804000020ADF810000120A3
:102A1000ADF8060001A90B4800F09EF8082109480E
:102A200000F0EAF80121074800F05EF801210548AE
:102A300000F069F80021034800F0E9F80BB000BD90
:102A4000000C02400008004010B50121234800F0AE
:102A500069F848B12248007800F0400020B12048D1
:102A60000078401C1E49087002211C4800F05AF8EA
:102A700078B31B48007800F0400078B1184800781F
:102A800040F0800016490870144800F048F81549D5
:102A900008600021114800F056F81AE000201049A3
:102AA00008700846007840F04000087000200D498A
:102AB00008600021094800F026F80021074800F0CE
:102AC000A8F80221054800F03EF80121034800F073
:102AD0001AF80321014800F013F810BD000C004063
:102AE000CC000020C800002021B1028842F0800202
:102AF000028004E002884FF67F731A40028070471C
:102B0000CA430282704721B1028842F0010202806A
:102B100004E002884FF6FE731A40028070470146B7
:102B2000486B704730B50246002000230024158A08
:102B300005EA0103958905EA010413B10CB10120EE
:102B400000E0002030BD0A460021018C4FF6FD73E5
:102B5000194011430184704770B5002400220023FE
:102B6000058C4FF6FF6635400584028C8388848B84
:102B70004FF68F752C404FF6FC752C400D882C437A
:102B80004FF6FF552A408D894FF6FF7606EA052558
:102B90002A434D8806EA05252A43154DA84202D04E
:102BA000144DA8421DD14FF2FF752A40CD894FF632
:102BB000FF7606EA05252A434FF6FF352A408D8821
:102BC00006EA05252A434EF6FF752B404DF6FF75A4
:102BD0002B400D8A06EA05152B434D8A06EA05159A
:102BE0002B43838084838D68C563028470BD00009D
:102BF00000000140000401400A460021818B4FF68D
:102C0000F773194011438183704741637047C16373
:102C1000704741627047000000220288184B9842BA
:102C20000ED0184B98420BD0B0F1804F08D0164B05
:102C3000984205D0154B984202D0154B984204D1CA
:102C40004FF68F731A404B881A43124B984207D0A5
:102C5000114B984204D04FF6FF431A400B891A4398
:102C600002804B68C3620B880385054B984202D0F3
:102C7000044B984201D18B7A0386012383827047EB
:102C80000000014000040140000400400008004032
:102C9000000C0040001000400014004038B540F225
:102CA0002441164800F0F3F8F0B100211448FEF773
:102CB00097FF12480088C0B2009010488088C0B2C8
:102CC00000900F48FEF797FFC0F1140084B222462F
:102CD0000C490D48FFF76EF80C490948FEF766FFEE
:102CE0000B490748FEF762FF14210548FEF7B4FFC1
:102CF00001210348FEF774FF38BD000000100140B9
:102D000040640240F8090020900600200080201056
:102D10000020081000B597B001211020FFF7D8FB64
:102D200001210846FFF7B4FB01210220FFF7B0FBA9
:102D300001218805FFF7ACFB072209214348FFF773
:102D4000ACF8072211464248FFF7A7F802208DF899
:102D50001C0000208DF81E0002208DF81D000120AF
:102D60008DF81F004002069006A93848FFF74DF87D
:102D70008020069006A93648FFF747F84FF4E13067
:102D800002900020ADF80C00ADF80E00ADF8100078
:102D90000C20ADF812000020ADF8140002A92D4857
:102DA00000F0C4F801212B4800F05CF8012240F249
:102DB0002441284800F095F825208DF804000020D3
:102DC0008DF805008DF8060001208DF8070001A898
:102DD000FFF79CFA4FF0006008901E48001D099014
:102DE0001D480A9040200B9032200C9000200D903E
:102DF0004FF480600E9000200F90109011904FF4CF
:102E00008030129000201390032014900020159021
:102E1000169008A91148FEF7F3FE4FF000600890E5
:102E200000200B900E480A9008A90C487838FEF74D
:102E3000E7FE01228021074800F020F8012240210E
:102E4000044800F01BF817B000BD0000000002406D
:102E50000004024000100140C7000020B864024096
:102E6000F809002021B1828942F40052828104E0F5
:102E700082894DF6FF731A40828170471AB1838AA6
:102E80000B43838202E0838A8B438382704770B551
:102E90000246002400230025002040F66A16B142B5
:102EA00000D100BFC1F3421501F01F03012606FA4D
:102EB00003F3012D02D19689334006E0022D02D1A1
:102EC000168A334001E0968A33400C12012606FA36
:102ED00004F41688344013B10CB1012000E0002046
:102EE00070BDF0B50346002400260025002040F602
:102EF0006A17B94200D100BF1846C1F3421401F06D
:102F00001F06012707FA06F5012C01D10C3004E059
:102F1000022C01D1103000E014301AB107682F43A1
:102F2000076002E00768AF430760F0BD2DE9FF4787
:102F300005460E460024A14600BFA046B08900B158
:102F400000BF2C8A24F44054F08804432C82AC89BE
:102F500041F20C608443B088318908437189084389
:102F60000443AC81AC8A24F44074B0890443AC823D
:102F70006846FFF7BDFA2048854202D01F488542C7
:102F800002D1DDF80C9001E0DDF80890A88900F48A
:102F9000004040B109EBC90000EB0910316849005D
:102FA000B0FBF1F707E009EBC90000EB091031684D
:102FB0008900B0FBF1F76420B7FBF0F004012009B1
:102FC000642101FB1078A88900F4004040B1322050
:102FD00000EBC800B0FBF1F000F00700044308E08C
:102FE000322000EB08106421B0FBF1F000F00F007C
:102FF00004432C81BDE8FF8700100140001401400C
:1030000000BFFEE703B401984100009850EAC120D8
:1030100018BF04204A0D18BF40F0010040F2FF72B3
:10302000B2EB515F08BF40F00200012808BF052045
:1030300002B070474100080218BF04200A0E18BFF2
:1030400040F001004FF07F4232EA010108BF40F03A
:103050000200012808BF05207047000010B54FF09E
:103060000E402DED028BB0EE408A18EE104A00EBB8
:103070004400B0F1506F4AD84FF0FC40B0EB440F21
:1030800022D2B0EEC80AF7EE000A30EEC00AF6EE21
:10309000000A60EE208A18EE900A03F005F901EEAE
:1030A000100A14F0004F1DBFDFED2D0A9FED2D0A11
:1030B000B1EE411ADFED2C0A08BF9FED2C0AF8EEA5
:1030C000001A21EE218A05E0DFED290A68EE088A60
:1030D000B0EE600A9FED271ADFED271A30EE080ADE
:1030E00048EE811A9FED251A08EEA11ADFED241A89
:1030F00048EE811A9FED231A08EEA11A68EE281AED
:10310000BDEC028B01EE810A30EE200A10BD4FF0BB
:10311000E440B0EB440F0CD918EE100AFFF78AFF19
:10312000042808BF00F086FBB0EE480ABDEC028B15
:1031300010BD4FF07F40B0EB440F07D2B0EE480A0D
:10314000BDEC028BBDE8104000F066BB012000F032
:1031500089FBBDEC028BBDE8104000F063BB0000B2
:103160000000C9BF22AAFDB90000C93F22AAFD394B
:103170000000000024FE1C3DC78AD83C1E67383D75
:103180001B93993DAFAA2A3E70B59B482DED020BCB
:103190002DED068B079D25F00044A04218DC9748D2
:1031A000844202DC0AD1069840B19DED060BBDECCD
:1031B000068B02B0BDE8704000F013BB002DCCBF01
:1031C0009FED8F0B9FED900BBDEC068B02B070BD99
:1031D0008F48A04215DD8F48A042D8BF4FF0FF3482
:1031E00058DD9DED060B51EC100BFFF70BFF04288B
:1031F00008BF00F001FB9DED060BBDEC068B02B095
:1032000070BD9DED060B51EC100B01F069FFCDE98F
:10321000060181489FED828BA0423CDD8248A0429E
:103220001FDD00249FED82AB9DED060B53EC1A2BA6
:1032300051EC100BFDF740F99DED060B41EC190B1D
:1032400053EC1A2B51EC100BFDF7DDF953EC182B56
:10325000FDF7D3F953EC192BFDF749FBCDE9060136
:1032600049E09DED060B012453EC182B51EC100B9B
:10327000FDF722F99DED060B41EC190B53EC182BD1
:1032800051EC100BFDF7B9F953EC192BFDF72FFB9F
:10329000CDE906012FE06848A0421FDD02249FED22
:1032A000689B9DED060B53EC192B51EC100BFDF7B1
:1032B000AAF953EC182BFDF7FFF89DED060B41EC36
:1032C000180B53EC192B51EC100BFDF796F953EC3E
:1032D000182BFDF70CFBCDE906010CE09DED060B6C
:1032E000032453EC102B9FED580B51EC100BFDF702
:1032F000FEFACDE906019DED060B53EC102B51ECC7
:10330000100BFDF780F941EC180B53EC182BFDF76F
:103310007AF941EC190B4E480621B0EE490AF0EE5D
:10332000690A784400F0E1F953EC182B51EC100BCA
:10333000FDF769F941EC180B4648B0EE490AF0EE8A
:10334000690A0521784400F0D0F953EC192B51ECAF
:10335000100BFDF758F941EC100B51EC180B53EC26
:10336000102B002C0EDAFDF7A7F89DED061B53EC91
:10337000112BFDF748F99DED061B53EC112BFDF7C2
:103380003FF935E0FDF798F89DED061B53EC112B46
:10339000FDF739F941EC100B2F48784400EBC400DD
:1033A00090ED001B51EC100B53EC112BFDF725F9A0
:1033B0009DED061B53EC112BFDF71FF941EC100B93
:1033C0002648784400EBC40090ED001B51EC100B34
:1033D00053EC112BFDF714F941EC100B002DA2BF9B
:1033E000BDEC068B02B070BD51EC100B81F00041BA
:1033F00041EC100B01E70000000010440000F07FDA
:10340000182D4454FB21F93F182D4454FB21F9BFDA
:103410000000DC3F0000203E0000F33F0000000001
:10342000000000000000F03F0000E63F0000000048
:103430000000000000000040008003400000000089
:10344000000000000000F83F000000000000F0BF96
:103450008247000038470000C24600007A4600005C
:1034600010EE100A10B510EE901A4FF0684202EB01
:1034700040032DED028BB3F1654F3CBF02EB4102DF
:10348000B2F1654F7CD200BFC0F3C753C1F3C7523E
:103490009A1A1B2A09DD10F0004F14BF9FED6E0A27
:1034A0009FED6E0ABDEC028B10BD12F11A0F1BDAF4
:1034B00011F0004F09D010F0004F0CBF9FED680ACB
:1034C0009FED680ABDEC028B10BD80EE208A18EEDD
:1034D000100AFFF7AFFD042808BF00F0ABF9B0EE0B
:1034E000480ABDEC028B10BD4200B2EB410F37D948
:1034F00010F0004F19BFDFED5C1A9FED5C1ADFED95
:103500005C1A9FED5C1AB0EE602A0A46F1EE400AA2
:1035100080F00041B0EE420A10460A1A5200B2F1A1
:10352000807F34D2484010F0004FDFED532A9FEDEA
:10353000533A1DBFBEEE002A71EEE21A31EE431A75
:10354000B6EE002A04BF71EEA21A31EE031AF0EEB5
:10355000402A42EE602A40EE020A82EEA02A18E0DB
:1035600011F0004F04BF9FED461AF0EE411AD4D07F
:1035700010F0004F1CBFDFED431A9FED431A00E02F
:1035800026E004BFDFED411A9FED411AC5E780EE4A
:10359000202A22EE020ADFED3F0ADFED3F2ABDECD2
:1035A000028B40EE202ADFED3D0A40EE220ADFEDDD
:1035B0003C2A40EE202ADFED3B0A40EE220A22EEB2
:1035C000000A00EE201A31EE020A30EE210A10BD88
:1035D0004FF07F42B2EB400F28BFB2EB410F05D254
:1035E000BDEC028BBDE8104000F019B940EA0103C0
:1035F0005B0008BF41F0FF410BD0B2EB400F08BFAA
:10360000B2EB410F08D120F0804000EE100A21F00B
:10361000804100EE901A37E7B2EB400F12BF5FEA2D
:10362000410240F0FF4001F000413FF42DAF4A005D
:1036300092EA40033FF528AF002AACBF9FED1A1A6B
:103640009FED1A1A20EE010A60EE810A10EE100AB0
:1036500010EE901A18E70000DB0FC9BFDB0FC93F5F
:10366000DB0F4940DB0F49C00000C9BF22AAFDB9EA
:103670000000C93F22AAFD390060ED3EC30ACE37E3
:1036800000000000000049C022AA7DBA00004940A5
:1036900022AA7D3A2DAD65BD8FB8D53D0FB511BEBF
:1036A00061C84C3EA8AAAABE0000804F0000802F2F
:1036B00010B52DED028BB1EEC08A18EE100A20F085
:1036C0000040C0F1FF40C00F0AD010EE100A20F0F9
:1036D0000040C0F1FF40C00F04BF012000F0C2F85D
:1036E000B0EE480ABDEC028B10BD70B504462DED5E
:1036F000028B4D1E00EBC500B0EE408AF0EE608AF2
:1037000090ED000B35F0060017D053EC182B51EC60
:10371000100BFCF778FF41EC100B6D1E04EBC5009D
:1037200090ED001B51EC100B53EC112BFCF7C4FE79
:1037300041EC100B35F00600E7D1022D36D0042DF8
:103740001CD0062D1CBFBDEC028B70BD53EC182B9A
:1037500051EC100BFCF757FF94ED0A1B53EC112BA7
:10376000FCF7AAFE53EC182BFCF74DFF94ED081B59
:1037700053EC112BFCF7A0FE41EC100B53EC182B73
:1037800051EC100BFCF73FFF94ED061B53EC112B93
:10379000FCF792FE53EC182BFCF735FF94ED040B6D
:1037A00053EC102BFCF788FE41EC100B53EC182B5C
:1037B00051EC100BFCF727FF94ED021B53EC112B7F
:1037C000FCF77AFE53EC182BFCF71DFF94ED001B61
:1037D00053EC112BFCF770FEBDEC028B41EC100B8F
:1037E00070BD10B553EC102B51EC100BFCF764FEC0
:1037F00041EC100B10BD00009FED050B10B553EC14
:10380000102B51EC100BFCF7FEFE41EC100B10BD21
:10381000000000000000001030EE000A704730EE9B
:10382000200A7047DFED020A80EEA00A7047000010
:10383000000000009FED020A20EE000A7047000021
:103840000000001002E008C8121F08C1002AFAD1C7
:1038500070477047002001E001C1121F002AFBD110
:10386000704700000149086070470000880100208F
:1038700070B52DED028B8AB005460C4616460DB18B
:1038800004B11EB90AB0BDEC028B70BD94ED000A04
:10389000B5EEC00AF1EE10FA0DD194ED010AB5EEC5
:1038A000C00AF1EE10FA06D194ED020AB5EEC00A94
:1038B000F1EE10FA7DD09FED600AB0EE408A002054
:1038C0000790089009900490059006905B4A07CAFB
:1038D00001AB07C395ED010AD5ED030A20EE200ADE
:1038E000D5ED000A95ED021A00EEC10AF0EE000ACD
:1038F00020EE200A8DED070A95ED000AD5ED010AAC
:1039000020EE200AD5ED020A95ED031A00EE810A99
:10391000F0EE000A20EE200A8DED080A95ED000A6F
:1039200020EE000AD5ED030A95ED031A00EE810A98
:10393000F7EE000AB0EE001A51EE000ACDED090ACA
:1039400001AB22463146284600F07AF8D4ED000A51
:1039500060EEA00A94ED011AD4ED011A41EE210A9D
:1039600094ED021AD4ED021A41EE210AB0EE600A7B
:10397000FDF70AFAB0EE408A94ED000A20EE080A3C
:1039800084ED000A94ED010A20EE080A84ED010A94
:1039900094ED020A20EE080A84ED020A94ED010A71
:1039A000DDED090A20EE200AD4ED020A9DED081A89
:1039B00000E03EE000EEC10A8DED040A94ED020A3B
:1039C000DDED070A20EE200AD4ED000A9DED091A6C
:1039D00000EEC10A8DED050A94ED000ADDED080A3E
:1039E00020EE200AD4ED010A9DED071A00EEC10A6F
:1039F0008DED060A96ED000ADDED010A9DED041A33
:103A000000EE810A86ED000A96ED010ADDED020A5C
:103A10009DED051A00EE810A86ED010A96ED020A77
:103A2000DDED030A9DED061A00EE810A86ED020A1D
:103A300000BF00BF26E70000000000003072000851
:103A40002DE9F0412DED048B07460D4614461E4628
:103A50009FED580AB0EE409A9FED560AB0EE408AAC
:103A60009FED540AF0EE408AD4ED000A60EEA00A01
:103A700094ED011AD4ED011A41EE210A94ED021AD7
:103A8000D4ED021A41EE210AB0EE600AFDF77CF98E
:103A9000F7EE000A80EE801AB0EE419AD5ED000AEA
:103AA000B0EE600AFDF707F8F0EE409AD5ED010A96
:103AB000B0EE600AFCF7FFFF79EE809AD5ED020ABE
:103AC000B0EE600AFCF7F7FF39EE800AF0EE408AAC
:103AD0003948D0ED000A79EE600AB0EE600AFCF7D2
:103AE000EAFFB0EE408A9FED350AB4EEC08AF1EEEF
:103AF00010FA06DC9FED320AF4EEC08AF1EE10FAFD
:103B000053DD9FED2C2AB0EE420A9FED2A2AF0EEFB
:103B1000421AB7EE002AF0EE420A9FED262AB0EED6
:103B2000421AB5EEC08AF1EE10FA05DD9FED232AA8
:103B3000C2EE082AB0EE620A9FED222AB4EEC20A53
:103B4000F1EE10FA03D29FED1B2AB0EE420AF5EE19
:103B5000C08AF1EE10FA05DD9FED192AC2EE282A7F
:103B6000F0EE621AB7EE002AB4EEC20AF1EE10FAD5
:103B700003D220EE802AF0EE420AB7EE002AF4EEDD
:103B8000C21AF1EE10FA03D220EEA12AF0EE420A98
:103B90009FED0D2A20EE822AB0EE421A86ED001A21
:103BA00086ED011A86ED021A00BFBDEC048BBDE85C
:103BB000F08100000000000084010020CDCCCC3D4D
:103BC0008FC2F53D9A99993ECDCC4C3E10B52DED66
:103BD000048B86B00446B0EE408AF0EE608AB0EE08
:103BE000419A00200390049005900090019002906B
:103BF000B0EE000AC8EE000AF0EE609AB0EE690A74
:103C0000FCF74DFF8DED030AB0EE000AC8EE800A06
:103C1000F0EE609AB0EE690AFCF741FF8DED040A00
:103C2000B0EE000AC9EE000AF0EE609AB0EE690A42
:103C3000FCF735FF8DED050AB0EE000AC8EE000A6C
:103C4000F0EE609AB0EE690AFDF7B0F88DED000A6B
:103C5000B0EE000AC8EE800AF0EE609AB0EE690A93
:103C6000FDF7A4F88DED010AB0EE000AC9EE000AD6
:103C7000F0EE609AB0EE690AFDF798F88DED020A51
:103C80009DED050ADDED040A20EE200ADDED030AB4
:103C900020EE200ADDED020A9DED011A60EE810A98
:103CA0009DED001A00EE810A84ED000A9DED020AE6
:103CB000DDED040A20EE200ADDED030A20EE200AE5
:103CC000DDED050A9DED011A60EE810A9DED001AF9
:103CD00000EEC10A84ED010A9DED050ADDED010A41
:103CE00020EE200ADDED030A20EE200ADDED020AB7
:103CF0009DED041A60EE810A9DED001A00EE810A26
:103D000084ED020A9DED050ADDED040A20EE200A8D
:103D1000DDED000A20EE200ADDED020A9DED011A1C
:103D200060EE810A9DED031A00EEC10A84ED030ADC
:103D300006B0BDEC048B10BD70B500250024FDF766
:103D4000E7F88020FDF722FA5520FDF71FFA5520ED
:103D5000FDF71CFA0546FDF7D3F89620FDF718F994
:103D6000FDF7D6F88020FDF711FA5520FDF70EFA81
:103D70005520FDF70BFA0546FDF7C2F89620FDF732
:103D800007F9FDF7C5F8B6217E20FDF709FAFDF722
:103D9000B7F85020FDF7F6F8FDF7BAF88020FDF7E8
:103DA000F5F95520FDF7F2F95520FDF7EFF9054635
:103DB000FDF7A6F89620FDF7EBF8FDF7A9F88020AF
:103DC000FDF7E4F95520FDF7E1F95520FDF7DEF99F
:103DD0000546FDF795F89620FDF7DAF81E251E2D0D
:103DE00001D0FF2070BD002434E0FDF791F804EB12
:103DF00044021A4B1A44517804EB4402985CFDF7D4
:103E0000CFF9FDF77DF89620FDF7C2F8FDF780F8B1
:103E100004EB4401114A515C41F08000FDF7B6F912
:103E20005520FDF7B3F95520FDF7B0F90546FDF72C
:103E300067F89620FDF7ACF804EB44000749084406
:103E40004078A84204D004EB440008448078C9E7D5
:103E5000601CC4B2062CC8DB0020C3E7CD000020E4
:103E600010B586B000200190029000900024FDF76C
:103E70004FF88020FDF78AF95520FDF787F9552086
:103E8000FDF784F90090FDF73BF89620FDF780F8E8
:103E9000FDF73EF88020FDF779F95520FDF776F91A
:103EA0005520FDF773F90090FDF72AF89620FDF7ED
:103EB0006FF8FDF72DF8B6217E20FDF771F9FDF7BB
:103EC0001FF85020FDF75EF8FDF722F88020FDF77F
:103ED0005DF95520FDF75AF95520FDF757F9009087
:103EE000FDF70EF89620FDF753F8FDF711F8802046
:103EF000FDF74CF95520FDF749F95520FDF746F936
:103F00000090FCF7FDFF9620FDF742F89DF80000B9
:103F10001E2802D0FF2006B010BD00243AE0FCF7B6
:103F2000F7FF04EB4402894B1A44517804EB440236
:103F3000985CFDF735F9FCF7E3FF9620FDF728F8CC
:103F4000FCF7E6FF04EB4401804A515C41F080003D
:103F5000FDF71CF95520FDF719F95520FDF716F965
:103F60000090FCF7CDFF9620FDF712F804EB44001B
:103F70007649084440789DF80010884205D004EB4B
:103F80004400724908448078C5E75020FCF7FAFFE6
:103F9000601CC4B2042CC2DB002468E0FCF7B8FF4C
:103FA000221D02EB4202694B1A445178221D02EB9A
:103FB0004202985CFDF7F4F8FCF7A2FF9620FCF7AC
:103FC000E7FFFCF7A5FF211D01EB41015F4A515CB2
:103FD00041F08000FDF7DAF85520FDF7D7F85520BD
:103FE000FDF7D4F80090FCF78BFF9620FCF7D0FF8C
:103FF000201D00EB40005549084440789DF8001012
:10400000884206D0201D00EB4000504908448078CB
:1040100081E75020FCF7B6FF062201A91220FCF729
:104020008FFF9DF80500000200B29DF804100843C0
:1040300004EB440103AA22F811009DF807000002D6
:1040400000B29DF80610084304EB440102EB410165
:1040500048809DF80900000200B29DF8081008434E
:1040600004EB440102EB41018880601CC4B2022CC5
:1040700094DBFCF74DFF00216D20FDF791F8FCF774
:104080003FFF9620FCF784FFFCF742FFED20FDF791
:104090007DF85520FDF77AF85520FDF777F8009068
:1040A000FCF72EFF9620FCF773FF9DF8000008B187
:1040B000042030E7FCF72CFFB6217E20FDF770F8D6
:1040C000FCF71EFF5020FCF75DFFBDF90C00BDF9A9
:1040D0001210401A40F25551884210DBBDF90E1003
:1040E000BDF91400081A40F25551884207DBBDF9AA
:1040F0001010BDF91600081AB0F52A7F01DA8020E9
:1041000009E7FCF705FF8020FDF740F85520FDF793
:104110003DF85520FDF73AF80090FCF7F1FE9620A7
:10412000FCF736FFFCF7F4FE8020FDF72FF8552052
:10413000FDF72CF85520FDF729F80090FCF7E0FE7C
:104140009620FCF725FF0020E5E600001C72000821
:1041500038B5002400200090FCF7EAFE69460020F4
:10416000FDF708F8FCF7DCFE9620FCF711FFFCF7E2
:10417000DFFE69460020FCF7FDFFFCF7D1FE96202C
:10418000FCF706FFFCF7D4FEB6211420FDF708F873
:10419000FCF7C6FE5020FCF7F5FEFCF7C9FE6946A9
:1041A0000020FCF7E7FFFCF7BBFE9620FCF7F0FED3
:1041B000FCF7BEFE69460020FCF7DCFFFCF7B0FE12
:1041C0009620FCF7E5FE9DF800000F2801D0FF20A7
:1041D00038BD00242FE0FCF7ABFE04EB4402184B83
:1041E0001A44517804EB4402985CFCF7D9FFFCF7C1
:1041F00097FE9620FCF7CCFEFCF79AFE04EB4401F8
:104200000F4A505C6946FCF7B5FFFCF789FE962023
:10421000FCF7BEFE04EB44000949084440789DF8D1
:104220000010884205D004EB44000549084480781A
:10423000CEE7601CC4B2062CCDDB0020C8E700002E
:10424000DF00002038B5002000900024FCF770FE4D
:1042500069460020FCF78EFFFCF762FE9620FCF713
:1042600097FEFCF765FE69460020FCF783FFFCF72C
:1042700057FE9620FCF78CFEFCF75AFEB621142060
:10428000FCF78EFFFCF74CFE5020FCF77BFEFCF7A2
:104290004FFE69460020FCF76DFFFCF741FE9620BB
:1042A000FCF776FEFCF744FE69460020FCF762FF4F
:1042B000FCF736FE9620FCF76BFEFCF739FE012179
:1042C0003C20FCF76DFFFCF72BFE5020FCF75AFE5C
:1042D00000BFFCF72DFE69463C20FCF74BFFFCF7C6
:1042E0001FFE9620FCF754FE601CC4B29DF800002F
:1042F00000F0020008B90A2CEBDB0A2C01D14020A7
:1043000038BD9DF8000000F0040008B14020F7E738
:104310000020F5E723E0FDF7B1FF114908700846DA
:104320000078FF2817DA002410E042F210710D48DF
:10433000FEF76DFC642002F049F900210948FEF700
:1043400066FC642002F042F9601CC4B204480078A4
:10435000401C8442E9DB4FF4FA7002F037F9DAE7E7
:10436000240000200008004010B50446A06DC0796C
:1043700006287DD2DFE800F0070603047C05FEE096
:1043800000BF00BF00BF94F8000500285CD104F511
:104390009E6000F097FD94ED1B1AF0EE410A04F5C3
:1043A000966090ED101AB0EE410A04F1DC00FEF7C1
:1043B00007F8BDEEC00A10EE100A00B2A4F84800DB
:1043C00094ED1C1AF0EE410A04F5966090ED111A76
:1043D000B1EE411AB0EE410A04F59070FDF7F0FF1E
:1043E000BDEEC00A10EE100A01B24A20015394ED4E
:1043F0001D1AF0EE410A04F5966090ED121AB1EE26
:10440000411AB0EE410A04F5B270FDF7D9FFBDEED6
:10441000C00A10EE100A01B24C20015394ED1E1A8E
:10442000F0EE410A04F5966090ED131AB0EE410AE1
:1044300004F5D470FDF7C4FFBDEEC00A10EE100AFB
:1044400001B24E20015309E00020A4F848000021E9
:104450004A2001534C2001534E20015304F58A6039
:1044600090ED011AF0EE410A603090ED0C1A00E078
:1044700084E0B0EE410A04F50C70FDF7A1FF04F5ED
:104480008A6090ED071AF0EE410A603090ED0D1A47
:10449000B0EE410A04F51D70FDF792FF04F58A6045
:1044A00090ED0D1AF0EE410A603090ED0E1AB0EE6C
:1044B000410A04F52E70FDF783FF04F58A6090ED44
:1044C000131AF0EE410A603090ED0F1AB0EE410A77
:1044D00004F53F70FDF774FF04F58A6090ED041A4F
:1044E000F0EE410A94ED941AB0EE410A04F55070D2
:1044F000FDF766FFBDEEC00A10EE100A01B25020B3
:10450000015304F58A6090ED0A1AF0EE410A94ED29
:10451000A51AB0EE410ACC38FDF752FFBDEEC00A35
:1045200010EE100A01B25220015304F58A6090ED9A
:10453000101AF0EE410A94EDB61AB0EE410A88382E
:10454000FDF73EFFBDEEC00A10EE100A01B2542086
:10455000015304F58A6090ED161AF0EE410A94EDCD
:10456000C71AB0EE410A4438FDF72AFFBDEEC00A73
:1045700010EE100A01B25620015300E000BF00BF48
:1045800010BD000010B52DED088B0446A16DB1F9EA
:104590000100FCF7AAF841EC1B0B9FED3A0B53EC22
:1045A000102BFCF730F841EC1A0BFCF7CFF808EEB3
:1045B000100AA16DB1F90300FCF797F841EC1B0B51
:1045C0009FED300B53EC102BFCF71DF841EC1A0B50
:1045D000FCF7BCF808EE900AA16DB1F90500FCF7F4
:1045E00084F841EC1B0B9FED270B53EC102BFCF7D1
:1045F0000AF841EC1A0BFCF7A9F809EE100A84ED51
:104600000C9AB5EEC08AF1EE10FA0AD0DFED1F0A5F
:10461000B0EE480A04F11000FDF72AFB84ED0A0A07
:1046200007E09FED1B0A84ED0A0A9FED190A84ED4D
:10463000050AF5EEC08AF1EE10FA0AD0DFED130A92
:10464000B0EE680A04F11C00FDF712FB84ED0B0AC2
:1046500007E09FED0F0A84ED0B0A9FED0D0A84ED34
:10466000080A207B032809D194ED0D0AD4ED0C0A29
:104670009FED081A00EEC10A84ED0D0ABDEC088B0F
:1046800010BD0000FA7E6ABC7493683F8FC2753C0F
:10469000000000000AD7233C2DE9F0412DED068BE8
:1046A00006460C469FEDEE0AB0EE408A96ED1A1AC9
:1046B000F0EE410A96ED0D1AB0EE410A06F5F670DD
:1046C000FDF77EFEB1EE400AB0EE408A9FEDE41A9F
:1046D000F0EE480A9FEDE30AFDF72CFBB0EE408AAE
:1046E0009FEDE10AC8EE000A96ED0A0A30EE800A54
:1046F00084ED000A9FEDDC0AC8EE000A96ED0B0A75
:1047000030EE800A84ED040A9FEDD70AC8EE000A55
:1047100096ED0A0A30EE600A84ED010A9FEDD20A96
:10472000C8EE000A96ED0B0A30EE800A84ED050A09
:10473000DFEDCD0A88EE200AD6ED0A0A30EEC00A77
:1047400084ED020ADFEDC80A88EE200AD6ED0B0AD6
:1047500030EEC00A84ED060ADFEDC30A88EE200AB7
:10476000D6ED0A0A30EE200A84ED030ADFEDBE0A18
:1047700088EE200AD6ED0B0A30EEC00A84ED070A57
:10478000002515E104EB850090ED000AB5EEC00AA6
:10479000F1EE10FA71D004F1100000EB850090EDFD
:1047A000000AB5EEC00AF1EE10FA66D004F110006E
:1047B00000EB850090ED000A04EB8500D0ED000AC7
:1047C00080EE201A11EE107A3846FBF7ACFF41EC70
:1047D0001A0BB0EE4A0AF0EE6A0AFEF7D5FCB0EE0C
:1047E000409AF0EE609A51EC190BFBF7AFFF04F121
:1047F000300141F8250004EB8501D1ED000A60EE9F
:10480000A00A04F1100101EB850191ED001A04F1F9
:10481000100101EB8501D1ED001AB0EE600A01EE46
:10482000210A04F1400101EB8500B5EEC00AF1EE6A
:1048300010FA04DBF1EEC00AC0ED000A04E0DFED7F
:10484000880AC0ED000A00BF04EB850090ED000A65
:10485000B5EEC00AF1EE10FA0DD204F1400000EB03
:10486000850090ED000AB1EE400A04F1400000EB33
:10487000850080ED000A99E0FFE704EB850090EDEC
:10488000000AB5EEC00AF1EE10FA58D104F110009A
:1048900000EB850090ED000AB5EEC00AF1EE10FACB
:1048A0004DD004F1100000EB850090ED000AB5EE4C
:1048B000C00AF1EE10FA08DD9FED6C0A04F1300039
:1048C00000EB850080ED000A07E09FED690A04F126
:1048D000300000EB850080ED000A04F1100000EBD1
:1048E000850090ED000AB5EEC00AF1EE10FA0CDD7D
:1048F00004F1100000EB850090ED000A04F1400087
:1049000000EB850080ED000A50E004F1100000EBA0
:10491000850090ED000AB5EEC00AF1EE10FA45D21E
:1049200004F1100000EB850090ED000AB1EE400AA2
:1049300004F1400000EB850080ED000A36E004EB56
:10494000850090ED000AB5EEC00AF1EE10FA1DD018
:1049500004F1100000EB850090ED000AB5EEC00AEE
:10496000F1EE10FA12D19FED3E0A04F1300000EB97
:10497000850080ED000A04EB850090ED000A04F14B
:10498000400000EB850080ED000A0FE09FED340A47
:1049900004F1300000EB850080ED000A9FED300A45
:1049A00004F1400000EB850080ED000A681CC5B2F0
:1049B000042DFFF6E7AE002084F8500000BF48E069
:1049C00004F1300101EB800191ED000A04F12001B6
:1049D00001EB8001D1ED000A30EE200A04F1300134
:1049E00001EB800181ED000A04F1300101EB80014F
:1049F00091ED000ADFED1B0A30EE200A00EB4002C9
:104A000006F58A6101EBC201D1ED010AB4EEE00ABC
:104A1000F1EE10FA16DB04F1300101EB800191EDAB
:104A2000000ADFED100A30EE600A00EB400206F5E6
:104A30008A6101EBC201D1ED010AB4EEE00AF1EEA8
:104A400010FA04D394F85010491C84F85010411CFB
:104A5000C8B20428B4DBBDEC068BBDE8F0810000D1
:104A600000000000CDCCCC3DEE04B53FA60FC93F01
:104A7000A60FC9BF1CB50446E06DD0F8010000EEDA
:104A8000100A694601A8FBF771FCE06DD0F801003F
:104A900000EE900A9FED2F0A04F5F670FDF790FCEA
:104AA00094ED830A84ED0C0A94ED0A0ADDED000A08
:104AB00020EE200AD4ED0B0A9DED011A00EEC10A8A
:104AC00084ED000A94ED0A0ADDED010A20EE200AC9
:104AD000D4ED0B0A9DED001A00EE810A84ED010A67
:104AE00094ED000AD4ED010A30EE600AD4ED0C0A10
:104AF000B6EE001A00EE810A84ED0E0A94ED000A6B
:104B0000D4ED010A30EE200AD4ED0C0AB6EE001AFC
:104B100000EEC10A84ED0F0A94ED000AD4ED010AFB
:104B200030EE600AD4ED0C0AB6EE001A00EEC10AAF
:104B300084ED100A94ED000AD4ED010A30EE200A4B
:104B4000D4ED0C0AB6EE001A00EE810A84ED110ACB
:104B50001CBD00000000000030B58DB004460020F0
:104B60000A900B900C900790089009900490059083
:104B70000690009001900290039000F035FBA06534
:104B800000F02EFBE0659FED430A8DED0A0A9FEDD4
:104B9000420A8DED0B0AB7EE000A8DED0C0AB1EE5C
:104BA000040A8DED070A9FED3C0A8DED080A9FED82
:104BB0003A0A8DED090A9FED390A8DED040A9FED41
:104BC000360A8DED050A9FED340A8DED060A9FED3C
:104BD000340A8DED000A9FED330A8DED010A9FED39
:104BE000320A8DED020A9FED310A8DED030A002590
:104BF00033E005EB051204F1DC0101EB8200DFED8F
:104C0000260A9FED2B0A0AA9FDF7C6FB05EB051244
:104C100004F50C7101EB8200DFED1F0AB0EE080A0B
:104C200007A9FDF7B9FB05EB051204F5507101EB7F
:104C30008200DFED190A9FED1F0A04A9FDF7ACFB06
:104C4000684600EB850090ED000A04F59A6000EBE1
:104C5000850080ED000A681CC5B2042DC9DBB0EEEA
:104C6000000A8DED0A0A9FED0C0A8DED0B0A9FEDEF
:104C7000120A8DED0C0ADFED080AB0EE080A0AA947
:104C800004F5F670FDF788FB0C4820660C49616658
:104C90000DB030BD0000FA450000000000C0DA454C
:104CA000FE656F40CD414140CF02BD40DD068540ED
:104CB000004083460060EA4600009642B4080020A7
:104CC000CC080020816DC97901290AD0022902D0BF
:104CD000032909D102E00221017308E003210173D5
:104CE00005E00521017302E00221017300BF00BF4E
:104CF000017B03290AD1417B022907D10022416EA1
:104D00000A60016E91ED000A80ED0D0A017B41738E
:104D1000704710B50446207B80B1022804D00328D8
:104D200006D0052812D10DE0204600F01FF90DE055
:104D300004F596612046FFF7AFFC07E02046FFF739
:104D400099FE03E0204600F059F800BF00BF10BDF7
:104D500090ED230AF0EE000A20EE200ADFED240A8F
:104D600020EE200ADFED230A20EE200A80ED1B0A48
:104D700090ED290AF0EE000A20EE200ADFED1C0A71
:104D800020EE200ADFED1B0A20EE200A80ED1C0A2F
:104D900090ED2F0AF0EE000A20EE200ADFED140A53
:104DA00020EE200ADFED130A20EE200A80ED1D0A16
:104DB00090ED350AF0EE000A20EE200ADFED0C0A35
:104DC00020EE200ADFED0B0A20EE200A80ED1E0AFD
:104DD000016E91ED000A416ED1ED000AF8EEE00A95
:104DE0009FED051A00EE810A80ED1A0A7047000057
:104DF000DA0F4940DE718A3DDB0FC9401CB504461D
:104E0000E06DD0F8010000EE100A694601A8FBF73A
:104E1000ADFAB6EE000A84ED0C0A94ED0A0ADDED57
:104E2000000A20EE200AD4ED0B0A9DED011A00EED7
:104E3000C10A84ED000A94ED0A0ADDED010A20EEB4
:104E4000200AD4ED0B0A9DED001A00EE810A84EDD4
:104E5000010A94ED000AD4ED010A30EE600AD4EDA7
:104E60000C0AB6EE001A00EE810A84ED0E0A94EDEB
:104E7000000AD4ED010A30EE200AD4ED0C0AB6EE99
:104E8000001A00EEC10A84ED0F0A94ED000AD4ED79
:104E9000010A30EE600AD4ED0C0AB6EE001A00EEFC
:104EA000C10A84ED100A94ED000AD4ED010A30EE37
:104EB000200AD4ED0C0AB6EE001A00EE810A84ED49
:104EC000110A1CBD70B52DED028B044694ED000A4D
:104ED000B0EE408A01251AE0B0EE480AFCF70CFF5C
:104EE000F0EE408A04EB8500D0ED000AB0EE600AD7
:104EF000FCF702FFF4EEC08AF1EE10FA05D204EBE3
:104F0000850090ED000AB0EE408A681CC5B2022D03
:104F1000E2DBB0EE040AB4EEC08AF1EE10FA06DC71
:104F2000B8EE040AB4EEC08AF1EE10FA1BD2B0EE6D
:104F3000040AC0EE080AF0EE608AB0EE680AFCF7D8
:104F4000DBFEB0EE408A00200BE004EB800191ED27
:104F5000000A20EE080A04EB800181ED000A411CE2
:104F6000C8B20228F1DBBDEC028B70BD0146002007
:104F700006E0002301F1480222F81030421CD0B2B2
:104F80000828F6DB7047000010B5002200210EE073
:104F9000031D53F821300468E31A084C34F811401B
:104FA000A34202D380F8281001224B1CD9B2092950
:104FB000EEDB12B9FF2180F8281010BDB4000020EC
:104FC00010B50168491C01600022016860319241FE
:104FD00001DB0021016010BD0146002005E0002337
:104FE0000A1D42F82030421CD0B20928F7DB00200D
:104FF0000860704700B589B008A80121002340224D
:10500000CDE900101CA11F4801F05CFE07A801219A
:1050100000232022CDE900101BA11E4801F052FE02
:1050200006A8032100234FF40072CDE900101AA155
:105030001D4801F047FE05A8042100238022CDE988
:1050400000101AA11C4801F03DFE04A80321002312
:105050004FF48072CDE9001018A11B4801F032FE18
:1050600003A8022100238022CDE9001017A11B48CC
:1050700001F028FE09B000BD6C65645F7461736B5C
:10508000000000004953000862757A7A65725F7407
:1050900061736B0015430008436861737369735F44
:1050A0007461736B00000000091B000872656D6F6E
:1050B00074655F7461736B00256200084759524F35
:1050C0005F7461736B000000E91E0008434B5F547E
:1050D000696D656F75745F7461736B00E11A000828
:1050E00082B0CDE9000121F0004001909DED000B60
:1050F00002B051EC100B70472DE9F04104460D460B
:1051000016461F4614B10DB106B10FB9BDE8F081C6
:10511000D4ED010A94ED031A60EE810A94ED001AB1
:10512000D4ED021A41EE610AB8EE001A60EE810A6F
:10513000B0EE600AFBF797FC86ED000A94ED001ACA
:1051400021EE011AD4ED011A94ED012A01EE821A22
:10515000F7EE001AB0EE002A52EE011AF0EE610AE4
:1051600094ED001AD4ED031A21EE211AD4ED011AA0
:1051700094ED022A01EE821AF0EE001A21EE211AB5
:10518000B0EE410AFBF77BFC85ED000A94ED001AB6
:1051900021EE011AD4ED031A94ED032A01EE821ACE
:1051A000F7EE001AB0EE002A52EE011AF0EE610A94
:1051B00094ED001AD4ED011A21EE211AD4ED021A51
:1051C00094ED032A01EE821AF0EE001A21EE211A64
:1051D000B0EE410AFBF753FC87ED000A00BF95E7EC
:1051E0000048704725000020004870472D0000202F
:1051F0000EB5064A07CA8DE80700DFED050A9FEDE8
:10520000050A69460448FDF7C7F80EBD107200088C
:105210000000C84200007A44D8080020F0B50546D6
:10522000059C00207FE093ED050A00EB4006404F0F
:1052300007EB8606D6ED000A20EE200AD3ED060A1B
:1052400000EB400607EB860696ED011A00EE810A98
:10525000D3ED070A00EB400607EB860696ED021A2F
:1052600000EE810A334E06EB8006D6ED000A30EEE2
:10527000200A05EB800686ED000A93ED010A00EB9B
:1052800040062D4F07EB8606D6ED000A20EE200AD9
:10529000D3ED020A00EB400607EB860696ED011AF5
:1052A00000EE810AD3ED030A00EB400607EB860609
:1052B00096ED021A00EE810A204E06EB8006D6ED2E
:1052C000000A30EE200A01EB800686ED000A94ED1C
:1052D000010A00EB40061A4F07EB8606D6ED000ADE
:1052E00020EE200AD4ED020A00EB400607EB86060A
:1052F00096ED011A00EE810AD4ED030A00EB400698
:1053000007EB860696ED021A00EE810A0D4E06EBBB
:105310008006D6ED000A30EE200A02EB800686ED0C
:10532000000A461CF0B20328FFF67DAFF0BD000076
:105330006C00002050090020900000205C09002033
:1053400048000020680900203CE0FCF797FFFF2898
:105350001CD14FF400611C48FCF7C4FD4FF4FA70F7
:1053600001F034F94FF400611748FCF7B9FD4FF430
:1053700080611548FCF7B6FD4FF4FA7001F026F98C
:105380004FF480611048FCF7ABFD1BE04FF48051F7
:105390000D48FCF7A7FD4FF480610B48FCF7A0FD1A
:1053A0004FF400610848FCF79BFD4FF4FA7001F0E0
:1053B0000DF94FF480510448FCF792FD4FF4FA7058
:1053C00001F004F9C1E70000001C0240B0EE401AF1
:1053D000B4EEE01AF1EE10FA02DDB0EE600A7047AA
:1053E000B1EE600AB4EEC01AF1EE10FA02D2B1EEDC
:1053F000600AF4E7B0EE410AF1E74FF44070FCF7C1
:10540000C1FFFCF743FFFDF71FF9FDF7C9FAFDF7F0
:1054100081FCFBF7F7FEFBF791FFFFF7EBFD01F0D7
:1054200063F900BFFEE7000010B54B780C7843EA43
:105430000424431E03EB430322F83340CB788C78DB
:1054400043EA04231CB2431E03EB430302EBC303F2
:105450001C814B790C7943EA04231CB2431E03EBF5
:10546000430302EBC3035C818C79431E03EB4303CC
:1054700002EBC3031C73431E03EB430302EBC303A2
:10548000B3F9083000EE103AF8EEC00A9FED071AA3
:1054900080EE810AF3EE030A80EE201A431E03EB2E
:1054A000430302EBC30383ED041A10BD00007042F6
:1054B00070B52DED088B04460E4615467078317890
:1054C00040EA0121601E00EB400025F83010F07822
:1054D000B17840EA012001B2601E00EB400005EB0C
:1054E000C00001817079317940EA012001B2601E6B
:1054F00000EB400005EBC0004181B179601E00EB7C
:10550000400005EBC0000173601E00EB400005EB9E
:10551000C000B0F9080000EE100AB8EEC00ADFEDD6
:10552000410A80EE201A601E00EB400005EBC0002F
:1055300080ED041A601E00EB400035F83010601E4C
:1055400000EB400005EBC0004088081AB0F5FA5F98
:105550000DDD601E00EB400005EBC0004069401E01
:10556000611E01EB410105EBC10148611BE0601EBA
:1055700000EB400035F83010601E00EB400005EBFA
:10558000C0004088081A10F5FA5F0CDA601E00EBC4
:10559000400005EBC0004069401C611E01EB410169
:1055A00005EBC1014861611E01EB410105EBC10141
:1055B0004869FBF79AF841EC1B0B9FED1B0B53EC72
:1055C000102BFBF720F841EC190B611E01EB410198
:1055D00035F83100FBF79AF841EC1B0B9FED140BEB
:1055E00053EC102BFBF70FF841EC1A0B53EC192B73
:1055F000FAF762FF41EC180BFBF7A8F8611E01EB0C
:10560000410105EBC1014860601E00EB400035F828
:105610003010601E00EB400005EBC0004180BDEC87
:10562000088B70BD00007042182D4454FB211940B6
:10563000182D4454FB21493F38B505460C462078C7
:1056400006287AD2DFE800F003121C263952A52D75
:1056500005D1002060752078401C207005E00020F6
:1056600020701421601CFAF71CFF69E0617D601C4A
:105670004554607D401C60752078401C20705FE0C0
:10568000617D601C4554607D401C60752078401C25
:10569000207055E0A52D09D12078401C2070617D37
:1056A000601C4554607D401C607505E00020207042
:1056B0001421601CFAF7F5FE42E0FF2D12D0607D48
:1056C000132806DA617D601C4554607D401C6075BE
:1056D0000BE0002060751421601CFAF7E2FE002048
:1056E000207002E02078401C207029E0AA2D14D1FF
:1056F00000200090B4F801000090607D0A2804D1D9
:10570000E11CBDF8000000F0ADFD002020706075C8
:105710001421601CFAF7C5FE0DE0FF21627D501CCC
:105720006075601C8154617D481C6075601C455427
:105730002078401E207003E0FFE70020207000BFAB
:1057400000BF38BD2DE9F04105460E4626480768E2
:1057500026480068001D00F003FE50B92348006889
:1057600090F82C1001208840214909688143204885
:105770000160681CD8B9D6B11E4948681B49096840
:1057800088601A4982680968CA6018490968091D51
:105790008268516015490968091D8160154A1349DD
:1057A00009684A6111460968491C11601AE07C19B0
:1057B0000E4800684460BC4207D20C480168091DCD
:1057C0000D48006800F0F0FD0CE008480168091D74
:1057D0000A48006800F0E8FD09480068844201D2E8
:1057E00007480460BDE8F08110010020FC000020A3
:1057F00014010020200B00200401002000010020E3
:105800002C01002010B5044600F0E8FD3148006886
:10581000401C304908603048006840B92E48046098
:105820000846006801280DD100F0B2F90AE02B48C3
:10583000006838B928480068C06AE16A884201D81F
:105840002548046026480068401C25490860084631
:105850000068206494F82C100120884021490968D0
:10586000084320490860E16A01EB81011E4A02EB0E
:1058700081014868A0608268E260211D82685160F1
:105880008160E16A01EB8101174A02EB81026261EA
:10589000E16A01EB8101144A52F82110491CE26AC5
:1058A00002EB8202104B43F8221000F0C1FD0B48BE
:1058B000006868B108480068C06AE16A884207D297
:1058C0004FF0805009490860BFF34F8FBFF36F8FCF
:1058D00010BD00000C010020FC0000201801002079
:1058E00028010020140100206C0A002004ED00E0D3
:1058F00010B500F073FD10480068D0B90F4800F0F3
:1059000043FD0F4800F040FD0C480E4908600C486C
:105910000D49086000220C210A2001F035F80649E3
:1059200008600846006820B108A10348006800F03C
:10593000F7FD00F07DFD10BD44010020340B002078
:10594000480B00203C01002040010020546D7251A2
:105950000000000010B516E000F040FD0C48C068E3
:10596000C468201D00F0FCFC0A480068401E09497C
:10597000086009480068401E0749086000F058FDAB
:10598000204600F020F8044800680028E4D110BD4B
:105990000C0B00200C0100200801002070B504460B
:1059A0000D46206C70B1216CE0680144E160D4E9DF
:1059B0000210884201D32168E1602846226CE16828
:1059C000FAF756FD70BD10B50446206B00F04EFD91
:1059D000204600F04BFD10BD0146084A12681268CF
:1059E0000AB9012200E000220A600A6822B9034ACB
:1059F0001268D268106800E0002070473C01002067
:105A000030B54FF49633154800F007042CB1C01D93
:105A100020F00700114C041B1B1B0246104C226097
:105A200000240F4D6C60D018083820F007000D4C92
:105A3000206000240B4D2D686C600A4D2D682C6091
:105A40001146441A4C60074C24680C60064D4C68A3
:105A50002C60064D4C682C6030BD00005C0B0020B3
:105A60005001002058010020600100205C0100204E
:105A700000BFFFF76FFF064800680128F9D94FF013
:105A8000805004490860BFF34F8FBFF36F8FF0E77A
:105A90006C0A002004ED00E02DE9F04106460D46B9
:105AA00017469846069C0DB9246000E02760E6631F
:105AB00025640121204600F09BFF84F84C80BDE85E
:105AC000F0812DE9F05F82460F4690469B460A9E84
:105AD0000C9C4FEA8801A522206BFAF7DBFCA8F1A9
