:020000040800F2
:10000000A03A01205D02000845160008C515000849
:100010004116000825090008E92200080000000038
:100020000000000000000000000000009D0100082A
:10003000C513000800000000F9010008D51B0008E6
:1000400077020008770200087702000877020008AC
:10005000770200087702000877020008770200089C
:10006000770200087702000877020008770200088C
:10007000770200087702000877020008770200087C
:10008000770200087702000877020008770200086C
:1000900029090008770200087702000877020008A3
:1000A000770200087702000877020008770200084C
:1000B00077020008711C0008770200087702000828
:1000C000770200087702000877020008770200082C
:1000D00077020008851F00087702000877020008F1
:1000E000770200087702000877020008770200080C
:1000F00077020008770200087702000877020008FC
:100100007702000877020008351D00087702000812
:1001100077020008770200087702000877020008DB
:1001200077020008770200087702000877020008CB
:1001300077020008770200087702000877020008BB
:10014000610A0008770200087702000877020008B9
:10015000770200087702000877020008770200089B
:10016000770200087702000877020008770200088B
:10017000770200087702000877020008770200087B
:100180007702000877020008DFF80CD000F0A8FB27
:10019000004800472F350008A03A01202C4B196871
:1001A0000868B0E8F04F80F30988BFF36F8F4FF015
:1001B000000080F3118870470000000008480068C4
:1001C000006880F308884FF0000080F3148862B65E
:1001D00061B6BFF34F8FBFF36F8F00DF00BF00BF6B
:1001E00008ED00E0DFF80C00016841F470010160E7
:1001F000704700BF88ED00E0EFF30980BFF36F8F19
:10020000134B1A681EF0100F08BF20ED108A20E96A
:10021000F04F106009B44FF0500080F31188BFF325
:100220004F8FBFF36F8F04F0B1FA4FF0000080F3EF
:10023000118809BC19680868B0E8F04F1EF0100F6B
:1002400008BFB0EC108A80F30988BFF36F8F704746
:1002500054000020EFF305807047000006488047F7
:1002600006480047FEE7FEE7FEE7FEE7FEE7FEE79B
:10027000FEE7FEE7FEE7FEE7091C0008890100082B
:10028000DFED3C0A20EE200AFDEEC00AB5EEC00A02
:1002900010EE902AF1EE10FA38BF521E00EE902AAE
:1002A000DFF8D8C0B0EE084AF8EEE00A30EE600A97
:1002B000DFED310A60EE200ABCEEE00A10EE102AF3
:1002C000C2F3080200EE102A02F180030CEB820256
:1002D000B8EE400AC3F308030CEB830330EEC00A08
:1002E000D2ED000A93ED002A93ED011AF1EE601AA7
:1002F000D2ED010A71EE422AF1EE603ADFED200AFA
:1003000031EEA31A21EE203AB0EE001A41EE213A66
:1003100001EE623A62EE842A43EEE02A40EE032ABE
:1003200060EE222A41EEA02A00EE222A81ED002A68
:10033000D3ED001A93ED013AD2ED002A92ED012A95
:1003400071EE833A01EE213A32EE622A63EEA03A70
:1003500041EE423A22EE042A03EE602A00EE232AFE
:1003600020EE021A01EEA01A40EE012AC0ED002A8A
:1003700070470000610B363B00000044FC51000850
:10038000DB0F493C40EA01039B0703D009E008C9A1
:10039000121F08C0042AFAD203E011F8013B00F84A
:1003A000013B521EF9D27047D2B201E000F8012B96
:1003B000491EFBD270470022F6E710B513460A46E5
:1003C00004461946FFF7F0FF204610BD2DE9FE4F09
:1003D000804681EA0300C00F0C46009021F00041E6
:1003E00023F00045B8EB0200A94105D24046214662
:1003F00090461C460B46024623F00040104347D06F
:10040000270DC7F30A00C3F30A510290401A019066
:1004100040286BDAC3F3130040F4801B0098924627
:1004200020B10023D2EB030A63EB0B0B0198594672
:10043000C0F14002504600F02FF906460D465046E6
:100440005946019A00F037F910EB08006141002489
:1004500087EA115284EAE7731A4340D0009A62B3E4
:10046000019A012A4FEA075215DC001B61EB0201D9
:100470004FF0004202EA0752CDE90042001C41F56C
:10048000801132462B4600F06EF903B0BDE8F08FC4
:1004900040462146F9E7001B61EB0201001C41F5D3
:1004A000801300185B412018A2F5001747EB0301E9
:1004B00040EAD570B6196D4111E06D084FEA360675
:1004C00045EAC0754FEA0752001B61EB0201001CB0
:1004D00041F5801149084FEA300000195141324678
:1004E0002B4603B0BDE8F04F00F02EB90098012272
:1004F00040000023D0EB020263EBE073009821463A
:100500004FEAE074B8EB000061EB0401E9E783F027
:1005100000435BE781F0004158E72DE9FE4F81EA97
:10052000030404F0004421F0004100944FF0000B5C
:1005300023F0004350EA01045ED052EA03045BD08A
:10054000C3F30A54C1F30A552C44A4F2F3340194C2
:10055000A0FB0254C1F3130141F48011C3F3130350
:1005600043F4801301FB024400FB034E840A970A04
:1005700044EA815447EA8357A4FB076802958D0A31
:1005800005FB07854FEA932C04FB0C542705029DBD
:100590004FEA065847EA1637B5EB08056EEB070C2D
:1005A000870E920E47EA811742EA8312A7FB0201E7
:1005B000B6EB0B0164EB00042B0D43EA0C335E1821
:1005C00044EB1C50DA465146E7FB0201C5F3130425
:1005D0004FEA0B3343EA14534FEA0432019C43EAD7
:1005E0000603A4F10C040294009CCDE900B400F0D1
:1005F000BAF803B0BDE8F08F00200146F9E70EB568
:10060000C10F80EAE0700844CA07002140F233437A
:100610008DE80E000A460B4600F0A5F803B000BDB9
:100620000EB540F2334102910021CDE900110A4696
:100630000B4600F098F803B000BD00F0004230F027
:1006400000400AD0C10D01F56071C0F3160042EA06
:100650000151C2084007114370470020014670470E
:1006600001F0004330B421F0004150EA010206D00D
:100670000A0DA2F56072C1F31301002A02DC30BC3E
:1006800000207047440F44EAC104C100E01830BCA8
:1006900000EBC25000F021B8202A04DB203A00FA17
:1006A00002F1002070479140C2F1200320FA03F3C9
:1006B000194390407047202A06DBCB17203A41FAB5
:1006C00002F043EAE07306E041FA02F3D040C2F1DF
:1006D000200291400843194670470029A8BF70477F
:1006E000401C490008BF20F00100704710B4B0FA68
:1006F00080FC00FA0CF050EA010404BF10BC704703
:1007000049B1CCF1200421FA04F411FA0CF118BF1C
:10071000012121430843A3EB0C01CB1D4FEA0061EB
:100720004FEA102042BF002010BC704700EBC350BE
:1007300010440029A4BF10BC7047401C490008BFEA
:1007400020F0010010BC704710B5141E73F10004B6
:1007500008DA401C41F1000192185B411A4301D1B3
:1007600020F0010010BD2DE9F04D92469B4611B1DD
:10077000B1FA81F202E0B0FA80F220329046FFF73F
:100780008BFF04460F4640EA0A0041EA0B0153463C
:100790005A46084313D0114653EA010019D0C8F154
:1007A0004002504600F0AEF805460E465046594607
:1007B0004246FFF771FF084305D0012004E02046C0
:1007C0003946BDE8F08D0020054346EAE0762C432B
:1007D00037430A986305E40AA0EB08000022FD0AEB
:1007E00044EA47540A3002D500200146E9E70105F2
:1007F00010196941DDE9084500196941BDE8F04D6E
:10080000A2E72DE9F04D81EA030404F0004B21F04A
:10081000004514464FF0000A23F0004150EA05025B
:1008200020D054EA01021DD0C5F30A570246C5F391
:100830001303C1F31300C1F30A5640F4801543F4C7
:100840008013A7EB0608101BD64608F2FD3873EBA1
:10085000050002D308F1010801E092185B41B8F1EC
:10086000000F03DA00200146BDE8F08D00204FF4B0
:100870008011064684460EE0171B73EB050705D36F
:10088000121B63EB050306434CEA010C49084FEACF
:10089000300092185B4150EA0107EDD152EA0300A3
:1008A00012D082EA040083EA0501084305D0101B38
:1008B000AB4106D20122002306E000224FF00043A4
:1008C00002E06FF0010253101AEB06004CEB0851E6
:1008D00010EB0A0041EB0B01BDE8F04DFFF734BF10
:1008E000064C074D06E0E06840F0010394E807007D
:1008F00098471034AC42F6D3FFF74AFC985A0008E8
:10090000B85A0008202A04DB203A21FA02F000211C
:10091000704721FA02F3D040C2F12002914008430F
:100920001946704700BFFEE700B585B002210D48AB
:1009300000F00CFAA0B102210A4800F02FF96A4633
:100940000021084800F025FB0099091FC8B2064A9B
:100950000DF10B0102F046FE0099C8B200F0D2FC86
:1009600005B000BD006400402005002000B58BB03C
:100970000121082000F02AFF0121480600F036FF7F
:1009800009220021344800F0EFFD092201213248FC
:1009900000F0EAFD02208DF81C0000208DF81E00FA
:1009A0008DF81F0003208DF81D00069006A92A4827
:1009B00000F092FD0320ADF8200000208DF8220009
:1009C00001208DF8230008208DF8240003208DF8E5
:1009D000250000208DF827008DF8280001208DF8D3
:1009E000290000208DF82A008DF826008DF82B00B4
:1009F00008A91A4800F043FA00208DF812008DF87B
:100A0000130001208DF814000020ADF80800ADF8A7
:100A10000A00ADF80C00ADF80E00ADF81000012092
:100A20008DF8150002A800F00DF9012202210B48F3
:100A300000F01CFA14208DF8040001208DF8050048
:100A400000208DF8060001208DF8070001A800F0B5
:100A5000FBFD0BB000BD0000000C02400064004034
:100A600000B585B002210D4800F070F998B102215F
:100A70000A4800F093F86A460021084800F089FA15
:100A80000099C8B2064A0DF10B0102F067FD00990A
:100A9000C8B200F037FC05B000BD0000006800409F
:100AA0004C01002000B58BB00121022000F08EFE29
:100AB0000121880600F09AFE09220521354800F040
:100AC00053FD09220621334800F04EFD02208DF827
:100AD0001C0000208DF81E008DF81F0003208DF8EB
:100AE0001D006020069006A92A4800F0F5FC0320AE
:100AF000ADF8200000208DF8220001208DF82300A1
:100B000008208DF8240003208DF8250000208DF8A2
:100B100027008DF8280001208DF8290000208DF88D
:100B20002A008DF826008DF82B0008A91A4800F03D
:100B3000A6F90F208DF8120000208DF81300012077
:100B40008DF814000020ADF80800ADF80A00ADF8EB
:100B50000C00ADF80E00ADF8100001208DF8150066
:100B600002A800F06FF8012202210B4800F07EF984
:100B700040208DF8040001208DF8050000208DF83C
:100B8000060001208DF8070001A800F05DFD0BB004
:100B900000BD00000004024000680040B1F5007F85
:100BA0003AD00FDC202928D006DC01291CD00429EA
:100BB0001DD0082940D11DE0402921D0B1F5807F0A
:100BC0003AD126E0B1F5004F31D006DCB1F5806FA7
:100BD00025D0B1F5006F2FD124E0B1F5803F12D0C0
:100BE000B1F5003F28D111E0154A826025E00822C6
:100BF000C26022E01022C2601FE0082202611CE0F5
:100C00001022026119E00822426016E010224260C0
:100C100013E00422426010E0042242600DE004224E
:100C200042600AE0002282610422426005E0002264
:100C300082610422426000E000BF00BF70470000F4
:100C40000101010010B50021837A012202FA03F1AB
:100C50003D4A126842F001023B4B1A603A4A1C328C
:100C600012688A43384B1C331A60027BCAB9364A71
:100C70000C3212688A43344B0C331A604288C388A2
:100C800042EA0343304A4032847A42F834300288E0
:100C9000838842EA03432C4A4032847A02EBC4023E
:100CA0005360027B012A19D1274A0C3212680A4389
:100CB000254B0C331A604288038842EA0343224AD8
:100CC0004032847A42F83430C288838842EA03434F
:100CD0001D4A4032847A02EBC4025360C27A3AB9A8
:100CE000194A121D12688A43174B1B1D1A6006E031
:100CF000154A121D12680A43134B1B1D1A60028904
:100D000032B9114A143212688A430F4B14331A60F5
:100D10000289012A06D10C4A143212680A430A4B8E
:100D200014331A60427B012A06D1074A1C3212682A
:100D30000A43054B1C331A60034A126822F0010271
:100D4000014B1A6010BD00000066004070B50446FB
:100D50000D46002660692840002871D0B5F5807FD7
:100D60005CD010DC082D35D006DC012D20D0022D02
:100D700024D0042D72D127E0102D31D0202D35D074
:100D8000402D6BD138E0B5F5004F60D009DCB5F5EA
:100D9000007F49D0B5F5806F4CD0B5F5006F5DD1BF
:100DA0004FE0B5F5803F2DD0B5F5003F56D12FE08F
:100DB000A0682D4900F09CFA064651E0E068032146
:100DC00000F096FA06464BE0E068082100F090FA41
:100DD000064645E0E068102100F08AFA06463FE04A
:100DE0002069032100F084FA064639E020690821D1
:100DF00000F07EFA064633E02069102100F078FA10
:100E000006462DE06068082100F072FA064627E0E9
:100E10006068102100F06CFA064621E0A06901210B
:100E200000F066FA06461BE0A069022100F060FAB5
:100E3000064615E0A069042100F05AFA06460FE0C4
:100E40000FE0A069702100F053FA064608E06068E0
:100E5000042100F04DFA064602E0FFE7002600BF3D
:100E600000E00026304670BD010101001AB143695F
:100E70000B43436102E043698B434361704730B5E4
:100E8000024600200023146824F002041460146851
:100E900044F00104146000E05B1C546804F0010499
:100EA0001CB94FF6FF74A342F6D1546804F0010454
:100EB0000CB900206CE08C79012C04D1146844F04A
:100EC0008004146003E0146824F080041460CC797A
:100ED000012C04D1146844F04004146003E0146849
:100EE00024F0400414600C7A012C04D1146844F0FE
:100EF0002004146003E0146824F0200414604C7A89
:100F0000012C04D1146844F01004146003E0146848
:100F100024F0100414608C7A012C04D1146844F07D
:100F20000804146003E0146824F008041460CC7A08
:100F3000012C04D1146844F00404146003E0146824
:100F400024F0040414608C78A407CD7844EA056486
:100F50000D7944EA05444D7944EA05540D886D1E27
:100F60002C43D461146824F001041460002300E0D1
:100F70005B1C546804F001041CB14FF6FF74A342DB
:100F8000F6D1546804F001040CB1002000E0012007
:100F900030BD10B500F5D87303EB01131B6803F0E7
:100FA00004031372137A53B900F5D87303EB0113DA
:100FB0001B6840F2FF7404EA5353136009E000F524
:100FC000D87303EB01131B686FF0604404EAD3038A
:100FD000536000F5D87303EB01131B6803F00203A1
:100FE000537200F5D87303EB01135B6803F00F0332
:100FF000937200F5D87303EB01135B681B0AD3747B
:1010000000F5D87303EB01139B68D37200F5D87316
:1010100003EB01139B681C0A147300F5D87303EBF0
:1010200001139B681C0C547300F5D87303EB011378
:101030009B681B0E937300F5D87303EB0113DB68F9
:10104000D37300F5D87303EB0113DB681C0A147427
:1010500000F5D87303EB0113DB681C0C547400F526
:10106000D87303EB0113DB681B0E937421B9C368BB
:1010700043F02003C36003E0036943F020030361EE
:1010800010BD10B502460020936803F08063B3F1F1
:10109000806F00D110E0936803F00063B3F1006F3C
:1010A00001D1012008E0936803F08053B3F1805F21
:1010B00001D1022000E00420042874D002F5C0739E
:1010C00003EB00131B6803F0010402F5C07303EB8C
:1010D00000131C600B7A7BB94B7A0C8843EA4453AB
:1010E00002F5C07404EB00142468234302F5C074B5
:1010F00004EB0014236010E00B7A4C6843EAC4034D
:101100004C7A234302F5C07404EB00142468234393
:1011100002F5C07404EB001423608B7A03F00F0314
:101120008B7202F5C07303EB00135B6823F00F04AE
:1011300002F5C07303EB00135C6002F5C07303EBB0
:1011400000135B688C7A234302F5C07404EB00142F
:1011500063608B7B1C064B7B44EA03440B7B44EAB5
:101160000323CC7A234302F5C07404EB0014A3607C
:101170008B7C1C064B7C44EA03440B7C44EA03232F
:10118000CC7B234302F5C07404EB0014E36002F54A
:10119000C07303EB00131B6843F0010402F5C07336
:1011A00003EB00131C6010BD10B50246002321B1F3
:1011B000012907D002290FD109E090681D4C00EAEF
:1011C00004030BE090681C4C00EA040306E09068FE
:1011D0001A4C00EA040301E0002300BF00BF184CD2
:1011E000181BA34216D007DC83B16FF0806018444F
:1011F00070B1022818D111E0B0F5007F10D0114C69
:10120000204448B1B0F5003F0ED10BE002230DE0C1
:1012100000230BE0002309E0002307E0012305E0A1
:10122000012303E0012301E0002300BF00BFD8B287
:1012300010BD0000030000040003000800000310BC
:10124000000100080001FFF7084802F081F864205F
:1012500003F0B8F908E0054802F06EF8034802F020
:101260004FF8012003F0AEF9F5E700001009002067
:101270001CB51C4801F080FE33E01A4801F032FF33
:10128000184801F075FF174801F092FB154801F06E
:1012900050FF144801F082FA4FF400711148B0F980
:1012A0004E00CDE900010F48B0F94C30B0F94A20AA
:1012B000B0F948100C4800F02DFB40F2FF1109482E
:1012C000B0F95600CDE900010648B0F95430B0F944
:1012D0005220B0F95010054800F01CFB052003F027
:1012E00071F9CAE7D00000200068004000640040A7
:1012F0000246002002EA01030BB1012000E00020B9
:101300007047000002490A68091D41F82020704713
:10131000100900200246094B9A4201D2084801E018
:101320000648103801F000531BB1064B0B40C36058
:1013300002E0044B0B4083607047000010640240E1
:10134000006002407D0F7D0F21B1026842F0010272
:10135000026003E0026822F0010202607047014669
:10136000486880B27047000010B500220268134B35
:101370001A40CC680B6823434C6923438C69234390
:10138000CC6923430C6A23434C6A23438C6A23436E
:101390004C6B23438C6B23431A430260426922F057
:1013A0000702D1E90B3423431A4342610B694360BE
:1013B0004B6883608B68C36010BD00003F801CF0E9
:1013C000416070477047B0EE401A80ED001AC0EDE2
:1013D000020AB5EEC01AF1EE10FA08DD90ED010A2E
:1013E000D0ED021A30EE210A80ED010A07E090EDFF
:1013F000010AD0ED021A30EE610A80ED010AB5EE65
:10140000C01AF1EE10FA0DDD90ED010AD0ED001AD0
:10141000B4EEE10AF1EE10FA04DB90ED000A80ED83
:10142000010A11E0B5EEC01AF1EE10FA0CD290EDFF
:10143000010AD0ED001AB4EEE10AF1EE10FA03D879
:1014400090ED000A80ED010A90ED010A704700B9A5
:10145000704743888268D1544288521C4280438836
:101460000288521E934201DD00224280C288521C33
:10147000C280C28803889A4201DDC288C28000BF50
:10148000E6E7F0B507460C46164604B9F0BD002560
:1014900004E0615D3846FFF7DAFF6D1CB542F8DB0A
:1014A00000BFF3E7014609B900207047C88888B13A
:1014B000C888401EC8808B888868C25C8888401CA9
:1014C00088808B880888401E834201DD0020888048
:1014D0001046EAE70020E8E7F0B50A4600210023BD
:1014E000002400BF3DE0012505FA01F3156805EA77
:1014F00003049C4234D105684F000326BE40B54327
:10150000056015794E00B5400668354305601579CC
:10151000012D02D01579022D16D185684F000326C2
:10152000BE40B543856055794E00B5408668354369
:101530008560456801268E40B543456045689679CB
:101540008E40B6B235434560C5684F000326BE40A5
:10155000B543C560D5794E00B540C6683543C56012
:10156000491C1029BFD3F0BDF0B5002300244D075E
:10157000ED0E02FA05F3CE1000F1200555F82650C5
:101580004E07F70E0F26BE40B543CF1000F12006E0
:1015900046F82750CE1000F1200555F8265045EAB0
:1015A0000304CE1000F1200545F82640F0BD41832C
:1015B0007047018370470000014890F82800704789
:1015C0001009002000BFFEE71CB50121802000F0BB
:1015D000FDF80121102000F0F9F801208DF8040039
:1015E00000208DF8060001208DF8070000208DF8FE
:1015F00005004FF48050009069461048FFF76CFFDB
:101600004FF40060009069460C48FFF765FF4FF407
:101610008060009069460948FFF75EFF4FF48051F3
:101620000648FFF7C4FF4FF400610448FFF7BFFF0F
:101630004FF480610148FFF7BAFF1CBD001C024057
:1016400000BFFEE77047000070B5002100230F22A5
:10165000C4781CB3174C246804F4E064C4F5E06457
:10166000C4F30721C1F10404E3B20A4144789C4069
:10167000E1B28478144021430C07210E0E4C05780A
:101680006155047804F01F050124AC4005786D1104
:10169000AD0005F1E025C5F8004109E0047804F04B
:1016A0001F050124AC40054D0678761145F826400B
:1016B00070BD00000CED00E000E400E080E100E01F
:1016C00002490143024A1160704700000000FA0518
:1016D0000CED00E000B9704791ED001A80ED001AA2
:1016E00091ED011A80ED011A91ED021A80ED021AB6
:1016F00080ED030AC0ED040A00BFECE710B52DED44
:10170000028B0446B0EE408AF0EE608A84ED0F8AC8
:1017100094ED0A0A84ED0B0A94ED090A84ED0A0A95
:1017200038EE680A84ED090AC4ED108A94ED000AC7
:10173000D4ED090A20EE200A84ED050A94ED060A8C
:10174000D4ED010A94ED091A00EE810A84ED060A2F
:1017500094ED0D0A84ED0E0A94ED0C0A84ED0D0A49
:1017600094ED090AD4ED0A0A30EE600A84ED0C0A01
:1017700094ED020AD4ED0C0A20EE200A84ED070A4B
:1017800094ED041AF0EE410A94ED061AB0EE410A07
:1017900001F0B6FE84ED060A94ED061AD4ED051AA2
:1017A00031EE211AD4ED071A31EE211AB0EE410ABA
:1017B00094ED031AF0EE410A01F0A2FE84ED080A4E
:1017C00094ED080ABDEC028B10BD000029B1064A59
:1017D00012680243044B1A6004E0034A1268824311
:1017E000014B1A60704700003038024029B1064AA8
:1017F00012680243044B1A6004E0034A12688243F1
:10180000014B1A60704700004038024029B1064A77
:1018100012680243044B1A6004E0034A12688243D0
:10182000014B1A607047000044380240F0B50021B7
:1018300000220024022500260223324F3F6807F0D1
:101840000C0121B1042905D0082937D105E02E4F1C
:10185000076036E02D4F076033E02A4F3F1F3F6897
:10186000C7F38056274F3F1F3F6807F03F036EB115
:10187000264FB7FBF3F7DFF88CC0ACF1040CDCF8B3
:1018800000C0CCF3881C07FB0CF40CE01E4FB7FB28
:10189000F3F7DFF870C0ACF1040CDCF800C0CCF357
:1018A000881C07FB0CF4174F3F1F3F68C7F3014725
:1018B0007F1C7D00B4FBF5F7076002E0124F076064
:1018C00000BF00BF0F4F3F6807F0F0010909104F3C
:1018D0007A5C0768D74047600A4F3F6807F4E051D9
:1018E000890A0B4F7A5C4768D7408760054F3F688D
:1018F00007F46041490B064F7A5C4768D740C760E0
:10190000F0BD0000083802400024F400001BB700BE
:10191000140000202DE9F04786B080460C4615469D
:101920001E46DDE90E79CDF8049000208DF80C00FC
:101930008DF80D0008208DF80E00200A8DF80F009C
:101940008DF81040290A8DF811108DF81250310AC7
:101950008DF813108DF81460390A8DF815108DF874
:10196000167001A94046FFF78CFB824600BF0AF0C3
:10197000FF014046FFF718FC0028F8D006B0BDE88C
:10198000F087000000B587B001210220FFF71EFF9D
:1019900001210803FFF73AFF01210846FFF716FF70
:1019A00001208DF8180000208DF81A0001208DF814
:1019B0001B008DF81900059005A92D48FFF78CFD37
:1019C0001020059005A92B48FFF786FD02208DF811
:1019D000180000208DF81A0001208DF81B0003204C
:1019E0008DF819001820059005A92148FFF774FD0E
:1019F0008020059005A91F48FFF76EFD05220321F1
:101A00001B48FFF7B1FD052204211948FFF7ACFD83
:101A1000052207211748FFF7A7FD0020ADF80000B9
:101A20004FF48270ADF802000020ADF804000220EF
:101A3000ADF806000120ADF808004002ADF80A003C
:101A40003820ADF80C000020ADF80E000A20ADF8EB
:101A500010006946084800F029F80021064800F007
:101A60000DF80121044800F015F807B000BD000092
:101A700000040240000002400030014021B1028811
:101A800042F40052028004E002884DF6FF731A40CF
:101A90000280704721B1028842F04002028004E0D7
:101AA00002884FF6BF731A400280704710B50022BB
:101AB000028802F441520B884C8823438C882343CC
:101AC000CC8823430C8923434C8923438C892343AB
:101AD000CC8923431A430280838B4FF2FF74234047
:101AE00083830B8A038210BD0CB500200190009007
:101AF0003448006840F480303249086000BF314803
:101B0000006800F4003000900198401C019000989B
:101B100018B90198B0F5A04FF1D12A48006800F437
:101B2000003010B10120009001E0002000900098EA
:101B3000012846D123484030006840F080502149B8
:101B4000403108602048006840F440401E49086069
:101B50001C48083000681B490831086008460068C6
:101B600040F4004008600846006840F4A050086057
:101B70001648091F0860081F006840F08070091FA0
:101B8000086000BF0F48006800F000700028F9D01E
:101B900040F205700E4908600A480830006820F0DD
:101BA00003000849083108600846006840F0020058
:101BB000086000BF03480830006800F00C000828E7
:101BC000F8D10CBD00380240007000400C544007B2
:101BD000003C024010B500BF502080F31188BFF3D5
:101BE0004F8FBFF36F8F00BF03F0B2F818B14FF003
:101BF00080500449086000BF002080F3118800BFB6
:101C000010BD000004ED00E010B51548006840F478
:101C10007000134908601348006840F00100114942
:101C2000086000200F49083108600E4800680E491E
:101C300008400C4908600D48091D0860081F00682D
:101C400020F48020091F0860002006490C3108603C
:101C5000FFF74AFF4FF0006001498039086010BD6E
:101C600088ED00E000380240FFFFF6FE103000244F
:101C700010B50121044800F0CBF8012803D101215F
:101C8000014800F0B3F810BD0004004000B58BB06F
:101C900001210420FFF7AAFD01210820FFF796FD8E
:101CA0004FF48040099002208DF8280000208DF824
:101CB0002A0001208DF82B0003208DF8290009A9A6
:101CC0001A48FFF709FC02220E211848FFF74CFCC6
:101CD0000F20ADF8180045F2072007900020ADF85E
:101CE0002000ADF81A0006A9114800F009F960209B
:101CF000ADF804000020ADF810000120ADF806009A
:101D000001A90B4800F09EF80821094800F0EAF804
:101D10000121074800F05EF80121054800F069F84C
:101D20000021034800F0E7F80BB000BD000C0240B2
:101D30000008004010B50121234800F069F848B1BF
:101D40002248007800F0400020B120480078401C74
:101D50001E49087002211C4800F05AF878B31B484D
:101D6000007800F0400078B11848007840F080001A
:101D700016490870144800F048F815490860002119
:101D8000114800F056F81AE0002010490870084683
:101D9000007840F04000087000200D4908600021E4
:101DA000094800F026F80021074800F0A6F80221B3
:101DB000054800F03EF80121034800F01AF803211D
:101DC000014800F013F810BD000C00405000002046
:101DD0004C00002021B1028842F08002028004E021
:101DE00002884FF67F731A4002807047CA4302820E
:101DF000704721B1028842F00102028004E00288AB
:101E00004FF6FE731A40028070470146486B7047D8
:101E100030B50246002000230024158A05EA01039C
:101E2000958905EA010413B10CB1012000E00020FE
:101E300030BD0A460021018C4FF6FD731940114355
:101E40000184704770B5002400220023058C4FF6F2
:101E5000FF6635400584028C8388848B4FF68F752E
:101E60002C404FF6FC752C400D882C434FF6FF5547
:101E70002A408D894FF6FF7606EA05252A434D88CC
:101E800006EA05252A43154DA84202D0144DA84262
:101E90001DD14FF2FF752A40CD894FF6FF7606EA35
:101EA00005252A434FF6FF352A408D8806EA052589
:101EB0002A434EF6FF752B404DF6FF752B400D8AD9
:101EC00006EA05152B434D8A06EA05152B43838048
:101ED00084838D68C563028470BD000000000140EA
:101EE000000401400A460021818B4FF6F773194028
:101EF000114381837047C16370474162704700009E
:101F000000220288184B98420ED0184B98420BD0F2
:101F1000B0F1804F08D0164B984205D0154B98422F
:101F200002D0154B984204D14FF68F731A404B885C
:101F30001A43124B984207D0114B984204D04FF6E7
:101F4000FF431A400B891A4302804B68C3620B8817
:101F50000385054B984202D0044B984201D18B7AFD
:101F60000386012383827047000001400004014082
:101F70000004004000080040000C00400010004039
:101F80000014004038B540F22441164800F0F3F840
:101F9000F0B100211448FFF7D7F912480088C0B209
:101FA000009010488088C0B200900F48FFF7D7F922
:101FB000C0F1140084B222460C490D48FFF761FAC3
:101FC0000C490948FFF7A6F90B490748FFF7A2F9A2
:101FD00014210548FFF7F4F901210348FFF7B4F98C
:101FE00038BD000000100140406402403C09002060
:101FF000D4050020008020100020081000B597B004
:1020000001211020FFF702FC01210846FFF7DEFB4B
:1020100001210220FFF7DAFB01218805FFF7D6FB3B
:10202000072209214348FFF79FFA07221146424839
:10203000FFF79AFA02208DF81C0000208DF81E0090
:1020400002208DF81D0001208DF81F00400206902F
:1020500006A93848FFF740FA8020069006A93648BE
:10206000FFF73AFA4FF4E13002900020ADF80C008F
:10207000ADF80E00ADF810000C20ADF812000020F5
:10208000ADF8140002A92D4800F0C4F801212B4836
:1020900000F05CF8012240F22441284800F095F855
:1020A00025208DF8040000208DF805008DF806002D
:1020B00001208DF8070001A8FFF7C6FA4FF0006075
:1020C00008901E48001D09901D480A9040200B9062
:1020D00032200C9000200D904FF480600E90002074
:1020E0000F90109011904FF48030129000201390B8
:1020F0000320149000201590169008A91148FFF7AE
:1021000033F94FF00060089000200B900E480A90C1
:1021100008A90C487838FFF727F9012280210748E1
:1021200000F020F801224021044800F01BF817B00D
:1021300000BD000000000240000402400010014009
:1021400049000020B86402403C09002021B1828986
:1021500042F40052828104E082894DF6FF731A40F6
:10216000828170471AB1838A0B43838202E0838A9B
:102170008B438382704770B50246002400230025FC
:10218000002040F66A16B14200D100BFC1F34215EB
:1021900001F01F03012606FA03F3012D02D19689EF
:1021A000334006E0022D02D1168A334001E0968AC0
:1021B00033400C12012606FA04F41688344013B199
:1021C0000CB1012000E0002070BDF0B503460024F2
:1021D00000260025002040F66A17B94200D100BF52
:1021E0001846C1F3421401F01F06012707FA06F54D
:1021F000012C01D10C3004E0022C01D1103000E0A0
:1022000014301AB107682F43076002E00768AF4334
:102210000760F0BD2DE9FF4705460E460024A146A4
:1022200000BFA046B08900B100BF2C8A24F44054FE
:10223000F08804432C82AC8941F20C608443B0885E
:1022400031890843718908430443AC81AC8A24F482
:102250004074B0890443AC826846FFF7E7FA20482F
:10226000854202D01F48854202D1DDF80C9001E082
:10227000DDF80890A88900F4004040B109EBC900DE
:1022800000EB091031684900B0FBF1F707E009EBFA
:10229000C90000EB091031688900B0FBF1F7642038
:1022A000B7FBF0F004012009642101FB1078A88934
:1022B00000F4004040B1322000EBC800B0FBF1F068
:1022C00000F00700044308E0322000EB081064210E
:1022D000B0FBF1F000F00F0004432C81BDE8FF8754
:1022E000001001400014014000BFFEE703B4019854
:1022F0004100009850EAC12018BF04204A0D18BFC1
:1023000040F0010040F2FF72B2EB515F08BF40F0B5
:102310000200012808BF052002B07047000000003D
:1023200070B59B482DED020B2DED068B079D25F01A
:102330000044A04218DC9748844202DC0AD1069887
:1023400040B19DED060BBDEC068B02B0BDE87040C0
:1023500000F0CEB9002DCCBF9FED8F0B9FED900B01
:10236000BDEC068B02B070BD8F48A04215DD8F48D2
:10237000A042D8BF4FF0FF3458DD9DED060B51EC65
:10238000100BFFF7B3FF042808BF00F0BDF99DED67
:10239000060BBDEC068B02B070BD9DED060B51EC3B
:1023A000100B01F057F8CDE9060181489FED828BB3
:1023B000A0423CDD8248A0421FDD00249FED82AB9D
:1023C0009DED060B53EC1A2B51EC100BFDF7FEFFA5
:1023D0009DED060B41EC190B53EC1A2B51EC100B35
:1023E000FEF79BF853EC182BFEF791F853EC192BE2
:1023F000FEF707FACDE9060149E09DED060B012441
:1024000053EC182B51EC100BFDF7E0FF9DED060B84
:1024100041EC190B53EC182B51EC100BFEF777F82D
:1024200053EC192BFEF7EDF9CDE906012FE06848D2
:10243000A0421FDD02249FED689B9DED060B53EC2F
:10244000192B51EC100BFEF768F853EC182BFDF725
:10245000BDFF9DED060B41EC180B53EC192B51EC15
:10246000100BFEF754F853EC182BFEF7CAF9CDE920
:1024700006010CE09DED060B032453EC102B9FEDA1
:10248000580B51EC100BFEF7BCF9CDE906019DEDA0
:10249000060B53EC102B51EC100BFEF73EF841EC01
:1024A000180B53EC182BFEF738F841EC190B4E487B
:1024B0000621B0EE490AF0EE690A784400F09CF873
:1024C00053EC182B51EC100BFEF727F841EC180BCE
:1024D0004648B0EE490AF0EE690A0521784400F05A
:1024E0008BF853EC192B51EC100BFEF716F841EC5E
:1024F000100B51EC180B53EC102B002C0EDAFDF7DF
:1025000065FF9DED061B53EC112BFEF706F89DEDC4
:10251000061B53EC112BFDF7FDFF35E0FDF756FFD1
:102520009DED061B53EC112BFDF7F7FF41EC100B53
:102530002F48784400EBC40090ED001B51EC100BC9
:1025400053EC112BFDF7E3FF9DED061B53EC112B14
:10255000FDF7DDFF41EC100B2648784400EBC4008A
:1025600090ED001B51EC100B53EC112BFDF7D2FF3B
:1025700041EC100B002DA2BFBDEC068B02B070BD6C
:1025800051EC100B81F0004141EC100B01E7000011
:10259000000010440000F07F182D4454FB21F93F47
:1025A000182D4454FB21F9BF0000DC3F0000203E01
:1025B0000000F33F00000000000000000000F03FBA
:1025C0000000E63F000000000000000000000040A6
:1025D0000080034000000000000000000000F83F01
:1025E000000000000000F0BFAA35000060350000C8
:1025F000EA340000A234000070B504462DED028BD1
:102600004D1E00EBC500B0EE408AF0EE608A90ED02
:10261000000B35F0060017D053EC182B51EC100BC3
:10262000FDF77BFF41EC100B6D1E04EBC50090ED38
:10263000001B51EC100B53EC112BFDF7C7FE41ECC6
:10264000100B35F00600E7D1022D36D0042D1CD03A
:10265000062D1CBFBDEC028B70BD53EC182B51EC4A
:10266000100BFDF75AFF94ED0A1B53EC112BFDF7ED
:10267000ADFE53EC182BFDF750FF94ED081B53EC07
:10268000112BFDF7A3FE41EC100B53EC182B51EC72
:10269000100BFDF742FF94ED061B53EC112BFDF7D9
:1026A00095FE53EC182BFDF738FF94ED040B53EC1B
:1026B000102BFDF78BFE41EC100B53EC182B51EC5B
:1026C000100BFDF72AFF94ED021B53EC112BFDF7C5
:1026D0007DFE53EC182BFDF720FF94ED001B53EC0F
:1026E000112BFDF773FEBDEC028B41EC100B70BD9E
:1026F00010B553EC102B51EC100BFDF767FE41ECBD
:10270000100B10BD000000009FED050B10B553EC41
:10271000102B51EC100BFDF700FF41EC100B10BD1E
:10272000000000000000001002E008C8121F08C1ED
:10273000002AFAD170477047002001E001C1121F42
:10274000002AFBD17047000023E0FEF735FF114956
:10275000087008460078FF2817DA002410E042F2DB
:1027600010710D48FFF7C7FB642001F02BFF00211B
:102770000948FFF7C0FB642001F024FF601CC4B2CD
:1027800004480078401C8442E9DB4FF4FA7001F001
:1027900019FFDAE7240000200008004010B50446C5
:1027A000A06DC07906287DD2DFE800F0070603049B
:1027B000FE05FAE000BF00BF00BF94F80005002846
:1027C00058D194ED1B1AF0EE410A04F5966090ED95
:1027D000101AB0EE410A04F1DC00FEF78FFFBDEEE7
:1027E000C00A10EE100A00B2A4F8480094ED1C1ABA
:1027F000F0EE410A04F5966090ED111AB1EE411A1F
:10280000B0EE410A04F59070FEF778FFBDEEC00A05
:1028100010EE100A01B24A20015394ED1D1AF0EE99
:10282000410A04F5966090ED121AB1EE411AB0EE2D
:10283000410A04F5B270FEF761FFBDEEC00A10EE6A
:10284000100A01B24C20015394ED1E1AF0EE410A19
:1028500004F5966090ED131AB0EE410A04F5D470B9
:10286000FEF74CFFBDEEC00A10EE100A01B24E207A
:10287000015309E00020A4F8480000214A20015338
:102880004C2001534E20015304F58A6090ED011A4B
:10289000F0EE410A603090ED0C1AB0EE410A04F5FA
:1028A0000C7000E080E0FEF729FF04F58A6090EDEF
:1028B000071AF0EE410A603090ED0D1AB0EE410AB1
:1028C00004F51D70FEF71AFF04F58A6090ED0D1AED
:1028D000F0EE410A603090ED0E1AB0EE410A04F5B8
:1028E0002E70FEF70BFF04F58A6090ED131AF0EEE0
:1028F000410A603090ED0F1AB0EE410A04F53F70C6
:10290000FEF7FCFE04F58A6090ED041AF0EE410A31
:1029100094ED941AB0EE410A04F55070FEF7EEFE05
:10292000BDEEC00A10EE100A01B25020015304F5AA
:102930008A6090ED0A1AF0EE410A94EDA51AB0EE05
:10294000410ACC38FEF7DAFEBDEEC00A10EE100ADE
:1029500001B25220015304F58A6090ED101AF0EE96
:10296000410A94EDB61AB0EE410A8838FEF7C6FE69
:10297000BDEEC00A10EE100A01B25420015304F556
:102980008A6090ED161AF0EE410A94EDC71AB0EE87
:10299000410A4438FEF7B2FEBDEEC00A10EE100A3E
:1029A00001B25620015300E000BF00BF10BD00007F
:1029B00010B52DED088B0446A16DB1F90100FDF7AE
:1029C0001EFE41EC1B0B9FED3A0B53EC102BFDF759
:1029D000A4FD41EC1A0BFDF743FE08EE100AA16DB1
:1029E000B1F90300FDF70BFE41EC1B0B9FED300B23
:1029F00053EC102BFDF791FD41EC1A0BFDF730FE67
:102A000008EE900AA16DB1F90500FDF7F8FD41EC63
:102A10001B0B9FED270B53EC102BFDF77EFD41ECBC
:102A20001A0BFDF71DFE09EE100A84ED0C9AB5EEA7
:102A3000C08AF1EE10FA0AD0DFED1F0AB0EE480AA4
:102A400004F11000FEF7BFFC84ED0A0A07E09FEDD9
:102A50001B0A84ED0A0A9FED190A84ED050AF5EEBA
:102A6000C08AF1EE10FA0AD0DFED130AB0EE680A60
:102A700004F11C00FEF7A7FC84ED0B0A07E09FEDB4
:102A80000F0A84ED0B0A9FED0D0A84ED080A207BE6
:102A9000032809D194ED0D0AD4ED0C0A9FED081A14
:102AA00000EEC10A84ED0D0ABDEC088B10BD0000DC
:102AB000FA7E6ABC7493683F8FC2753C00000000C8
:102AC0000AD7233C2DE9F0412DED068B06460C4636
:102AD00096ED0C0ADFEDEA0A80EE201A96ED0A0A5E
:102AE00031EE000A84ED000A96ED0C0ADFEDE40AEF
:102AF00080EE201A96ED0B0A31EE000A84ED040AEE
:102B000096ED0C0ADFEDDE0A80EE201A96ED0A0A39
:102B100030EE410A84ED010A96ED0C0ADFEDD80A89
:102B200080EE201A96ED0B0A31EE000A84ED050ABC
:102B3000D6ED0C0A9FEDD21A80EE810AD6ED0A0A74
:102B400030EEC00A84ED020AD6ED0C0A9FEDCC1AD5
:102B500080EE810AD6ED0B0A30EEC00A84ED060A3B
:102B6000D6ED0C0A9FEDC61A80EE810AD6ED0A0A50
:102B700030EE200A84ED030A96ED0C0ADFEDC00A60
:102B800080EE201A96ED0B0A30EE410A84ED070A1A
:102B9000002515E104EB850090ED000AB5EEC00AB2
:102BA000F1EE10FA71D004F1100000EB850090ED09
:102BB000000AB5EEC00AF1EE10FA66D004F110007A
:102BC00000EB850090ED000A04EB8500D0ED000AD3
:102BD00080EE201A11EE107A3846FDF72EFD41ECFA
:102BE0001A0BB0EE4A0AF0EE6A0AFFF799FBB0EE54
:102BF000409AF0EE609A51EC190BFDF731FD04F1AB
:102C0000300141F8250004EB8501D1ED000A60EEAA
:102C1000A00A04F1100101EB850191ED001A04F105
:102C2000100101EB8501D1ED001AB0EE600A01EE52
:102C3000210A04F1400101EB8500B5EEC00AF1EE76
:102C400010FA04DBF1EEC00AC0ED000A04E0DFED8B
:102C50008D0AC0ED000A00BF04EB850090ED000A6C
:102C6000B5EEC00AF1EE10FA0DD204F1400000EB0F
:102C7000850090ED000AB1EE400A04F1400000EB3F
:102C8000850080ED000A99E0FFE704EB850090EDF8
:102C9000000AB5EEC00AF1EE10FA58D104F11000A6
:102CA00000EB850090ED000AB5EEC00AF1EE10FAD7
:102CB0004DD004F1100000EB850090ED000AB5EE58
:102CC000C00AF1EE10FA08DD9FED6F0A04F1300042
:102CD00000EB850080ED000A07E09FED6C0A04F12F
:102CE000300000EB850080ED000A04F1100000EBDD
:102CF000850090ED000AB5EEC00AF1EE10FA0CDD89
:102D000004F1100000EB850090ED000A04F1400092
:102D100000EB850080ED000A50E004F1100000EBAC
:102D2000850090ED000AB5EEC00AF1EE10FA45D22A
:102D300004F1100000EB850090ED000AB1EE400AAE
:102D400004F1400000EB850080ED000A36E004EB62
:102D5000850090ED000AB5EEC00AF1EE10FA1DD024
:102D600004F1100000EB850090ED000AB5EEC00AFA
:102D7000F1EE10FA12D19FED430A04F1300000EB9E
:102D8000850080ED000A04EB850090ED000A04F157
:102D9000400000EB850080ED000A0FE09FED390A4E
:102DA00004F1300000EB850080ED000A9FED350A4C
:102DB00004F1400000EB850080ED000A681CC5B2FC
:102DC000042DFFF6E7AE002084F850009FED2D8A19
:102DD000DFED2C8A00BF4CE004F1300101EB8001F3
:102DE00091ED000A04F1200101EB8001D1ED000A10
:102DF00030EE200A04F1300101EB800181ED000A80
:102E000004F1300101EB800191ED000ADFED200AB1
:102E100030EE200AB0EE408A04F1300101EB80016F
:102E200091ED000ADFED1A0A30EE600AF0EE408AFA
:102E300000EB400206F58A6101EBC20191ED010A47
:102E4000B4EEC80AF1EE10FA0CD800EB400206F519
:102E50008A6101EBC20191ED010AB4EEE80AF1EEDC
:102E600010FA04DC94F85010491C84F85010411CEE
:102E7000C8B20428B0DBBDEC068BBDE8F0810000D1
:102E8000EE04B53F00000000A60FC93FA60FC9BF62
:102E9000CDCCCC3D1CB50446E06DD0F8010000EE71
:102EA000100A694601A8FDF7EBF9E06DD0F80100C2
:102EB00000EE900A9FED2F0A04F5F670FEF71EFC57
:102EC00094ED830A84ED0C0A94ED0A0ADDED000A04
:102ED00020EE200AD4ED0B0A9DED011A00EEC10A86
:102EE00084ED000A94ED0A0ADDED010A20EE200AC5
:102EF000D4ED0B0A9DED001A00EE810A84ED010A63
:102F000094ED000AD4ED010A30EE600AD4ED0C0A0B
:102F1000B6EE001A00EE810A84ED0E0A94ED000A66
:102F2000D4ED010A30EE200AD4ED0C0AB6EE001AF8
:102F300000EEC10A84ED0F0A94ED000AD4ED010AF7
:102F400030EE600AD4ED0C0AB6EE001A00EEC10AAB
:102F500084ED100A94ED000AD4ED010A30EE200A47
:102F6000D4ED0C0AB6EE001A00EE810A84ED110AC7
:102F70001CBD00000000000030B58DB004460020EC
:102F80000A900B900C90079008900990049005907F
:102F90000690009001900290039000F06BFAA065FB
:102FA00000F064FAE0659FED430A8DED0A0A9FED9B
:102FB000420A8DED0B0AB7EE000A8DED0C0AB1EE58
:102FC000040A8DED070A9FED3C0A8DED080A9FED7E
:102FD0003A0A8DED090A9FED390A8DED040A9FED3D
:102FE000360A8DED050A9FED340A8DED060A9FED38
:102FF000340A8DED000A9FED330A8DED010A9FED35
:10300000320A8DED020A9FED310A8DED030A00258B
:1030100033E005EB051204F1DC0101EB8200DFED8A
:10302000260A9FED2B0A0AA9FEF754FB05EB0512B1
:1030300004F50C7101EB8200DFED1F0AB0EE080A07
:1030400007A9FEF747FB05EB051204F5507101EBEC
:103050008200DFED190A9FED1F0A04A9FEF73AFB73
:10306000684600EB850090ED000A04F59A6000EBDD
:10307000850080ED000A681CC5B2042DC9DBB2EEE4
:10308000040A8DED0A0A9FED0C0A8DED0B0A9FEDE7
:10309000120A8DED0C0ADFED080AB0EE080A0AA943
:1030A00004F5F670FEF716FB0C4820660C496166C5
:1030B0000DB030BD0000FA450000000000C0DA4548
:1030C000FE656F40CD414140CF02BD40DD068540E9
:1030D000004083460060EA4600004843F8070020AD
:1030E00010080020816DC97901290AD0022902D077
:1030F000032909D102E00221017308E003210173D1
:1031000005E00521017302E00221017300BF00BF49
:10311000017B03290AD1417B022907D10022416E9C
:103120000A60016E91ED000A80ED0D0A017B41738A
:10313000704710B50446207B80B1022804D00328D4
:1031400006D0052812D10DE0204600F0CBF80DE0A6
:1031500004F596612046FFF7B5FC07E02046FFF72F
:1031600099FE03E0204600F059F800BF00BF10BDF3
:1031700090ED230AF0EE000A20EE200ADFED240A8B
:1031800020EE200ADFED230A20EE200A80ED1B0A44
:1031900090ED290AF0EE000A20EE200ADFED1C0A6D
:1031A00020EE200ADFED1B0A20EE200A80ED1C0A2B
:1031B00090ED2F0AF0EE000A20EE200ADFED140A4F
:1031C00020EE200ADFED130A20EE200A80ED1D0A12
:1031D00090ED350AF0EE000A20EE200ADFED0C0A31
:1031E00020EE200ADFED0B0A20EE200A80ED1E0AF9
:1031F000016E91ED000A416ED1ED000AF8EEE00A91
:103200009FED051A00EE810A80ED1A0A7047000052
:10321000DA0F4940DE718A3DDB0FC9401CB5044618
:10322000E06DD0F8010000EE100A694601A8FDF734
:1032300027F8B6EE000A84ED0C0A94ED0A0ADDEDDB
:10324000000A20EE200AD4ED0B0A9DED011A00EED3
:10325000C10A84ED000A94ED0A0ADDED010A20EEB0
:10326000200AD4ED0B0A9DED001A00EE810A84EDD0
:10327000010A94ED000AD4ED010A30EE600AD4EDA3
:103280000C0AB6EE001A00EE810A84ED0E0A94EDE7
:10329000000AD4ED010A30EE200AD4ED0C0AB6EE95
:1032A000001A00EEC10A84ED0F0A94ED000AD4ED75
:1032B000010A30EE600AD4ED0C0AB6EE001A00EEF8
:1032C000C10A84ED100A94ED000AD4ED010A30EE33
:1032D000200AD4ED0C0AB6EE001A00EE810A84ED45
:1032E000110A1CBD0146002006E0002301F148023E
:1032F00022F81030421CD0B20828F6DB70470000DC
:1033000010B5002200210EE0031D53F8213004689F
:10331000E31A084C34F81140A34202D380F8281075
:1033200001224B1CD9B20929EEDB12B9FF2180F82A
:10333000281010BD3600002010B50168491C01603E
:10334000002201686031924101DB0021016010BD63
:103350000146002005E000230A1D42F82030421CEF
:10336000D0B20928F7DB00200860704700B589B0AB
:1033700008A8012100234022CDE900101CA11F480C
:1033800001F09CFC07A8012100232022CDE90010B8
:103390001BA11E4801F092FC06A8032100234FF454
:1033A0000072CDE900101AA11D4801F087FC05A8A4
:1033B000042100238022CDE900101AA11C4801F04D
:1033C0007DFC04A8032100234FF48072CDE9001096
:1033D00018A1174801F072FC03A8022100238022E3
:1033E000CDE9001016A11A4801F068FC09B000BD33
:1033F0006C65645F7461736B000000007D340008CD
:1034000062757A7A65725F7461736B004927000890
:10341000436861737369735F7461736B00000000CC
:103420007112000872656D6F74655F7461736B0073
:10343000D54200084759524F5F7461736B0000001A
:10344000434B5F54696D656F75745F7461736B0096
:103450004912000882B0CDE9000121F0004001903E
:103460009DED000B02B051EC100B70470048704707
:1034700025000020004870472D0000203CE0FEF7AA
:103480009BF8FF281CD14FF400611C48FEF791F80F
:103490004FF4FA7001F096F84FF400611748FEF708
:1034A00086F84FF480611548FEF783F84FF4FA7000
:1034B00001F088F84FF480611048FEF778F81BE0BF
:1034C0004FF480510D48FEF774F84FF480610B48BB
:1034D000FEF76DF84FF400610848FEF768F84FF406
:1034E000FA7001F06FF84FF480510448FEF75FF86E
:1034F0004FF4FA7001F066F8C1E70000001C0240CA
:10350000B0EE401AB4EEE01AF1EE10FA02DDB0EEC1
:10351000600A7047B1EE600AB4EEC01AF1EE10FA1C
:1035200002D2B1EE600AF4E7B0EE410AF1E74FF4DF
:103530004070FEF7C5F8FEF747F8FEF723FAFEF7EE
:10354000A5FBFEF75BFDFDF711FAFDF7ABFAFFF700
:103550000DFF01F0C5F800BFFEE7000010B54B7885
:103560000C7843EA0424431E03EB430322F8334060
:10357000CB788C7843EA04231CB2431E03EB43034D
:1035800002EBC3031C814B790C7943EA04231CB280
:10359000431E03EB430302EBC3035C818C79431EA0
:1035A00003EB430302EBC3031C73431E03EB430310
:1035B00002EBC303B3F9083000EE103AF8EEC00A8C
:1035C0009FED071A80EE810AF3EE030A80EE201ABF
:1035D000431E03EB430302EBC30383ED041A10BD48
:1035E0000000704270B52DED088B04460E4615465E
:1035F0007078317840EA0121601E00EB400025F828
:103600003010F078B17840EA012001B2601E00EB82
:10361000400005EBC00001817079317940EA01205A
:1036200001B2601E00EB400005EBC0004181B179A2
:10363000601E00EB400005EBC0000173601E00EB54
:10364000400005EBC000B0F9080000EE100AB8EE2B
:10365000C00ADFED410A80EE201A601E00EB400038
:1036600005EBC00080ED041A601E00EB400035F849
:103670003010601E00EB400005EBC0004088081AC7
:10368000B0F5FA5F0DDD601E00EB400005EBC000F9
:103690004069401E611E01EB410105EBC10148611B
:1036A0001BE0601E00EB400035F83010601E00EBA0
:1036B000400005EBC0004088081A10F5FA5F0CDAEC
:1036C000601E00EB400005EBC0004069401C611E1D
:1036D00001EB410105EBC1014861611E01EB4101B4
:1036E00005EBC1014869FCF78AFF41EC1B0B9FED1C
:1036F0001B0B53EC102BFCF710FF41EC190B611E58
:1037000001EB410135F83100FCF78AFF41EC1B0B5E
:103710009FED140B53EC102BFCF7FFFE41EC1A0B42
:1037200053EC192BFCF752FE41EC180BFCF798FFF9
:10373000611E01EB410105EBC1014860601E00EB19
:10374000400035F83010601E00EB400005EBC00073
:103750004180BDEC088B70BD00007042182D4454B0
:10376000FB211940182D4454FB21493F38B505462B
:103770000C46207806287AD2DFE800F003121C26D7
:103780003952A52D05D1002060752078401C20708D
:1037900005E0002020701421601CFCF70CFE69E09D
:1037A000617D601C4554607D401C60752078401C24
:1037B00020705FE0617D601C4554607D401C607539
:1037C0002078401C207055E0A52D09D12078401CA0
:1037D0002070617D601C4554607D401C607505E073
:1037E000002020701421601CFCF7E5FD42E0FF2D55
:1037F00012D0607D132806DA617D601C4554607D1F
:10380000401C60750BE0002060751421601CFCF703
:10381000D2FD0020207002E02078401C207029E0BA
:10382000AA2D14D100200090B4F801000090607D12
:103830000A2804D1E11CBDF8000000F06BFD002057
:10384000207060751421601CFCF7B5FD0DE0FF21B0
:10385000627D501C6075601C8154617D481C6075E0
:10386000601C45542078401E207003E0FFE70020D4
:10387000207000BF00BF38BD2DE9F04105460E465F
:103880002648076826480068001D00F065FD50B90D
:103890002348006890F82C100120884021490968CD
:1038A000814320480160681CD8B9D6B11E494868D8
:1038B0001B49096888601A4982680968CA60184902
:1038C0000968091D8268516015490968091D8160F0
:1038D000154A134909684A6111460968491C116073
:1038E0001AE07C190E4800684460BC4207D20C48BC
:1038F0000168091D0D48006800F052FD0CE0084801
:103900000168091D0A48006800F04AFD094800687E
:10391000844201D207480460BDE8F08168000020BD
:10392000540000206C000020640A00205C0000208D
:10393000580000208400002010B5044600F04AFD25
:1039400031480068401C304908603048006840B980
:103950002E4804600846006801280DD100F0B2F935
:103960000AE02B48006838B928480068C06AE16A54
:10397000884201D82548046026480068401C254933
:10398000086008460068206494F82C1001208840E4
:1039900021490968084320490860E16A01EB810177
:1039A0001E4A02EB81014868A0608268E260211D26
:1039B000826851608160E16A01EB8101174A02EB84
:1039C00081026261E16A01EB8101144A52F821101F
:1039D000491CE26A02EB8202104B43F8221000F00D
:1039E00023FD0B48006868B108480068C06AE16AB6
:1039F000884207D24FF0805009490860BFF34F8FCB
:103A0000BFF36F8F10BD0000640000205400002041
:103A100070000020800000206C000020B009002011
:103A200004ED00E010B500F0D5FC10480068D0B9F6
:103A30000F4800F0A5FC0F4800F0A2FC0C480E490E
:103A400008600C480D49086000220C210A2000F093
:103A500097FF064908600846006820B108A103489E
:103A6000006800F059FD00F0DFFC10BD9C00002054
:103A7000780A00208C0A0020940000209800002082
:103A8000546D72510000000010B516E000F0A2FC69
:103A90000C48C068C468201D00F05EFC0A4800683D
:103AA000401E0949086009480068401E074908602F
:103AB00000F0BAFC204600F020F804480068002816
:103AC000E4D110BD500A00206400002060000020F6
:103AD00070B504460D46206C70B1216CE06801445D
:103AE000E160D4E90210884201D32168E1602846F0
:103AF000226CE168FCF746FC70BD10B50446206BF3
:103B000000F0B0FC204600F0ADFC10BD0146084AB4
:103B1000126812680AB9012200E000220A600A68ED
:103B200022B9034A1268D268106800E0002070478A
:103B30009400002030B54FF49633154800F0070488
:103B40002CB1C01D20F00700114C041B1B1B0246AA
:103B5000104C226000240F4D6C60D018083820F003
:103B600007000D4C206000240B4D2D686C600A4D41
:103B70002D682C601146441A4C60074C24680C6078
:103B8000064D4C682C60064D4C682C6030BD000022
:103B9000A00A0020A8000020B0000020B8000020EB
:103BA000B400002000BFFFF76FFF0648006801283F
:103BB000F9D94FF0805004490860BFF34F8FBFF32D
:103BC0006F8FF0E7B009002004ED00E02DE9F0412F
:103BD00006460D4617469846069C0DB9246000E03F
:103BE0002760E66325640121204600F0FDFE84F88D
:103BF0004C80BDE8F0812DE9F05F82460F4690468B
:103C00009B460A9E0C9C4FEA8801A522206BFCF77C
:103C1000CBFBA8F10100216B01EB800929F007091A
:103C200009F0070008B9012000E0002050B900BFEA
:103C3000502080F31188BFF34F8FBFF36F8F00BF09
:103C400000BFFEE77FB1002507E0795D04F1340095
:103C50004155785D00B902E06D1C0A2DF5D300BF17
:103C600000213D200155052E01D2012000E0002059
:103C700050B900BF502080F31188BFF34F8FBFF3BE
:103C80006F8F00BF00BFFEE7052E00D30426E6625B
:103C9000A664201D00F081FB04F1180000F07DFBFC
:103CA0002461C6F10500A06164625A465146484647
:103CB00000F0FAFA20600B9808B10B980460BDE898
:103CC000F09F000010B5002407E004EB84010F4AC8
:103CD00002EB810000F054FB641C052CF5D30C486A
:103CE00000F04EFB0B4800F04BFB0B4800F048FB8C
:103CF0000A4800F045FB0A4800F042FB0448094925
:103D0000086004480849086010BD0000B0090020A0
:103D1000140A0020280A00203C0A0020500A002033
:103D2000640A0020580000205C00002010B5014605
:103D3000164800E0006803688B42FBD302464368E4
:103D400013448B4204D143684C68234443600146CA
:103D50000A464B6813440468A34211D10C4C036813
:103D60002468A34208D04B680468646823444B600D
:103D700003681B680B6005E0054B1B680B6001E0E6
:103D800003680B60884200D0016010BDA8000020CD
:103D9000B00000202DE9F04104460D4616461F46AE
:103DA0004FF0000865602461B5420CD8F01BA16992
:103DB000884202D34FF0010811E0211D0948006834
:103DC00000F0EEFA0BE0BE4204D2BD4202D34FF047
:103DD000010804E0211D0448006800F0E1FA4046B3
:103DE000BDE8F081980000209400002070B50546E1
:103DF00000F0F0FAA86B08B9012400E0002400F0FC
:103E000013FB204670BD000070B505460E460E48F7
:103E10000068C068C468201D00F09EFA94F828006D
:103E200000F0040028B132462946204600F0D6F8BA
:103E300005E094F8280000F0FE0084F828002046F1
:103E4000216A884770BD0000940000207FB57FE0A4
:103E5000019800287CDB039C606908B9012000E020
:103E6000002010B9201D00F077FA684600F0E2F853
:103E7000054601980A2869D2DFE800F06805072E98
:103E8000365806082F3700BF00BF00BF94F828003F
:103E900040F0010084F828000298A26981180346C6
:103EA0002A462046FFF776FFA8B194F8280000F0D4
:103EB000040038B10298A26981182A46204600F011
:103EC0008DF805E094F8280000F0FE0084F8280042
:103ED0002046216A88473AE000BF94F8280000F0A5
:103EE000FE0084F8280032E000BF94F8280040F07B
:103EF000010084F828000298A061A06908B101209F
:103F000000E0002050B900BF502080F31188BFF3BB
:103F10004F8FBFF36F8F00BF00BFFEE7A06941194D
:103F20002B462A462046FFF735FF10E094F828007C
:103F300000F0020018B9204600F094FA05E094F869
:103F4000280000F0FE0084F8280000E000BF00BF59
:103F5000002201A90348006800F0B4FD00287FF4A6
:103F600077AF7FBD9C000020F8B505460C4600F0F9
:103F700005FC684600F05EF80646009820BB44B990
:103F8000B54206D801F052F831462846FFF73CFF0B
:103F90001CE03CB10E480068006808B9012000E050
:103FA00000200446A91B22460A48006800F0E4FAF3
:103FB00001F03CF850B94FF0805007490860BFF35A
:103FC0004F8FBFF36F8F01E001F030F8F8BD0000B4
:103FD000980000209C00002004ED00E070B504462D
:103FE0000D46164604E0A06905442046216A88472C
:103FF000A06941192B4632462046FFF7CBFE002828
:10400000F1D170BD09480068006808B9012000E0DE
:10401000002020B14FF0FF300549086005E003485B
:104020000068C068006802490860704758000020B6
:104030008400002070B5044600F084FE0546074861
:104040000068854204D200F00BF80120206001E0F6
:104050000020206001480560284670BDA4000020B3
:1040600070B508E00D480068C06804684FF0FF3183
:104070002046FFF7C9FE09480068006808B901201A
:1040800000E000200028EDD00448056804480068DE
:10409000024908600248056070BD000094000020DD
:1040A000980000200E480068401C08B9012000E07C
:1040B000002050B900BF502080F31188BFF34F8F0C
:1040C000BFF36F8F00BF00BFFEE700BF502080F33B
:1040D0001188BFF34F8FBFF36F8F00BF00BFFEE7A4
:1040E000C400002008B500BF6846FFF70FFD044676
:1040F00020460099FFF738FFFFF7A8FEF4E770B5F8
:10410000044600F067F994F9455010E0606A08B978
:10411000012000E0002038B904F1240000F0F6FE90
:1041200018B100F089FA00E003E0681E45B2002DE6
:10413000ECDC00BFFF2084F8450000F075F900F0CA
:1041400049F994F9445010E0206908B9012000E0D1
:10415000002048B904F1100000F0D8FE08B100F0CA
:104160006BFA681E45B200E001E0002DECDC00BFF8
:10417000FF2084F8440000F057F970BD2DE9F047A6
:1041800005464FF0000900F0F9FA4248006808B906
:10419000FFF7D0FC75B105F00700C0F11008C8F1B9
:1041A000FF30A84201D2012000E0002008B94544B8
:1041B00000E00025012000EBE570002853D0002D21
:1041C00051D03548006885424DD8344E3046046899
:1041D00001E0264624686068A84202D220680028D0
:1041E000F7D12C48006884423DD0306800F10809BE
:1041F000206830606068401B102819D9671907F0E3
:10420000070008B9012000E0002050B900BF50208D
:1042100080F31188BFF34F8FBFF36F8F00BF00BFD4
:10422000FEE76068401B786065603846FFF77EFDFA
:10423000194960680968081A174908600846006843
:1042400017490968884203D2134800681449086076
:10425000606840F000406060002020601148006805
:10426000401C1049086000F0E1FE09F0070008B9A1
:10427000012000E0002050B900BF502080F31188D9
:10428000BFF34F8FBFF36F8F00BF00BFFEE74846FD
:10429000BDE8F087B0000020B4000020A800002096
:1042A000B8000020BC000020001F4FF080730360A6
:1042B000001F21F001030360001F054B0360143849
:1042C0000260001F6FF00203036020387047000097
:1042D000A54000084FF400700B4908800020C880FA
:1042E0000A4888600EE006E00748FDF7DBF8044660
:1042F0000749FFF73BFA0448C0880028F4D10220A0
:1043000000F060F9EFE70000D4050020F60500207A
:10431000E005002070B505460C46A5F2555010B1D9
:10432000012812D108E00A482168016061684160F3
:104330000020FCF7E7FF09E006482168016061689A
:1043400041600020FCF7DEFF00E000BF00BF70BD51
:10435000250000202D00002001460A69D1E9013026
:104360009860D1E9010358605068884201D188689B
:104370005060002008611068401E1060106870478F
:1043800000F1080141604FF0FF31816000F1080148
:10439000C160016100210160704700210161704727
:1043A00010B502460B685C1C0CB9106907E002F1FD
:1043B000080000E04068446824689C42FAD94468D8
:1043C0004C604C68A160886041600A611468641C9C
:1043D000146010BD00BF502080F31188BFF34F8FD1
:1043E000BFF36F8F00BF0E480068401C0C49086087
:1043F00008460068012812D10A480068C0B208B90E
:10440000012000E0002050B900BF502080F3118847
:10441000BFF34F8FBFF36F8F00BF00BFFEE7704742
:10442000C400002004ED00E00D48006850B900BF52
:10443000502080F31188BFF34F8FBFF36F8F00BF01
:1044400000BFFEE706480068401E054908600846B0
:10445000006820B9002080F3118800BF00BF7047BA
:10446000C400002070B506463546002E3BD0083DFE
:104470002C466068C00F50B900BF502080F31188EF
:10448000BFF34F8FBFF36F8F00BF00BFFEE7206801
:1044900008B9012000E0002050B900BF502080F38F
:1044A0001188BFF34F8FBFF36F8F00BF00BFFEE7D0
:1044B0006068C00FB8B12068A8B9606820F00040FB
:1044C000606000F05BF908496068096808440649C3
:1044D00008602046FFF72AFC04480068401C034996
:1044E000086000F0A3FD70BDB4000020C0000020F3
:1044F00000204FF0E02108618861064800684FF411
:104500007A71B0FBF1F0401E4FF0E02148610720C6
:10451000086170470000002030B502460B460021BC
:1045200052B900BF502484F31188BFF34F8FBFF3FB
:104530006F8F00BF00BFFEE7BBB1002012E00D4C43
:1045400004EBC0046468944203D10A4C04EBC0013C
:104550000AE031B9074C54F8304014B9054C04EB6B
:10456000C001401C0828EAD300BF09B10B604A60B3
:1045700030BD0000700900202DE9F04105460E46CF
:1045800017462C46FFF726FF94F94400401C10B94B
:10459000002084F8440094F94500401C10B9002024
:1045A00084F84500FFF740FFA06B28B93A46314632
:1045B00004F1240000F062F82046FFF7A0FDBDE8FA
:1045C000F081000070B504460025D4B1124800689F
:1045D00008B9012000E0002050B900BF502080F34E
:1045E0001188BFF34F8FBFF36F8F00BF00BFFEE78F
:1045F00000F0C4F800212046FFF73EF900F016FD58
:1046000005463DB94FF0805004490860BFF34F8F15
:10461000BFF36F8F70BD00009000002004ED00E03C
:104620000349096801600349096841607047000057
:104630007C000020680000200120014908607047CC
:104640007800002070B504460D4654B900BF5020D4
:1046500080F31188BFF34F8FBFF36F8F00BF00BF90
:10466000FEE70548016818312046FFF799FE012151
:104670002846FFF701F970BD5400002070B50446CC
:104680000E46154654B900BF502080F31188BFF381
:104690004F8FBFF36F8F00BF00BFFEE760680F4909
:1046A0000968C8610D49826809680A620B4909688E
:1046B00018318268516009490968183181600749D9
:1046C00009688C622168491C21600DB14FF0FF36EA
:1046D00029463046FFF7D0F870BD00005400002096
:1046E0001CB51E4800210B468222CDE900101CA1FA
:1046F0001D4800F0E3FA0446012C02D100F052FDFF
:104700000446012C15D100BF502080F31188BFF35F
:104710004F8FBFF36F8F00BF4FF0FF30134908601A
:1047200001201349086000201249086000F074F865
:1047300010E0601C08B1012000E0002050B900BF6B
:10474000502080F31188BFF34F8FBFF36F8F00BFEE
:1047500000BFFEE7084800681CBD0000880000207C
:1047600049444C4500000000A53B0008840000209F
:1047700070000020680000208C00002002480068C3
:10478000401C014908607047900000201D480068E7
:1047900018B101201C49086032E000201A49086065
:1047A0001A480068B0FA80F0C0F11F0101EB8100E7
:1047B000174A52F8200008B1012000E0002050B94B
:1047C00000BF502080F31188BFF34F8FBFF36F8F6E
:1047D00000BF00BFFEE701EB81020D4B03EB82003F
:1047E00042685268426000F108024368934202D175
:1047F0004268526842604268D268064B1A6000BF45
:104800007047000090000020780000206C0000201D
:10481000B0090020540000201CB5524800685249DD
:10482000884201D0012000E0002050B900BF502094
:1048300080F31188BFF34F8FBFF36F8F00BF00BFAE
:10484000FEE7484800684849491E884201D00120D7
:1048500000E0002050B900BF502080F31188BFF362
:104860004F8FBFF36F8F00BF00BFFEE73F49084681
:1048700000780190FF200A461070084600780090EA
:104880009DF8000000F0F0009DF80020904201D15A
:10489000012000E0002050B900BF502080F31188B3
:1048A000BFF34F8FBFF36F8F00BF00BFFEE79DF8D0
:1048B000000000F050002E4A107007202D4A1060B2
:1048C00009E02C480068401E2A4A10609DF800004C
:1048D0004006000E00909DF8000000F08000802847
:1048E000EFD024480068C0F10700042801D101205E
:1048F00000E0002050B900BF502080F31188BFF3C2
:104900004F8FBFF36F8F00BF00BFFEE719480068ED
:104910000002184A10601046008800F4E060106041
:10492000124A019810700F482030006840F470005F
:104930000C49203108600846006840F0704008606B
:10494000FFF7D6FD00200C490860FBF74BFC0B4835
:10495000006840F0404009490860FBF72FFC002048
:104960001CBD000000ED00E071C20F4100E400E05A
:10497000C8000020CC000020C400002034EF00E07C
:104980002DE9F84305460E4617460024E5B1601EA2
:10499000B0FBF5F0B04217D305FB06F010F1510F54
:1049A00012D805FB06F808F15000FFF7E7FB0446B4
:1049B000B4B1A14609F150093B464A463146284662
:1049C0000094FFF703F90BE054B900BF502080F3C7
:1049D0001188BFF34F8FBFF36F8F00BF00BFFEE79B
:1049E0002046BDE8F88300002DE9F04105460E465B
:1049F00001272C4654B900BF502080F31188BFF323
:104A00004F8FBFF36F8F00BF00BFFEE7002C42D077
:104A1000E06B00283FD04FF0FF31E06BB1FBF0F0CE
:104A2000216C884237D3FFF7D5FCD4E90F122068F8
:104A300001FB0200A0600020A06320686060E06BC2
:104A4000401E226C216800FB0211E160FF2084F807
:104A5000440084F845009EB9206908B9012000E0AF
:104A60000020A8B904F1100000F050FA80B14FF016
:104A7000805013490860BFF34F8FBFF36F8F07E07B
:104A800004F11000FFF77CFC04F12400FFF778FC30
:104A9000FFF7CAFC00E000270FB1012000E0002072
:104AA00050B900BF502080F31188BFF34F8FBFF380
:104AB0006F8F00BF00BFFEE73846BDE8F081000001
:104AC00004ED00E02DE9F74183B005460E464FF0B6
:104AD00000082C4654B900BF502080F31188BFF362
:104AE0004F8FBFF36F8F00BF00BFFEE70EB9206C82
:104AF00008B9012000E0002050B900BF502080F329
:104B00001188BFF34F8FBFF36F8F00BF00BFFEE769
:104B100000F008F908B9059808B9012000E0002064
:104B200050B900BF502080F31188BFF34F8FBFF3FF
:104B30006F8F00BF00BFFEE700BFFFF74BFCA76B06
:104B4000F7B131462046FEF7C3FF781EA063206907
:104B500008B9012000E0002060B904F1100000F065
:104B6000D5F938B14FF080502F490860BFF34F8F0F
:104B7000BFF36F8FFFF758FC012006B0BDE8F0814E
:104B8000059818B9FFF750FC0020F6E7B8F1000FC0
:104B900004D101A8FFF744FD4FF00108FFF744FCE2
:104BA000FFF7ECFDFFF716FC94F94400401C10B928
:104BB000002084F8440094F94500401C10B90020FE
:104BC00084F84500FFF730FC05A901A800F02EF895
:104BD000F0B92046FFF70AF9A0B104F124000599C5
:104BE000FFF730FD2046FFF78AFA00F01FFA002891
:104BF000A3D14FF080500C490860BFF34F8FBFF333
:104C00006F8F9AE72046FFF77AFA00F00FFA94E7E1
:104C10002046FFF774FA00F009FA2046FFF7E6F89D
:104C200000288AD00020A8E704ED00E070B5054612
:104C30000C4655B900BF502080F31188BFF34F8F49
:104C4000BFF36F8F00BF00BFFEE754B900BF502015
:104C500080F31188BFF34F8FBFF36F8F00BF00BF8A
:104C6000FEE7FFF7B7FB134802686868131A20686D
:104C7000401C08B9002619E00F49286809688842D5
:104C800006D06868904203D80126002020600DE01D
:104C90002068984207D92068C01A20602846FFF78C
:104CA000BFFC002602E0002020600126FFF7BCFBCD
:104CB000304670BD680000207C0000202DE9FF4FC9
:104CC00085B0804689461746DDE912ABB800FFF78C
:104CD00055FA064676B15820FFF750FA04462CB133
:104CE00058212046FBF767FB266304E03046FFF7B8
:104CF000B9FB00E000247CB10020CDE900ABCDE998
:104D000002403A4649464046089BFEF774FF20465B
:104D1000FEF712FE012501E04FF0FF35284609B0ED
:104D2000BDE8F08F0549096809B9012005E004498B
:104D3000096809B9022000E00020704770000020D7
:104D400090000020014908687047000068000020BA
:104D50002DE9F0414FF000086148006800287DD13E
:104D600060480068451C5F48056015BB5E480068E8
:104D7000006808B9012000E0002050B900BF5020B1
:104D800080F31188BFF34F8FBFF36F8F00BF00BF59
:104D9000FEE755480768554800685349086053487E
:104DA000076053480068401C51490860FFF72AF922
:104DB00000BF50480068854277D300BF4A4800686A
:104DC000006808B9012000E0002020B14FF0FF305A
:104DD0004849086068E044480068C068C46866687C
:104DE000B54202D2434806605EE06069D4E902122F
:104DF0008A60D4E902214A60211D42688A4201D1B9
:104E0000E1684160002262610168491E0160A06A98
:104E100098B1A06AD4E907128A60D4E907214A60F0
:104E200004F1180142688A4201D1216A41600022DE
:104E3000A2620168491E016000BF94F82C10012095
:104E400088402D49096808432B490860E16A01EB55
:104E500081012A4A02EB8101486800E037E0A06046
:104E60008268E260211D826851608160E16A01EB25
:104E70008101224A02EB81026261E16A01EB810158
:104E80001E4A52F82110491CE26A02EB82021B4BB7
:104E900043F822101A49E06A0968C96A88428DD924
:104EA0004FF001088AE700E000BF15480068C06ABB
:104EB00000EB8000114951F82000012801D94FF082
:104EC00001081048006808B14FF0010804E00E48DE
:104ED0000068401C0C4908604046BDE8F0810000B5
:104EE0009000002068000020580000205C00002096
:104EF0007C000020840000206C000020B00900200D
:104F000054000020780000207400002070B5034693
:104F1000D868C16851B900BF502080F31188BFF331
:104F20004F8FBFF36F8F00BF00BFFEE7886AD1E9E4
:104F30000745A560D1E90754656001F1180445688B
:104F4000A54201D10C6A446000258D620468641E8C
:104F500004603048006800283DD14869D1E9024525
:104F6000A560D1E9025465600C1D4568A54201D1D8
:104F7000CC68446000254D610468641E046091F8AB
:104F80002C400120A040244C24682043224C206067
:104F9000CC6A04EB8404214D05EB840460688860CE
:104FA0008568CD600C1D85686C608460CC6A04EBFC
:104FB00084041A4D05EB84054D61CC6A04EB84042E
:104FC000164D55F82440641CCD6A05EB8505134E3B
:104FD00046F8254010E0124C6068C86185680D6293
:104FE00001F1180485686C6084600D4D8D622C465B
:104FF0002468641C2C6000BF0A4CC86A2468E46AF8
:10500000A04204D901220120074C206000E00022C8
:10501000104670BD900000206C000020B0090020F8
:105020003C0A0020540000207800002070B50024C5
:1050300000265348006850B900BF502080F3118803
:10504000BFF34F8FBFF36F8F00BF00BFFEE7FFF7C7
:10505000C1F94B480068401E49490860084600688D
:1050600000287DD147480068002879D05BE0464899
:10507000C068C468A06AD4E907128A60D4E907212D
:105080004A6004F1180142688A4201D1216A4160F4
:105090000022A2620168491E01606069D4E902121F
:1050A0008A60D4E902214A60211D42688A4201D106
:1050B000E1684160002262610168491E016094F864
:1050C0002C10012088403149096808432F490860A5
:1050D000E16A01EB81012E4A02EB81014868A06080
:1050E0008268E260211D826851608160E16A01EBA3
:1050F0008101274A02EB81026261E16A01EB8101D1
:10510000234A52F82110491CE26A02EB8202204B2A
:1051100043F822101F49E06A0968C96A884202D32D
:1051200001201D4908601848006808B9012000E006
:10513000002000289BD00CB1FEF764FF17480568DB
:1051400065B100BFFFF704FE10B1012012490860ED
:105150006D1E002DF6D10020104908600E4800E0B9
:1051600009E0006838B1012630070D490860BFF337
:105170004F8FBFF36F8FFFF757F9304670BD0000B8
:1051800090000020640000203C0A00206C000020F9
:10519000B009002054000020780000207400002096
:1051A00004ED00E01CB50024FEF73CFC0E4800684E
:1051B00058B10E48022100234FF48272CDE900104D
:1051C0000BA10D48FFF77AFD044654B900BF5020EB
:1051D00080F31188BFF34F8FBFF36F8F00BF00BF05
:1051E000FEE720461CBD00009C000020A00000201F
:1051F000546D722053766300E54000080000000003
:10520000920E493CB10AC93C2BC3163D2EFB483DCA
:10521000752B7B3D04A9963D80B6AF3D36BDC83D9C
:105220002FBCE13D73B2FA3D87CF093E8340163E65
:10523000B5AB223EA2102F3ECF6E3B3EC2C5473ECD
:105240000115543E135C603E7F9A6C3ECCCF783E95
:10525000C07D823E938E883E229A8E3E32A0943E3E
:1052600086A09A3EE59AA03E128FA63ED47CAC3E24
:10527000EF63B23E2A44B83E491DBE3E15EFC33E21
:1052800053B9C93ECA7BCF3E4136D53E80E8DA3EAF
:105290004F92E03E7533E63EBBCBEB3EEA5AF13E21
:1052A000CBE0F63E275DFC3EE4E7003F3D9C033F3C
:1052B000824B063F9BF5083F6B9A0B3FDA390E3F56
:1052C000CDD3103F2A68133FD9F6153FC07F183F52
:1052D000C6021B3FD17F1D3FCBF61F3F9967223F80
:1052E00025D2243F5636273F1594293F4AEB2B3FC2
:1052F000DE3B2E3FBB85303FC9C8323FF304353F0C
:10530000233A373F4268393F3B8F3B3FF9AE3D3F41
:1053100067C73F3F70D8413F01E2433F03E4453F49
:1053200065DE473F12D1493FF8BB4B3F029F4D3FDF
:10533000207A4F3F3D4D513F4918533F31DB543F99
:10534000E595563F5348583F6AF2593F1A945B3FE0
:10535000532D5D3F05BE5E3F2146603F97C5613FCF
:105360005A3C633F59AA643F880F663FD86B673F3A
:105370003CBF683FA7096A3F0C4B6B3F5E836C3FA5
:1053800093B26D3F9ED86E3F73F56F3F0809713F32
:105390005213723F4714733FDD0B743F0BFA743F97
:1053A000C6DE753F07BA763FC58B773FF853783F27
:1053B0009812793F9DC7793F02737A3FBE147B3FB5
:1053C000CDAC7B3F283B7C3FC9BF7C3FAC3A7D3FA7
:1053D000CCAB7D3F23137E3FB0707E3F6DC47E3FDC
:1053E000580E7F3F6D4E7F3FAB847F3F0FB17F3FB5
:1053F00097D37F3F43EC7F3F11FB7F3F0000803F0F
:1054000011FB7F3F43EC7F3F97D37F3F0FB17F3F3F
:10541000AB847F3F6D4E7F3F580E7F3F6DC47E3F14
:10542000B0707E3F23137E3FCCAB7D3FAC3A7D3FD7
:10543000C9BF7C3F283B7C3FCDAC7B3FBE147B3F4C
:1054400002737A3F9DC7793F9812793FF853783FAE
:10545000C58B773F07BA763FC6DE753F0BFA743FC0
:10546000DD0B743F4714733F5213723F0809713FBD
:1054700073F56F3F9ED86E3F93B26D3F5E836C3F76
:105480000C4B6B3FA7096A3F3CBF683FD86B673F37
:10549000880F663F59AA643F5A3C633F97C5613FF6
:1054A0002146603F05BE5E3F532D5D3F1A945B3F32
:1054B0006AF2593F5348583FE595563F31DB543F18
:1054C0004918533F3D4D513F207A4F3F029F4D3F7A
:1054D000F8BB4B3F12D1493F65DE473F03E4453FF0
:1054E00001E2433F70D8413F67C73F3FF9AE3D3FC0
:1054F0003B8F3B3F4268393F233A373FF304353F08
:10550000C9C8323FBB85303FDE3B2E3F4AEB2B3FC5
:105510001594293F5636273F25D2243F9967223FCD
:10552000CBF61F3FD17F1D3FC6021B3FC07F183FF8
:10553000D9F6153F2A68133FCDD3103FDA390E3F15
:105540006B9A0B3F9BF5083F824B063F3D9C033F08
:10555000E4E7003F275DFC3ECBE0F63EEA5AF13E31
:10556000BBCBEB3E7533E63E4F92E03E80E8DA3E41
:105570004136D53ECA7BCF3E53B9C93E15EFC33E37
:10558000491DBE3E2A44B83EEF63B23ED47CAC3ED9
:10559000128FA63EE59AA03E86A09A3E32A0943E87
:1055A000229A8E3E938E883EC07D823ECCCF783E3E
:1055B0007F9A6C3E135C603E0115543EC2C5473E67
:1055C000CF6E3B3EA2102F3EB5AB223E8340163E2F
:1055D00087CF093E73B2FA3D2FBCE13D36BDC83DD1
:1055E00080B6AF3D04A9963D752B7B3D2EFB483D13
:1055F0002BC3163DB10AC93C920E493C0000000085
:10560000920E49BCB10AC9BC2BC316BD2EFB48BDC6
:10561000752B7BBD04A996BD80B6AFBD36BDC8BD98
:105620002FBCE1BD73B2FABD87CF09BE834016BE61
:10563000B5AB22BEA2102FBECF6E3BBEC2C547BEC9
:10564000011554BE135C60BE7F9A6CBECCCF78BE91
:10565000C07D82BE938E88BE229A8EBE32A094BE3A
:1056600086A09ABEE59AA0BE128FA6BED47CACBE20
:10567000EF63B2BE2A44B8BE491DBEBE15EFC3BE1D
:1056800053B9C9BECA7BCFBE4136D5BE80E8DABEAB
:105690004F92E0BE7533E6BEBBCBEBBEEA5AF1BE1D
:1056A000CBE0F6BE275DFCBEE4E700BF3D9C03BF38
:1056B000824B06BF9BF508BF6B9A0BBFDA390EBF52
:1056C000CDD310BF2A6813BFD9F615BFC07F18BF4E
:1056D000C6021BBFD17F1DBFCBF61FBF996722BF7C
:1056E00025D224BF563627BF159429BF4AEB2BBFBE
:1056F000DE3B2EBFBB8530BFC9C832BFF30435BF08
:10570000233A37BF426839BF3B8F3BBFF9AE3DBF3D
:1057100067C73FBF70D841BF01E243BF03E445BF45
:1057200065DE47BF12D149BFF8BB4BBF029F4DBFDB
:10573000207A4FBF3D4D51BF491853BF31DB54BF95
:10574000E59556BF534858BF6AF259BF1A945BBFDC
:10575000532D5DBF05BE5EBF214660BF97C561BFCB
:105760005A3C63BF59AA64BF880F66BFD86B67BF36
:105770003CBF68BFA7096ABF0C4B6BBF5E836CBFA1
:1057800093B26DBF9ED86EBF73F56FBF080971BF2E
:10579000521372BF471473BFDD0B74BF0BFA74BF93
:1057A000C6DE75BF07BA76BFC58B77BFF85378BF23
:1057B000981279BF9DC779BF02737ABFBE147BBFB1
:1057C000CDAC7BBF283B7CBFC9BF7CBFAC3A7DBFA3
:1057D000CCAB7DBF23137EBFB0707EBF6DC47EBFD8
:1057E000580E7FBF6D4E7FBFAB847FBF0FB17FBFB1
:1057F00097D37FBF43EC7FBF11FB7FBF000080BF0B
:1058000011FB7FBF43EC7FBF97D37FBF0FB17FBF3B
:10581000AB847FBF6D4E7FBF580E7FBF6DC47EBF10
:10582000B0707EBF23137EBFCCAB7DBFAC3A7DBFD3
:10583000C9BF7CBF283B7CBFCDAC7BBFBE147BBF48
:1058400002737ABF9DC779BF981279BFF85378BFAA
:10585000C58B77BF07BA76BFC6DE75BF0BFA74BFBC
:10586000DD0B74BF471473BF521372BF080971BFB9
:1058700073F56FBF9ED86EBF93B26DBF5E836CBF72
:105880000C4B6BBFA7096ABF3CBF68BFD86B67BF33
:10589000880F66BF59AA64BF5A3C63BF97C561BFF2
:1058A000214660BF05BE5EBF532D5DBF1A945BBF2E
:1058B0006AF259BF534858BFE59556BF31DB54BF14
:1058C000491853BF3D4D51BF207A4FBF029F4DBF76
:1058D000F8BB4BBF12D149BF65DE47BF03E445BFEC
:1058E00001E243BF70D841BF67C73FBFF9AE3DBFBC
:1058F0003B8F3BBF426839BF233A37BFF30435BF04
:10590000C9C832BFBB8530BFDE3B2EBF4AEB2BBFC1
:10591000159429BF563627BF25D224BF996722BFC9
:10592000CBF61FBFD17F1DBFC6021BBFC07F18BFF4
:10593000D9F615BF2A6813BFCDD310BFDA390EBF11
:105940006B9A0BBF9BF508BF824B06BF3D9C03BF04
:10595000E4E700BF275DFCBECBE0F6BEEA5AF1BE2D
:10596000BBCBEBBE7533E6BE4F92E0BE80E8DABE3D
:105970004136D5BECA7BCFBE53B9C9BE15EFC3BE33
:10598000491DBEBE2A44B8BEEF63B2BED47CACBED5
:10599000128FA6BEE59AA0BE86A09ABE32A094BE83
:1059A000229A8EBE938E88BEC07D82BECCCF78BE3A
:1059B0007F9A6CBE135C60BE011554BEC2C547BE63
:1059C000CF6E3BBEA2102FBEB5AB22BE834016BE2B
:1059D00087CF09BE73B2FABD2FBCE1BD36BDC8BDCD
:1059E00080B6AFBD04A996BD752B7BBD2EFB48BD0F
:1059F0002BC316BDB10AC9BC920E49BC0000008081
:105A00004FBB610567ACDD3F182D4454FB21E93FD6
:105A10009BF681D20B73EF3F182D4454FB21F93FC5
:105A2000E2652F227F2B7A3C075C143326A6813C4B
:105A3000BDCBF07A8807703C075C143326A6913CF6
:105A4000C4EB98999999C9BF711623FEC671BCBF62
:105A50006D9A74AFF2B0B3BF9AFDDE522DDEADBFCA
:105A60002F6C6A2C44B4A2BF0D5555555555D53FE2
:105A7000FF8300922449C23F6E204CC5CD45B73FFD
:105A8000513DD0A0660DB13FEB0D76244B7BA93F75
:105A900011DA22E33AAD903FB85A00080000002026
:105AA000D000000028270008885B0008D0000020F4
:105AB000D039010038270008007A030A00000000EE
:105AC00000000000010203040607080900000000AE
:105AD0000102030401020304060708090000000094
