:020000040800F2
:10000000183601205D020008CB22000855220008A6
:10001000C92200088D110008352A000800000000E0
:100020000000000000000000000000009D0100082A
:10003000E51D000800000000F9010008CD250008BA
:1000400077020008770200087702000877020008AC
:10005000770200087702000877020008770200089C
:10006000770200087702000877020008770200088C
:10007000770200087702000877020008770200087C
:10008000770200087702000877020008770200086C
:100090009111000877020008770200087702000833
:1000A000770200087702000877020008770200084C
:1000B00077020008FD260008770200087702000892
:1000C000770200087702000877020008770200082C
:1000D000770200087702000877020008770200081C
:1000E000770200087702000877020008770200080C
:1000F00077020008770200087702000877020008FC
:10010000770200087702000821270008770200081C
:1001100077020008770200087702000877020008DB
:1001200077020008770200087702000877020008CB
:1001300077020008770200087702000877020008BB
:10014000F51200087702000877020008770200081D
:10015000770200087702000877020008770200089B
:10016000770200087702000877020008770200088B
:10017000770200087702000877020008770200087B
:100180007702000877020008DFF80CD000F0A2FB2D
:100190000048004769400008183601202C4B1968B8
:1001A0000868B0E8F04F80F30988BFF36F8F4FF015
:1001B000000080F3118870470000000008480068C4
:1001C000006880F308884FF0000080F3148862B65E
:1001D00061B6BFF34F8FBFF36F8F00DF00BF00BF6B
:1001E00008ED00E0DFF80C00016841F470010160E7
:1001F000704700BF88ED00E0EFF30980BFF36F8F19
:10020000134B1A681EF0100F08BF20ED108A20E96A
:10021000F04F106009B44FF0500080F31188BFF325
:100220004F8FBFF36F8F04F08FFD4FF0000080F30E
:10023000118809BC19680868B0E8F04F1EF0100F6B
:1002400008BFB0EC108A80F30988BFF36F8F704746
:10025000E0000020EFF3058070470000064880476B
:1002600006480047FEE7FEE7FEE7FEE7FEE7FEE79B
:10027000FEE7FEE7FEE7FEE7F92500088901000832
:100280009FED1A1AF5EE000A40EE010ABDEEE00AF3
:10029000F5EEC00A10EE100AF1EE10FA38BF401E5B
:1002A00000EE100A1349F7EE001AB8EEC00A30EE5D
:1002B000C00ADFED0F0A20EE200AFCEEC00A10EEA5
:1002C000900AC0F3080000EE900A01EB8000F8EEFF
:1002D000600A90ED011A70EE600A90ED000A71EE6E
:1002E000E01A21EE800A00EE810A704783F9223E6F
:1002F000000000449C570008DFED190AB5EEC00A63
:1003000060EE200ABDEEE01A11EE100AF1EE10FACE
:1003100038BF401E00EE100A1349F7EE001AB8EE7F
:10032000C00A30EEC00ADFED0F0A60EE200ABCEE14
:10033000E00A10EE100AC0F3080000EE100A01EB0C
:100340008000B8EE400A90ED011A70EEC00A90ED00
:10035000000A71EEE01A21EE800A00EE810A704771
:1003600083F9223E000000449C570008DFED3C0A60
:1003700020EE200AFDEEC00AB5EEC00A10EE902A6B
:10038000F1EE10FA38BF521E00EE902ADFF8D8C006
:10039000B0EE084AF8EEE00A30EE600ADFED310A0E
:1003A00060EE200ABCEEE00A10EE102AC2F308024A
:1003B00000EE102A02F180030CEB8202B8EE400A34
:1003C000C3F308030CEB830330EEC00AD2ED000A3E
:1003D00093ED002A93ED011AF1EE601AD2ED010AB5
:1003E00071EE422AF1EE603ADFED200A31EEA31AF7
:1003F00021EE203AB0EE001A41EE213A01EE623AC7
:1004000062EE842A43EEE02A40EE032A60EE222ABE
:1004100041EEA02A00EE222A81ED002AD3ED001A37
:1004200093ED013AD2ED002A92ED012A71EE833A62
:1004300001EE213A32EE622A63EEA03A41EE423AF0
:1004400022EE042A03EE602A00EE232A20EE021A8E
:1004500001EEA01A40EE012AC0ED002A704700000C
:10046000610B363B000000449C570008DB0F493C01
:1004700040EA01039B0703D009E008C9121F08C026
:10048000042AFAD203E011F8013B00F8013B521EA6
:10049000F9D27047D2B201E000F8012B491EFBD21D
:1004A00070470022F6E710B513460A46044619467F
:1004B000FFF7F0FF204610BD2DE9FE4F804681EA90
:1004C0000300C00F0C46009021F0004123F00045CE
:1004D000B8EB0200A94105D24046214690461C4691
:1004E0000B46024623F00040104347D0270DC7F3C8
:1004F0000A00C3F30A510290401A019040286BDAB7
:10050000C3F3130040F4801B0098924620B10023EF
:10051000D2EB030A63EB0B0B01985946C0F1400282
:10052000504600F022F906460D4650465946019ABB
:1005300000F02AF910EB08006141002487EA11520B
:1005400084EAE7731A4340D0009A62B3019A012A01
:100550004FEA075215DC001B61EB02014FF000422D
:1005600002EA0752CDE90042001C41F580113246F3
:100570002B4600F061F903B0BDE8F08F40462146FC
:10058000F9E7001B61EB0201001C41F58013001824
:100590005B412018A2F5001747EB030140EAD57034
:1005A000B6196D4111E06D084FEA360645EAC0758F
:1005B0004FEA0752001B61EB0201001C41F580115C
:1005C00049084FEA30000019514132462B4603B02A
:1005D000BDE8F04F00F021B900980122400000234F
:1005E000D0EB020263EBE073009821464FEAE0741F
:1005F000B8EB000061EB0401E9E783F000435BE73F
:1006000081F0004158E72DE9FE4F81EA030404F030
:10061000004421F0004100944FF0000B23F0004310
:1006200050EA01045ED052EA03045BD0C3F30A54DB
:10063000C1F30A552C44A4F2F3340194A0FB0254F4
:10064000C1F3130141F48011C3F3130343F4801386
:1006500001FB024400FB034E840A970A44EA8154DA
:1006600047EA8357A4FB076802958D0A05FB0785B7
:100670004FEA932C04FB0C542705029D4FEA0658C1
:1006800047EA1637B5EB08056EEB070C870E920E9E
:1006900047EA811742EA8312A7FB0201B6EB0B017E
:1006A00064EB00042B0D43EA0C335E1844EB1C5042
:1006B000DA465146E7FB0201C5F313044FEA0B3358
:1006C00043EA14534FEA0432019C43EA0603A4F1BF
:1006D0000C040294009CCDE900B400F0ADF803B026
:1006E000BDE8F08F00200146F9E70EB5C10F80EAA2
:1006F000E0700844CA07002140F233438DE80E0041
:100700000A460B4600F098F803B000BD00F0004226
:1007100030F000400AD0C10D01F56071C0F3160041
:1007200042EA0151C20840071143704700200146C8
:10073000704701F0004330B421F0004150EA01025B
:1007400006D00A0DA2F56072C1F31301002A02DC83
:1007500030BC00207047440F44EAC104C100E018D7
:1007600030BC00EBC25000F021B8202A04DB203A54
:1007700000FA02F1002070479140C2F1200320FAF4
:1007800003F3194390407047202A06DBCB17203A29
:1007900041FA02F043EAE07306E041FA02F3D04086
:1007A000C2F1200291400843194670470029A8BFB2
:1007B0007047401C490008BF20F00100704710B48A
:1007C000B0FA80FC00FA0CF050EA010404BF10BC3F
:1007D000704749B1CCF1200421FA04F411FA0CF16C
:1007E00018BF012121430843A3EB0C01CB1D4FEAA5
:1007F00000614FEA102042BF002010BC704700EBA0
:10080000C35010440029A4BF10BC7047401C4900CD
:1008100008BF20F0010010BC704710B5141E73F122
:10082000000408DA401C41F1000192185B411A43B0
:1008300001D120F0010010BD2DE9F04D92469B46FC
:1008400011B1B1FA81F202E0B0FA80F220329046A2
:10085000FFF78BFF04460F4640EA0A0041EA0B010E
:1008600053465A46084313D0114653EA010019D0A3
:10087000C8F14002504600F03FF805460E4650468B
:1008800059464246FFF771FF084305D0012004E0B6
:1008900020463946BDE8F08D0020054346EAE07663
:1008A0002C4337430A986305E40AA0EB08000022B2
:1008B000FD0A44EA47540A3002D500200146E9E720
:1008C000010510196941DDE9084500196941BDE8D4
:1008D000F04DA2E7064C074D06E0E06840F001034A
:1008E00094E8070098471034AC42F6D3FFF750FC69
:1008F000A05F0008C05F0008202A04DB203A21FA2C
:1009000002F00021704721FA02F3D040C2F1200228
:10091000914008431946704770B58C1810F8015B78
:1009200015F0070301D110F8013B2A1106D110F888
:10093000012B03E010F8016B01F8016B5B1EF9D18C
:100940002B0705D40023521E0DD401F8013BFAE712
:1009500010F8013BCB1A921C03E013F8015B01F87D
:10096000015B521EF9D5A142D8D3002070BD02F020
:100970007DB802F011B9FFF783BCF0EE400AF5EE46
:10098000C00AF1EE10FA02DDB0EE600A7047B1EE77
:10099000600AFBE700281CBF9FED020A80ED000AF9
:1009A000704700000000000000281CBFB3EE060ADC
:1009B00080ED000A7047000070B52DED0C8B84B0FF
:1009C00006460C4615469FED990AF0EE408A9FEDCB
:1009D000970AB0EE409A9FED950AF0EE40BA9FED6F
:1009E000930AF0EE409A9FED910AB0EE40AA0EB144
:1009F00004B11DB904B0BDEC0C8B70BD8C48FFF781
:100A0000C9FF8C48FFF7D0FF8A48D0ED000A9FED60
:100A10008A1A60EE810AB0EE600A00F02CF9F0EE5E
:100A2000408A28EEA80AF0EE408A8248D0ED000AFB
:100A3000B0EE001A60EE810A9FED7F1A60EE810A27
:100A4000B0EE600A00F017F9B0EE409A29EE090AFC
:100A5000B0EE409ADFED790AB7EE000A00EEA80A80
:100A6000DFED770A00EEC90ADFED760A20EE200AF4
:100A7000754880ED000A6E4890ED000ADFED730ABC
:100A800080EE201AB7EE000A31EE000A20EE000ACE
:100A90006D48D0ED000A80EE801A6D4880ED001A96
:100AA00094ED000AB5EEC00AF1EE10FA0DD194ED06
:100AB000010AB5EEC00AF1EE10FA06D194ED020A71
:100AC000B5EEC00AF1EE10FA46D09FED580AB0EE2E
:100AD000408A0020019002900390D4ED000A60EE5D
:100AE000A00A94ED011AD4ED011A41EE210A94ED09
:100AF000021AD4ED021A41EE210AB0EE600A00F0AB
:100B0000A9F8B0EE408A94ED000A20EE080A8DEDB7
:100B1000010A94ED010A20EE080A8DED020A94ED17
:100B2000020A20EE080A8DED030ADDED010AF1EE5E
:100B3000600AB0EE600AFFF71AFFF0EE409A9DEDF2
:100B4000031AF0EE410A9DED021AB0EE410AFFF7DA
:100B500010FFB0EE40AA07E09FED340AF0EE409A95
:100B60009FED320AB0EE40AA95ED000AB5EEC00A3C
:100B7000F1EE10FA0DD195ED010AB5EEC00AF1EED5
:100B800010FA06D195ED020AB5EEC00AF1EE10FAA0
:100B90003CD0B0EE690A00F06EF8B0EE408AB0EEDC
:100BA000690AFFF7E8FEB0EE40DAB0EE4A0A00F05C
:100BB00062F8F0EE40AAB0EE4A0AFFF7DCFEB0EEB3
:100BC00040BA28EE2A0AD5ED010A20EE200AD5ED1A
:100BD000000A0DEE200A68EE0B0A95ED021A00EEEF
:100BE000810AB0EE40CA95ED010A20EE0B0AD5ED60
:100BF000020A0AEEE00AF0EE40CAF0EE6C0AB0EE2D
:100C00004C0AFFF7B6FEF0EE40BA03E09FED070A8C
:100C1000F0EE40BAB0EE4A1AF0EE690AB0EE6B0A96
:100C2000304602F0D9FA00BFE4E600000000000000
:100C30005C0100206001002035FA8E3CC1BFAD3B55
:100C40009DF8C5362F7C1C4164010020506CC24ABF
:100C500068010020F1EEC00A10B5F4EE600AF1EE72
:100C600010FA03D002F0C0F8F0EE400AB7EE001A16
:100C700081EE200A10BDFFF73FBB2DE9F0412DEDBD
:100C8000028B9AB00546B0EE408A0E46174698464B
:100C900000201790189019901490159016904DB14F
:100CA00046B13FB1B8F1000F04D0B5EEC08AF1EE05
:100CB00010FA05D100201AB0BDEC028BBDE8F0811E
:100CC00096ED000A8DED170A96ED010A8DED180AD2
:100CD00096ED020A8DED190A97ED000A8DED140AC2
:100CE00097ED010A8DED150A97ED020A8DED160AB2
:100CF00017AA14A9284602F0C1F8402104A8FFF75A
:100D0000D0FB00200090019002900390002417A9CE
:100D100004A803F0F2FD00BF30E004A800EB0410CB
:100D200090ED000AD5ED000A20EE200A04A800EBA1
:100D30000410D0ED010A95ED011A00EE810A04A815
:100D400000EB0410D0ED020A95ED021A00EE810AC4
:100D500004A800EB0410D0ED030A95ED031A00EE91
:100D6000810A20EE080AF0EE000A80EE201A68469A
:100D700000EB840080ED001A601CC4B2042CCCDBB4
:100D8000002410E005EB840090ED000A684600EBBB
:100D90008400D0ED000A30EE200A05EB840080EDDF
:100DA000000A601CC4B2042CECDB284603F044FDAE
:100DB000012080E7002310B4A82100FB01F49C4629
:100DC0004FF0E0204461C0F818C0016941F0010112
:100DD0000161016911F0010F02D011F4803FF8D0D8
:100DE000016921F001010161C0F818C05B1CB3F575
:100DF0007A7FE7DB10BC7047A82141434FF0E02029
:100E0000416100238361016941F0010101610169D0
:100E100011F0010F02D011F4803FF8D0016921F0E8
:100E200001010161836170472DE9F05F4FF0000B14
:100E300002F088FA002818BF802440F0B980DFF85B
:100E40008C9100241021484601F08AF8604E8021E0
:100E5000304601F0A3FB5521304601F09FFB5521A0
:100E6000304601F09BFB1021484601F07BF89620AC
:100E7000FFF7C2FF1021484601F072F8802130468A
:100E800001F08CFB5521304601F088FB552130469E
:100E900001F084FB1021484601F064F89620FFF72A
:100EA000ABFF1021484601F05BF87E21B6253046A5
:100EB00001F074FB2946304601F070FB10214846D2
:100EC00001F050F85020FFF775FF1021484601F05F
:100ED00047F88021304601F061FB5521304601F092
:100EE0005DFB5521304601F059FB1021484601F0C9
:100EF00039F89620FFF780FF1021484601F030F8BE
:100F00008021304601F04AFB5521304601F046FB76
:100F10005521304601F042FB1021484601F022F8ED
:100F20009620FFF769FF2B4D1021484601F018F875
:100F300004EB440707EB0508E95D98F801A030468B
:100F400001F02CFB5146304601F028FB10214846A9
:100F500001F008F89620FFF74FFF1021484600F0F7
:100F6000FFFFE85D40F08001304601F017FB55219E
:100F7000304601F013FB5521304601F00FFB0746C8
:100F80001021484600F0EEFF9620FFF735FF98F855
:100F90000100B84204D004EB44002844807804E007
:100FA000601CC4B2062CBFD3002040EA0B0400BF73
:100FB00002F074FC00281CBF44F04000BDE8F09F24
:100FC00002F0B8FB2043BDE8F09F000000000240A3
:100FD00000300140BC0000202DE9F05F644F8B46DB
:100FE000804691469221384601F0D8FADFF888A170
:100FF000604D1021504600F0B3FF9221384601F0B9
:10100000CDFA9221384601F0C9FA0024552138461C
:1010100001F0C4FA641C05F8010B062CF6DB102164
:10102000504600F09FFF534E70783178000200B2B6
:10103000084300EE100AF8EEC00A9FED500A60EE79
:10104000800ACBED000AF078B178000200B20843C4
:1010500000EE900AF8EEE00A60EE800ACBED010A9D
:1010600070793179000200B2084300EE900AB8EEC0
:10107000E01ADFED430A3546012151EE000ACBEDBF
:10108000020ADFF800B1584600F06AFF80213846B6
:1010900001F084FA00245521384601F07FFA641CDF
:1010A00005F8010B082CF6DB0121584600F05AFF29
:1010B00030780F2828D1F078B178000200B20843C8
:1010C00000EE100AF8EEC00A9FED2F0A60EE800ACB
:1010D000C8ED000A70793179000200B2084300EED1
:1010E000900AF8EEE00A60EE800AC8ED010AF07995
:1010F000B179000200B2084300EE900AF8EEE00A6F
:1011000020EE800A88ED020A1A4C1021504600F0A9
:1011100027FFA2252946384601F040FA29463846DD
:1011200001F03CFA00255521384601F037FA6D1CD4
:1011300004F8010B062DF6DB1021504600F012FFDB
:1011400030787178C00040EA5110B0F5806FA8BFC8
:10115000A0F5006000EE100AB4EE001AF8EEC00A26
:10116000B3EE070A00EE810A89ED000ABDE8F09FA0
:1011700000300140B400002000000240E7416B3A1B
:101180000AD7233E0004024058A08B3AFEE7000035
:1011900010B51E4C86B00221204600F00BFA002844
:1011A00004BF06B010BD0221204600F03DF96A469A
:1011B0000021204600F008FB0098A0F5A0615539F9
:1011C0001FBFA0F58061B1F5AB7106B010BD10482E
:1011D00001F032FC009880B2A0F5A0610D485539AD
:1011E0000BD001291CBF06B010BDDDF80B108160CB
:1011F000DDF80F10C16006B010BDDDF80B10016006
:10120000DDF80F10416006B010BD00000064004022
:10121000260000202B00002070B58AB00121082094
:1012200001F004F90121480601F00CF92F4D0922C3
:101230000021284600F083FE09220121284600F003
:101240007EFE02208DF8240000248DF8264003261F
:101250008DF827408DF8256008A92846089600F0EB
:1012600021FE08208DF80400ADF8006001258DF8FE
:1012700005608DF808408DF809501D4E8DF802402C
:101280008DF807408DF80A408DF803508DF8064020
:101290008DF80B406946304600F01CFA8DF8164078
:1012A0008DF817408DF81850ADF80C40ADF810408F
:1012B000ADF80E40ADF81240ADF814408DF819505D
:1012C00003A800F0FFF801220221304600F0FAF9ED
:1012D00014208DF81C008DF81D508DF81E408DF8DF
:1012E0001F5007A800F0F2FF0AB070BD000C0240CA
:1012F0000064004010B5114C86B00221204600F079
:1013000059F9002804BF06B010BD0221204600F0A4
:101310008BF86A460021204600F056FA08490098EA
:10132000084401F089FB0098064AA0F50070C0B29D
:101330000DF10B0102F0AAFE06B010BD00680040DE
:1013400027FEFF1FF801002070B58AB0012102209E
:1013500001F06CF80121880601F074F8304D092283
:101360000521284600F0EBFD09220621284600F061
:10137000E6FD02208DF8240000248DF82640602030
:101380008DF82740032608908DF8256008A9284687
:1013900000F088FD08208DF80400ADF800600125FC
:1013A0008DF805608DF808408DF809501D4E8DF8B8
:1013B00002408DF807408DF80A408DF803508DF8F3
:1013C00006408DF80B406946304600F083F90F2047
:1013D0008DF816008DF817408DF81850ADF80C40B8
:1013E000ADF81040ADF80E40ADF81240ADF8144025
:1013F0008DF8195003A800F065F80122022130464B
:1014000000F060F940208DF81C008DF81D508DF81B
:101410001E408DF81F5007A800F058FF0AB070BD9D
:10142000000402400068004010B4082304224FF07A
:10143000100CB1F5007F40D021DC202902BF0361F0
:1014400010BC704710DC012901BF1D49816010BC30
:101450007047042902BFC36010BC7047082908BF49
:10146000C0F80CC010BC7047402902BFC0F810C0C3
:1014700010BC7047B1F5807F1FD010BC70470024AE
:10148000B1F5004F08D00BDCB1F5806F15D0B1F588
:10149000006F1CBF10BC70478461426010BC704775
:1014A000B1F5803F02BF436010BC7047B1F5003F0B
:1014B00008BFC0F804C010BC7047426010BC704741
:1014C0000101010030B4817A354B012202FA01F1A9
:1014D0001A6842F001021A60DFF8C8C0DCF8002088
:1014E0008A43CCF80020047B2F4AD4B914688C437B
:1014F00014604488C58844EA0544857AED0005F106
:10150000804505F5C045C5F840460488858844EA0D
:101510000544857AED0005F1804505F5C045C5F81F
:101520004446047B012C18D114680C431460847A5F
:101530000268E40004F1804404F5C0444FEA3242FA
:10154000C4F84026847A4268E40004F1804404F53B
:10155000C0444FEA3242C4F84426C47A134A002CED
:1015600014680CBF8C430C4314600489104A14B9EE
:1015700014688C4314600489012C02D114680C4354
:101580001460407B012804D1DCF800000843CCF84B
:101590000000186820F00100186030BC704700009F
:1015A000006600401C6600400C6600400466004077
:1015B000146600400246002053690B4208BF704782
:1015C000B1F5807F64D01CDC082949D00CDC0129EE
:1015D00038D002293ED0042918BF7047D1680020B6
:1015E00011F0080F34D1704710293FD0202943D083
:1015F000402918BF70471169002011F0100F27D142
:101600007047B1F5004F55D00FDCB1F5007F45D0E4
:10161000B1F5806F48D0B1F5006F18BF7047916980
:10162000002011F0700F13D17047B1F5803F29D021
:10163000B1F5003F18BF70475168002011F0100F3E
:1016400006D1704791681E4A0020114208BF7047BA
:1016500001207047D168002011F0030FF8D17047C6
:10166000D168002011F0100FF2D1704711690020ED
:1016700011F0030FECD170471169002011F0080F31
:10168000E6D170475168002011F0080FE0D1704793
:101690009169002011F0010FDAD1704791690020A3
:1016A00011F0020FD4D170479169002011F0040F9E
:1016B000CED170475168002011F0040FC8D1704797
:1016C00001010100002A426914BF114322EA01010D
:1016D000416170470268002322F002020260026842
:1016E00042F0010202604FF6FF7200BFD0F804C062
:1016F0001CF0010F03D1934218BF5B1CF6D1436865
:1017000013F0010F5DD08B79012B03680CBF43F000
:10171000800323F080030360CB79012B03680CBFA7
:1017200043F0400323F0400303600B7A012B03686E
:101730000CBF43F0200323F0200303604B7A012BFE
:1017400003680CBF43F0100323F0100303608B7A8F
:10175000012B03680CBF43F0080323F00803036068
:10176000CB7A012B03680CBF43F0040323F004037E
:1017700003608B7891F803C04FEA837343EA0C63EC
:1017800091F804C043EA0C4391F805C0098843EA84
:101790000C53A1F1010143EA0101C161016821F08B
:1017A000010101604FF00001436813F0010F1CBFFD
:1017B0009142491CF8D1406810F0010F04BF01208C
:1017C00070474FF00000704700EB0113D3F8B0C131
:1017D0001CF0040C82F808C0D3F8B0C107BF4FEA70
:1017E0005C5CC2F800C04FEADC0CC2F804C0D3F85D
:1017F000B0C10CF0020C82F809C0D3F8B4C10CF0EF
:101800000F0C82F80AC0D3F8B4C14FEA1C2C82F83E
:1018100013C0D3F8B8C182F80BC0D3F8B8C14FEAEF
:101820001C2C82F80CC0D3F8B8C14FEA1C4C82F8CB
:101830000DC0D3F8B8C14FEA1C6C82F80EC0D3F8C3
:10184000BCC182F80FC0D3F8BCC14FEA1C2C82F88F
:1018500010C0D3F8BCC14FEA1C4C82F811C0D3F8B9
:10186000BC311B0E937421B1016941F0200101616B
:101870007047C16841F02001C160704710B4024652
:101880000020936813F0806F3FD000BF02EB00127E
:10189000D2F8803103F00103C2F880310B7A002BBB
:1018A00042D0D2F880C14C684CEA030391F809C0D9
:1018B0004CEAC40C43EA0C03C2F880318B7A03F083
:1018C0000F038B72D2F8843123F00F03C2F88431F6
:1018D000D2F8843191F80AC043EA0C03C2F884318B
:1018E000CB7AD1F80CC043EA0C23C2F88831CB7B09
:1018F000096943EA0121C2F88C11D2F8801141F044
:101900000101C2F8801110BC7047906810F0006FA0
:1019100018BF0120BAD1906810F0805F14BF022078
:101920000420B3D110BC7047D2F8803191F809C0BF
:1019300043EA0C03B1F800C043EA4C53BCE7000093
:101940001A4A002904BF8068194907D0012904BF39
:101950008068184902D0022902D022E0084002E043
:10196000806815490840A0F10061A1F5807190429E
:1019700015D008DCA8B16FF08061401808BF70472F
:10198000022810D00BE0B1F5007F0CD0A1F100606F
:10199000B0F57F4008BF7047B0F5003F03D000208E
:1019A00070470220704701207047000000010008C6
:1019B0000300000400030008000003100000000002
:1019C0002DED0C8B84B00026D74C00960196029624
:1019D00002F0B6F9206502F0AFF99FEDD40A606518
:1019E0008DED000A9FEDD2AAB7EE000A8DED01AA97
:1019F0008DED020A00259FEDCF8A00BF05EB051093
:101A000004EB8000F0EE4A0AB0EE480A6946D43092
:101A100000F09EFC681CC5B2042DEFD3B0EE4A0A5C
:101A20008DED000A8DED010A8DED020AF0EE400AFF
:101A3000694604F5F27000F08BFCBF48A065BF4812
:101A40004FF0050B4FF00209F0EE00AA9FEDBCBA73
:101A5000DFEDBCBA9FEDBCCA9FEDBD9BDFEDBEDAEA
:101A6000DFEDBECADFF8F8A2DFF8BC82B0EE04DA20
:101A7000C4F85C00D8F85000C079012808BF88F885
:101A80004CB017D0022801D0032802D088F84C901F
:101A900010E0032088F84C0098F84D00022809D186
:101AA000D8F85C1000200860D8F8580090ED000AC3
:101AB00088ED100A98F84C0088F84D0098ED210A3E
:101AC000994C20EE2A0A20EE0B0A20EE2B0A88ED14
:101AD000190A98ED270A20EE2A0A20EE0B0A20EEBA
:101AE0002B0A88ED1A0A98ED2D0A20EE2A0A20EE1C
:101AF0000B0A20EE2B0A88ED1B0A98ED330A20EE24
:101B00002A0A20EE0B0A20EE2B0A88ED1C0AD8F8D0
:101B1000580090ED000AD8F85C00D0ED000AF8EE0D
:101B2000E00A00EE8C0A88ED180A256DB5F901006F
:101B3000FEF7DBFD53EC192BFEF765FDFEF7F9FD13
:101B400008EE900AB5F90300FEF7CFFD53EC192B10
:101B5000FEF759FDFEF7EDFD08EE100AB5F9050098
:101B6000FEF7C3FD53EC192BFEF74DFDFEF7E1FD2B
:101B7000F5EEC08AE063F1EE10FA04BF84ED0DAA21
:101B800084ED08AA09D0F0EE6D0AB0EE680A04F1FF
:101B90001C0000F028F984ED0D0AB5EEC08AF1EEC4
:101BA00010FA04BF84ED0EAA84ED0BAA09D0F0EE62
:101BB0006D0AB0EE480A04F1280000F014F984ED33
:101BC0000E0A94F84C00032807D194ED180AD4EDBE
:101BD0000F0A00EEAC0A84ED100A534890F84C103E
:101BE00071B1022906D0032907D0052908BF01F0E9
:101BF0009BFF07E001F0DAFF04E001F019FF01E0CC
:101C000001F040FF484C206DC179062976D2DFE80B
:101C100001F003037503750394ED038A04F10C05C9
:101C20005FF00106B0EE480A00F012F905EB8607F6
:101C3000F0EE408A97ED000A00F00AF9F4EEC08A4F
:101C4000F1EE10FA38BF97ED008A701CC6B2022E72
:101C5000E8D318EE100A504504DC18EE100A41498A
:101C600088420FD98DEE080A00F0F2F8D5ED000A8F
:101C700060EE800AC5ED000AD5ED010A20EE800A6B
:101C800085ED010AD4ED190A94ED030A04F1D4009C
:101C900000F072FBBDEEC00A10EE100AA4F844007A
:101CA00094ED040AD4ED1A0A04F58C70B1EE400AE2
:101CB00000F062FBBDEEC00A10EE100AA4F8460068
:101CC00094ED050AD4ED1B0A04F5AE70B1EE400A9E
:101CD00000F052FBBDEEC00A10EE100AA4F8480056
:101CE000D4ED1C0A94ED060A04F5D07000F044FB14
:101CF000BDEEC00A10EE100AA4F84A004FF40071BD
:101D0000B8F94A00CDE90001B8F94830B8F94620E1
:101D1000B8F94410144800F003FC052002F058FF05
:101D2000A8E6000000000000840100200000FA4541
:101D30000000000000408346AC030020C4030020E4
:101D4000DA0F4940DE718A3DC3F5C840000000004B
:101D5000FA7E6ABC7493683F0AD7A33C0AD7233C37
:101D600000002040000020C00068004010B402685D
:101D70001B4BD1F80CC01A400B6843EA0C03D1E9A5
:101D800005C44CEA040C43EA0C03D1F81CC043EA36
:101D90000C03D1F820C043EA0C03D1F824C043EA75
:101DA0000C03D1F828C043EA0C03D1F834C043EA4D
:101DB0000C03D1F838C043EA0C031A4302604269AD
:101DC000D1E90B3C22F0070243EA0C031A434261BB
:101DD0000A6942604A6882608968C16010BC7047C5
:101DE0003F801CF0704780ED000AC0ED020A90EDC4
:101DF000011AB5EEC00AF1EE10FACCBF71EE200A5E
:101E000071EE600AC0ED010AF0EE400AF5EEC00A7C
:101E1000F1EE10FA08DD90ED011AF0EE400AF4EE52
:101E2000C10AF1EE10FA0DD9F0EE400AF5EEC00A43
:101E3000F1EE10FA08D2D0ED010AB4EEE00AF1EEAC
:101E400010FA01DB80ED010A90ED010A70470000F5
:101E5000B5EEC00AF1EE10FA04BF9FED080A704714
:101E6000B5EEC00AF1EE10FAC8BF7047B5EEC00A71
:101E7000F1EE10FA38BFB1EE400A704700000000E2
:101E8000B4EEE00AF1EE10FAC4BFB0EE600A70479B
:101E9000B4EEC10AF1EE10FA00D37047B0EE410A79
:101EA000704700002DE9F001002201255FF00306D4
:101EB000D1F800C005FA02F30CEA030C9C4537D1B7
:101EC00007684FEA420C06FA0CF4A74307600F7943
:101ED000D0F8008007FA0CF747EA080707600F7987
:101EE000012F18BF022F17D1876827EA04078760E0
:101EF0004F79D0F8088007FA0CF747EA080787609F
:101F0000476827EA0303436043688F7907FA02F7BB
:101F1000BFB243EA07034360C36823EA0403C36014
:101F2000CB7903FA0CF3D0F80CC043EA0C03C3607E
:101F300002F10102102ABBD3BDE8F00170474B0744
:101F4000DB0E9A40C90800EB8100016A4FF00F0CCC
:101F50000CFA03F399430162016A1143016270476D
:101F600041837047018370472DED088B84B0FEF7E5
:101F70005BFF30B1642002F02BFEFEF755FF002816
:101F8000F8D1DFF87C8208F1100208F10401101D7D
:101F9000FFF722F84346A3F1600208F1240BA2F1F7
:101FA0000C01A1F10C00CDF800B001F0CDFEA8F1BC
:101FB0006002A2F10C0101F11800FEF7FDFCA8F18E
:101FC0006C09A8F1840799ED000AA7F10C0687EDCA
:101FD000000AA6F10C0A86ED000A8AED000A99EDC6
:101FE000010A884A87ED010A86ED010A8AED010A95
:101FF00099ED020A87ED020A86ED020A8AED020ACD
:10200000D2E900019268DFED800A9FED800ACDE9F8
:1020100000010292694606F14C0000F099F9DFEDEB
:102020007C8A9FED7CBA9FED7C9ADFED7CBA9FEDB8
:102030007CABA6F1180500BF08F1100208F10401FD
:10204000101DFEF7C9FF6E4BCDF800B0A3F1600282
:10205000A2F10C01A1F10C0001F076FED6ED000A10
:10206000714BCAED000A97ED000AA3F1240286ED38
:10207000000A20EE280A02F10C0101F1240000EE12
:102080008B0AD9ED000A00EE890A87ED000AD6ED29
:10209000010ACAED010A97ED010A86ED010A20EE58
:1020A000280A00EE8B0AD9ED010A00EE890A87EDB5
:1020B000010AD6ED020ACAED020A97ED020A86ED80
:1020C000020A20EE280A00EE8B0AD9ED020A00EE81
:1020D000890A87ED020AB0EE6B0AFEF7CEFD534C7B
:1020E000214604F10803221D01F16C0001F0B0FD4E
:1020F0002068FEF70BFB53EC1A2BFEF7DDF9FEF719
:1021000018FB09EE900AC4ED009A6068FEF7FEFA2B
:1021100053EC1A2BFEF7D0F9FEF70BFB08EE100A72
:1021200084ED018AA068FEF7F1FA53EC1A2BFEF752
:10213000C3F9FEF7FEFA01EE100A04F10C0084ED7B
:10214000021A90ED000A3A4979EEC00A10EE902A80
:102150008A4224BF2968491C07D210EE901A354ADA
:102160009142C4BF2968491E00DD296090ED010A33
:10217000314978EE400A10EE902A8A4284BF6A689C
:10218000521E07D810EE902A2C4B9A42C4BF6A68A0
:10219000521C00DD6A6090ED020A71EE400A10EEFA
:1021A000902A8A4284BFA968491E07D810EE901A67
:1021B000224A9142C4BFA968491C00DDA960C0ED54
:1021C000009A80ED018A9FED1E8A80ED021A9FED34
:1021D0001D0AF0EE480A1C4800F0CEF8B0EE481A8E
:1021E000DFED1A0AFFF74CFEBCEEC00A184810EEED
:1021F000101A00F0F6FA012002F0EAFC1CE70000D9
:102200006C040020705700080000C84200007A44A7
:102210005AF8F63F5D896EBFD5A9183B6F12833A15
:102220004AD8124DFB2109400C040020AC030020C9
:102230006666C6C06666C6400000A0C00000A0403A
:102240000000000000002042280400200080ED442F
:1022500000440140FEE7000010B582B0012180205B
:1022600000F0E4F80121102000F0E0F801208DF8E2
:10227000040000218DF806108DF807000003114CB2
:102280008DF80510009069462046FFF70BFEE0141C
:10229000009069462046FFF705FE2015009069462C
:1022A0002046FFF7FFFDA1142046FFF759FEE11479
:1022B0002046FFF755FE21152046FFF751FE02B0DC
:1022C00010BD0000001C0240FEE7704710B4C27849
:1022D00001780F244FF0010C0AB3174A126801F17C
:1022E000E02102F4E062C2F5E062C2F30722C2F12B
:1022F0000403D44042789A40837823401A43120161
:1023000081F80024007800F01F010CFA01F1400967
:10231000800000F1E020C0F8001110BC704701F00F
:102320001F000CFA00F04909890001F1E021C1F811
:10233000800110BC704700000CED00E0034940F044
:10234000FD7040F080600860704700000CED00E018
:10235000002808BF704791ED001A80ED001A91ED3A
:10236000011A80ED011A91ED021A80ED021A80ED3A
:10237000030AC0ED040A704780ED0F0A90ED0A1AB7
:1023800080ED0B1A90ED092A30EE601A80ED0A2AD2
:1023900080ED091AC0ED100A90ED000A60EE011AF6
:1023A000C0ED051A90ED060AD0ED010A00EE810A93
:1023B00080ED060AD0ED0D0AC0ED0E0AD0ED0C0A34
:1023C000C0ED0D0A71EE420AC0ED0C0A90ED021A42
:1023D00021EE201A80ED071AD0ED040AB4EEE00ACF
:1023E000F1EE10FA06DCF1EE600AB4EEE00AF1EE6E
:1023F00010FA01D2B0EE600A80ED060A30EE210A32
:1024000070EE010A90ED030AF4EEC00AF1EE10FA44
:1024100008DCB1EE400AF4EEC00AF1EE10FA28BF73
:10242000B0EE600A80ED080A70470000044A0029F7
:10243000116814BF084321EA0000106070470000D3
:1024400030380240044A0029116814BF084321EAC9
:10245000000010607047000040380240044A002924
:10246000116814BF084321EA0000106070470000A3
:1024700044380240254A30B41168254B11F00C0154
:1024800006D0244C042908BF046002D008291ED0BD
:10249000036011680F2303EA11111F4B595CD0F838
:1024A00000C02CFA01F14160D2F800C0072404EA10
:1024B0009C2C13F80CC021FA0CFCC0F808C0126860
:1024C00004EA52329A5CD140C16030BC7047134973
:1024D000D1F800C0CCF38055D1F800C0002D0CF02D
:1024E0003F0C14BFB4FBFCF3B3FBFCF3D1F800C00A
:1024F0000968CCF3881C03FB0CF3C1F30141491CB0
:102500004900B3FBF1F10160C3E700000838024065
:102510000024F400001BB70014000020043802401F
:1025200030B585B00546DDE9080CCDF800C04FF0A8
:10253000000C8DF808C08DF809C04FF0080C8DF81C
:102540000AC04FEA112C8DF80C10110A8DF80D10ED
:102550008DF80E20190A8DF80F108DF81030010A31
:102560008DF811108DF812008DF80BC069462846C1
:10257000FFF784F9044621462846FFF7E1F90028D1
:10258000F9D005B030BD0246002012890A4218BFBA
:1025900001207047808970478181704770B50D4672
:1025A000044602212046FFF7EEFF0028F9D0294615
:1025B0002046FFF7F1FF01212046FFF7E4FF002846
:1025C000F9D02046FFF7E6FFC0B270BD10B550202D
:1025D00080F31188BFF34F8FBFF36F8F02F09AFE25
:1025E00018B104494FF080500860002080F3118832
:1025F00010BD000004ED00E0374882B0016841F4EE
:10260000700101603548016841F001010160344901
:1026100000230B60026822F4102222F08072026014
:1026200000F1040C2F4ACCF80020026822F480222A
:1026300002600A1D136001930093026842F4803225
:102640000260026802F400320092019A521C019268
:10265000009A1AB9019AB2F5A04FF2D1026812F4A9
:10266000003F08BF009331D0012200921E4A136838
:1026700043F0805313601D4A136843F440431360D2
:102680000A680A600A6842F400420A600A6842F472
:10269000A0520A60164ACCF80020026842F080720C
:1026A0000260026812F0007FFBD0124A40F205700F
:1026B0001060086820F003000860086840F002001D
:1026C0000860086800F00C000828FAD10A494FF0A9
:1026D0000060086002B0704788ED00E000380240FA
:1026E000083802401030002440380240007000409A
:1026F0000C544007003C024008ED00E010B5074CC8
:102700000121204600F05CF8012818BF10BD01210E
:102710002046BDE8104000F045B80000000400402D
:1027200070B51E4D0121284600F04AF81C4C0028C7
:102730001FBF207810F0400F401C20704FF00201A6
:10274000284600F03DF818B3207810F0400F0BD069
:1027500040F080002070284600F030F860600021D2
:10276000284600F038F813E040210020217001468F
:102770006060284600F019F80021284600F035F87E
:102780000221284600F027F80121284600F00DF824
:102790002846BDE87040032100F004B8000C00405A
:1027A000AC000020C943018270470029018814BF92
:1027B00041F0010121F0010101807047406B704739
:1027C000038A002280890B4200EA01001CBF002816
:1027D000012210467047028C22F00202114301844C
:1027E000704741637047C1637047416270470000A2
:1027F000F0B597B001211020FFF730FE0121084607
:10280000FFF714FE01210220FFF710FE01218805C9
:10281000FFF70CFE3D4E072209213046FFF78FFBE4
:102820003B4F072211463846FFF789FB02218DF8FE
:10283000441000248DF8464008028DF8451001250B
:1028400010908DF8475010A93046FFF72BFB8020E1
:10285000109010A93846FFF725FB4FF4E130129095
:10286000ADF850400C202B4EADF84C40ADF8520066
:10287000ADF84E40ADF8544012A9304600F07EF855
:102880000121304600F050F8012240F22441304648
:1028900000F05BF825208DF83C008DF83D508DF858
:1028A0003E408DF83F500FA8FFF710FDED06301D9C
:1028B000CDE9005018480290402003904FF4FA7080
:1028C000CDE904046814CDE9060480010894CDE93B
:1028D00009400320CDE90B400D9469460F480E9442
:1028E000FFF744FA0E48CDE90204694600950D4809
:1028F000FFF73CFA01228021304600F01EF8012249
:102900004021304600F019F817B0F0BD0000024039
:102910000004024000100140A8000020B8640240FA
:10292000C4040020406402400029818914BF41F49E
:10293000005121F4005181817047002A828A14BF1E
:10294000114322EA010181827047C1F3421301F071
:102950001F014FF0010C0CFA01F1012B08BF0C30E4
:1029600003D0022B0CBF10301430002A026814BFB1
:10297000114322EA010101607047000030B50446AE
:10298000008A85B00D46C98820F440500843208253
:10299000A089A9882A8920F4037011436A8920F448
:1029A000A05010430843A081A08AA98920F4407058
:1029B0000843A0826846FFF75DFDA4F18040B0F5B2
:1029C00088301BBFA4F18040B0F58A30039802988C
:1029D000A18911F4004F00EBC00101EB0010296840
:1029E00014BF49008900B0FBF1F0114A6FF0180CD8
:1029F000A2FB0031490909010B0903FB0CF300EBB1
:102A00008300A38913F4004F4FF0320314BF03EB8C
:102A1000C00003EB0010A2FB00204FEA501014BFCF
:102A200000F0070000F00F000843208105B030BD22
:102A30001F85EB51FEE700000149097801707047DE
:102A4000240000204100080218BF04200A0E18BF0D
:102A500040F001004FF07F4232EA010108BF40F030
:102A60000200012808BF05207047000010B54FF094
:102A70000E402DED028BB0EE408A18EE104A00EBAE
:102A80004400B0F1506F4AD84FF0FC40B0EB440F17
:102A900022D2B0EEC80AF7EE000A30EEC00AF6EE17
:102AA000000A60EE208A18EE900A01F007FF01EE9E
:102AB000100A14F0004F1DBFDFED2D0A9FED2D0A07
:102AC000B1EE411ADFED2C0A08BF9FED2C0AF8EE9B
:102AD000001A21EE218A05E0DFED290A68EE088A56
:102AE000B0EE600A9FED271ADFED271A30EE080AD4
:102AF00048EE811A9FED251A08EEA11ADFED241A7F
:102B000048EE811A9FED231A08EEA11A68EE281AE2
:102B1000BDEC028B01EE810A30EE200A10BD4FF0B1
:102B2000E440B0EB440F0CD918EE100AFFF78AFF0F
:102B3000042808BF00F084F9B0EE480ABDEC028B0F
:102B400010BD4FF07F40B0EB440F07D2B0EE480A03
:102B5000BDEC028BBDE8104000F063B9012000F02D
:102B600087F9BDEC028BBDE8104000F061B90000B0
:102B70000000C9BF22AAFDB90000C93F22AAFD3941
:102B80000000000024FE1C3DC78AD83C1E67383D6B
:102B90001B93993DAFAA2A3E10EE100A10B510EE15
:102BA000901A4FF0684202EB40032DED028BB3F117
:102BB000654F3CBF02EB4102B2F1654F7CD200BFD2
:102BC000C0F3C753C1F3C7529A1A1B2A09DD10F08C
:102BD000004F14BF9FED6E0A9FED6E0ABDEC028B95
:102BE00010BD12F11A0F1BDA11F0004F09D010F0CE
:102BF000004F0CBF9FED680A9FED680ABDEC028B89
:102C000010BD80EE208A18EE100AFFF71BFF042883
:102C100008BF00F015F9B0EE480ABDEC028B10BDFC
:102C20004200B2EB410F37D910F0004F19BFDFED72
:102C30005C1A9FED5C1ADFED5C1A9FED5C1AB0EE3A
:102C4000602A0A46F1EE400A80F00041B0EE420AE6
:102C500010460A1A5200B2F1807F34D2484010F078
:102C6000004FDFED532A9FED533A1DBFBEEE002A01
:102C700071EEE21A31EE431AB6EE002A04BF71EE8D
:102C8000A21A31EE031AF0EE402A42EE602A40EE1C
:102C9000020A82EEA02A18E011F0004F04BF9FED57
:102CA000461AF0EE411AD4D010F0004F1CBFDFEDF1
:102CB000431A9FED431A00E026E004BFDFED411AFE
:102CC0009FED411AC5E780EE202A22EE020ADFEDD1
:102CD0003F0ADFED3F2ABDEC028B40EE202ADFEDFC
:102CE0003D0A40EE220ADFED3C2A40EE202ADFEDCD
:102CF0003B0A40EE220A22EE000A00EE201A31EED4
:102D0000020A30EE210A10BD4FF07F42B2EB400FB5
:102D100028BFB2EB410F05D2BDEC028BBDE81040DD
:102D200000F082B840EA01035B0008BF41F0FF41B8
:102D30000BD0B2EB400F08BFB2EB410F08D120F02F
:102D4000804000EE100A21F0804100EE901A37E733
:102D5000B2EB400F12BF5FEA410240F0FF4001F0CA
:102D600000413FF42DAF4A0092EA40033FF528AFFF
:102D7000002AACBF9FED1A1A9FED1A1A20EE010A25
:102D800060EE810A10EE100A10EE901A18E70000AB
:102D9000DB0FC9BFDB0FC93FDB0F4940DB0F49C069
:102DA0000000C9BF22AAFDB90000C93F22AAFD390F
:102DB0000060ED3EC30ACE3700000000000049C0AD
:102DC00022AA7DBA0000494022AA7D3A2DAD65BDF8
:102DD0008FB8D53D0FB511BE61C84C3EA8AAAABE9A
:102DE0000000804F0000802F10B52DED028BB1EE5A
:102DF000C08A18EE100A20F00040C0F1FF40C00F5A
:102E00000AD010EE100A20F00040C0F1FF40C00FC1
:102E100004BF012000F02CF8B0EE480ABDEC028B94
:102E200010BD30EE000A704730EE200A70470000F7
:102E3000DFED020A80EEA00A7047000000000000EB
:102E40009FED020A20EE000A70470000000000100B
:102E500002E008C8121F08C1002AFAD17047704763
:102E6000002001E001C1121F002AFBD170470000C1
:102E700001490860704700006C01002070B52DED1D
:102E8000028B8AB005460C4616460DB104B11EB938
:102E90000AB0BDEC028B70BD94ED000AB5EEC00A1D
:102EA000F1EE10FA0DD194ED010AB5EEC00AF1EE83
:102EB00010FA06D194ED020AB5EEC00AF1EE10FA4E
:102EC0007DD09FED600AB0EE408A00200790089008
:102ED00009900490059006905B4A07CA01AB07C3AE
:102EE00095ED010AD5ED030A20EE200AD5ED000A82
:102EF00095ED021A00EEC10AF0EE000A20EE200A5B
:102F00008DED070A95ED000AD5ED010A20EE200AA5
:102F1000D5ED020A95ED031A00EE810AF0EE000AE3
:102F200020EE200A8DED080A95ED000A20EE000A39
:102F3000D5ED030A95ED031A00EE810AF7EE000ABB
:102F4000B0EE001A51EE000ACDED090A01AB22469F
:102F50003146284600F07AF8D4ED000A60EEA00A67
:102F600094ED011AD4ED011A41EE210A94ED021AF2
:102F7000D4ED021A41EE210AB0EE600AFDF76AFEB6
:102F8000B0EE408A94ED000A20EE080A84ED000AB3
:102F900094ED010A20EE080A84ED010A94ED020A7C
:102FA00020EE080A84ED020A94ED010ADDED090A1B
:102FB00020EE200AD4ED020A9DED081A00E03EE062
:102FC00000EEC10A8DED040A94ED020ADDED070A58
:102FD00020EE200AD4ED000A9DED091A00EEC10A88
:102FE0008DED050A94ED000ADDED080A20EE200AB9
:102FF000D4ED010A9DED071A00EEC10A8DED060A17
:1030000096ED000ADDED010A9DED041A00EE810A3D
:1030100086ED000A96ED010ADDED020A9DED051A26
:1030200000EE810A86ED010A96ED020ADDED030A43
:103030009DED061A00EE810A86ED020A00BF00BF70
:1030400026E7000000000000905700082DE9F0413D
:103050002DED048B07460D4614461E469FED580A7B
:10306000B0EE409A9FED560AB0EE408A9FED540AAA
:10307000F0EE408AD4ED000A60EEA00A94ED011A49
:10308000D4ED011A41EE210A94ED021AD4ED021A90
:1030900041EE210AB0EE600AFDF7DCFDF7EE000A12
:1030A00080EE801AB0EE419AD5ED000AB0EE600ACB
:1030B000FDF763FCF0EE409AD5ED010AB0EE600A30
:1030C000FDF75BFC79EE809AD5ED020AB0EE600A5E
:1030D000FDF753FC39EE800AF0EE408A3948D0ED16
:1030E000000A79EE600AB0EE600AFDF746FCB0EE29
:1030F000408A9FED350AB4EEC08AF1EE10FA06DC84
:103100009FED320AF4EEC08AF1EE10FA53DD9FED26
:103110002C2AB0EE420A9FED2A2AF0EE421AB7EEB0
:10312000002AF0EE420A9FED262AB0EE421AB5EED2
:10313000C08AF1EE10FA05DD9FED232AC2EE082ABF
:10314000B0EE620A9FED222AB4EEC20AF1EE10FA46
:1031500003D29FED1B2AB0EE420AF5EEC08AF1EED3
:1031600010FA05DD9FED192AC2EE282AF0EE621A48
:10317000B7EE002AB4EEC20AF1EE10FA03D220EE46
:10318000802AF0EE420AB7EE002AF4EEC21AF1EEFF
:1031900010FA03D220EEA12AF0EE420A9FED0D2A8A
:1031A00020EE822AB0EE421A86ED001A86ED011A50
:1031B00086ED021A00BFBDEC048BBDE8F081000073
:1031C0000000000068010020CDCCCC3D8FC2F53D51
:1031D0009A99993ECDCC4C3E10B52DED048B86B01E
:1031E0000446B0EE408AF0EE608AB0EE419A0020CC
:1031F000039004900590009001900290B0EE000AB8
:10320000C8EE000AF0EE609AB0EE690AFDF7B3FB73
:103210008DED030AB0EE000AC8EE800AF0EE609A67
:10322000B0EE690AFDF7A7FB8DED040AB0EE000AC7
:10323000C9EE000AF0EE609AB0EE690AFDF79BFB5A
:103240008DED050AB0EE000AC8EE000AF0EE609AB5
:10325000B0EE690AFDF70FFD8DED000AB0EE000A31
:10326000C8EE800AF0EE609AB0EE690AFDF703FD41
:103270008DED010AB0EE000AC9EE000AF0EE609A88
:10328000B0EE690AFDF7F7FC8DED020A9DED050A27
:10329000DDED040A20EE200ADDED030A20EE200A0F
:1032A000DDED020A9DED011A60EE810A9DED001A26
:1032B00000EE810A84ED000A9DED020ADDED040AAC
:1032C00020EE200ADDED030A20EE200ADDED050ADE
:1032D0009DED011A60EE810A9DED001A00EEC10A13
:1032E00084ED010A9DED050ADDED010A20EE200ABC
:1032F000DDED030A20EE200ADDED020A9DED041A41
:1033000060EE810A9DED001A00EE810A84ED020A4A
:103310009DED050ADDED040A20EE200ADDED000A30
:1033200020EE200ADDED020A9DED011A60EE810A11
:103330009DED031A00EEC10A84ED030A06B0BDEC50
:10334000048B10BD2DE9F04F87B000200190029052
:103350008DF80000F44D074610212846FEF700FEC8
:10336000F24C80212046FFF719F955212046FFF73E
:1033700015F955212046FFF711F98DF800001021AD
:103380002846FEF7EFFD9620FDF736FD1021284672
:10339000FEF7E6FD80212046FFF700F95521204683
:1033A000FFF7FCF855212046FFF7F8F88DF80000EC
:1033B00010212846FEF7D6FD9620FDF71DFD1021B1
:1033C0002846FEF7CDFD7E21B6262046FFF7E6F81B
:1033D00031462046FFF7E2F810212846FEF7C2FDED
:1033E0005020FDF7E7FC10212846FEF7B9FD8021AB
:1033F0002046FFF7D3F855212046FFF7CFF8552197
:103400002046FFF7CBF88DF8000010212846FEF784
:10341000A9FD9620FDF7F0FC10212846FEF7A0FD3F
:1034200080212046FFF7BAF855212046FFF7B6F86D
:1034300055212046FFF7B2F88DF8000010212846EC
:10344000FEF790FD9620FDF7D7FC9DF800001E28A2
:1034500017BFFF20B64E07B0BDE8F08F10212846F9
:10346000FEF77EFD07EB470808EB060916F8081083
:1034700099F801A02046FFF791F851462046FFF742
:103480008DF810212846FEF76DFD9620FDF7B4FC5F
:1034900010212846FEF764FD16F8080040F0800170
:1034A0002046FFF77BF855212046FFF777F8552196
:1034B0002046FFF773F88DF8000010212846FEF72C
:1034C00051FD9620FDF798FC99F801109DF8000039
:1034D000814206D007EB47003044807807B0BDE852
:1034E000F08F5020FDF766FC781CC7B2042FB5D3CF
:1034F00000270DF10C0BA84610214046FEF730FDC9
:1035000007EB470909EB06052046297B95F80DA036
:10351000FFF744F851462046FFF740F81021404697
:10352000FEF720FD9620FDF767FC10214046FEF7D0
:1035300017FD287B40F080012046FFF72FF855212A
:103540002046FFF72BF855212046FFF727F88DF886
:10355000000010214046FEF705FD9620FDF74CFCCB
:10356000687B9DF80010884206D007EB4700304486
:10357000807B07B0BDE8F08F5020FDF71BFC01AD4C
:1035800010214046FEF7ECFC92212046FFF706F89A
:1035900092212046FFF702F84FF0000A55212046FD
:1035A000FEF7FCFF0AF1010A05F8010BBAF1060F5C
:1035B000F4DB10214046FEF7D5FC9DF805009DF890
:1035C000041041EA00202BF819009DF807009DF82F
:1035D000061041EA00210BEB490041809DF80910DB
:1035E0009DF8082042EA01218180781CC7B2022F91
:1035F00082D310214046FEF7B3FC6D210025204602
:10360000FEF7CCFF29462046FEF7C8FF10214046B2
:10361000FEF7A8FC9620FDF7EFFB10214046FEF7D1
:103620009FFCED212046FEF7B9FF55212046FEF70D
:10363000B5FF55212046FEF7B1FF8DF8000010219F
:103640004046FEF78FFC9620FDF7D6FB9DF8000064
:1036500000281EBF042007B0BDE8F08F10214046AF
:10366000FEF77EFC7E21B6252046FEF797FF294611
:103670002046FEF793FF10214046FEF773FC5020D2
:10368000FDF798FBBDF90C00BDF91210411A40F28C
:10369000555081420EDBBDF90E10BDF91420891A78
:1036A000814207DBBDF91000BDF91610401AB0F5D4
:1036B0002A7F03DA07B08020BDE8F08F1021404652
:1036C000FEF74EFC80212046FEF768FF552120467C
:1036D000FEF764FF55212046FEF760FF8DF80000DD
:1036E00010214046FEF73EFC9620FDF785FB102199
:1036F0004046FEF735FC80212046FEF74FFF55215E
:103700002046FEF74BFF55212046FEF747FF8DF878
:10371000000010214046FEF725FC9620FDF76CFBCB
:1037200007B00020BDE8F08F0000024000300140EB
:103730007C5700082DE9F047DFF85491002401215F
:103740004846FEF70DFC534E80213046FEF726FF1B
:1037500055213046FEF722FF01214846FEF702FCC4
:103760009620FDF749FB01214846FEF7F9FB802131
:103770003046FEF713FF55213046FEF70FFF0121BB
:103780004846FEF7EFFB9620FDF736FB0121484641
:10379000FEF7E6FB1421B6253046FEF7FFFE29466C
:1037A0003046FEF7FBFE01214846FEF7DBFB5020CA
:1037B000FDF700FB01214846FEF7D2FB8021304691
:1037C000FEF7ECFE55213046FEF7E8FE01214846A3
:1037D000FEF7C8FB9620FDF70FFB01214846FEF7D8
:1037E000BFFB80213046FEF7D9FE55213046FEF75B
:1037F000D5FE054601214846FEF7B4FB9620FDF7AD
:10380000FBFA0F2D16BFFF20234DBDE8F0870121E5
:103810004846FEF7A5FB04EB440707EB0508E95D06
:1038200098F801A03046FEF7B9FE51463046FEF743
:10383000B5FE01214846FEF795FB9620FDF7DCFA20
:1038400001214846FEF78CFBE85D40F080013046E0
:10385000FEF7A4FE55213046FEF7A0FE07460121E3
:103860004846FEF77FFB9620FDF7C6FA98F8011050
:10387000B94205D004EB440028448078BDE8F087C5
:10388000601CC4B2062CC2D30020BDE8F087000043
:103890000004024000300140CE0000202DE9F0413C
:1038A0004E4E002501213046FEF75AFB4C4F802139
:1038B0003846FEF773FE55213846FEF76FFE0121AC
:1038C0003046FEF74FFB9620FDF796FA0121304671
:1038D000FEF746FB80213846FEF760FE552138464C
:1038E000FEF75CFE01213046FEF73CFB9620FDF71B
:1038F00083FA01213046FEF733FB1421B624384603
:10390000FEF74CFE21463846FEF748FE01213046C0
:10391000FEF728FB5020FDF74DFA01213046FEF757
:103920001FFB80213846FEF739FE55213846FEF749
:1039300035FE01213046FEF715FB9620FDF75CFAB7
:1039400001213046FEF70CFB80213846FEF726FEAB
:1039500055213846FEF722FE01213046FEF702FBD4
:103960009620FDF749FA01213046FEF7F9FA3C218D
:1039700001243846FEF712FE21463846FEF70EFEB9
:1039800001213046FEF7EEFA5020FDF713FA4FF012
:10399000BC0801213046FEF7E3FA41463846FEF7FF
:1039A000FDFD55213846FEF7F9FD0446012130465C
:1039B000FEF7D8FA9620FDF71FFA681CC5B214F07E
:1039C000020F01D10A2DE4D30A2D04D014F0040013
:1039D00008BFBDE8F0814020BDE8F081000402404E
:1039E00000300140104F114E3878E62817D20024DD
:1039F000411C18BF0D4612D042F210713046FEF73E
:103A0000F2FEC82001F0E4F800213046FEF7EBFE9C
:103A1000C82001F0DDF8601CC4B2A542ECD84FF418
:103A20007A7001F0D5F8DFE725000020000800409B
:103A300010B50446D0ED180A90ED100A00F5F270AA
:103A4000FEF79AFC94ED0D2AD4ED0E1AF6EE000A5C
:103A500032EE611A72EE211AF0EE412AB0EE612ABE
:103A600040EE202A00EE602A00EE601A40EE201A96
:103A7000C4ED032A84ED042A84ED051AC4ED061A68
:103A800010BD000010B50446406D82B001A9D0F809
:103A9000010000EE100A6846FCF768FC606D9FEDBF
:103AA000210AD0F8010000EE900A04F5F270FEF74A
:103AB00063FC94ED810A84ED0F0AD4ED0D0A9DEDAF
:103AC000011A9DED002A60EE811A94ED0E1A41EE66
:103AD000421AC4ED001A9DED002A60EE820A9DEDA7
:103AE000012A41EE020AB6EE001AC4ED010A31EED7
:103AF000E02A71EEA00AF0EE422AF0EE601A40EEE3
:103B0000012A40EE411A00EE412A40EE010AC4EDBE
:103B1000032AC4ED041A84ED052AC4ED060A02B096
:103B200010BD00000000000010B50446406D82B0DA
:103B300001A9D0F8010000EE100A6846FCF716FC57
:103B4000B6EE000A84ED0F0A94ED0D1ADDED010AC0
:103B5000D4ED0E1A9DED002A61EE200A41EEC20A54
:103B6000C4ED000A9DED002A21EE021A9DED012A06
:103B700001EE821A84ED011A70EEC11A70EE810A0C
:103B8000B0EE612AB0EE601A00EE002A00EE401A94
:103B900040EE401A40EE000A84ED032A84ED041A38
:103BA000C4ED051AC4ED060A02B010BD002141643F
:103BB0008164704710B586B002A80124CDE90040A9
:103BC0000023402211A1144801F0B6FA03A8CDE960
:103BD00000400023202211A1134801F0ADFA042077
:103BE00004A9CDE90001C201002310A1134801F08E
:103BF000A3FA05A90320CDE900010023220210A1A8
:103C0000124801F099FA06B010BD00006C65645FBF
:103C10007461736B00000000253F000862757A7ABA
:103C200065725F7461736B00E53900084368617306
:103C30007369735F7461736B00000000C119000841
:103C40004759524F5F7461736B000000691F000891
:103C50002DE9F04104460D4616461F4614B10DB13C
:103C600006B10FB9BDE8F081D4ED010A94ED031A55
:103C700060EE810A94ED001AD4ED021A41EE610A59
:103C8000B8EE001A60EE810AB0EE600AFCF76FFE33
:103C900086ED000A94ED001A21EE011AD4ED011A06
:103CA00094ED012A01EE821AF7EE001AB0EE002A16
:103CB00052EE011AF0EE610A94ED001AD4ED031AE7
:103CC00021EE211AD4ED011A94ED022A01EE821A96
:103CD000F0EE001A21EE211AB0EE410AFCF749FE7F
:103CE00085ED000A94ED001A21EE011AD4ED031AB5
:103CF00094ED032A01EE821AF7EE001AB0EE002AC4
:103D000052EE011AF0EE610A94ED001AD4ED011A98
:103D100021EE211AD4ED021A94ED032A01EE821A43
:103D2000F0EE001A21EE211AB0EE410AFCF721FE56
:103D300087ED000A00BF95E7004870472B00002080
:103D400000487047330000202DE9F003734C93EDD9
:103D5000050A734FD4ED000A94ED011ADDF818C07E
:103D600020EE200AD3ED060A04F1240507F10C0821
:103D700000EE810AD3ED070A94ED021AA4F124069D
:103D800007F1180900EE810AD7ED000A30EE200A8B
:103D900080ED000A93ED010AD5ED000A95ED011AB8
:103DA00020EE200AD3ED020A00EE810AD3ED030AC9
:103DB00095ED021A00EE810AD8ED000A30EE200AD5
:103DC00081ED000A9CED010AD6ED000A96ED011A7C
:103DD00020EE200ADCED020A00EE810ADCED030A87
:103DE00096ED021A00EE810AD9ED000A30EE200AA3
:103DF00082ED000A93ED050AD4ED030A94ED041A4E
:103E000020EE200AD3ED060A00EE810AD3ED070A60
:103E100094ED051A00EE810AD7ED010A30EE200A72
:103E200080ED010A93ED010AD5ED030A95ED041A20
:103E300020EE200AD3ED020A00EE810AD3ED030A38
:103E400095ED051A00EE810AD8ED010A30EE200A40
:103E500081ED010A9CED010AD6ED030A96ED041AE4
:103E600020EE200ADCED020A00EE810ADCED030AF6
:103E700096ED051A00EE810AD9ED010A30EE200A0E
:103E800082ED010A93ED050AD4ED060A94ED071AB6
:103E900020EE200AD3ED060A00EE810AD3ED070AD0
:103EA00094ED081A00EE810AD7ED020A30EE200ADE
:103EB00080ED020A93ED010AD5ED060A95ED071A89
:103EC00020EE200AD3ED020A00EE810AD3ED030AA8
:103ED00095ED081A00EE810AD8ED020A30EE200AAC
:103EE00081ED020A9CED010AD6ED060A96ED071A4D
:103EF00020EE200ADCED020A00EE810ADCED030A66
:103F000096ED081A00EE810AD9ED020A30EE200A79
:103F100082ED020ABDE8F003704700006000002057
:103F2000A00400204D4C4C4800272060401C6060DD
:103F3000401CA060401CE060401C494E4FF001084E
:103F40004FF002094FF0030A4FF0040B851F206168
:103F50004FF400613046FEF705F8206801782878B4
:103F6000411A491C032928BF38461FD261680978C5
:103F7000411A491C032928BF404617D2A168097875
:103F8000411A491C032928BF48460FD2E168097825
:103F9000411A491C032928BF504607D221690978D4
:103FA000401A401C03282CBF5846F02068704FF47C
:103FB000FA7000F00DFE4FF400613046FDF7D0FFBF
:103FC0004FF480613046FDF7CDFF206801782878F6
:103FD000411A491C032928BF38461FD26168097855
:103FE000411A491C032928BF404617D2A168097805
:103FF000411A491C032928BF48460FD2E1680978B5
:10400000411A491C032928BF504607D22169097863
:10401000401A401C03282CBF5846F02068704FF40B
:10402000FA7000F0D5FD0F480178491CC9B2017043
:10403000F02928BF07704FF480613046FDF790FFEC
:1040400068784FF48051F028304602D0FDF78AFF9F
:104050007EE7FDF785FF7BE726000020700100204A
:10406000001C0240240000204FF44070FEF766F967
:10407000FEF7F2F8FEF7BCFBFDF7CEF8FDF764F9AA
:10408000FFF798FD00F01CFEFEE700000B8800EB38
:10409000400002EBC0005BBA20F8183C4A889FED54
:1040A0000D1A52BA12B200EE102A20F8102C8B888A
:1040B000F8EEC00A5BBA20F80E3C897980EE810ADE
:1040C000F3EE030A00F80C1C80EE201A00ED021A31
:1040D00070470000000070422DE9F041204C0F466F
:1040E0000546E6682068001D00F044FC48B92068D9
:1040F000012190F82C0001FA00F0216921EA00006A
:104100002061B5F1FF3F15D1A7B116492268486873
:10411000906023688268DA6022688368121D5A60A2
:104120002268121D8260206841610868401C086096
:10413000BDE8F08120683544B5424560206800F153
:10414000040104D2E06BBDE8F04100F035BCA06B87
:1041500000F032FCA06AA84288BFA562BDE8F081E9
:10416000E0000020DC050020164E154CDFF85890CA
:10417000A6F1A0074FF080586068B8B100F03AFC93
:10418000F068C568281D00F0F5FBA068401EA0601F
:104190006068401E606000F04DFC286B00F060FC21
:1041A000284600F05DFC60680028E7D138680128E7
:1041B000E2D9C9F80080BFF34F8FBFF36F8FDBE701
:1041C000E0000020C805002004ED00E02DE9F041EA
:1041D000DFF8948005460E46D8F80C00C068C76822
:1041E000381D00F0C7FB97F8280010F0040F04BF3B
:1041F00000F0FE0087F8280031D0B8693F612844FC
:104200003C467860B04207D8B869711B81423CBF18
:104210003846391D06D216E0B54201D9854201D98A
:10422000391D18E0A069216A054420468847A06925
:104230002461284429466060864207D3A069711B27
:104240008842EFD9211DD8F8100006E08E4201D235
:10425000A842E7D2211DD8F80C0000F0ADFB38468B
:10426000396ABDE8F0410847200100202DE9F047F8
:10427000814601F049F8314F8046B868804528BF33
:10428000002054D2F868006800284BD0F8684FF03E
:10429000FF36C068C4680568201D00F06BFB94F809
:1042A000280010F0040F04BF00F0FE0084F828007E
:1042B00031D0A069246128446060B0F1FF3F07D885
:1042C000A069C5F1FF31814238BF211D07D218E036
:1042D000B5F1FF3F01D9854201D9211D18E0A06940
:1042E000216A054420468847A16924614A1920466D
:1042F00029466260964206D38269711B8A42EED9D2
:10430000011D386905E08E4201D2AA42E7D2011DA3
:10431000F86800F051FB216A20468847F868006879
:104320000028B3D1D7E90310C7E903010120C9F878
:1043300000004046C7F80880BDE8F0872001002053
:1043400009484068B0F1FF3F4FF0500080F31188FA
:1043500004D0BFF34F8FBFF36F8FFEE7BFF34F8FD4
:10436000BFF36F8FFEE7000050010020DFF8C0B2FE
:10437000B04F84B04FF0805AF8680168002907BF39
:10438000012500240025C06818BF046800F0D4FC93
:104390006846FFF76BFF06460098002842D001F000
:1043A000F5F800226946386800F0D6FD0028E3D011
:1043B00000980028C0F23281DDF80880D8F8140097
:1043C00000281CBF08F1040000F0D4FA00F09CFFA4
:1043D0008146B868814573D2F868006800286BD0C0
:1043E000F8684FF0FF36C068C4680568201D00F00B
:1043F000C1FA94F8280010F0040F04BF00F0FE008A
:1044000084F8280051D0A069246128446060B0F18C
:10441000FF3F27D8A169C5F1FF30884238BF211D71
:1044200027D238E0ADB13869006800280CBF0125FB
:104430000025A11B2A46386800F0A4FB01F0A6F86D
:104440000028AED1CBF800A0BFF34F8FBFF36F8F22
:10445000A7E7B442EDD801F099F831462046FFF7BE
:10446000B5FE9EE7B5F1FF3F01D9854201D9211D77
:1044700018E0A069216A054420468847A1692461A3
:104480004A19204629466260B24206D88269711BE9
:104490009142EED2011D386905E0B14201D9954241
:1044A000E7D9011DF86800F087FA216A204688479D
:1044B000F8680068002893D1D7E90310C7E9030121
:1044C000C7F8089000980A2840D2DFE800F0A70556
:1044D000056E759B05056E7598F8280040F0010083
:1044E00088F828000199D8F81800C8F81080084406
:1044F000C8F80400484506D8D8F81800A9EB01010F
:10450000814204D26DE0494578D9814276D898F845
:10451000280010F0040F04BF00F0FE0088F8280007
:104520003ED00199D8F818000C182044C8F80400AF
:1045300048450CD8D8F81800A9EB0401814238BFCF
:1045400008F104010AD221E000F036FA66E04C4599
:1045500001D9844202D908F104011EE0D8F81800FC
:10456000D8F82010044440468847D8F81810C8F8F6
:1045700010800A1940462146C8F804204A4507D849
:104580008269A9EB04019142E8D2011D386905E076
:10459000494501D99442E1D9011DF86800F00CFAAF
:1045A000D8F820104046884738E098F8280000F0F6
:1045B000FE0088F8280031E098F8280040F001005B
:1045C00088F828000198C8F8180078B14844C8F85D
:1045D0001080C8F80400814510D3D8F818000028CE
:1045E0001CD908F104013869AEE707E0502080F3D8
:1045F0001188BFF34F8FBFF36F8FFEE708F10401FF
:10460000F868A1E798F8280010F0020F0DBF4046A7
:1046100000F0FE0088F8280000F022FA0022694627
:10462000386800F099FC00287FF4C2AEA4E60000D0
:1046300004ED00E02001002070B5044600F0DAF936
:1046400094F94550002D0DDD606A58B104F1240045
:1046500000F024FF002818BF00F0E8FA681E45B2F9
:10466000002DF1DC4FF0FF3684F8456000F0E2F9F0
:1046700000F0C0F994F94450002D0DDD206958B1C7
:1046800004F1100000F00AFF002818BF00F0CEFA75
:10469000681E45B2002DF1DC84F84460BDE870402E
:1046A00000F0C8B92DE9F0470446002500F044FBAE
:1046B000DFF84CC100260CF11402DCF80000E8B968
:1046C00050494FF4963011F0070F06D0C81D20F066
:1046D00007014C48081AC0F5963008440838C2E96A
:1046E000001620F00700CCF800004660431A066070
:1046F000C1E90003CCF80830CCF8043044B104F030
:104700000700C0F11000C1438C4294BF0444002450
:1047100014F0004F63D1002C61D0DCF80470BC426F
:104720009CBF394912685AD85068A04205D2106817
:1047300000281CBF11460246F6D1DCF80080424535
:104740004DD0086800F10805106808605068001B2B
:10475000102831D9111911F0070F07D0502080F31C
:104760001188BFF34F8FBFF36F8FFEE74860264875
:10477000546003688B4238BF1846FAD3446804EB90
:104780000009894503D149682144416001464C68CC
:1047900004EB0109994518BF0B600AD1434508BFD6
:1047A000C1F8008005D05B6823444B6003681B6838
:1047B0000B60884218BF01605168781ACCF8040079
:1047C000DCF80830834288BFCCF8080041F0004094
:1047D000C2E90060DCF80C00401CCCF80C0000F0D2
:1047E000D5FE15F0070F04BF2846BDE8F08750201E
:1047F00080F31188BFF34F8FBFF36F8FFEE7000088
:104800003401002018060020480100204FF0807C71
:1048100040F804CC21F0010140F8081C054B40F899
:104820000C3C40F8202C6FF0020240F8242C443855
:10483000704700004143000810B52DED028B04467F
:104840009FED1D0AB0EE408AD4ED000A60EEA00A8A
:1048500094ED011AD4ED011A41EE210A94ED021AE9
:10486000D4ED021A41EE210A94ED031AD4ED031A95
:1048700041EE210AB0EE600AFCF7ECF9B0EE408A96
:1048800094ED000A20EE080A84ED000A94ED010A76
:1048900020EE080A84ED010A94ED020A20EE080ACF
:1048A00084ED020A94ED030A20EE080A84ED030A5F
:1048B000BDEC028B10BD00000000000010B500EE42
:1048C000100A2DED028BB1EEC08A18EE100A20F00E
:1048D0000040C0F1FF40C00F0AD010EE100A20F0D7
:1048E0000040C0F1FF40C00F04BF0120FEF7C0FA36
:1048F00018EE100ABDEC028B10BD91ED000AB1EE6E
:10490000400A80ED010A91ED010AB1EE400A80ED06
:10491000020A91ED020AB1EE400A80ED030A91ED20
:10492000000A80ED040A91ED020A80ED060A91ED7D
:10493000010AB1EE400A80ED070A91ED010A80ED0F
:10494000080A91ED020AB1EE400A80ED090A91EDE4
:10495000000A80ED0B0A91ED020A80ED0C0A91ED40
:10496000010A80ED0D0A91ED000AB1EE400A80EDDA
:104970000E0A7047D0E9013201699A60D0E901233B
:104980005A604A68824204BF82684A60002202611B
:104990000868401E08600868704700F108014FF081
:1049A000FF32C0E90112C16001610021016070475E
:1049B000002101617047000010B40B68B3F1FF3FA4
:1049C0000CBF026900F1080208D000BFD2F804C091
:1049D000DCF800409C4298BF6246F7D953684B60B0
:1049E00099608A60516008610168491C016010BCCF
:1049F00070470000502080F31188BFF34F8FBFF342
:104A00006F8F0A494868401C4860012818BF7047EA
:104A10000748006810F0FF0F08BF7047502080F370
:104A20001188BFF34F8FBFF36F8FFEE75001002057
:104A300004ED00E00948416839B1491E416018BFE2
:104A40007047002080F311887047502080F3118850
:104A5000BFF34F8FBFF36F8FFEE7000050010020C0
:104A6000002808BF704770B5A0F1080550F8040C85
:104A700010F0004F09D0296879B1502080F31188D7
:104A8000BFF34F8FBFF36F8FFEE7502080F3118885
:104A9000BFF34F8FBFF36F8FFEE720F000406860D9
:104AA00000F04AF91749686801F114044A68104493
:104AB00048602068A84238BF0446FAD362681319D8
:104AC000AB4203D16B6825461A4462606B685A1981
:104AD000824218BF28600AD10A68904208BF2A6043
:104AE00005D0406818446860206800682860AC42BF
:104AF00018BF25600869401C0861BDE8704000F0DF
:104B000045BD0000340100204FF0E020002101618C
:104B1000816105494FF47A720968B1FBF2F1491ECF
:104B200041610721016170470000002030B400227C
:104B300098B1002919BF0023DFF844C030BC70478A
:104B40000CEBC304656885420FD10CEBC302002A4D
:104B500018BFC2E9001030BC7047502080F31188A4
:104B6000BFF34F8FBFF36F8FFEE7002A02BF5CF8E1
:104B70003350002D224603F10103082BE0D3E6E772
:104B8000E804002070B515460E460446FFF732FFD4
:104B900094F94400B0F1FF3F4FF0000008BF84F8E3
:104BA000440094F94510B1F1FF3F08BF84F8450077
:104BB000FFF740FFA06B28B92A46314604F12400D4
:104BC00000F054F82046BDE87040FFF735BD000006
:104BD00010B5A8B10F494A6B3AB1502080F3118843
:104BE000BFF34F8FBFF36F8FFEE74A6B521C4A63D0
:104BF0000021FFF771FA00F0C9FC002818BF10BDB2
:104C00004FF0805004490860BFF34F8FBFF36F8FA0
:104C100010BD0000E000002004ED00E002490A6A37
:104C20000260C96841607047E0000020014901202E
:104C3000C8617047E000002010B50C4658B10A4A20
:104C4000126802F11801FFF7B7FE2046BDE81040D8
:104C50000121FFF741BA502080F31188BFF34F8F35
:104C6000BFF36F8FFEE70000E000002030B48C46F9
:104C7000D8B1124943680C68E3619C680D682C62E6
:104C80000C689D6818346C600C6818349C60096866
:104C900088620168491C0160002A18BF4FF0FF3C80
:104CA000114630BC6046FFF717BA502080F31188D8
:104CB000BFF34F8FBFF36F8FFEE70000E0000020CF
:104CC00030B583B017480025CDE900502B4682222D
:104CD00015A1174800F030FA164C012803D100F056
:104CE000FDFC012803D0B0F1FF3F12D00EE05020B0
:104CF00080F31188BFF34F8FBFF36F8F4FF0FF30FA
:104D0000A06201206061E56000F04CF8206B03B008
:104D100030BD502080F31188BFF34F8FBFF36F8FEA
:104D2000FEE700000C01002049444C450000000053
:104D300069410008E00000200248416B491C4163C2
:104D400070470000E00000201448416B00291EBF9E
:104D50000121C16170470021C1610169104AB1FAA6
:104D600081F1C1F11F0101EB810152F821306BB1DA
:104D700002EB810101F108034A6852684A609A42D5
:104D800004BF52684A60D16801607047502080F3C8
:104D90001188BFF34F8FBFF36F8FFEE7E000002055
:104DA00028050020394810B5016882B0384A914280
:104DB00007D1502080F31188BFF34F8FBFF36F8F5F
:104DC000FEE700683349884207D1502080F31188FC
:104DD000BFF34F8FBFF36F8FFEE72F4A107801901C
:104DE000FF20107010788DF800009DF800009DF8ED
:104DF000001000F0F000884207D0502080F31188A6
:104E0000BFF34F8FBFF36F8FFEE79DF80000234C79
:104E100000F0500020700720A0609DF8001011F0F5
:104E2000800F0DD09DF8001049008DF800109DF8FE
:104E30000010401E11F0800FF4D1A060032807D0AD
:104E4000502080F31188BFF34F8FBFF36F8FFEE7C1
:104E50004FF44070A060019810701148016841F44F
:104E600070010160016841F070410160FFF74CFE84
:104E700000206060FBF7B6F90A48016841F0404144
:104E80000160FBF79BF902B0002010BD00ED00E0CF
:104E900071C20F4170C20F4100E400E050010020D8
:104EA00020ED00E034EF00E02DE9F04791460E469A
:104EB000070049D04FF0FF38B8FBF7F086429CBF9F
:104EC00007FB06F010F1510F3ED85030FFF7EAFB18
:104ED00005002ED005F150002C46002E0CBF24609A
:104EE0002060C4E90F76B8FBF7F0B04224D3FFF797
:104EF00081FDD4E90F20216802FB0011A16000218F
:104F0000A16321686160E06B421E206C02FB00110E
:104F1000E16084F8448084F8458004F11000FFF7D4
:104F20003CFD04F12400FFF738FDFFF783FD84F812
:104F30004C902846BDE8F087502080F31188BFF3DD
:104F40004F8FBFF36F8FFEE7502080F31188BFF3C0
:104F50004F8FBFF36F8FFEE72DE9F747002783B030
:104F60000E46040001D046B111E0502080F31188B4
:104F7000BFF34F8FBFF36F8FFEE7206C38B1502027
:104F800080F31188BFF34F8FBFF36F8FFEE700F000
:104F9000ADF9DFF818A14FF000084FF0805948B97B
:104FA000059838B1502080F31188BFF34F8FBFF3BD
:104FB0006F8FFEE7FFF71EFDA56B0DB3226C304629
:104FC0004AB1E1681144E160A368994224BF2168B5
:104FD000E160FBF74DFA681EA063206950B104F14F
:104FE000100000F05BFA28B1CAF80090BFF34F8FB1
:104FF000BFF36F8FFFF71EFD06B00120BDE8F087FD
:10500000059800284CD01FB96846FFF707FE012716
:10501000FFF710FDFFF790FEFFF7ECFC94F944005A
:10502000B0F1FF3F08BF84F8448094F94500B0F127
:10503000FF3F08BF84F84580FFF7FCFC05A96846E0
:1050400000F036F858B12046FFF7F6FA00F09EFA65
:10505000FFF7D0FCA06B18B3FFF7ECFCAAE7FFF753
:10506000C9FCA06B38B1FFF7E5FC2046FFF7E4FA76
:1050700000F08CFA9EE7FFF7DDFC04F124000599AF
:10508000FFF7DAFD2046FFF7D7FA00F07FFA002895
:1050900090D1CAF80090BFF34F8FBFF36F8F89E7AD
:1050A000FFF7C8FC06B00020BDE8F08704ED00E083
:1050B0002DE9F0410C4605002BD0002C31D0FFF734
:1050C00099FC1C48C368D5F804C02168A3EB0C0206
:1050D000B1F1FF3F08BF002516D02F68D0F820801F
:1050E0000026474504D09C459CBF012526600BD96E
:1050F00091429CBF2660012506D9891A2160016A68
:105100002960C06868600025FFF794FC2846BDE868
:10511000F081502080F31188BFF34F8FBFF36F8F62
:10512000FEE7502080F31188BFF34F8FBFF36F8FDE
:10513000FEE70000E00000202DE9F84F8346DDE99E
:105140000A7990009A4690460D460090FFF7AAFA19
:10515000060033D05820FFF7A5FA04002BD05821C1
:10516000FBF79FF92663A52230460099FBF792F9D9
:105170006FF00301206B01EB88010844002120F04F
:105180000706002D18BF00200BD023182A5C83F8D7
:1051900034202A5C002A1CBF401C0A28F5D384F85E
:1051A0003D10052F0ED3502080F31188BFF34F8F91
:1051B000BFF36F8FFEE73046FFF752FC4FF0FF3032
:1051C000BDE8F88FE762201DA764FFF7F1FB04F14B
:1051D0001800FFF7EDFB2461C7F105016462A161CE
:1051E000524659463046FFF711FB2060B9F1000FD7
:1051F00018BFC9F80040FFF7FDFB344FB868401CEA
:10520000B8603868324D10B1786920B329E03C604D
:10521000B868012808BF002623D100BF06EB86002E
:1052200005EB8000FFF7B9FB761C052EF6D3294865
:10523000FFF7B3FB2848FFF7B0FB2848FFF7ADFBAB
:105240002748FFF7AAFB2748FFF7A7FB2148B863C9
:105250001430F86305E03868E16AC06A884298BF94
:105260003C60786A0121401C78622064E06A3A69F7
:1052700081401143396100EB800005EB80004068FC
:10528000A0608168E1608268211D51608160E06AF0
:1052900000EB800005EB8001616155F82010491C8E
:1052A00045F82010FFF7C6FB786960B13868E16AFD
:1052B000C06A884207D20C494FF080500860BFF3A3
:1052C0004F8FBFF36F8F0120BDE8F88FE000002003
:1052D000280500208C050020A0050020B405002032
:1052E000C8050020DC05002004ED00E00548416908
:1052F000002904BF01207047406B00280CBF02202A
:1053000000207047E00000200148C068704700009E
:10531000E00000202DE9F0075E4B0020596B29B119
:105320009969491C9961BDE8F0077047D9684A1C22
:10533000DA604FF0FF371DD1996B096839B1502001
:1053400080F31188BFF34F8FBFF36F8FFEE7996B28
:10535000D3F83CC0C3F838C0D963196A491C196234
:10536000996B0968002908BF9F6203D0996BC968CF
:1053700009689962996A484C91429CBF00264FF097
:10538000010A0DD8996B096849B1996BC968C96858
:10539000D1F804C0624513D2C3F828C000E09F6270
:1053A0001968C96A01EB810154F82110012988BFED
:1053B0000120D969002918BF0120BDE8F007704716
:1053C000D1E90285D1F814C0C8F80850D1E90258D3
:1053D000C8F80450DCF804800D1DA84504BFD1F8BE
:1053E0000C80CCF804804E61DCF80080A8F1010844
:1053F000CCF80080D1F828C0BCF1000F18D0D1E95A
:105400000789C8F80890D1E90789C9F80480DCF851
:10541000048001F11809C84504BFD1F82080CCF8F8
:1054200004808E62DCF80080A8F10108CCF80080CE
:10543000D1F82CC0D3F810900AFA0CF848EA090801
:10544000C3F810800CEB8C0C04EB8C0CDCF804C063
:10545000C1F808C0DCF80880C1F80C80DCF80880CE
:10546000C8F80450CCF80850D1F82CC00CEB8C0CC8
:1054700004EB8C054D6154F82C506D1C44F82C50F5
:10548000C96AD3F800C0DCF82CC0614588BF012090
:1054900078E70000E00000202805002030B4C06854
:1054A000C06800282ED0D0E90732816A9A60D0E91E
:1054B000072300F1180C5A604A68624504BF026A6B
:1054C0004A60002383620A68521E0A602C494A6BB4
:1054D0000124FAB12B4B5A68C26195680562956840
:1054E000C5F804C0C2F808C083621A68521C1A606A
:1054F000C06A0A68D26A904286BF0120CC6100204F
:1055000030BC7047502080F31188BFF34F8FBFF33A
:105510006F8FFEE7D0E9025C4269C5F808C0D0E9A8
:10552000025CCCF80450556800F1040C654504BFDA
:10553000C5685560436113685B1E1360C26A0D69DC
:1055400004FA02F32B430B610F4B02EB820203EBD5
:105550008202526882609568C5609568C5F804C08B
:10556000C2F808C0C26A02EB820203EB820CC0F8E8
:1055700014C053F822C00CF1010C43F822C0B7E765
:10558000E0000020B4050020280500202DE9F047A8
:105590004E4C4FF0000A606B38B1FFF72BFA606B8E
:1055A000401E6063606B40B18AE0502080F3118838
:1055B000BFF34F8FBFF36F8FFEE7A06800287FD047
:1055C000DFF80CC1DCF8000000250127002818BF17
:1055D000404B5DD0DCF80C00C168D1E90762886AF5
:1055E000B260D1E907267260426801F11806B24242
:1055F00004BF0A6A42608D620268521E0260D1E9ED
:1056000002624869B260D1E90226726042680E1DEA
:10561000B24204BFCA6842604D610268521E026015
:10562000CA6AD4F8109007FA02F848EA0900206123
:1056300002EB820003EB800042688A60D2F80880A7
:10564000C1F80C80D2F80880C8F804609660C86A77
:1056500000EB800003EB80024A6153F82020521CCB
:1056600043F82020C86A2268D26A904228BFE761C6
:10567000DCF800000028ADD151B1A16B20460968CB
:1056800000290FBF4FF0FF31816BC9680968816243
:10569000A6693EB1FFF73EFE002818BFE761761EFF
:1056A000F8D1A561E06940B10B494FF080504FF04F
:1056B000010A0860BFF34F8F00E001E0BFF36F8F76
:1056C000FFF7B8F95046BDE8F0870000E000002081
:1056D000B40500202805002004ED00E010B582B0DC
:1056E000FFF788F9194C2068A0B91948FFF755F958
:1056F0001848FFF752F91648E06014302061002284
:105700000C210A20FFF7D0FB206000281CBF12A14B
:10571000FFF70CFAFFF78EF9206870B110490220EC
:10572000CDE9000100234FF482720EA10F48FFF76C
:1057300003FD00281CBF02B010BD502080F311886B
:10574000BFF34F8FBFF36F8FFEE7000020010020F3
:10575000F005002004060020546D72510000000086
:1057600024010020546D7220537663006D430008BD
:105770000000C8420000803F0000000040AC037DF4
:1057800004014103057C00026D0D026D0902000059
:10579000CDCC4C3ECDCC4C3ECDCC4C3E00000000A0
:1057A000920E493CB10AC93C2BC3163D2EFB483D25
:1057B000752B7B3D04A9963D80B6AF3D36BDC83DF7
:1057C0002FBCE13D73B2FA3D87CF093E8340163EC0
:1057D000B5AB223EA2102F3ECF6E3B3EC2C5473E28
:1057E0000115543E135C603E7F9A6C3ECCCF783EF0
:1057F000C07D823E938E883E229A8E3E32A0943E99
:1058000086A09A3EE59AA03E128FA63ED47CAC3E7E
:10581000EF63B23E2A44B83E491DBE3E15EFC33E7B
:1058200053B9C93ECA7BCF3E4136D53E80E8DA3E09
:105830004F92E03E7533E63EBBCBEB3EEA5AF13E7B
:10584000CBE0F63E275DFC3EE4E7003F3D9C033F96
:10585000824B063F9BF5083F6B9A0B3FDA390E3FB0
:10586000CDD3103F2A68133FD9F6153FC07F183FAC
:10587000C6021B3FD17F1D3FCBF61F3F9967223FDA
:1058800025D2243F5636273F1594293F4AEB2B3F1C
:10589000DE3B2E3FBB85303FC9C8323FF304353F66
:1058A000233A373F4268393F3B8F3B3FF9AE3D3F9C
:1058B00067C73F3F70D8413F01E2433F03E4453FA4
:1058C00065DE473F12D1493FF8BB4B3F029F4D3F3A
:1058D000207A4F3F3D4D513F4918533F31DB543FF4
:1058E000E595563F5348583F6AF2593F1A945B3F3B
:1058F000532D5D3F05BE5E3F2146603F97C5613F2A
:105900005A3C633F59AA643F880F663FD86B673F94
:105910003CBF683FA7096A3F0C4B6B3F5E836C3FFF
:1059200093B26D3F9ED86E3F73F56F3F0809713F8C
:105930005213723F4714733FDD0B743F0BFA743FF1
:10594000C6DE753F07BA763FC58B773FF853783F81
:105950009812793F9DC7793F02737A3FBE147B3F0F
:10596000CDAC7B3F283B7C3FC9BF7C3FAC3A7D3F01
:10597000CCAB7D3F23137E3FB0707E3F6DC47E3F36
:10598000580E7F3F6D4E7F3FAB847F3F0FB17F3F0F
:1059900097D37F3F43EC7F3F11FB7F3F0000803F69
:1059A00011FB7F3F43EC7F3F97D37F3F0FB17F3F9A
:1059B000AB847F3F6D4E7F3F580E7F3F6DC47E3F6F
:1059C000B0707E3F23137E3FCCAB7D3FAC3A7D3F32
:1059D000C9BF7C3F283B7C3FCDAC7B3FBE147B3FA7
:1059E00002737A3F9DC7793F9812793FF853783F09
:1059F000C58B773F07BA763FC6DE753F0BFA743F1B
:105A0000DD0B743F4714733F5213723F0809713F17
:105A100073F56F3F9ED86E3F93B26D3F5E836C3FD0
:105A20000C4B6B3FA7096A3F3CBF683FD86B673F91
:105A3000880F663F59AA643F5A3C633F97C5613F50
:105A40002146603F05BE5E3F532D5D3F1A945B3F8C
:105A50006AF2593F5348583FE595563F31DB543F72
:105A60004918533F3D4D513F207A4F3F029F4D3FD4
:105A7000F8BB4B3F12D1493F65DE473F03E4453F4A
:105A800001E2433F70D8413F67C73F3FF9AE3D3F1A
:105A90003B8F3B3F4268393F233A373FF304353F62
:105AA000C9C8323FBB85303FDE3B2E3F4AEB2B3F20
:105AB0001594293F5636273F25D2243F9967223F28
:105AC000CBF61F3FD17F1D3FC6021B3FC07F183F53
:105AD000D9F6153F2A68133FCDD3103FDA390E3F70
