:020000040800F2
:10000000383401205D020008D31200085D12000898
:10001000D1120008BD060008F51900080000000014
:100020000000000000000000000000009D0100082A
:100030009511000800000000F90100089115000862
:1000400077020008770200087702000877020008AC
:10005000770200087702000877020008770200089C
:10006000770200087702000877020008770200088C
:10007000770200087702000877020008770200087C
:10008000770200087702000877020008770200086C
:10009000C10600087702000877020008770200080E
:1000A000770200087702000877020008770200084C
:1000B00077020008C11600087702000877020008DE
:1000C000770200087702000877020008770200082C
:1000D000770200087702000877020008770200081C
:1000E000770200087702000877020008770200080C
:1000F00077020008770200087702000877020008FC
:100100007702000877020008E51600087702000869
:1001100077020008770200087702000877020008DB
:1001200077020008770200087702000877020008CB
:1001300077020008770200087702000877020008BB
:100140001908000877020008770200087702000803
:10015000770200087702000877020008770200089B
:10016000770200087702000877020008770200088B
:10017000770200087702000877020008770200087B
:100180007702000877020008DFF80CD000F074FA5C
:10019000004800477D1D0008383401202C4B1968A9
:1001A0000868B0E8F04F80F30988BFF36F8F4FF015
:1001B000000080F3118870470000000008480068C4
:1001C000006880F308884FF0000080F3148862B65E
:1001D00061B6BFF34F8FBFF36F8F00DF00BF00BF6B
:1001E00008ED00E0DFF80C00016841F470010160E7
:1001F000704700BF88ED00E0EFF30980BFF36F8F19
:10020000134B1A681EF0100F08BF20ED108A20E96A
:10021000F04F106009B44FF0500080F31188BFF325
:100220004F8FBFF36F8F02F07BFB4FF0000080F326
:10023000118809BC19680868B0E8F04F1EF0100F6B
:1002400008BFB0EC108A80F30988BFF36F8F704746
:1002500048000020EFF30580704700000648804703
:1002600006480047FEE7FEE7FEE7FEE7FEE7FEE79B
:10027000FEE7FEE7FEE7FEE7BD150008890100087E
:10028000DFED3C0A20EE200AFDEEC00AB5EEC00A02
:1002900010EE902AF1EE10FA38BF521E00EE902AAE
:1002A000DFF8D8C0B0EE084AF8EEE00A30EE600A97
:1002B000DFED310A60EE200ABCEEE00A10EE102AF3
:1002C000C2F3080200EE102A02F180030CEB820256
:1002D000B8EE400AC3F308030CEB830330EEC00A08
:1002E000D2ED000A93ED002A93ED011AF1EE601AA7
:1002F000D2ED010A71EE422AF1EE603ADFED200AFA
:1003000031EEA31A21EE203AB0EE001A41EE213A66
:1003100001EE623A62EE842A43EEE02A40EE032ABE
:1003200060EE222A41EEA02A00EE222A81ED002A68
:10033000D3ED001A93ED013AD2ED002A92ED012A95
:1003400071EE833A01EE213A32EE622A63EEA03A70
:1003500041EE423A22EE042A03EE602A00EE232AFE
:1003600020EE021A01EEA01A40EE012AC0ED002A8A
:1003700070470000610B363B000000444833000822
:10038000DB0F493C40EA01039B0703D009E008C9A1
:10039000121F08C0042AFAD203E011F8013B00F84A
:1003A000013B521EF9D27047D2B201E000F8012B96
:1003B000491EFBD270470022F6E710B513460A46E5
:1003C00004461946FFF7F0FF204610BD2DE9FE4F09
:1003D00081EA030404F0004421F0004100944FF04E
:1003E000000B23F0004350EA01045ED052EA0304FC
:1003F0005BD0C3F30A54C1F30A552C44A4F2F3347E
:100400000194A0FB0254C1F3130141F48011C3F322
:10041000130343F4801301FB024400FB034E840AE0
:10042000970A44EA815447EA8357A4FB0768029578
:100430008D0A05FB07854FEA932C04FB0C54270516
:10044000029D4FEA065847EA1637B5EB08056EEBF2
:10045000070C870E920E47EA811742EA8312A7FB28
:100460000201B6EB0B0164EB00042B0D43EA0C33E5
:100470005E1844EB1C50DA465146E7FB0201C5F317
:1004800013044FEA0B3343EA14534FEA0432019C3E
:1004900043EA0603A4F10C040294009CCDE900B4E5
:1004A00000F09BF803B0BDE8F08F00200146F9E7AB
:1004B0000EB5C10F80EAE0700844CA07002140F27F
:1004C00033438DE80E000A460B4600F086F803B071
:1004D00000BD00F0004230F000400AD0C10D01F52F
:1004E0006071C0F3160042EA0151C208400711438F
:1004F000704700200146704701F0004330B421F0FE
:10050000004150EA010206D00A0DA2F56072C1F363
:100510001301002A02DC30BC00207047440F44EA7B
:10052000C104C100E01830BC00EBC25000F00FB8AD
:10053000202A04DB203A00FA02F1002070479140A3
:10054000C2F1200320FA03F31943904070470029B9
:10055000A8BF7047401C490008BF20F00100704749
:1005600010B4B0FA80FC00FA0CF050EA010404BFA9
:1005700010BC704749B1CCF1200421FA04F411FAFF
:100580000CF118BF012121430843A3EB0C01CB1D43
:100590004FEA00614FEA102042BF002010BC7047B4
:1005A00000EBC35010440029A4BF10BC7047401C8E
:1005B000490008BF20F0010010BC704710B5141EA0
:1005C00073F1000408DA401C41F1000192185B410C
:1005D0001A4301D120F0010010BD2DE9F04D9246E3
:1005E0009B4611B1B1FA81F202E0B0FA80F22032FA
:1005F0009046FFF79DFF04460F4640EA0A0041EA95
:100600000B0153465A46084313D0114653EA0100E2
:1006100019D0C8F14002504600F040F805460E4699
:10062000504659464246FFF783FF084305D0012054
:1006300004E020463946BDE8F08D0020054346EA37
:10064000E0762C4337430A986305E40AA0EB0800E0
:100650000022FD0A44EA47540A3002D50020014630
:10066000E9E7010510196941DDE90845001969410B
:10067000BDE8F04DA2E70000064C074D06E0E0683B
:1006800040F0010394E8070098471034AC42F6D3D9
:10069000FFF77EFD4C3B00086C3B0008202A04DB82
:1006A000203A21FA02F00021704721FA02F3D040EB
:1006B000C2F120029140084319467047FEE700004E
:1006C00010B51C4C86B00221204600F0FDF9002830
:1006D00004BF06B010BD0221204600F02FF96A4683
:1006E0000021204600F0FAFA0098A0F5A0615539E3
:1006F0001FBFA0F58061B1F5AB7106B010BD80B22F
:10070000A0F5A0610C4855390BD001291CBF06B0DB
:1007100010BDDDF80B108160DDF80F10C16006B070
:1007200010BDDDF80B100160DDF80F10416006B060
:1007300010BD0000006400402D00002070B58AB09C
:100740000121082000F076FE0121480600F07EFE1F
:100750002F4D09220021284600F06BFD09220121BE
:10076000284600F066FD02208DF8240000248DF854
:10077000264003268DF827408DF8256008A92846D5
:10078000089600F009FD08208DF80400ADF800601F
:1007900001258DF805608DF808408DF809501D4E33
:1007A0008DF802408DF807408DF80A408DF803500F
:1007B0008DF806408DF80B406946304600F014FA7B
:1007C0008DF816408DF817408DF81850ADF80C4094
:1007D000ADF81040ADF80E40ADF81240ADF8144041
:1007E0008DF8195003A800F0F7F8012202213046D5
:1007F00000F0F2F914208DF81C008DF81D508DF8D2
:100800001E408DF81F5007A800F064FD0AB070BDAF
:10081000000C02400064004010B50E4C86B002216E
:10082000204600F051F9002804BF06B010BD022197
:10083000204600F083F86A460021204600F04EFA78
:100840000098054AC0B20DF10B0101F0A9FA06B0FB
:1008500010BD0000006800402C01002070B58AB077
:100860000121022000F0E6FD0121880600F0EEFDE6
:10087000304D09220521284600F0DBFC0922062123
:10088000284600F0D6FC02208DF8240000248DF8C4
:10089000264060208DF82740032608908DF82560BB
:1008A00008A9284600F078FC08208DF80400ADF86F
:1008B000006001258DF805608DF808408DF809501D
:1008C0001D4E8DF802408DF807408DF80A408DF8D6
:1008D00003508DF806408DF80B406946304600F015
:1008E00083F90F208DF816008DF817408DF81850F9
:1008F000ADF80C40ADF81040ADF80E40ADF8124028
:10090000ADF814408DF8195003A800F065F80122E5
:100910000221304600F060F940208DF81C008DF86F
:100920001D508DF81E408DF81F5007A800F0D2FC16
:100930000AB070BD000402400068004010B40823F3
:1009400004224FF0100CB1F5007F40D021DC2029AB
:1009500002BF036110BC704710DC012901BF1D49B3
:10096000816010BC7047042902BFC36010BC70478F
:10097000082908BFC0F80CC010BC7047402902BF4E
:10098000C0F810C010BC7047B1F5807F1FD010BCFC
:1009900070470024B1F5004F08D00BDCB1F5806F33
:1009A00015D0B1F5006F1CBF10BC70478461426068
:1009B00010BC7047B1F5803F02BF436010BC704768
:1009C000B1F5003F08BFC0F804C010BC70474260DA
:1009D00010BC70470101010030B4817A354B01220F
:1009E00002FA01F11A6842F001021A60DFF8C8C089
:1009F000DCF800208A43CCF80020047B2F4AD4B9CD
:100A000014688C4314604488C58844EA0544857A98
:100A1000ED0005F1804505F5C045C5F84046048860
:100A2000858844EA0544857AED0005F1804505F5A1
:100A3000C045C5F84446047B012C18D114680C430A
:100A40001460847A0268E40004F1804404F5C04430
:100A50004FEA3242C4F84026847A4268E40004F146
:100A6000804404F5C0444FEA3242C4F84426C47AB4
:100A7000134A002C14680CBF8C430C431460048987
:100A8000104A14B914688C4314600489012C02D1F3
:100A900014680C431460407B012804D1DCF800008A
:100AA0000843CCF80000186820F00100186030BC42
:100AB00070470000006600401C6600400C66004065
:100AC00004660040146600400246002053690B4251
:100AD00008BF7047B1F5807F64D01CDC082949D07D
:100AE0000CDC012938D002293ED0042918BF7047F8
:100AF000D168002011F0080F34D1704710293FD081
:100B0000202943D0402918BF70471169002011F0F7
:100B1000100F27D17047B1F5004F55D00FDCB1F55C
:100B2000007F45D0B1F5806F48D0B1F5006F18BF98
:100B300070479169002011F0700F13D17047B1F523
:100B4000803F29D0B1F5003F18BF704751680020A1
:100B500011F0100F06D1704791681E4A0020114213
:100B600008BF704701207047D168002011F0030FC3
:100B7000F8D17047D168002011F0100FF2D1704702
:100B80001169002011F0030FECD1704711690020AA
:100B900011F0080FE6D170475168002011F0080FDE
:100BA000E0D170479169002011F0010FDAD1704750
:100BB0009169002011F0020FD4D170479169002093
:100BC00011F0040FCED170475168002011F0040FCE
:100BD000C8D1704701010100002A426914BF1143C6
:100BE00022EA0101416170470268002322F00202FB
:100BF0000260026842F0010202604FF6FF7200BF1D
:100C0000D0F804C01CF0010F03D1934218BF5B1C45
:100C1000F6D1436813F0010F5DD08B79012B036887
:100C20000CBF43F0800323F080030360CB79012BDA
:100C300003680CBF43F0400323F0400303600B7ACA
:100C4000012B03680CBF43F0200323F02003036053
:100C50004B7A012B03680CBF43F0100323F0100301
:100C600003608B7A012B03680CBF43F0080323F069
:100C700008030360CB7A012B03680CBF43F0040325
:100C800023F0040303608B7891F803C04FEA837369
:100C900043EA0C6391F804C043EA0C4391F805C0A1
:100CA000098843EA0C53A1F1010143EA0101C16142
:100CB000016821F0010101604FF00001436813F069
:100CC000010F1CBF9142491CF8D1406810F0010F80
:100CD00004BF012070474FF00000704700EB011384
:100CE000D3F8B0C11CF0040C82F808C0D3F8B0C12E
:100CF00007BF4FEA5C5CC2F800C04FEADC0CC2F8E8
:100D000004C0D3F8B0C10CF0020C82F809C0D3F8CB
:100D1000B4C10CF00F0C82F80AC0D3F8B4C14FEA8A
:100D20001C2C82F813C0D3F8B8C182F80BC0D3F8DA
:100D3000B8C14FEA1C2C82F80CC0D3F8B8C14FEAF6
:100D40001C4C82F80DC0D3F8B8C14FEA1C6C82F875
:100D50000EC0D3F8BCC182F80FC0D3F8BCC14FEAB3
:100D60001C2C82F810C0D3F8BCC14FEA1C4C82F88E
:100D700011C0D3F8BC311B0E937421B1016941F04D
:100D8000200101617047C16841F02001C1607047D6
:100D900010B402460020936813F0806F3FD000BF6C
:100DA00002EB0012D2F8803103F00103C2F8803167
:100DB0000B7A002B42D0D2F880C14C684CEA030376
:100DC00091F809C04CEAC40C43EA0C03C2F8803124
:100DD0008B7A03F00F038B72D2F8843123F00F0368
:100DE000C2F88431D2F8843191F80AC043EA0C0386
:100DF000C2F88431CB7AD1F80CC043EA0C23C2F894
:100E00008831CB7B096943EA0121C2F88C11D2F801
:100E1000801141F00101C2F8801110BC7047906848
:100E200010F0006F18BF0120BAD1906810F0805FF9
:100E300014BF02200420B3D110BC7047D2F8803117
:100E400091F809C043EA0C03B1F800C043EA4C53DF
:100E5000BCE700001A4A002904BF8068194907D07E
:100E6000012904BF8068184902D0022902D022E07B
:100E7000084002E0806815490840A0F10061A1F532
:100E80008071904215D008DCA8B16FF080614018E5
:100E900008BF7047022810D00BE0B1F5007F0CD0DE
:100EA000A1F10060B0F57F4008BF7047B0F5003F8A
:100EB00003D00020704702207047012070470000D7
:100EC00000010008030000040003000800000310F4
:100ED0002DED088B84B00020874D0090019002908A
:100EE00000F080FE686300F079FE9FED848AA863BD
:100EF0008DED008A8DED018A8DED028A5FF0000490
:100F000004EB0410B0EE480A05EB8000F0EE400A56
:100F10006946AC3000F020FA601CC4B2042CEFD358
:100F2000B0EE480A8DED000A8DED010A8DED020A42
:100F3000F0EE400A694605F5DE7000F00DFA9FED0F
:100F400070BBB0EE008A9FED709B9FED71AB6A4C59
:100F5000714F4FF40076656BB5F90100FFF7A8FA01
:100F600053EC1B2BFFF732FAFFF7C6FAE061B5F935
:100F70000300FFF79DFA53EC1B2BFFF727FAFFF74F
:100F8000BBFA2062B5F90500FFF792FA53EC1B2B70
:100F9000FFF71CFAFFF7B0FA606294ED170A20EE33
:100FA000080A10EE100AFFF794FA53EC192BFFF71A
:100FB0000DFA53EC1A2BFFF709FAFFF79DFAE063DD
:100FC00094ED1D0A20EE080A10EE100AFFF781FAD0
:100FD00053EC192BFFF7FAF953EC1A2BFFF7F6F93C
:100FE000FFF78AFA206494ED230A20EE080A10EE37
:100FF000100AFFF76EFA53EC192BFFF7E7F953ECE1
:101000001A2BFFF7E3F9FFF777FA606494ED290AEA
:1010100020EE080A10EE100AFFF75BFA53EC192BCA
:10102000FFF7D4F953EC1A2BFFF7D0F9FFF764FA66
:10103000A064DFF8C480E87940B1022802D0052816
:1010400007D009E0404600F089FD05E0404600F089
:1010500007FD404600F04AFD274D686BC079002827
:1010600018BF012803D0022835D0052833D1D5ED8B
:101070000F0A95ED030A05F1AC0000F081F9BDEE11
:10108000C00A10EE100A2885D5ED100A95ED040A65
:1010900005F1F00000F074F9BDEEC00A10EE100A80
:1010A0006885D5ED110A95ED050A05F59A7000F0F1
:1010B00067F9BDEEC00A10EE100AA885D5ED120A38
:1010C00095ED060A05F5BC7000F05AF9BDEEC00AB0
:1010D00010EE100AE885B4F92E00CDE90006B4F947
:1010E0002C30B4F92A20B4F92810384600F01CFA44
:1010F000052001F059FB2EE7E00000200000000071
:101100007B14AE47E17A843F4AD8124DFB21094057
:1011100058A835CD3B4EB13F0064004010B4026882
:101120001B4BD1F80CC01A400B6843EA0C03D1E901
:1011300005C44CEA040C43EA0C03D1F81CC043EA92
:101140000C03D1F820C043EA0C03D1F824C043EAD1
:101150000C03D1F828C043EA0C03D1F834C043EAA9
:101160000C03D1F838C043EA0C031A430260426909
:10117000D1E90B3C22F0070243EA0C031A43426117
:101180000A6942604A6882608968C16010BC704721
:101190003F801CF0704700002DE9F001002201257E
:1011A0005FF00306D1F800C005FA02F30CEA030C65
:1011B0009C4537D107684FEA420C06FA0CF4A74366
:1011C00007600F79D0F8008007FA0CF747EA0807A4
:1011D00007600F79012F18BF022F17D1876827EA00
:1011E000040787604F79D0F8088007FA0CF747EAC0
:1011F00008078760476827EA0303436043688F79DD
:1012000007FA02F7BFB243EA07034360C36823EA61
:101210000403C360CB7903FA0CF3D0F80CC043EAA3
:101220000C03C36002F10102102ABBD3BDE8F00138
:1012300070474B07DB0E9A40C90800EB8100016A3A
:101240004FF00F0C0CFA03F399430162016A11434A
:10125000016270474183704701837047FEE70000D9
:1012600010B582B00121802000F0E4F801211020A7
:1012700000F0E0F801208DF8040000218DF8061040
:101280008DF807000003114C8DF805100090694699
:101290002046FFF781FFE014009069462046FFF7E3
:1012A0007BFF2015009069462046FFF775FFA114CB
:1012B0002046FFF7CFFFE1142046FFF7CBFF2115B3
:1012C0002046FFF7C7FF02B010BD0000001C02401F
:1012D000FEE7704710B4C27801780F244FF0010C7C
:1012E0000AB3174A126801F1E02102F4E062C2F584
:1012F000E062C2F30722C2F10403D44042789A406C
:10130000837823401A43120181F80024007800F00A
:101310001F010CFA01F14009800000F1E020C0F843
:10132000001110BC704701F01F000CFA00F04909D1
:10133000890001F1E021C1F8800110BC7047000074
:101340000CED00E0034940F0FD7040F08060086063
:10135000704700000CED00E0002808BF704791EDD9
:10136000001A80ED001A91ED011A80ED011A91ED3D
:10137000021A80ED021A80ED030AC0ED040A7047DC
:1013800080ED0F0A90ED0A1A80ED0B1A90ED092AF4
:1013900030EE601A80ED0A2A80ED091AC0ED100ABD
:1013A00090ED000A60EE011AC0ED051A90ED060AF4
:1013B000D0ED010A00EE810A80ED060AD0ED0D0A9B
:1013C000C0ED0E0AD0ED0C0AC0ED0D0A71EE420A16
:1013D000C0ED0C0A90ED021A21EE201A80ED071ADA
:1013E000D0ED040AB4EEE00AF1EE10FA06DCF1EEFC
:1013F000600AB4EEE00AF1EE10FA01D2B0EE600A33
:1014000080ED060A30EE210A70EE010A90ED030A23
:10141000F4EEC00AF1EE10FA08DCB1EE400AF4EE88
:10142000C00AF1EE10FA28BFB0EE600A80ED080A9B
:1014300070470000044A0029116814BF084321EADC
:10144000000010607047000030380240044A002954
:10145000116814BF084321EA0000106070470000C3
:1014600040380240044A0029116814BF084321EAA9
:10147000000010607047000044380240254A30B434
:101480001168254B11F00C0106D0244C042908BF2B
:10149000046002D008291ED0036011680F2303EAFC
:1014A00011111F4B595CD0F800C02CFA01F14160BA
:1014B000D2F800C0072404EA9C2C13F80CC021FACF
:1014C0000CFCC0F808C0126804EA52329A5CD140A1
:1014D000C16030BC70471349D1F800C0CCF38055CF
:1014E000D1F800C0002D0CF03F0C14BFB4FBFCF38E
:1014F000B3FBFCF3D1F800C00968CCF3881C03FBF4
:101500000CF3C1F30141491C4900B3FBF1F1016047
:10151000C3E70000083802400024F400001BB700B5
:10152000140000200438024030B585B00546DDE9DE
:10153000080CCDF800C04FF0000C8DF808C08DF8F5
:1015400009C04FF0080C8DF80AC04FEA112C8DF835
:101550000C10110A8DF80D108DF80E20190A8DF857
:101560000F108DF81030010A8DF811108DF812004F
:101570008DF80BC069462846FFF70AFC0446214651
:101580002846FFF767FC0028F9D005B030BD000001
:1015900010B5502080F31188BFF34F8FBFF36F8FCA
:1015A00001F0A4FC18B104494FF0805008600020FD
:1015B00080F3118810BD000004ED00E0374882B0D0
:1015C000016841F4700101603548016841F0010192
:1015D0000160344900230B60026822F4102222F0DB
:1015E0008072026000F1040C2F4ACCF800200268DF
:1015F00022F4802202600A1D1360019300930268A6
:1016000042F480320260026802F400320092019AD1
:10161000521C0192009A1AB9019AB2F5A04FF2D168
:10162000026812F4003F08BF009331D001220092FB
:101630001E4A136843F0805313601D4A136843F435
:10164000404313600A680A600A6842F400420A6074
:101650000A6842F4A0520A60164ACCF800200268D8
:1016600042F080720260026812F0007FFBD0124AE2
:1016700040F205701060086820F0030008600868F8
:1016800040F002000860086800F00C000828FAD159
:101690000A494FF00060086002B0704788ED00E032
:1016A0000038024008380240103000244038024020
:1016B000007000400C544007003C024008ED00E080
:1016C00010B5074C0121204600F05CF8012818BF36
:1016D00010BD01212046BDE8104000F045B80000D3
:1016E0000004004070B51E4D0121284600F04AF864
:1016F0001C4C00281FBF207810F0400F401C2070A9
:101700004FF00201284600F03DF818B3207810F0A1
:10171000400F0BD040F080002070284600F030F8D9
:1017200060600021284600F038F813E040210020D6
:10173000217001466060284600F019F80021284613
:1017400000F033F80221284600F027F8012128464E
:1017500000F00DF82846BDE87040032100F004B801
:10176000000C004040000020C9430182704700295E
:10177000018814BF41F0010121F00101018070478F
:10178000406B7047038A002280890B4200EA010007
:101790001CBF0028012210467047028C22F0020272
:1017A000114301847047C163704741627047000074
:1017B000F0B597B001211020FFF754FE0121084633
:1017C000FFF738FE01210220FFF734FE01218805D2
:1017D000FFF730FE3D4E072209213046FFF729FD75
:1017E0003B4F072211463846FFF723FD02218DF8B3
:1017F000441000248DF8464008028DF8451001255C
:1018000010908DF8475010A93046FFF7C5FC802096
:10181000109010A93846FFF7BFFC4FF4E13012904A
:10182000ADF850400C202B4EADF84C40ADF85200B6
:10183000ADF84E40ADF8544012A9304600F07EF8A5
:101840000121304600F050F8012240F22441304698
:1018500000F05BF825208DF83C008DF83D508DF8A8
:101860003E408DF83F500FA8FFF734FDED06301DC8
:10187000CDE9005018480290402003904FF4FA70D0
:10188000CDE904046814CDE9060480010894CDE98B
:1018900009400320CDE90B400D9469460F480E9492
:1018A000FFF73CFC0E48CDE90204694600950D485F
:1018B000FFF734FC01228021304600F01EF801229F
:1018C0004021304600F019F817B0F0BD000002408A
:1018D00000040240001001403D000020B8640240B6
:1018E000E0020020406402400029818914BF41F4D5
:1018F000005121F4005181817047002A828A14BF6F
:10190000114322EA010181827047C1F3421301F0C1
:101910001F014FF0010C0CFA01F1012B08BF0C3034
:1019200003D0022B0CBF10301430002A026814BF01
:10193000114322EA010101607047000030B50446FE
:10194000008A85B00D46C98820F4405008432082A3
:10195000A089A9882A8920F4037011436A8920F498
:10196000A05010430843A081A08AA98920F44070A8
:101970000843A0826846FFF781FDA4F18040B0F5DE
:1019800088301BBFA4F18040B0F58A3003980298DC
:10199000A18911F4004F00EBC00101EB0010296890
:1019A00014BF49008900B0FBF1F0114A6FF0180C28
:1019B000A2FB0031490909010B0903FB0CF300EB01
:1019C0008300A38913F4004F4FF0320314BF03EBDD
:1019D000C00003EB0010A2FB00204FEA501014BF20
:1019E00000F0070000F00F000843208105B030BD73
:1019F0001F85EB51FEE702E008C8121F08C1002A4C
:101A0000FAD170477047002001E001C1121F002A7F
:101A1000FBD17047104F114E3878E62817D20024BA
:101A2000411C18BF0D4612D042F210713046FFF72C
:101A3000BAFEC82000F0B8FE00213046FFF7B3FE22
:101A4000C82000F0B1FE601CC4B2A542ECD84FF42F
:101A50007A7000F0A9FEDFE72500002000080040B2
:101A600010B50446806B82B0D0F80100FEF731FD5E
:101A700041EC100B01A96846FEF702FCA06B9FED3C
:101A80001A0AD0F8010000EE900A04F5DE70FFF7A4
:101A900077FCD4ED771AC4ED091A94ED070ADDED51
:101AA000010A94ED081A9DED002A60EE200A41EE2D
:101AB000420AC4ED000A9DED002A20EE020A9DEDC7
:101AC000012A01EE020A84ED010A30EE800A30EEAE
:101AD000210A84ED030A84ED040A84ED050A84EDED
:101AE000060A02B010BD00000000000010B5044658
:101AF000806B82B0D0F80100FEF7EBFC41EC100BDC
:101B000001A96846FEF7BCFBF6EE001AC4ED091AFF
:101B1000D4ED070A9DED010A94ED081A9DED002A07
:101B200020EE800A01EE420A84ED000A9DED002AB3
:101B300060EE820A9DED012A41EE020AC4ED010A1F
:101B400030EE200A30EE210A84ED030A84ED040A07
:101B500084ED050A84ED060A02B010BD0021816201
:101B6000C162704710B586B002A80124CDE90040DB
:101B7000002340220CA10F4801F0CAF803A8CDE9C8
:101B80000040002320220CA10E4801F0C1F80420DF
:101B900004A9CDE90001C20100230BA10E4801F008
:101BA000B7F806B010BD00006C65645F7461736BBC
:101BB00000000000ED1B000862757A7A65725F74A0
:101BC00061736B00151A0008436861737369735F72
:101BD0007461736B00000000D10E0008004870476C
:101BE0002D0000200048704735000020604C5F4801
:101BF000604E2060401C6060401CA060401CE060A3
:101C0000401C2061401C6061401C4FF001084FF0F7
:101C100002094FF0030A4FF0040B0027A0F108055A
:101C2000C4F818004FF400613046FFF715FB206838
:101C300001782878411A491C032928BF38462FD239
:101C400061680978411A491C032928BF404627D2F8
:101C5000A1680978411A491C032928BF48461FD2A8
:101C6000E1680978411A491C032928BF504617D258
:101C700021690978411A491C032928BF58460FD207
:101C800061690978411A491C032928BF052007D238
:101C9000A1690978401A401C03282CBF0620F020B7
:101CA00068704FF4FA7000F07FFD4FF40061304629
:101CB000FFF7D0FA4FF480613046FFF7CDFA206885
:101CC00001782878411A491C032928BF38462FD2A9
:101CD00061680978411A491C032928BF404627D268
:101CE000A1680978411A491C032928BF48461FD218
:101CF000E1680978411A491C032928BF504617D2C8
:101D000021690978411A491C032928BF58460FD276
:101D100061690978411A491C032928BF052007D2A7
:101D2000A1690978401A401C03282CBF0620F02026
:101D300068704FF4FA7000F037FD0F480178491CC5
:101D4000C9B20170F02928BF07704FF48061304696
:101D5000FFF780FA68784FF48051F028304602D0BF
:101D6000FFF77AFA5EE7FFF775FA5BE726000020D7
:101D7000C4000020001C0240240000204FF44070EA
:101D8000FFF7E0FAFFF76CFAFFF712FDFEF7D6FC5B
:101D9000FEF764FDFFF7E6FE00F07EFDFEE70000C3
:101DA0000B8800EB400002EBC0005BBA20F8183C47
:101DB0004A889FED0D1A52BA12B200EE102A20F88E
:101DC000102C8B88F8EEC00A5BBA20F80E3C89799B
:101DD00080EE810AF3EE030A00F80C1C80EE201A54
:101DE00000ED021A70470000000070422DE9F0413A
:101DF000204C0F460546E6682068001D00F0A6FB53
:101E000048B92068012190F82C0001FA00F02169FE
:101E100021EA00002061B5F1FF3F15D1A7B11649B5
:101E200022684868906023688268DA602268836864
:101E3000121D5A602268121D826020684161086884
:101E4000401C0860BDE8F08120683544B54245601B
:101E5000206800F1040104D2E06BBDE8F04100F01D
:101E600097BBA06B00F094FBA06AA84288BFA56254
:101E7000BDE8F08148000020F8030020164E154C04
:101E8000DFF85890A6F1A0074FF080586068B8B10D
:101E900000F09CFBF068C568281D00F057FBA068A7
:101EA000401EA0606068401E606000F0AFFB286BC1
:101EB00000F0C2FB284600F0BFFB60680028E7D1B5
:101EC00038680128E2D9C9F80080BFF34F8FBFF30B
:101ED0006F8FDBE748000020E403002004ED00E002
:101EE0002DE9F041DFF8948005460E46D8F80C0045
:101EF000C068C768381D00F029FB97F8280010F06B
:101F0000040F04BF00F0FE0087F8280031D0B86944
:101F10003F6128443C467860B04207D8B869711BDD
:101F200081423CBF3846391D06D216E0B54201D980
:101F3000854201D9391D18E0A069216A054420466F
:101F40008847A0692461284429466060864207D3F7
:101F5000A069711B8842EFD9211DD8F8100006E056
:101F60008E4201D2A842E7D2211DD8F80C0000F021
:101F70000FFB3846396ABDE8F04108478800002069
:101F80002DE9F047814600F0ABFF314F8046B8683D
:101F9000804528BF002054D2F868006800284BD044
:101FA000F8684FF0FF36C068C4680568201D00F06F
:101FB000CDFA94F8280010F0040F04BF00F0FE00E2
:101FC00084F8280031D0A069246128446060B0F111
:101FD000FF3F07D8A069C5F1FF31814238BF211DFD
:101FE00007D218E0B5F1FF3F01D9854201D9211D83
:101FF00018E0A069216A054420468847A169246148
:102000004A19204629466260964206D38269711BAE
:102010008A42EED9011D386905E08E4201D2AA42FA
:10202000E7D2011DF86800F0B3FA216A204688471C
:10203000F86800680028B3D1D7E90310C7E90301A5
:102040000120C9F800004046C7F80880BDE8F087C5
:102050008800002009484068B0F1FF3F4FF0500071
:1020600080F3118804D0BFF34F8FBFF36F8FFEE76B
:10207000BFF34F8FBFF36F8FFEE70000B800002063
:10208000DFF8C0B2B04F84B04FF0805AF8680168F2
:10209000002907BF012500240025C06818BF046877
:1020A00000F036FC6846FFF76BFF064600980028F4
:1020B00042D001F057F800226946386800F038FD38
:1020C0000028E3D000980028C0F23281DDF80880B3
:1020D000D8F8140000281CBF08F1040000F036FAFC
:1020E00000F0FEFE8146B868814573D2F86800684A
:1020F00000286BD0F8684FF0FF36C068C4680568E8
:10210000201D00F023FA94F8280010F0040F04BFFB
:1021100000F0FE0084F8280051D0A0692461284412
:102120006060B0F1FF3F27D8A169C5F1FF30884258
:1021300038BF211D27D238E0ADB1386900680028CA
:102140000CBF01250025A11B2A46386800F006FBBC
:1021500001F008F80028AED1CBF800A0BFF34F8FF4
:10216000BFF36F8FA7E7B442EDD800F0FBFF314615
:102170002046FFF7B5FE9EE7B5F1FF3F01D9854246
:1021800001D9211D18E0A069216A0544204688472D
:10219000A16924614A19204629466260B24206D8E4
:1021A0008269711B9142EED2011D386905E0B1428E
:1021B00001D99542E7D9011DF86800F0E9F9216AD3
:1021C00020468847F8680068002893D1D7E90310B3
:1021D000C7E90301C7F8089000980A2840D2DFE851
:1021E00000F0A705056E759B05056E7598F828002B
:1021F00040F0010088F828000199D8F81800C8F8C4
:1022000010800844C8F80400484506D8D8F81800DB
:10221000A9EB0101814204D26DE0494578D98142A0
:1022200076D898F8280010F0040F04BF00F0FE00E4
:1022300088F828003ED00199D8F818000C182044DE
:10224000C8F8040048450CD8D8F81800A9EB0401D8
:10225000814238BF08F104010AD221E000F098F968
:1022600066E04C4501D9844202D908F104011EE020
:10227000D8F81800D8F82010044440468847D8F809
:102280001810C8F810800A1940462146C8F80420E2
:102290004A4507D88269A9EB04019142E8D2011DA1
:1022A000386905E0494501D99442E1D9011DF86832
:1022B00000F06EF9D8F820104046884738E098F8CA
:1022C000280000F0FE0088F8280031E098F8280087
:1022D00040F0010088F828000198C8F8180078B18B
:1022E0004844C8F81080C8F80400814510D3D8F8D5
:1022F000180000281CD908F104013869AEE707E08E
:10230000502080F31188BFF34F8FBFF36F8FFEE72C
:1023100008F10401F868A1E798F8280010F0020F0E
:102320000DBF404600F0FE0088F8280000F084F958
:1023300000226946386800F0FBFB00287FF4C2AE3B
:10234000A4E6000004ED00E08800002070B504461B
:1023500000F03CF994F94550002D0DDD606A58B14C
:1023600004F1240000F086FE002818BF00F04AFAAD
:10237000681E45B2002DF1DC4FF0FF3684F8456051
:1023800000F044F900F022F994F94450002D0DDDDD
:10239000206958B104F1100000F06CFE002818BF4D
:1023A00000F030FA681E45B2002DF1DC84F844607C
:1023B000BDE8704000F02AB92DE9F0470446002539
:1023C00000F0A6FADFF84CC100260CF11402DCF88C
:1023D0000000E8B950494FF4963011F0070F06D0CD
:1023E000C81D20F007014C48081AC0F59630084473
:1023F0000838C2E9001620F00700CCF8000046605B
:10240000431A0660C1E90003CCF80830CCF8043068
:1024100044B104F00700C0F11000C1438C4294BFE6
:102420000444002414F0004F63D1002C61D0DCF888
:102430000470BC429CBF394912685AD85068A04207
:1024400005D2106800281CBF11460246F6D1DCF800
:10245000008042454DD0086800F10805106808600A
:102460005068001B102831D9111911F0070F07D03F
:10247000502080F31188BFF34F8FBFF36F8FFEE7BB
:1024800048602648546003688B4238BF1846FAD328
:10249000446804EB0009894503D14968214441603F
:1024A00001464C6804EB0109994518BF0B600AD13D
:1024B000434508BFC1F8008005D05B6823444B60EA
:1024C00003681B680B60884218BF01605168781A66
:1024D000CCF80400DCF80830834288BFCCF8080050
:1024E00041F00040C2E90060DCF80C00401CCCF870
:1024F0000C0000F037FE15F0070F04BF2846BDE8BA
:10250000F087502080F31188BFF34F8FBFF36F8F98
:10251000FEE700009C00002034040020B0000020F2
:102520004FF0807C40F804CC21F0010140F8081CF9
:10253000054B40F80C3C40F8202C6FF0020240F8AC
:10254000242C44387047000055200008D0E901329F
:1025500001699A60D0E901235A604A68824204BF47
:1025600082684A60002202610868401E08600868AC
:10257000704700F108014FF0FF32C0E90112C1605D
:102580000161002101607047002101617047000076
:1025900010B40B68B3F1FF3F0CBF026900F10802F1
:1025A00008D000BFD2F804C0DCF800409C4298BFBD
:1025B0006246F7D953684B6099608A605160086140
:1025C0000168491C016010BC70470000502080F376
:1025D0001188BFF34F8FBFF36F8F0A494868401CC3
:1025E0004860012818BF70470748006810F0FF0FC7
:1025F00008BF7047502080F31188BFF34F8FBFF39F
:102600006F8FFEE7B800002004ED00E00948416844
:1026100039B1491E416018BF7047002080F311880E
:102620007047502080F31188BFF34F8FBFF36F8F37
:10263000FEE70000B8000020002808BF704770B512
:10264000A0F1080550F8040C10F0004F09D02968DB
:1026500079B1502080F31188BFF34F8FBFF36F8F94
:10266000FEE7502080F31188BFF34F8FBFF36F8FC9
:10267000FEE720F00040686000F04AF917496868FA
:1026800001F114044A68104448602068A84238BF29
:102690000446FAD362681319AB4203D16B6825462E
:1026A0001A4462606B685A19824218BF28600AD1C6
:1026B0000A68904208BF2A6005D0406818446860E4
:1026C000206800682860AC4218BF25600869401C7B
:1026D0000861BDE8704000F045BD00009C0000208E
:1026E0004FF0E02000210161816105494FF47A72C9
:1026F0000968B1FBF2F1491E416107210161704790
:102700000000002030B4002298B1002919BF002336
:10271000DFF844C030BC70470CEBC30465688542E9
:102720000FD10CEBC302002A18BFC2E9001030BC65
:102730007047502080F31188BFF34F8FBFF36F8F26
:10274000FEE7002A02BF5CF83350002D224603F159
:102750000103082BE0D3E6E70403002070B515461B
:102760000E460446FFF732FF94F94400B0F1FF3FF4
:102770004FF0000008BF84F8440094F94510B1F10F
:10278000FF3F08BF84F84500FFF740FFA06B28B962
:102790002A46314604F1240000F054F82046BDE8F2
:1027A0007040FFF7D3BD000010B5A8B10F494A6BC8
:1027B0003AB1502080F31188BFF34F8FBFF36F8F72
:1027C000FEE74A6B521C4A630021FFF70FFB00F043
:1027D000C9FC002818BF10BD4FF0805004490860A4
:1027E000BFF34F8FBFF36F8F10BD00004800002074
:1027F00004ED00E002490A6A0260C968416070475E
:102800004800002001490120C861704748000020AD
:1028100010B50C4658B10A4A126802F11801FFF7C8
:10282000B7FE2046BDE810400121FFF7DFBA502077
:1028300080F31188BFF34F8FBFF36F8FFEE7000067
:102840004800002030B48C46D8B1124943680C6867
:10285000E3619C680D682C620C689D6818346C609C
:102860000C6818349C60096888620168491C016022
:10287000002A18BF4FF0FF3C114630BC6046FFF7FE
:10288000B5BA502080F31188BFF34F8FBFF36F8F1D
:10289000FEE700004800002030B583B0174800254F
:1028A000CDE900502B46822215A1174800F030FADE
:1028B000164C012803D100F0FDFC012803D0B0F133
:1028C000FF3F12D00EE0502080F31188BFF34F8FEE
:1028D000BFF36F8F4FF0FF30A06201206061E560B1
:1028E00000F04CF8206B03B030BD502080F311880D
:1028F000BFF34F8FBFF36F8FFEE70000740000201F
:1029000049444C45000000007D1E0008480000209E
:102910000248416B491C4163704700004800002099
:102920001448416B00291EBF0121C161704700217D
:10293000C1610169104AB1FA81F1C1F11F0101EBD6
:10294000810152F821306BB102EB810101F10803E2
:102950004A6852684A609A4204BF52684A60D16825
:1029600001607047502080F31188BFF34F8FBFF391
:102970006F8FFEE74800002044030020394810B55F
:10298000016882B0384A914207D1502080F3118803
:10299000BFF34F8FBFF36F8FFEE700683349884264
:1029A00007D1502080F31188BFF34F8FBFF36F8F93
:1029B000FEE72F4A10780190FF20107010788DF8F4
:1029C00000009DF800009DF8001000F0F000884223
:1029D00007D0502080F31188BFF34F8FBFF36F8F64
:1029E000FEE79DF80000234C00F050002070072007
:1029F000A0609DF8001011F0800F0DD09DF8001020
:102A000049008DF800109DF80010401E11F0800F55
:102A1000F4D1A060032807D0502080F31188BFF3C1
:102A20004F8FBFF36F8FFEE74FF44070A0600198A7
:102A300010701148016841F470010160016841F0B3
:102A400070410160FFF74CFE00206060FDF7CAFB9B
:102A50000A48016841F040410160FDF7AFFB02B058
:102A6000002010BD00ED00E071C20F4170C20F41A7
:102A700000E400E0B800002020ED00E034EF00E0CA
:102A80002DE9F04791460E46070049D04FF0FF3838
:102A9000B8FBF7F086429CBF07FB06F010F1510F20
:102AA0003ED85030FFF788FC05002ED005F15000CD
:102AB0002C46002E0CBF24602060C4E90F76B8FBC2
:102AC000F7F0B04224D3FFF781FDD4E90F2021684D
:102AD00002FB0011A1600021A16321686160E06B2D
:102AE000421E206C02FB0011E16084F8448084F8EF
:102AF000458004F11000FFF73CFD04F12400FFF7CE
:102B000038FDFFF783FD84F84C902846BDE8F08738
:102B1000502080F31188BFF34F8FBFF36F8FFEE714
:102B2000502080F31188BFF34F8FBFF36F8FFEE704
:102B30002DE9F747002783B00E46040001D046B1C7
:102B400011E0502080F31188BFF34F8FBFF36F8FD8
:102B5000FEE7206C38B1502080F31188BFF34F8F0F
:102B6000BFF36F8FFEE700F0ADF9DFF818A14FF06B
:102B700000084FF0805948B9059838B1502080F3CB
:102B80001188BFF34F8FBFF36F8FFEE7FFF71EFD76
:102B9000A56B0DB3226C30464AB1E1681144E16087
:102BA000A368994224BF2168E160FDF7EBFB681E32
:102BB000A063206950B104F1100000F05BFA28B165
:102BC000CAF80090BFF34F8FBFF36F8FFFF71EFD62
:102BD00006B00120BDE8F087059800284CD01FB949
:102BE0006846FFF707FE0127FFF710FDFFF790FE8D
:102BF000FFF7ECFC94F94400B0F1FF3F08BF84F804
:102C0000448094F94500B0F1FF3F08BF84F8458047
:102C1000FFF7FCFC05A9684600F036F858B12046DD
:102C2000FFF794FB00F09EFAFFF7D0FCA06B18B3FF
:102C3000FFF7ECFCAAE7FFF7C9FCA06B38B1FFF780
:102C4000E5FC2046FFF782FB00F08CFA9EE7FFF7D9
:102C5000DDFC04F124000599FFF7DAFD2046FFF7BB
:102C600075FB00F07FFA002890D1CAF80090BFF3FE
:102C70004F8FBFF36F8F89E7FFF7C8FC06B00020C6
:102C8000BDE8F08704ED00E02DE9F0410C460500B9
:102C90002BD0002C31D0FFF799FC1C48C368D5F825
:102CA00004C02168A3EB0C02B1F1FF3F08BF00256F
:102CB00016D02F68D0F820800026474504D09C45C8
:102CC0009CBF012526600BD991429CBF266001253F
:102CD00006D9891A2160016A2960C06868600025E8
:102CE000FFF794FC2846BDE8F081502080F311885E
:102CF000BFF34F8FBFF36F8FFEE7502080F3118833
:102D0000BFF34F8FBFF36F8FFEE700004800002036
:102D10002DE9F84F8346DDE90A7990009A469046FE
:102D20000D460090FFF748FB060033D05820FFF710
:102D300043FB04002BD05821FDF73DFB2663A52261
:102D400030460099FDF730FB6FF00301206B01EB7B
:102D500088010844002120F00706002D18BF00203C
:102D60000BD023182A5C83F834202A5C002A1CBF6D
:102D7000401C0A28F5D384F83D10052F0ED35020AF
:102D800080F31188BFF34F8FBFF36F8FFEE730469C
:102D9000FFF752FC4FF0FF30BDE8F88FE762201DCF
:102DA000A764FFF7F1FB04F11800FFF7EDFB2461C6
:102DB000C7F105016462A161524659463046FFF7EA
:102DC000AFFB2060B9F1000F18BFC9F80040FFF752
:102DD000FDFB344FB868401CB8603868324D10B104
:102DE000786920B329E03C60B868012808BF002654
:102DF00023D100BF06EB860005EB8000FFF7B9FB8F
:102E0000761C052EF6D32948FFF7B3FB2848FFF7B9
:102E1000B0FB2848FFF7ADFB2748FFF7AAFB274880
:102E2000FFF7A7FB2148B8631430F86305E0386862
:102E3000E16AC06A884298BF3C60786A0121401C00
:102E400078622064E06A3A6981401143396100EB9D
:102E5000800005EB80004068A0608168E1608268C6
:102E6000211D51608160E06A00EB800005EB80016C
:102E7000616155F82010491C45F82010FFF7C6FB8A
:102E8000786960B13868E16AC06A884207D20C4943
:102E90004FF080500860BFF34F8FBFF36F8F01205A
:102EA000BDE8F88F4800002044030020A80300205C
:102EB000BC030020D0030020E4030020F80300201E
:102EC00004ED00E005484169002904BF0120704776
:102ED000406B00280CBF02200020704748000020F3
:102EE0000148C06870470000480000202DE9F00745
:102EF0005E4B0020596B29B19969491C9961BDE865
:102F0000F0077047D9684A1CDA604FF0FF371DD1CF
:102F1000996B096839B1502080F31188BFF34F8F46
:102F2000BFF36F8FFEE7996BD3F83CC0C3F838C08E
:102F3000D963196A491C1962996B0968002908BF8D
:102F40009F6203D0996BC96809689962996A484C75
:102F500091429CBF00264FF0010A0DD8996B096879
:102F600049B1996BC968C968D1F804C0624513D2E8
:102F7000C3F828C000E09F621968C96A01EB8101AB
:102F800054F82110012988BF0120D969002918BFF0
:102F90000120BDE8F0077047D1E90285D1F814C0DF
:102FA000C8F80850D1E90258C8F80450DCF8048089
:102FB0000D1DA84504BFD1F80C80CCF804804E61EB
:102FC000DCF80080A8F10108CCF80080D1F828C016
:102FD000BCF1000F18D0D1E90789C8F80890D1E9F1
:102FE0000789C9F80480DCF8048001F11809C84594
:102FF00004BFD1F82080CCF804808E62DCF8008019
:10300000A8F10108CCF80080D1F82CC0D3F81090BA
:103010000AFA0CF848EA0908C3F810800CEB8C0C8B
:1030200004EB8C0CDCF804C0C1F808C0DCF80880A4
:10303000C1F80C80DCF80880C8F80450CCF80850BF
:10304000D1F82CC00CEB8C0C04EB8C054D6154F8C2
:103050002C506D1C44F82C50C96AD3F800C0DCF821
:103060002CC0614588BF012078E70000480000209F
:103070004403002030B4C068C06800282ED0D0E9D6
:103080000732816A9A60D0E9072300F1180C5A6070
:103090004A68624504BF026A4A60002383620A6884
:1030A000521E0A602C494A6B0124FAB12B4B5A6814
:1030B000C261956805629568C5F804C0C2F808C089
:1030C00083621A68521C1A60C06A0A68D26A904207
:1030D00086BF0120CC61002030BC7047502080F3B7
:1030E0001188BFF34F8FBFF36F8FFEE7D0E9025C0B
:1030F0004269C5F808C0D0E9025CCCF804505568B4
:1031000000F1040C654504BFC56855604361136850
:103110005B1E1360C26A0D6904FA02F32B430B6154
:103120000F4B02EB820203EB8202526882609568C9
:10313000C5609568C5F804C0C2F808C0C26A02EB51
:10314000820203EB820CC0F814C053F822C00CF1C9
:10315000010C43F822C0B7E748000020D00300204C
:10316000440300202DE9F0474E4C4FF0000A606BFD
:1031700038B1FFF72BFA606B401E6063606B40B1A3
:103180008AE0502080F31188BFF34F8FBFF36F8F19
:10319000FEE7A06800287FD0DFF80CC1DCF8000053
:1031A00000250127002818BF404B5DD0DCF80C003B
:1031B000C168D1E90762886AB260D1E90726726006
:1031C000426801F11806B24204BF0A6A42608D6289
:1031D0000268521E0260D1E902624869B260D1E918
:1031E0000226726042680E1DB24204BFCA68426085
:1031F0004D610268521E0260CA6AD4F8109007FA44
:1032000002F848EA0900206102EB820003EB80002B
:1032100042688A60D2F80880C1F80C80D2F8088031
:10322000C8F804609660C86A00EB800003EB800277
:103230004A6153F82020521C43F82020C86A2268B3
:10324000D26A904228BFE761DCF800000028ADD1C7
:1032500051B1A16B2046096800290FBF4FF0FF3123
:10326000816BC96809688162A6693EB1FFF73EFEBD
:10327000002818BFE761761EF8D1A561E06940B16A
:103280000B494FF080504FF0010A0860BFF34F8F99
:1032900000E001E0BFF36F8FFFF7B8F95046BDE8DB
:1032A000F087000048000020D003002044030020E5
:1032B00004ED00E010B582B0FFF788F9194C2068E2
:1032C000A0B91948FFF755F91848FFF752F9164801
:1032D000E0601430206100220C210A20FFF7D0FBAF
:1032E000206000281CBF12A1FFF70CFAFFF78EF92F
:1032F000206870B110490220CDE9000100234FF48D
:1033000082720EA10F48FFF703FD00281CBF02B018
:1033100010BD502080F31188BFF34F8FBFF36F8F24
:10332000FEE70000880000200C040020200400209C
:10333000546D7251000000008C000020546D72200A
:10334000537663008120000800000000920E493C83
:10335000B10AC93C2BC3163D2EFB483D752B7B3D66
:1033600004A9963D80B6AF3D36BDC83D2FBCE13DBA
:1033700073B2FA3D87CF093E8340163EB5AB223E7D
:10338000A2102F3ECF6E3B3EC2C5473E0115543EB4
:10339000135C603E7F9A6C3ECCCF783EC07D823E0F
:1033A000938E883E229A8E3E32A0943E86A09A3E0C
:1033B000E59AA03E128FA63ED47CAC3EEF63B23EAF
:1033C0002A44B83E491DBE3E15EFC33E53B9C93E1F
:1033D000CA7BCF3E4136D53E80E8DA3E4F92E03E92
:1033E0007533E63EBBCBEB3EEA5AF13ECBE0F63E10
:1033F000275DFC3EE4E7003F3D9C033F824B063FD8
:103400009BF5083F6B9A0B3FDA390E3FCDD3103F47
:103410002A68133FD9F6153FC07F183FC6021B3FED
:10342000D17F1D3FCBF61F3F9967223F25D2243F16
:103430005636273F1594293F4AEB2B3FDE3B2E3F64
:10344000BB85303FC9C8323FF304353F233A373F8D
:103450004268393F3B8F3B3FF9AE3D3F67C73F3F37
:1034600070D8413F01E2433F03E4453F65DE473FFB
:1034700012D1493FF8BB4B3F029F4D3F207A4F3F4F
:103480003D4D513F4918533F31DB543FE595563F81
:103490005348583F6AF2593F1A945B3F532D5D3FA2
:1034A00005BE5E3F2146603F97C5613F5A3C633F82
:1034B00059AA643F880F663FD86B673F3CBF683F9F
:1034C000A7096A3F0C4B6B3F5E836C3F93B26D3F25
:1034D0009ED86E3F73F56F3F0809713F5213723FDC
:1034E0004714733FDD0B743F0BFA743FC6DE753F24
:1034F00007BA763FC58B773FF853783F9812793FEC
:103500009DC7793F02737A3FBE147B3FCDAC7B3FB2
:10351000283B7C3FC9BF7C3FAC3A7D3FCCAB7D3F75
:1035200023137E3FB0707E3F6DC47E3F580E7F3FB9
:103530006D4E7F3FAB847F3F0FB17F3F97D37F3F7F
:1035400043EC7F3F11FB7F3F0000803F11FB7F3F3B
:1035500043EC7F3F97D37F3F0FB17F3FAB847F3FEB
:103560006D4E7F3F580E7F3F6DC47E3FB0707E3FF3
:1035700023137E3FCCAB7D3FAC3A7D3FC9BF7C3F40
:10358000283B7C3FCDAC7B3FBE147B3F02737A3F30
:103590009DC7793F9812793FF853783FC58B773FA5
:1035A00007BA763FC6DE753F0BFA743FDD0B743FFA
:1035B0004714733F5213723F0809713F73F56F3F11
:1035C0009ED86E3F93B26D3F5E836C3F0C4B6B3F5A
:1035D000A7096A3F3CBF683FD86B673F880F663FCB
:1035E00059AA643F5A3C633F97C5613F2146603FFB
:1035F00005BE5E3F532D5D3F1A945B3F6AF2593F13
:103600005348583FE595563F31DB543F4918533FE7
:103610003D4D513F207A4F3F029F4D3FF8BB4B3FFE
:1036200012D1493F65DE473F03E4453F01E2433F96
:1036300070D8413F67C73F3FF9AE3D3F3B8F3B3FAF
:103640004268393F233A373FF304353FC9C8323F18
:10365000BB85303FDE3B2E3F4AEB2B3F1594293F85
:103660005636273F25D2243F9967223FCBF61F3F8E
:10367000D17F1D3FC6021B3FC07F183FD9F6153FC3
:103680002A68133FCDD3103FDA390E3F6B9A0B3FB8
:103690009BF5083F824B063F3D9C033FE4E7003F1C
:1036A000275DFC3ECBE0F63EEA5AF13EBBCBEB3E5B
:1036B0007533E63E4F92E03E80E8DA3E4136D53E35
:1036C000CA7BCF3E53B9C93E15EFC33E491DBE3E2E
:1036D0002A44B83EEF63B23ED47CAC3E128FA63E85
:1036E000E59AA03E86A09A3E32A0943E229A8E3E53
:1036F000938E883EC07D823ECCCF783E7F9A6C3ED2
:10370000135C603E0115543EC2C5473ECF6E3B3E42
:10371000A2102F3EB5AB223E8340163E87CF093E16
:1037200073B2FA3D2FBCE13D36BDC83D80B6AF3D1A
:1037300004A9963D752B7B3D2EFB483D2BC3163DC2
:10374000B10AC93C920E493C00000000920E49BCEF
:10375000B10AC9BC2BC316BD2EFB48BD752B7BBD62
:1037600004A996BD80B6AFBD36BDC8BD2FBCE1BDB6
:1037700073B2FABD87CF09BE834016BEB5AB22BE79
:10378000A2102FBECF6E3BBEC2C547BE011554BEB0
:10379000135C60BE7F9A6CBECCCF78BEC07D82BE0B
:1037A000938E88BE229A8EBE32A094BE86A09ABE08
:1037B000E59AA0BE128FA6BED47CACBEEF63B2BEAB
:1037C0002A44B8BE491DBEBE15EFC3BE53B9C9BE1B
:1037D000CA7BCFBE4136D5BE80E8DABE4F92E0BE8E
:1037E0007533E6BEBBCBEBBEEA5AF1BECBE0F6BE0C
:1037F000275DFCBEE4E700BF3D9C03BF824B06BFD4
:103800009BF508BF6B9A0BBFDA390EBFCDD310BF43
:103810002A6813BFD9F615BFC07F18BFC6021BBFE9
:10382000D17F1DBFCBF61FBF996722BF25D224BF12
:10383000563627BF159429BF4AEB2BBFDE3B2EBF60
:10384000BB8530BFC9C832BFF30435BF233A37BF89
:10385000426839BF3B8F3BBFF9AE3DBF67C73FBF33
:1038600070D841BF01E243BF03E445BF65DE47BFF7
:1038700012D149BFF8BB4BBF029F4DBF207A4FBF4B
:103880003D4D51BF491853BF31DB54BFE59556BF7D
:10389000534858BF6AF259BF1A945BBF532D5DBF9E
:1038A00005BE5EBF214660BF97C561BF5A3C63BF7E
:1038B00059AA64BF880F66BFD86B67BF3CBF68BF9B
:1038C000A7096ABF0C4B6BBF5E836CBF93B26DBF21
:1038D0009ED86EBF73F56FBF080971BF521372BFD8
:1038E000471473BFDD0B74BF0BFA74BFC6DE75BF20
:1038F00007BA76BFC58B77BFF85378BF981279BFE8
:103900009DC779BF02737ABFBE147BBFCDAC7BBFAE
:10391000283B7CBFC9BF7CBFAC3A7DBFCCAB7DBF71
:1039200023137EBFB0707EBF6DC47EBF580E7FBFB5
:103930006D4E7FBFAB847FBF0FB17FBF97D37FBF7B
:1039400043EC7FBF11FB7FBF000080BF11FB7FBF37
:1039500043EC7FBF97D37FBF0FB17FBFAB847FBFE7
:103960006D4E7FBF580E7FBF6DC47EBFB0707EBFEF
:1039700023137EBFCCAB7DBFAC3A7DBFC9BF7CBF3C
:10398000283B7CBFCDAC7BBFBE147BBF02737ABF2C
:103990009DC779BF981279BFF85378BFC58B77BFA1
:1039A00007BA76BFC6DE75BF0BFA74BFDD0B74BFF6
:1039B000471473BF521372BF080971BF73F56FBF0D
:1039C0009ED86EBF93B26DBF5E836CBF0C4B6BBF56
:1039D000A7096ABF3CBF68BFD86B67BF880F66BFC7
:1039E00059AA64BF5A3C63BF97C561BF214660BFF7
:1039F00005BE5EBF532D5DBF1A945BBF6AF259BF0F
:103A0000534858BFE59556BF31DB54BF491853BFE3
:103A10003D4D51BF207A4FBF029F4DBFF8BB4BBFFA
:103A200012D149BF65DE47BF03E445BF01E243BF92
:103A300070D841BF67C73FBFF9AE3DBF3B8F3BBFAB
:103A4000426839BF233A37BFF30435BFC9C832BF14
:103A5000BB8530BFDE3B2EBF4AEB2BBF159429BF81
:103A6000563627BF25D224BF996722BFCBF61FBF8A
:103A7000D17F1DBFC6021BBFC07F18BFD9F615BFBF
:103A80002A6813BFCDD310BFDA390EBF6B9A0BBFB4
:103A90009BF508BF824B06BF3D9C03BFE4E700BF18
:103AA000275DFCBECBE0F6BEEA5AF1BEBBCBEBBE57
:103AB0007533E6BE4F92E0BE80E8DABE4136D5BE31
:103AC000CA7BCFBE53B9C9BE15EFC3BE491DBEBE2A
:103AD0002A44B8BEEF63B2BED47CACBE128FA6BE81
:103AE000E59AA0BE86A09ABE32A094BE229A8EBE4F
:103AF000938E88BEC07D82BECCCF78BE7F9A6CBECE
:103B0000135C60BE011554BEC2C547BECF6E3BBE3E
:103B1000A2102FBEB5AB22BE834016BE87CF09BE12
:103B200073B2FABD2FBCE1BD36BDC8BD80B6AFBD16
:103B300004A996BD752B7BBD2EFB48BD2BC316BDBE
:103B4000B10AC9BC920E49BC000000806C3B000861
:103B500000000020C4000000F6190008303C0008F6
:103B6000C400002074330100061A0008007A030A1A
:103B7000000000000000000001020304060708091D
:103B80000000000001020304010203040607080903
:103B900000F0000000000000000000000000000035
:103BA0000000000000000000000000000000000015
:103BB0000000000000000000000000000000000005
:103BC00000000000000000000000000000000000F5
:103BD00000000000000000000000000000000000E5
:103BE00000000000040000000000000000000000D1
:103BF00000000000000000000000000000000000C5
:103C000000000000000000000000000000000000B4
:103C100000000000000000000000000000000000A4
:103C20000000000000000000AAAAAAAA00000000EC
:040000050800018965
:00000001FF
