:020000040800F2
:10000000603801205D02000809200008691F00080F
:10001000052000082D0F0008512D000800000000E9
:100020000000000000000000000000009D0100082A
:100030006D19000800000000F901000839260008C9
:1000400077020008770200087702000877020008AC
:10005000770200087702000877020008770200089C
:10006000770200087702000877020008770200088C
:10007000770200087702000877020008770200087C
:10008000770200087702000877020008770200086C
:10009000310F000877020008770200087702000895
:1000A000770200087702000877020008770200084C
:1000B00077020008D52600087702000877020008BA
:1000C000770200087702000877020008770200082C
:1000D00077020008ED29000877020008770200087F
:1000E000770200087702000877020008770200080C
:1000F00077020008770200087702000877020008FC
:1001000077020008770200089927000877020008A4
:1001100077020008770200087702000877020008DB
:1001200077020008770200087702000877020008CB
:1001300077020008770200087702000877020008BB
:100140004D100008770200087702000877020008C7
:10015000770200087702000877020008770200089B
:10016000770200087702000877020008770200088B
:10017000770200087702000877020008770200087B
:100180007702000877020008DFF80CD000F0D6FAFA
:100190000048004727470008603801202C4B1968A9
:1001A0000868B0E8F04F80F30988BFF36F8F4FF015
:1001B000000080F3118870470000000008480068C4
:1001C000006880F308884FF0000080F3148862B65E
:1001D00061B6BFF34F8FBFF36F8F00DF00BF00BF6B
:1001E00008ED00E0DFF80C00016841F470010160E7
:1001F000704700BF88ED00E0EFF30980BFF36F8F19
:10020000134B1A681EF0100F08BF20ED108A20E96A
:10021000F04F106009B44FF0500080F31188BFF325
:100220004F8FBFF36F8F05F087FB4FF0000080F317
:10023000118809BC19680868B0E8F04F1EF0100F6B
:1002400008BFB0EC108A80F30988BFF36F8F704746
:10025000F0000020EFF3058070470000064880475B
:1002600006480047FEE7FEE7FEE7FEE7FEE7FEE79B
:10027000FEE7FEE7FEE7FEE76D26000889010008BD
:100280009FED1A1AF5EE000A40EE010ABDEEE00AF3
:10029000F5EEC00A10EE100AF1EE10FA38BF401E5B
:1002A00000EE100A1349F7EE001AB8EEC00A30EE5D
:1002B000C00ADFED0F0A20EE200AFCEEC00A10EEA5
:1002C000900AC0F3080000EE900A01EB8000F8EEFF
:1002D000600A90ED011A70EE600A90ED000A71EE6E
:1002E000E01A21EE800A00EE810A704783F9223E6F
:1002F00000000044E0630008DFED190AB5EEC00A13
:1003000060EE200ABDEEE01A11EE100AF1EE10FACE
:1003100038BF401E00EE100A1349F7EE001AB8EE7F
:10032000C00A30EEC00ADFED0F0A60EE200ABCEE14
:10033000E00A10EE100AC0F3080000EE100A01EB0C
:100340008000B8EE400A90ED011A70EEC00A90ED00
:10035000000A71EEE01A21EE800A00EE810A704771
:1003600083F9223E00000044E0630008DFED3C0A10
:1003700020EE200AFDEEC00AB5EEC00A10EE902A6B
:10038000F1EE10FA38BF521E00EE902ADFF8D8C006
:10039000B0EE084AF8EEE00A30EE600ADFED310A0E
:1003A00060EE200ABCEEE00A10EE102AC2F308024A
:1003B00000EE102A02F180030CEB8202B8EE400A34
:1003C000C3F308030CEB830330EEC00AD2ED000A3E
:1003D00093ED002A93ED011AF1EE601AD2ED010AB5
:1003E00071EE422AF1EE603ADFED200A31EEA31AF7
:1003F00021EE203AB0EE001A41EE213A01EE623AC7
:1004000062EE842A43EEE02A40EE032A60EE222ABE
:1004100041EEA02A00EE222A81ED002AD3ED001A37
:1004200093ED013AD2ED002A92ED012A71EE833A62
:1004300001EE213A32EE622A63EEA03A41EE423AF0
:1004400022EE042A03EE602A00EE232A20EE021A8E
:1004500001EEA01A40EE012AC0ED002A704700000C
:10046000610B363B00000044E0630008DB0F493CB1
:1004700040EA01039B0703D009E008C9121F08C026
:10048000042AFAD203E011F8013B00F8013B521EA6
:10049000F9D27047D2B201E000F8012B491EFBD21D
:1004A00070470022F6E710B513460A46044619467F
:1004B000FFF7F0FF204610BD2DE9FE4F81EA03044F
:1004C00004F0004421F0004100944FF0000B23F0B1
:1004D000004350EA01045ED052EA03045BD0C3F348
:1004E0000A54C1F30A552C44A4F2F3340194A0FB3E
:1004F0000254C1F3130141F48011C3F3130343F415
:10050000801301FB024400FB034E840A970A44EA6D
:10051000815447EA8357A4FB076802958D0A05FBBF
:1005200007854FEA932C04FB0C542705029D4FEAE4
:10053000065847EA1637B5EB08056EEB070C870E31
:10054000920E47EA811742EA8312A7FB0201B6EB3B
:100550000B0164EB00042B0D43EA0C335E1844EBF3
:100560001C50DA465146E7FB0201C5F313044FEA7B
:100570000B3343EA14534FEA0432019C43EA060367
:10058000A4F10C040294009CCDE900B400F088F8BA
:1005900003B0BDE8F08F00200146F9E70EB5C10FAA
:1005A00080EAE0700844CA07002140F233438DE836
:1005B0000E000A460B4600F073F803B000BD01F0D0
:1005C000004330B421F0004150EA010206D00A0D88
:1005D000A2F56072C1F31301002A02DC30BC0020D6
:1005E0007047440F44EAC104C100E01830BC00EB7E
:1005F000C25000F00FB8202A04DB203A00FA02F1C2
:10060000002070479140C2F1200320FA03F3194300
:10061000904070470029A8BF7047401C490008BFA0
:1006200020F00100704710B4B0FA80FC00FA0CF022
:1006300050EA010404BF10BC704749B1CCF120045A
:1006400021FA04F411FA0CF118BF012121430843E7
:10065000A3EB0C01CB1D4FEA00614FEA102042BF13
:10066000002010BC704700EBC35010440029A4BF09
:1006700010BC7047401C490008BF20F0010010BCAE
:10068000704710B5141E73F1000408DA401C41F1E4
:10069000000192185B411A4301D120F0010010BD06
:1006A0002DE9F04D92469B4611B1B1FA81F202E07C
:1006B000B0FA80F220329046FFF79DFF04460F46C5
:1006C00040EA0A0041EA0B0153465A46084313D058
:1006D000114653EA010019D0C8F14002504600F01B
:1006E0003FF805460E46504659464246FFF783FFFF
:1006F000084305D0012004E020463946BDE8F08DCE
:100700000020054346EAE0762C4337430A98630508
:10071000E40AA0EB08000022FD0A44EA47540A302C
:1007200002D500200146E9E7010510196941DDE91C
:10073000084500196941BDE8F04DA2E7064C074D98
:1007400006E0E06840F0010394E8070098471034A1
:10075000AC42F6D3FFF71CFDE46B0008046C000804
:10076000202A04DB203A21FA02F00021704721FA06
:1007700002F3D040C2F1200291400843194670476D
:1007800070B58C1810F8015B15F0070301D110F853
:10079000013B2A1106D110F8012B03E010F8016B80
:1007A00001F8016B5B1EF9D12B0705D40023521E03
:1007B0000DD401F8013BFAE710F8013BCB1A921C6B
:1007C00003E013F8015B01F8015B521EF9D5A14269
:1007D000D8D3002070BD10B52DED028BB0EE408A4D
:1007E000B0EE480A02F0D0FABDEC028B10BD10B595
:1007F0002DED028BB0EE408AF0EE608AF0EE680AD2
:10080000B0EE480A02F056FBBDEC028B10BD10B5ED
:100810002DED028BB0EE408AB0EE480AFFF730FDB6
:10082000BDEC028B10BDF0EE400AF5EEC00AF1EE11
:1008300010FA02DDB0EE600A7047B1EE600AFBE725
:1008400018B19FED020A80ED000A70470000000019
:1008500018B1B3EE060A80ED000A704770B52DEDB1
:100860000C8B84B006460C4615469FED990AF0EEB7
:10087000408A9FED970AB0EE409A9FED950AF0EE00
:1008800040BA9FED930AF0EE409A9FED910AB0EEC8
:1008900040AA0EB104B11DB904B0BDEC0C8B70BD03
:1008A0008C48FFF7CDFF8C48FFF7D2FF8A48D0ED88
:1008B000000A9FED8A1A60EE810AB0EE600A00F02D
:1008C0002DF9F0EE408A28EEA80AF0EE408A824820
:1008D000D0ED000AB0EE001A60EE810A9FED7F1A9B
:1008E00060EE810AB0EE600A00F018F9B0EE409AAE
:1008F00029EE090AB0EE409ADFED790AB7EE000A58
:1009000000EEA80ADFED770A00EEC90ADFED760AED
:1009100020EE200A754880ED000A6E4890ED000A2E
:10092000DFED730A80EE201AB7EE000A31EE000AFE
:1009300020EE000A6D48D0ED000A80EE801A6D4866
:1009400080ED001A94ED000AB5EEC00AF1EE10FA3F
:100950000DD194ED010AB5EEC00AF1EE10FA06D100
:1009600094ED020AB5EEC00AF1EE10FA46D09FED02
:10097000580AB0EE408A0020019002900390D4ED16
:10098000000A60EEA00A94ED011AD4ED011A41EEBE
:10099000210A94ED021AD4ED021A41EE210AB0EEBA
:1009A000600A00F0A9F8B0EE408A94ED000A20EE4B
:1009B000080A8DED010A94ED010A20EE080A8DED7A
:1009C000020A94ED020A20EE080A8DED030ADDED1D
:1009D000010AF1EE600AB0EE600AFFF7FCFEF0EEED
:1009E000409A9DED031AF0EE410A9DED021AB0EE19
:1009F000410AFFF7FCFEB0EE40AA07E09FED340A83
:100A0000F0EE409A9FED320AB0EE40AA95ED000A52
:100A1000B5EEC00AF1EE10FA0DD195ED010AB5EE72
:100A2000C00AF1EE10FA06D195ED020AB5EEC00A41
:100A3000F1EE10FA3CD0B0EE690A00F06FF8B0EEBB
:100A4000408AB0EE690AFFF7E2FEB0EE40DAB0EE9F
:100A50004A0A00F063F8F0EE40AAB0EE4A0AFFF747
:100A6000D6FEB0EE40BA28EE2A0AD5ED010A20EEF5
:100A7000200AD5ED000A0DEE200A68EE0B0A95ED6E
:100A8000021A00EE810AB0EE40CA95ED010A20EE8E
:100A90000B0AD5ED020A0AEEE00AF0EE40CAF0EECB
:100AA0006C0AB0EE4C0AFFF7A2FEF0EE40BA03E08B
:100AB0009FED070AF0EE40BAB0EE4A1AF0EE690A6E
:100AC000B0EE6B0A304602F015FD00BFE4E6000010
:100AD000000000006C0100207001002035FA8E3CFF
:100AE000C1BFAD3B9DF8C5362F7C1C417401002071
:100AF000506CC24A7801002010B52DED028BB0EE8B
:100B0000408AB0EE480A02F0FDFAB7EE001AC1EED4
:100B1000000AB0EE600ABDEC028B10BD10B52DEDE1
:100B2000028BB0EE408AB0EE480AFFF7E5FBBDEC61
:100B3000028B10BD2DE9F0412DED028B9AB00546D8
:100B4000B0EE408A0E46174698460020179018903F
:100B500019901490159016904DB146B13FB1B8F16F
:100B6000000F04D0B5EEC08AF1EE10FA05D10020D6
:100B70001AB0BDEC028BBDE8F08196ED000A8DED58
:100B8000170A96ED010A8DED180A96ED020A8DED11
:100B9000190A97ED000A8DED140A97ED010A8DED03
:100BA000150A97ED020A8DED160A17AA14A9284610
:100BB00002F0F2FA402104A8FFF773FC0020009035
:100BC000019002900390002417A904A804F05DFC92
:100BD00000BF30E004A800EB041090ED000AD5ED52
:100BE000000A20EE200A04A800EB0410D0ED010A50
:100BF00095ED011A00EE810A04A800EB0410D0ED77
:100C0000020A95ED021A00EE810A04A800EB041016
:100C1000D0ED030A95ED031A00EE810A20EE080AD2
:100C2000F0EE000A80EE201A684600EB840080EDAA
:100C3000001A601CC4B2042CCCDB002410E005EBCD
:100C4000840090ED000A684600EB8400D0ED000AB5
:100C500030EE200A05EB840080ED000A601CC4B26F
:100C6000042CECDB284604F06DFB012080E700003B
:100C700010B51021014800F0A7FF10BD0000024090
:100C800010B51021014800F09DFF10BD000002408A
:100C900010B50121014800F097FF10BD000402408B
:100CA00010B50121014800F08DFF10BD0004024085
:100CB0002DE9F04104460D461746FFF7E1FF44F0E9
:100CC00080010B4801F028FC44F08001084801F045
:100CD00023FC002606E05521054801F01DFC287084
:100CE0006D1C761C062EF6DBFFF7C2FFBDE8F08117
:100CF0000030014010B50446204604F039FD10BD17
:100D000000B50346184600F032FE00BD2DE9F04163
:100D100005460C461746FFF7C3FF45F0800109481A
:100D200001F0FAFB002606E05521064801F0F4FB2D
:100D30002070641C761C082EF6DBFFF7A9FFBDE8C7
:100D4000F08100000030014010B5002402F01CFDCD
:100D500010B144F0800402E002F082FC044302F08F
:100D600005FF10B144F0400402E002F085FE0443A8
:100D7000204610BD2DE9F04105460E46174692214A
:100D8000514801F0C9FB062250491220FFF790FF9D
:100D90004E484078000200B24C49097840EA01040C
:100DA00000EE104AF8EEC00A9FED491A9FED490A7D
:100DB00010EE810A86ED000A4448C078000200B2B5
:100DC0004249897840EA010400EE104AF8EEC00A70
:100DD0009FED3F1A9FED400A10EE810A86ED010A51
:100DE0003A484079000200B23849097940EA0104E2
:100DF00000EE104AF8EEC00A9FED351A9FED370A53
:100E000010EE810A86ED020A082230490020FFF721
:100E10007DFF2E4800780F2835D12C48C07800027D
:100E200000B22A49897840EA010400EE104AB8EE7F
:100E3000C00ADFED2B0A20EE200A85ED000A2348C8
:100E40004079000200B22149097940EA010400EE2C
:100E5000104AB8EEC00ADFED220A20EE200A85ED26
:100E6000010A1A48C079000200B21849897940EA9B
:100E7000010400EE104AB8EEC00ADFED190A20EEB8
:100E8000200A85ED020A022210492220FFF710FFF6
:100E90000E480078C0000D49497840EA6114B4F565
:100EA000806F02DBA4F5006004B200EE104AF8EE99
:100EB000C00AB4EE001AB3EE070A00EE810A87ED0D
:100EC000000ABDE8F081000000300140E50000208C
:100ED000E7416B3A00000000000000800AD7233E83
:100EE00058A08B3A70B504460D4644F0800000F0DF
:100EF00005F8552000F002F8287070BD10B50446C2
:100F00002146024801F008FB10BD000000300140FE
:100F100070B504460D462146034801F0FDFA294606
:100F2000014801F0F9FA70BD0030014000BFFEE752
:100F300000B585B00221074800F00AFA40B102214D
:100F4000044800F02DF96A460021024800F023FB16
:100F500005B000BD0064004000B58BB00121082041
:100F600001F01EF90121480601F02AF909220021A9
:100F7000344800F004FE09220121324800F0FFFD50
:100F800002208DF81C0000208DF81E008DF81F0037
:100F900003208DF81D00069006A92A4800F0A7FD41
:100FA0000320ADF8200000208DF8220001208DF8EC
:100FB000230008208DF8240003208DF82500002050
:100FC0008DF827008DF8280001208DF829000020D9
:100FD0008DF82A008DF826008DF82B0008A91A48F4
:100FE00000F04FFA00208DF812008DF81300012058
:100FF0008DF814000020ADF80800ADF80A00ADF837
:101000000C00ADF80E00ADF8100001208DF81500B1
:1010100002A800F019F9012202210B4800F028FA79
:1010200014208DF8040001208DF8050000208DF8B3
:10103000060001208DF8070001A800F0E7FF0BB0C3
:1010400000BD0000000C02400064004000B585B007
:101050000221124800F07CF9E8B102210F4800F0AB
:101060009FF86A4600210D4800F095FA0099A1F515
:1010700000710B4A881801F06DFE0099C8B2094A48
:101080000DF10B0103F066FB0099A1F20121044A66
:10109000881801F05FFE05B000BD00000068004048
:1010A000250000200802002000B58BB0012102209D
:1010B00001F076F80121880601F082F80922052165
:1010C000354800F05CFD09220621334800F057FD49
:1010D00002208DF81C0000208DF81E008DF81F00E6
:1010E00003208DF81D006020069006A92A4800F014
:1010F000FEFC0320ADF8200000208DF82200012026
:101100008DF8230008208DF8240003208DF8250099
:1011100000208DF827008DF8280001208DF8290087
:1011200000208DF82A008DF826008DF82B0008A9E4
:101130001A4800F0A6F90F208DF8120000208DF853
:10114000130001208DF814000020ADF80800ADF860
:101150000A00ADF80C00ADF80E00ADF8100001204B
:101160008DF8150002A800F06FF8012202210B484B
:1011700000F07EF940208DF8040001208DF8050074
:1011800000208DF8060001208DF8070001A800F06E
:101190003DFF0BB000BD00000004024000680040AD
:1011A000B1F5007F3AD00FDC202928D006DC0129D8
:1011B0001CD004291DD0082940D11DE0402921D090
:1011C000B1F5807F3AD126E0B1F5004F31D006DC91
:1011D000B1F5806F25D0B1F5006F2FD124E0B1F5C6
:1011E000803F12D0B1F5003F28D111E0154A82604E
:1011F00025E00822C26022E01022C2601FE008221F
:1012000002611CE01022026119E00822426016E02F
:101210001022426013E00422426010E00422426087
:101220000DE0042242600AE0002282610422426052
:1012300005E0002282610422426000E000BF00BF9E
:10124000704700000101010010B50021837A0122DE
:1012500002FA03F13D4A126842F001023B4B1A6068
:101260003A4A1C3212688A43384B1C331A60027B9C
:10127000CAB9364A0C3212688A43344B0C331A60AE
:101280004288C38842EA0343304A4032847A42F8B3
:1012900034300288838842EA03432C4A4032847AFD
:1012A00002EBC4025360027B012A19D1274A0C3297
:1012B00012680A43254B0C331A604288038842EABD
:1012C0000343224A4032847A42F83430C288838809
:1012D00042EA03431D4A4032847A02EBC40253605F
:1012E000C27A3AB9194A121D12688A43174B1B1D5C
:1012F0001A6006E0154A121D12680A43134B1B1DA3
:101300001A60028932B9114A143212688A430F4BAB
:1013100014331A600289012A06D10C4A1432126869
:101320000A430A4B14331A60427B012A06D1074A4A
:101330001C3212680A43054B1C331A60034A1268B8
:1013400022F00102014B1A6010BD0000006600404F
:1013500070B504460D46002660692840002871D00B
:10136000B5F5807F5CD010DC082D35D006DC012D72
:1013700020D0022D24D0042D72D127E0102D31D0A1
:10138000202D35D0402D6BD138E0B5F5004F60D021
:1013900009DCB5F5007F49D0B5F5806F4CD0B5F5C7
:1013A000006F5DD14FE0B5F5803F2DD0B5F5003F22
:1013B00056D12FE0A0682D4900F076FA064651E09C
:1013C000E068032100F070FA06464BE0E06808216F
:1013D00000F06AFA064645E0E068102100F064FA81
:1013E00006463FE02069032100F05EFA064639E038
:1013F0002069082100F058FA064633E020691021E0
:1014000000F052FA06462DE06068082100F04CFA20
:10141000064627E06068102100F046FA064621E003
:10142000A069012100F040FA06461BE0A0690221F4
:1014300000F03AFA064615E0A069042100F034FAFB
:1014400006460FE00FE0A069702100F02DFA064675
:1014500008E06068042100F027FA064602E0FFE792
:10146000002600BF00E00026304670BD01010100EB
:101470001AB143690B43436102E043698B43436103
:10148000704730B5024600200023146824F002049F
:101490001460146844F00104146000E05B1C54689C
:1014A00004F001041CB94FF6FF74A342F6D154684E
:1014B00004F001040CB900206CE08C79012C04D1FB
:1014C000146844F08004146003E0146824F080047D
:1014D0001460CC79012C04D1146844F040041460E9
:1014E00003E0146824F0400414600C7A012C04D149
:1014F000146844F02004146003E0146824F020040D
:1015000014604C7A012C04D1146844F01004146067
:1015100003E0146824F0100414608C7A012C04D1C8
:10152000146844F00804146003E0146824F008040C
:101530001460CC7A012C04D1146844F004041460C3
:1015400003E0146824F0040414608C78A407CD78B8
:1015500044EA05640D7944EA05444D7944EA0554AA
:101560000D886D1E2C43D461146824F001041460AE
:10157000002300E05B1C546804F001041CB14FF62A
:10158000FF74A342F6D1546804F001040CB10020AA
:1015900000E0012030BD10B500F5D87303EB011356
:1015A0001B6803F004031372137A53B900F5D87360
:1015B00003EB01131B6840F2FF7404EA53531360FA
:1015C00009E000F5D87303EB01131B686FF060446A
:1015D00004EAD303536000F5D87303EB01131B68CF
:1015E00003F00203537200F5D87303EB01135B6839
:1015F00003F00F03937200F5D87303EB01135B68DC
:101600001B0AD37400F5D87303EB01139B68D372E4
:1016100000F5D87303EB01139B681C0A147300F5E3
:10162000D87303EB01139B681C0C547300F5D8733B
:1016300003EB01139B681B0E937300F5D87303EB48
:101640000113DB68D37300F5D87303EB0113DB6878
:101650001C0A147400F5D87303EB0113DB681C0C2F
:10166000547400F5D87303EB0113DB681B0E9374FD
:1016700021B9C36843F02003C36003E0036943F06A
:101680002003036110BD10B502460020936803F0EB
:101690008063B3F1806F00D110E0936803F00063C2
:1016A000B3F1006F01D1012008E0936803F080538B
:1016B000B3F1805F01D1022000E00420042874D03F
:1016C00002F5C07303EB00131B6803F0010402F57D
:1016D000C07303EB00131C600B7A7BB94B7A0C8848
:1016E00043EA445302F5C07404EB00142468234316
:1016F00002F5C07404EB0014236010E00B7A4C6810
:1017000043EAC4034C7A234302F5C07404EB00148B
:101710002468234302F5C07404EB001423608B7A21
:1017200003F00F038B7202F5C07303EB00135B68C9
:1017300023F00F0402F5C07303EB00135C6002F5A5
:10174000C07303EB00135B688C7A234302F5C0740B
:1017500004EB001463608B7B1C064B7B44EA034460
:101760000B7B44EA0323CC7A234302F5C07404EBD9
:101770000014A3608B7C1C064B7C44EA03440B7C66
:1017800044EA0323CC7B234302F5C07404EB00142A
:10179000E36002F5C07303EB00131B6843F0010420
:1017A00002F5C07303EB00131C6010BD10B50246B8
:1017B000002321B1012907D002290FD109E0906847
:1017C0001D4C00EA04030BE090681C4C00EA040383
:1017D00006E090681A4C00EA040301E0002300BF11
:1017E00000BF184C181BA34216D007DC83B16FF062
:1017F0008060184470B1022818D111E0B0F5007F64
:1018000010D0114C204448B1B0F5003F0ED10BE090
:1018100002230DE000230BE0002309E0002307E092
:10182000012305E0012303E0012301E0002300BFC1
:1018300000BFD8B210BD0000030000040003000880
:1018400000000310000100080001FFF71CB5144858
:1018500002F0CCFB22E0124802F01AFC104802F021
:1018600065FC0F4802F078FA0D4802F040FC0C4885
:1018700002F00AFA4FF400710948B0F94A00CDE9C4
:1018800000010748B0F94830B0F94620B0F94410DB
:10189000044800F029FD052003F06AFFDBE70000A3
:1018A00094010020006800400246002002EA010383
:1018B0000BB1012000E00020704700000246094BF8
:1018C0009A4201D2084801E00648103801F000535E
:1018D0001BB1064B0B40C36002E0044B0B4083601E
:1018E0007047000010640240006002407D0F7D0FD1
:1018F00021B1026842F00102026003E0026822F0B6
:101900000102026070470146486880B270470000DB
:1019100010B500220268134B1A40CC680B682343B1
:101920004C6923438C692343CC6923430C6A2343CA
:101930004C6A23438C6A23434C6B23438C6B2343B5
:101940001A430260426922F00702D1E90B342343B3
:101950001A4342610B6943604B6883608B68C360C4
:1019600010BD00003F801CF04160704770470021AF
:1019700000BF00E0491CA82242438A42FAD87047BF
:10198000B0EE401A80ED001AC0ED020AB5EEC01AA2
:10199000F1EE10FA08DD90ED010AD0ED021A30EEFA
:1019A000210A80ED010A07E090ED010AD0ED021A4C
:1019B00030EE610A80ED010AB5EEC01AF1EE10FAC0
:1019C0000DDD90ED010AD0ED001AB4EEE10AF1EE62
:1019D00010FA04DB90ED000A80ED010A11E0B5EE8B
:1019E000C01AF1EE10FA0CD290ED010AD0ED001AF7
:1019F000B4EEE10AF1EE10FA03D890ED000A80EDA2
:101A0000010A90ED010A7047F0EE400AF5EEC00AB7
:101A1000F1EE10FA02D19FED0A0A7047F5EEC00A06
:101A2000F1EE10FA02DDB0EE600AF6E7F5EEC00A5C
:101A3000F1EE10FA02D2B1EE600AEEE700BFECE779
:101A400000000000B4EEE00AF1EE10FA02DDB0EEA4
:101A5000600A06E0B4EEC10AF1EE10FA01D2B0EE6F
:101A6000410A704700B9704743888268D154428860
:101A7000521C428043880288521E934201DD00229C
:101A80004280C288521CC280C28803889A4201DD0B
:101A9000C288C28000BFE6E7F0B507460C4616468E
:101AA00004B9F0BD002504E0615D3846FFF7DAFFB8
:101AB0006D1CB542F8DB00BFF3E7014609B9002011
:101AC0007047C88888B1C888401EC8808B888868DD
:101AD000C25C8888401C88808B880888401E8342AE
:101AE00001DD002088801046EAE70020E8E7F0B535
:101AF0000A4600210023002400BF3DE0012505FA2D
:101B000001F3156805EA03049C4234D105684F00CF
:101B10000326BE40B543056015794E00B540066802
:101B2000354305601579012D02D01579022D16D1A6
:101B300085684F000326BE40B543856055794E0049
:101B4000B540866835438560456801268E40B543BB
:101B50004560456896798E40B6B235434560C568A4
:101B60004F000326BE40B543C560D5794E00B54051
:101B7000C6683543C560491C1029BFD3F0BDF0B518
:101B8000002300244D07ED0E02FA05F3CE1000F1FC
:101B9000200555F826504E07F70E0F26BE40B543D8
:101BA000CF1000F1200646F82750CE1000F1200596
:101BB00055F8265045EA0304CE1000F1200545F8FB
:101BC0002640F0BD41837047018370472DED028BA5
:101BD00082B002E0642003F0CBFDFFF7B5F80028E7
:101BE000F8D1C94AA2F10C01101DFFF7C3F8C7488C
:101BF000C54B103BC64AC7490090C74802F0A6FC37
:101C0000C34AC449C548FEF729FEC24890ED000A00
:101C1000C34880ED000AC34880ED000AC24880ED49
:101C2000000ABC4890ED010ABD4880ED010ABD489C
:101C300080ED010ABC4880ED010AB64890ED020A29
:101C4000B74880ED020AB74880ED020AB64880ED39
:101C5000020A02F065FC56E1AB4AA2F10C01101D2C
:101C6000FFF788F8A948A84B103BA94AA94900905A
:101C7000A94802F06BFCAB4890ED000AAA4880ED41
:101C8000000AA74890ED000AA64880ED000A90EDF2
:101C9000000AA648D0ED000A20EE200AA248D0EDA6
:101CA000000AA24890ED011A00EE810A9948D0ED91
:101CB000000A9E4890ED021A00EE810A984880EDD5
:101CC000000A984890ED010A974880ED010A94486F
:101CD00090ED010A934880ED010A90ED010A9348C6
:101CE000D0ED000A20EE200A8F48D0ED010A8F487F
:101CF00090ED011A00EE810A8648D0ED010A8B486A
:101D000090ED021A00EE810A854880ED010A8548AF
:101D100090ED020A844880ED020A814890ED020AA3
:101D2000804880ED020A90ED020A8048D0ED000A5A
:101D300020EE200A7C48D0ED020A7C4890ED011A82
:101D400000EE810A7348D0ED020A784890ED021A3D
:101D500000EE810A724880ED020A6D4B02466E4920
:101D60009FED730A6D48FEF7E5FE724B1A1F111FB7
:101D70006A4802F059FB6F48083890ED000ADFED21
:101D80006E0A30EE200A80ED000A90ED010ADFEDC8
:101D90006A0A30EE200A80ED010A90ED020ADFEDBA
:101DA000660A30EE200A80ED020A90ED000A6348D0
:101DB000D0ED000A30EE600ADFED610AB4EEE00A11
:101DC000F1EE10FA05D25F480068401C5D490860DA
:101DD00014E05848083890ED000A5848D0ED000A41
:101DE00030EE600ADFED580AB4EEE00AF1EE10FAC8
:101DF00004DD54480068401E524908604D480838C8
:101E000090ED010A4D48D0ED010A30EE600ADFED99
:101E10004F0AB4EEE00AF1EE10FA05D249484068E4
:101E2000401E4849486014E04248083890ED010AD5
:101E30004248D0ED010A30EE600ADFED450AB4EE0B
:101E4000E00AF1EE10FA04DD3E484068401C3D49CE
:101E500048603848083890ED020A3848D0ED020A48
:101E600030EE600ADFED390AB4EEE00AF1EE10FA66
:101E700005D234488068401E3249886014E02D48FD
:101E8000083890ED020A2D48D0ED020A30EE600AC3
:101E9000DFED2F0AB4EEE00AF1EE10FA04DD294876
:101EA0008068401C274988602248083890ED000A65
:101EB000224880ED000A1F48083890ED010A1F48AB
:101EC00080ED010A1B48083890ED020A1B4880ED9E
:101ED000020ADFED200A9FED200A204800F0F9F801
:101EE000B0EE408A9FED1B1ADFED1D0AFFF7AAFD39
:101EF000BCEEC00A10EE104A21461A4800F02DFD33
:101F0000012003F035FCA7E6580600206C060020EF
:101F1000DC060020D0060020C4060020E8060020D1
:101F2000B8060020AC060020A0060020A863000828
:101F30006F12833AE8050020DA0F4940EC050020D3
:101F4000C3F5C8C0F8050020C3F5C840DB0FC9C001
:101F5000DB0FC94000000000000020420406002002
:101F60000080ED440044014000BFFEE705480649FB
:101F70000860401C4860401C8860401CC860401CD1
:101F80000861704724000020800100201CB5012159
:101F9000802000F005F90121102000F001F9012056
:101FA0008DF8040000208DF8060001208DF8070050
:101FB00000208DF805004FF48050009069461048CD
:101FC000FFF795FD4FF40060009069460C48FFF75D
:101FD0008EFD4FF48060009069460948FFF787FD49
:101FE0004FF480510648FFF7EDFD4FF400610448BF
:101FF000FFF7E8FD4FF480610148FFF7E3FD1CBDEA
:10200000001C024000BFFEE77047000070B50021D1
:1020100000230F22C4781CB3174C246804F4E06436
:10202000C4F5E064C4F30721C1F10404E3B20A413A
:1020300044789C40E1B28478144021430C07210E7F
:102040000E4C05786155047804F01F050124AC405E
:1020500005786D11AD0005F1E025C5F8004109E0F6
:10206000047804F01F050124AC40054D0678761174
:1020700045F8264070BD00000CED00E000E400E0F3
:1020800080E100E002490143024A1160704700000C
:102090000000FA050CED00E00178491C01700178A0
:1020A000F02901DB00210170704700B9704791ED04
:1020B000001A80ED001A91ED011A80ED011A91EDE0
:1020C000021A80ED021A80ED030AC0ED040A00BF77
:1020D000ECE710B52DED028B0446B0EE408AF0EE31
:1020E000608A84ED0F8A94ED0A0A84ED0B0A94ED60
:1020F000090A84ED0A0A38EE680A84ED090AC4ED7B
:10210000108A94ED000AD4ED090A20EE200A84ED2D
:10211000050A94ED060AD4ED010A94ED091A00EEC1
:10212000810A84ED060A94ED0D0A84ED0E0A94ED01
:102130000C0A84ED0D0A94ED090AD4ED0A0A30EE7A
:10214000600A84ED0C0A94ED020AD4ED0C0A20EE2C
:10215000200A84ED070A94ED041AF0EE410A94ED8A
:10216000061AB0EE410A02F0C7FA84ED060A94EDB1
:10217000061AD4ED051A31EE211AD4ED071A31EE04
:10218000211AB0EE410A94ED031AF0EE410A02F072
:10219000B3FA84ED080A94ED080ABDEC028B10BD79
:1021A00029B1064A12680243044B1A6004E0034A4C
:1021B00012688243014B1A607047000030380240B9
:1021C00029B1064A12680243044B1A6004E0034A2C
:1021D00012688243014B1A60704700004038024089
:1021E00029B1064A12680243044B1A6004E0034A0C
:1021F00012688243014B1A60704700004438024065
:10220000F0B5002100220024022500260223324FCF
:102210003F6807F00C0121B1042905D0082937D106
:1022200005E02E4F076036E02D4F076033E02A4F60
:102230003F1F3F68C7F38056274F3F1F3F6807F097
:102240003F036EB1264FB7FBF3F7DFF88CC0ACF15C
:10225000040CDCF800C0CCF3881C07FB0CF40CE089
:102260001E4FB7FBF3F7DFF870C0ACF1040CDCF8DD
:1022700000C0CCF3881C07FB0CF4174F3F1F3F68CE
:10228000C7F301477F1C7D00B4FBF5F7076002E050
:10229000124F076000BF00BF0F4F3F6807F0F0010B
:1022A0000909104F7A5C0768D74047600A4F3F68BA
:1022B00007F4E051890A0B4F7A5C4768D740876082
:1022C000054F3F6807F46041490B064F7A5C476849
:1022D000D740C760F0BD0000083802400024F40079
:1022E000001BB700140000202DE9F04786B080469F
:1022F0000C4615461E46DDE90E79CDF80490002007
:102300008DF80C008DF80D0008208DF80E00200AC5
:102310008DF80F008DF81040290A8DF811108DF8F6
:102320001250310A8DF813108DF81460390A8DF8A7
:1023300015108DF8167001A94046FFF7A4F98246E2
:1023400000BF0AF0FF014046FFF730FA0028F8D03E
:1023500006B0BDE8F0870000002115E00C4850F8F9
:10236000210000780B4A1278101A012809DC08486D
:1023700050F821000078074A1278101AB0F1FF3F98
:1023800001DAC8B27047491C0529E7DBF020F9E7FC
:10239000800100202900002000B587B00121022023
:1023A000FFF7FEFE01210803FFF71AFF012108468F
:1023B000FFF7F6FE01208DF8180000208DF81A00B6
:1023C00001208DF81B008DF81900059005A92D48F6
:1023D000FFF78DFB1020059005A92B48FFF787FB21
:1023E00002208DF8180000208DF81A0001208DF8C9
:1023F0001B0003208DF819001820059005A921481D
:10240000FFF775FB8020059005A91F48FFF76FFBBC
:10241000052203211B48FFF7B2FB052204211948BE
:10242000FFF7ADFB052207211748FFF7A8FB0020A7
:10243000ADF800004FF48270ADF802000020ADF856
:1024400004000220ADF806000120ADF808004002AB
:10245000ADF80A003820ADF80C000020ADF80E00F1
:102460000A20ADF810006946084800F037F800214E
:10247000064800F00DF80121044800F015F807B0F7
:1024800000BD000000040240000002400030014096
:1024900021B1028842F40052028004E002884DF625
:1024A000FF731A400280704721B1028842F0400257
:1024B000028004E002884FF6BF731A400280704722
:1024C0000246002013890B400BB1012000E00020E0
:1024D00070470146888970478181704710B5002296
:1024E000028802F441520B884C8823438C88234392
:1024F000CC8823430C8923434C8923438C89234371
:10250000CC8923431A430280838B4FF2FF7423400C
:1025100083830B8A038210BD70B504460D4600BF4D
:1025200002212046FFF7CCFF0028F9D0294620469B
:10253000FFF7D2FF00BF01212046FFF7C1FF0028AF
:10254000F9D02046FFF7C5FFC0B270BD0CB5002022
:10255000019000903448006840F4803032490860AF
:1025600000BF3148006800F4003000900198401C22
:102570000190009818B90198B0F5A04FF1D12A4800
:10258000006800F4003010B10120009001E000204C
:1025900000900098012846D123484030006840F060
:1025A00080502149403108602048006840F4404094
:1025B0001E4908601C48083000681B490831086043
:1025C0000846006840F4004008600846006840F48F
:1025D000A05008601648091F0860081F006840F0F6
:1025E0008070091F086000BF0F48006800F000708D
:1025F0000028F9D040F205700E4908600A480830FA
:10260000006820F0030008490831086008460068A7
:1026100040F00200086000BF03480830006800F086
:102620000C000828F8D10CBD0038024000700040B2
:102630000C544007003C024010B500BF502080F30E
:102640001188BFF34F8FBFF36F8F00BF03F056FCAD
:1026500018B14FF080500449086000BF002080F39B
:10266000118800BF10BD000004ED00E010B5154852
:10267000006840F47000134908601348006840F097
:1026800001001149086000200F49083108600E4818
:1026900000680E4908400C4908600D48091D086093
:1026A000081F006820F48020091F086000200649E8
:1026B0000C310860FFF74AFF4FF000600149803994
:1026C000086010BD88ED00E000380240FFFFF6FE14
:1026D0001030002410B50121044800F0CBF8012887
:1026E00003D10121014800F0B3F810BD00040040FF
:1026F00000B58BB001210420FFF762FD0121082005
:10270000FFF74EFD4FF48040099002208DF828001D
:1027100000208DF82A0001208DF82B0003208DF871
:10272000290009A91A48FFF7E2F902220E211848E8
:10273000FFF725FA0F20ADF8180045F207200790A3
:102740000020ADF82000ADF81A0006A9114800F0ED
:102750000BF96020ADF804000020ADF81000012056
:10276000ADF8060001A90B4800F09EF808210948C1
:1027700000F0EAF80121074800F05EF80121054861
:1027800000F069F80021034800F0E9F80BB000BD43
:10279000000C02400008004010B50121234800F061
:1027A00069F848B12248007800F0400020B1204884
:1027B0000078401C1E49087002211C4800F05AF89D
:1027C00078B31B48007800F0400078B118480078D2
:1027D00040F0800016490870144800F048F8154988
:1027E00008600021114800F056F81AE00020104956
:1027F00008700846007840F04000087000200D493D
:1028000008600021094800F026F80021074800F080
:10281000A8F80221054800F03EF80121034800F025
:102820001AF80321014800F013F810BD000C004015
:10283000C0000020BC00002021B1028842F08002CC
:10284000028004E002884FF67F731A4002807047CE
:10285000CA430282704721B1028842F0010202801D
:1028600004E002884FF6FE731A400280704701466A
:10287000486B704730B50246002000230024158ABB
:1028800005EA0103958905EA010413B10CB10120A1
:1028900000E0002030BD0A460021018C4FF6FD7398
:1028A000194011430184704770B5002400220023B1
:1028B000058C4FF6FF6635400584028C8388848B37
:1028C0004FF68F752C404FF6FC752C400D882C432D
:1028D0004FF6FF552A408D894FF6FF7606EA05250B
:1028E0002A434D8806EA05252A43154DA84202D001
:1028F000144DA8421DD14FF2FF752A40CD894FF6E5
:10290000FF7606EA05252A434FF6FF352A408D88D3
:1029100006EA05252A434EF6FF752B404DF6FF7556
:102920002B400D8A06EA05152B434D8A06EA05154C
:102930002B43838084838D68C563028470BD00004F
:1029400000000140000401400A460021818B4FF63F
:10295000F773194011438183704741637047C16326
:10296000704741627047000000220288184B98426D
:102970000ED0184B98420BD0B0F1804F08D0164BB8
:10298000984205D0154B984202D0154B984204D17D
:102990004FF68F731A404B881A43124B984207D058
:1029A000114B984204D04FF6FF431A400B891A434B
:1029B00002804B68C3620B880385054B984202D0A6
:1029C000044B984201D18B7A03860123838270479E
:1029D00000000140000401400004004000080040E5
:1029E000000C0040001000400014004038B540F2D8
:1029F0002441164800F0F3F8F0B100211448FEF726
:102A000077FF12480088C0B2009010488088C0B29A
:102A100000900F48FEF777FFC0F1140084B2224601
:102A20000C490D48FFF738F80C490948FEF746FFF6
:102A30000B490748FEF742FF14210548FEF794FFB3
:102A400001210348FEF754FF38BD0000001001408B
:102A500040640240F8060020BC03002000802010E3
:102A60000020081000B597B001211020FFF7B8FB37
:102A700001210846FFF794FB01210220FFF790FB9C
:102A800001218805FFF78CFB072209214348FFF746
:102A900076F8072211464248FFF771F802208DF8B8
:102AA0001C0000208DF81E0002208DF81D00012062
:102AB0008DF81F004002069006A93848FFF717F866
:102AC0008020069006A93648FFF711F84FF4E13050
:102AD00002900020ADF80C00ADF80E00ADF810002B
:102AE0000C20ADF812000020ADF8140002A92D480A
:102AF00000F0C4F801212B4800F05CF8012240F2FC
:102B00002441284800F095F825208DF80400012084
:102B10008DF8050000208DF8060001208DF80700D3
:102B200001A8FFF773FA4FF0006008901D48001DE0
:102B300009901D480A9040200B9032200C900020F4
:102B40000D904FF480600E9000200F901090119027
:102B50004FF4803012900020139003201490002036
:102B60001590169008A91148FEF7D2FE4FF00060AC
:102B7000089000200B900E480A9008A90B4878385E
:102B8000FEF7C6FE01228021064800F01FF8012250
:102B90004021044800F01AF817B000BD00000240C0
:102BA0000004024000100140B9000020B864024057
:102BB000F806002021B1828942F40052828104E0AB
:102BC00082894DF6FF731A40828170471AB1838A59
:102BD0000B43838202E0838A8B438382704770B504
:102BE0000246002400230025002040F66A16B14268
:102BF00000D100BFC1F3421501F01F03012606FA00
:102C000003F3012D02D19689334006E0022D02D153
:102C1000168A334001E0968A33400C12012606FAE8
:102C200004F41688344013B10CB1012000E00020F8
:102C300070BDF0B50346002400260025002040F6B4
:102C40006A17B94200D100BF1846C1F3421401F01F
:102C50001F06012707FA06F5012C01D10C3004E00C
:102C6000022C01D1103000E014301AB107682F4354
:102C7000076002E00768AF430760F0BD2DE9FF473A
:102C800005460E460024A14600BFA046B08900B10B
:102C900000BF2C8A24F44054F08804432C82AC8971
:102CA00041F20C608443B08831890843718908433C
:102CB0000443AC81AC8A24F44074B0890443AC82F0
:102CC0006846FFF79DFA2048854202D01F4885429A
:102CD00002D1DDF80C9001E0DDF80890A88900F43D
:102CE000004040B109EBC90000EB09103168490010
:102CF000B0FBF1F707E009EBC90000EB0910316800
:102D00008900B0FBF1F76420B7FBF0F00401200963
:102D1000642101FB1078A88900F4004040B1322002
:102D200000EBC800B0FBF1F000F00700044308E03E
:102D3000322000EB08106421B0FBF1F000F00F002E
:102D400004432C81BDE8FF870010014000140140BE
:102D500000BFFEE701490978017070472900002093
:102D60004100080218BF04200A0E18BF40F00100FD
:102D70004FF07F4232EA010108BF40F00200012813
:102D800008BF05207047000010B54FF00E402DED34
:102D9000028BB0EE408A18EE104A00EB4400B0F10E
:102DA000506F4AD84FF0FC40B0EB440F22D2B0EE47
:102DB000C80AF7EE000A30EEC00AF6EE000A60EE2E
:102DC000208A18EE900A02F041FB01EE100A14F07E
:102DD000004F1DBFDFED2D0A9FED2D0AB1EE411A08
:102DE000DFED2C0A08BF9FED2C0AF8EE001A21EE49
:102DF000218A05E0DFED290A68EE088AB0EE600A54
:102E00009FED271ADFED271A30EE080A48EE811AE7
:102E10009FED251A08EEA11ADFED241A48EE811A5B
:102E20009FED231A08EEA11A68EE281ABDEC028B5A
:102E300001EE810A30EE200A10BD4FF0E440B0EB05
:102E4000440F0CD918EE100AFFF78AFF042808BFB8
:102E500000F084F9B0EE480ABDEC028B10BD4FF0D3
:102E60007F40B0EB440F07D2B0EE480ABDEC028BB6
:102E7000BDE8104000F063B9012000F087F9BDEC17
:102E8000028BBDE8104000F061B900000000C9BF2E
:102E900022AAFDB90000C93F22AAFD3900000000A6
:102EA00024FE1C3DC78AD83C1E67383D1B93993DC4
:102EB000AFAA2A3E10EE100A10B510EE901A4FF08D
:102EC000684202EB40032DED028BB3F1654F3CBF2E
:102ED00002EB4102B2F1654F7CD200BFC0F3C75391
:102EE000C1F3C7529A1A1B2A09DD10F0004F14BF14
:102EF0009FED6E0A9FED6E0ABDEC028B10BD12F1C4
:102F00001A0F1BDA11F0004F09D010F0004F0CBF60
:102F10009FED680A9FED680ABDEC028B10BD80EE44
:102F2000208A18EE100AFFF71BFF042808BF00F0E4
:102F300015F9B0EE480ABDEC028B10BD4200B2EBB1
:102F4000410F37D910F0004F19BFDFED5C1A9FED2C
:102F50005C1ADFED5C1A9FED5C1AB0EE602A0A463F
:102F6000F1EE400A80F00041B0EE420A10460A1A23
:102F70005200B2F1807F34D2484010F0004FDFEDB4
:102F8000532A9FED533A1DBFBEEE002A71EEE21A9E
:102F900031EE431AB6EE002A04BF71EEA21A31EEEA
:102FA000031AF0EE402A42EE602A40EE020A82EE58
:102FB000A02A18E011F0004F04BF9FED461AF0EE72
:102FC000411AD4D010F0004F1CBFDFED431A9FED23
:102FD000431A00E026E004BFDFED411A9FED411ADD
:102FE000C5E780EE202A22EE020ADFED3F0ADFED80
:102FF0003F2ABDEC028B40EE202ADFED3D0A40EE79
:10300000220ADFED3C2A40EE202ADFED3B0A40EEAB
:10301000220A22EE000A00EE201A31EE020A30EEF9
:10302000210A10BD4FF07F42B2EB400F28BFB2EB38
:10303000410F05D2BDEC028BBDE8104000F082B814
:1030400040EA01035B0008BF41F0FF410BD0B2EB47
:10305000400F08BFB2EB410F08D120F0804000EED6
:10306000100A21F0804100EE901A37E7B2EB400FD2
:1030700012BF5FEA410240F0FF4001F000413FF41F
:103080002DAF4A0092EA40033FF528AF002AACBFBB
:103090009FED1A1A9FED1A1A20EE010A60EE810ABE
:1030A00010EE100A10EE901A18E70000DB0FC9BFEF
:1030B000DB0FC93FDB0F4940DB0F49C00000C9BF30
:1030C00022AAFDB90000C93F22AAFD390060ED3EE9
:1030D000C30ACE3700000000000049C022AA7DBA12
:1030E0000000494022AA7D3A2DAD65BD8FB8D53D7F
:1030F0000FB511BE61C84C3EA8AAAABE0000804F01
:103100000000802F10B52DED028BB1EEC08A18EEB5
:10311000100A20F00040C0F1FF40C00F0AD010EEAE
:10312000100A20F00040C0F1FF40C00F04BF012092
:1031300000F02CF8B0EE480ABDEC028B10BD30EE6A
:10314000000A704730EE200A70470000DFED020AE7
:1031500080EEA00A70470000000000009FED020A08
:1031600020EE000A704700000000001002E008C8CE
:10317000121F08C1002AFAD170477047002001E0F1
:1031800001C1121F002AFBD17047000001490860ED
:10319000704700007C01002070B52DED028B8AB0D5
:1031A00005460C4616460DB104B11EB90AB0BDEC79
:1031B000028B70BD94ED000AB5EEC00AF1EE10FA74
:1031C0000DD194ED010AB5EEC00AF1EE10FA06D168
:1031D00094ED020AB5EEC00AF1EE10FA7DD09FED33
:1031E000600AB0EE408A0020079008900990049091
:1031F000059006905B4A07CA01AB07C395ED010A2B
:10320000D5ED030A20EE200AD5ED000A95ED021A4D
:1032100000EEC10AF0EE000A20EE200A8DED070A4A
:1032200095ED000AD5ED010A20EE200AD5ED020A3F
:1032300095ED031A00EE810AF0EE000A20EE200A56
:103240008DED080A95ED000A20EE000AD5ED030A7F
:1032500095ED031A00EE810AF7EE000AB0EE001AAF
:1032600051EE000ACDED090A01AB2246314628464F
:1032700000F07AF8D4ED000A60EEA00A94ED011A8D
:10328000D4ED011A41EE210A94ED021AD4ED021A8E
:1032900041EE210AB0EE600AFDF72EFCB0EE408A46
:1032A00094ED000A20EE080A84ED000A94ED010A6C
:1032B00020EE080A84ED010A94ED020A20EE080AC5
:1032C00084ED020A94ED010ADDED090A20EE200AE0
:1032D000D4ED020A9DED081A00E03EE000EEC10ABE
:1032E0008DED040A94ED020ADDED070A20EE200AB6
:1032F000D4ED000A9DED091A00EEC10A8DED050A14
:1033000094ED000ADDED080A20EE200AD4ED010A52
:103310009DED071A00EEC10A8DED060A96ED000A32
:10332000DDED010A9DED041A00EE810A86ED000A2A
:1033300096ED010ADDED020A9DED051A00EE810A07
:1033400086ED010A96ED020ADDED030A9DED061AEF
:1033500000EE810A86ED020A00BF00BF26E70000EA
:1033600000000000D46300082DE9F0412DED048B2E
:1033700007460D4614461E469FED580AB0EE409A89
:103380009FED560AB0EE408A9FED540AF0EE408A57
:10339000D4ED000A60EEA00A94ED011AD4ED011AF2
:1033A00041EE210A94ED021AD4ED021A41EE210AEF
:1033B000B0EE600AFDF7A0FBF7EE000A80EE801A7F
:1033C000B0EE419AD5ED000AB0EE600AFDF72BFA97
:1033D000F0EE409AD5ED010AB0EE600AFDF723FA4F
:1033E00079EE809AD5ED020AB0EE600AFDF71BFA7D
:1033F00039EE800AF0EE408A3948D0ED000A79EEC5
:10340000600AB0EE600AFDF70EFAB0EE408A9FED5A
:10341000350AB4EEC08AF1EE10FA06DC9FED320AEE
:10342000F4EEC08AF1EE10FA53DD9FED2C2AB0EED7
:10343000420A9FED2A2AF0EE421AB7EE002AF0EE79
:10344000420A9FED262AB0EE421AB5EEC08AF1EE8E
:1034500010FA05DD9FED232AC2EE082AB0EE620ABB
:103460009FED222AB4EEC20AF1EE10FA03D29FEDCC
:103470001B2AB0EE420AF5EEC08AF1EE10FA05DD25
:103480009FED192AC2EE282AF0EE621AB7EE002A42
:10349000B4EEC20AF1EE10FA03D220EE802AF0EE6A
:1034A000420AB7EE002AF4EEC21AF1EE10FA03D285
:1034B00020EEA12AF0EE420A9FED0D2A20EE822A8C
:1034C000B0EE421A86ED001A86ED011A86ED021A58
:1034D00000BFBDEC048BBDE8F081000000000000DF
:1034E00078010020CDCCCC3D8FC2F53D9A99993E14
:1034F000CDCC4C3E10B52DED048B86B00446B0EE1D
:10350000408AF0EE608AB0EE419A00200390049069
:103510000590009001900290B0EE000AC8EE000AFB
:10352000F0EE609AB0EE690AFDF771F98DED030ACD
:10353000B0EE000AC8EE800AF0EE609AB0EE690ABA
:10354000FDF765F98DED040AB0EE000AC9EE000A38
:10355000F0EE609AB0EE690AFDF759F98DED050AB3
:10356000B0EE000AC8EE000AF0EE609AB0EE690A0A
:10357000FDF7D4FA8DED000AB0EE000AC8EE800A1D
:10358000F0EE609AB0EE690AFDF7C8FA8DED010A17
:10359000B0EE000AC9EE000AF0EE609AB0EE690AD9
:1035A000FDF7BCFA8DED020A9DED050ADDED040A7A
:1035B00020EE200ADDED030A20EE200ADDED020AEE
:1035C0009DED011A60EE810A9DED001A00EE810A60
:1035D00084ED000A9DED020ADDED040A20EE200ACA
:1035E000DDED030A20EE200ADDED050A9DED011A4E
:1035F00060EE810A9DED001A00EEC10A84ED010A19
:103600009DED050ADDED010A20EE200ADDED030A3D
:1036100020EE200ADDED020A9DED041A60EE810A1B
:103620009DED001A00EE810A84ED020A9DED050A67
:10363000DDED040A20EE200ADDED000A20EE200A6E
:10364000DDED020A9DED011A60EE810A9DED031A7F
:1036500000EEC10A84ED030A06B0BDEC048B10BD78
:1036600070B500250024FDF70BFB8020FDF746FC1C
:103670005520FDF743FC5520FDF740FC0546FDF7BE
:10368000F7FA9620FDF73CFBFDF7FAFA8020FDF7EC
:1036900035FC5520FDF732FC5520FDF72FFC054683
:1036A000FDF7E6FA9620FDF72BFBFDF7E9FAB621C8
:1036B0007E20FDF72DFCFDF7DBFA5020FDF71AFB0D
:1036C000FDF7DEFA8020FDF719FC5520FDF716FC0A
:1036D0005520FDF713FC0546FDF7CAFA9620FDF7C5
:1036E0000FFBFDF7CDFA8020FDF708FC5520FDF714
:1036F00005FC5520FDF702FC0546FDF7B9FA9620BA
:10370000FDF7FEFA1E251E2D01D0FF2070BD0024FE
:1037100034E0FDF7B5FA04EB44021A4B1A44517831
:1037200004EB4402985CFDF7F3FBFDF7A1FA962049
:10373000FDF7E6FAFDF7A4FA04EB4401114A515CE7
:1037400041F08000FDF7DAFB5520FDF7D7FB55204F
:10375000FDF7D4FB0546FDF78BFA9620FDF7D0FA6E
:1037600004EB4400074908444078A84204D004EB25
:10377000440008448078C9E7601CC4B2062CC8DB4A
:103780000020C3E7C100002010B586B000200190E2
:10379000029000900024FDF773FA8020FDF7AEFB45
:1037A0005520FDF7ABFB5520FDF7A8FB0090FDF77A
:1037B0005FFA9620FDF7A4FAFDF762FA8020FDF784
:1037C0009DFB5520FDF79AFB5520FDF797FB0090D8
:1037D000FDF74EFA9620FDF793FAFDF751FAB62160
:1037E0007E20FDF795FBFDF743FA5020FDF782FAA6
:1037F000FDF746FA8020FDF781FB5520FDF77EFBA3
:103800005520FDF77BFB0090FDF732FA9620FDF77F
:1038100077FAFDF735FA8020FDF770FB5520FDF7AC
:103820006DFB5520FDF76AFB0090FDF721FA96200D
:10383000FDF766FA9DF800001E2802D0FF2006B0B2
:1038400010BD00243AE0FDF71BFA04EB4402894B5B
:103850001A44517804EB4402985CFDF759FBFDF7DC
:1038600007FA9620FDF74CFAFDF70AFA04EB44013B
:10387000804A515C41F08000FDF740FB5520FDF788
:103880003DFB5520FDF73AFB0090FDF7F1F996203E
:10389000FDF736FA04EB44007649084440789DF879
:1038A0000010884205D004EB440072490844807837
:1038B000C5E75020FDF71EFA601CC4B2042CC2DB21
:1038C000002468E0FDF7DCF9221D02EB4202694B9F
:1038D0001A445178221D02EB4202985CFDF718FB56
:1038E000FDF7C6F99620FDF70BFAFDF7C9F9211D82
:1038F00001EB41015F4A515C41F08000FDF7FEFAA7
:103900005520FDF7FBFA5520FDF7F8FA0090FDF77A
:10391000AFF99620FDF7F4F9201D00EB4000554962
:10392000084440789DF80010884206D0201D00EB26
:10393000400050490844807881E75020FDF7DAF9CB
:10394000062201A91220FDF7B3F99DF80500000237
:1039500000B29DF80410084304EB440103AA22F8C6
:1039600011009DF80700000200B29DF80610084300
:1039700004EB440102EB410148809DF8090000027C
:1039800000B29DF80810084304EB440102EB41012A
:103990008880601CC4B2022C94DBFDF771F9002111
:1039A0006D20FDF7B5FAFDF763F99620FDF7A8F94C
:1039B000FDF766F9ED20FDF7A1FA5520FDF79EFA17
:1039C0005520FDF79BFA0090FDF752F99620FDF780
:1039D00097F99DF8000008B1042030E7FDF750F991
:1039E000B6217E20FDF794FAFDF742F95020FDF74D
:1039F00081F9BDF90C00BDF91210401A40F2555181
:103A0000884210DBBDF90E10BDF91400081A40F20F
:103A10005551884207DBBDF91010BDF91600081A90
:103A2000B0F52A7F01DA802009E7FDF729F9802027
:103A3000FDF764FA5520FDF761FA5520FDF75EFAAF
:103A40000090FDF715F99620FDF75AF9FDF718F9E2
:103A50008020FDF753FA5520FDF750FA5520FDF769
:103A60004DFA0090FDF704F99620FDF749F9002082
:103A7000E5E60000C063000838B50024002000908F
:103A8000FDF70EF969460020FDF72CFAFDF700F965
:103A90009620FDF735F9FDF703F969460020FDF79B
:103AA00021FAFDF7F5F89620FDF72AF9FDF7F8F869
:103AB000B6211420FDF72CFAFDF7EAF85020FDF7A7
:103AC00019F9FDF7EDF869460020FDF70BFAFDF74F
:103AD000DFF89620FDF714F9FDF7E2F869460020BB
:103AE000FDF700FAFDF7D4F89620FDF709F99DF8E7
:103AF00000000F2801D0FF2038BD00242FE0FDF783
:103B0000CFF804EB4402184B1A44517804EB4402FA
:103B1000985CFDF7FDF9FDF7BBF89620FDF7F0F88E
:103B2000FDF7BEF804EB44010F4A505C6946FDF70F
:103B3000D9F9FDF7ADF89620FDF7E2F804EB440063
:103B40000949084440789DF80010884205D004EBEC
:103B50004400054908448078CEE7601CC4B2062CB6
:103B6000CDDB0020C8E70000D300002038B50020DE
:103B700000900024FDF794F869460020FDF7B2F9A3
:103B8000FDF786F89620FDF7BBF8FDF789F8694642
:103B90000020FDF7A7F9FDF77BF89620FDF7B0F8B8
:103BA000FDF77EF8B6211420FDF7B2F9FDF770F8A5
:103BB0005020FDF79FF8FDF773F869460020FDF7E8
:103BC00091F9FDF765F89620FDF79AF8FDF768F88A
:103BD00069460020FDF786F9FDF75AF89620FDF7B3
:103BE0008FF8FDF75DF801213C20FDF791F9FDF715
:103BF0004FF85020FDF77EF800BFFDF751F86946F9
:103C00003C20FDF76FF9FDF743F89620FDF778F8B3
:103C1000601CC4B29DF8000000F0020008B90A2C34
:103C2000EBDB0A2C01D1402038BD9DF8000000F0EC
:103C3000040008B14020F7E70020F5E700251DE06B
:103C40000F480578E62D15DA002410E042F21071D5
:103C50000C48FEF784FE642001F08AFD002109482B
:103C6000FEF77DFE642001F083FD601CC4B2681C79
:103C70008442EBDB4FF4FA7001F07AFDE0E70000DC
:103C80002A0000200008004010B50446206DC079CD
:103C900006285DD2DFE800F0070603045C0558E063
:103CA00000BF00BF00BF04F10C0000F0F9FA94ED72
:103CB000191AF0EE410A94ED031AB0EE410A04F12C
:103CC000D400FEF706FABDEEC00A10EE100A00B2EC
:103CD000A4F8440094ED1A1AF0EE410A94ED041A87
:103CE000B1EE411AB0EE410A04F58C70FEF7F1F91D
:103CF000BDEEC00A10EE100A01B24620015394ED49
:103D00001B1AF0EE410A94ED051AB1EE411AB0EE1D
:103D1000410A04F5AE70FEF7DCF9BDEEC00A10EE04
:103D2000100A01B24820015394ED1C1AF0EE410A2A
:103D300094ED061AB0EE410A04F5D070FEF7C9F909
:103D4000BDEEC00A10EE100A01B24A20015300E095
:103D500000BF00BF10BD000010B52DED088B04465C
:103D6000216DB1F90100FCF719FC41EC1B0B9FED33
:103D70003A0B53EC102BFCF79FFB41EC1A0BFCF7B2
:103D80001EFC08EE100A216DB1F90300FCF706FCD9
:103D900041EC1B0B9FED300B53EC102BFCF78CFB15
:103DA00041EC1A0BFCF70BFC08EE900A216DB1F9FF
:103DB0000500FCF7F3FB41EC1B0B9FED270B53ECCD
:103DC000102BFCF779FB41EC1A0BFCF7F8FB09EE22
:103DD000100A84ED0F9AB5EEC08AF1EE10FA0AD0FF
:103DE000DFED1F0AB0EE480A04F11C00FDF7C8FD24
:103DF00084ED0D0A07E09FED1B0A84ED0D0A9FED8F
:103E0000190A84ED080AF5EEC08AF1EE10FA0AD01C
:103E1000DFED130AB0EE680A04F12800FDF7B0FDEB
:103E200084ED0E0A07E09FED0F0A84ED0E0A9FED68
:103E30000D0A84ED0B0A94F84C00032809D194ED87
:103E4000100AD4ED0F0A9FED081A00EEC10A84EDA6
:103E5000100ABDEC088B10BDFA7E6ABC7493683FF3
:103E60008FC2753C000000000AD7233C10B52DED31
:103E7000028B04469FED230AB0EE408A94ED181A97
:103E8000F0EE410A94ED101AB0EE410A04F5F2701A
:103E9000FEF71FF9B1EE400AB0EE408A94ED0D0A2C
:103EA000D4ED0E0A30EE600AF6EE000A08EE200AA3
:103EB00084ED030A94ED0D0AD4ED0E0A30EE200ACB
:103EC000F6EE000A08EE600A84ED040A94ED0D0A8D
:103ED000D4ED0E0A30EE600AF6EE000A08EE600A33
:103EE00084ED050A94ED0D0AD4ED0E0A30EE200A99
:103EF000F6EE000A08EE200A84ED060ABDEC028BFD
:103F000010BD0000000000001CB50446606DD0F834
:103F1000010000EE100A694601A8FCF727FA606D5F
:103F2000D0F8010000EE900A9FED2F0A04F5F27020
:103F3000FEF7CFF894ED810A84ED0F0A94ED0D0A97
:103F4000DDED000A20EE200AD4ED0E0A9DED011AE7
:103F500000EEC10A84ED000A94ED0D0ADDED010AC0
:103F600020EE200AD4ED0E0A9DED001A00EE810A23
:103F700084ED010A94ED000AD4ED010A30EE600AE6
:103F8000D4ED0F0AB6EE001A00EE810A84ED030AA2
:103F900094ED000AD4ED010A30EE200AD4ED0F0AA8
:103FA000B6EE001A00EEC10A84ED040A94ED000A90
:103FB000D4ED010A30EE600AD4ED0F0AB6EE001A15
:103FC00000EEC10A84ED050A94ED000AD4ED010A61
:103FD00030EE200AD4ED0F0AB6EE001A00EE810A88
:103FE00084ED060A1CBD0000000000003EB504463A
:103FF000002000900190029000F08EFA206500F001
:1040000087FA60659FED1C0A8DED000A9FED1B0A83
:104010008DED010AB7EE000A8DED020A00250EE0D3
:1040200005EB051204F1D40101EB8200DFED130A68
:104030009FED130A6946FEF738F8681CC5B2042DD7
:10404000EEDBB2EE040A8DED000A9FED0C0A8DED59
:10405000010A9FED0C0A8DED020ADFED080AB0EEB1
:10406000080A694604F5F270FEF71FF80648A065D5
:104070000649E1653EBD00000000FA450000000071
:104080000040834600004843E0050020F80500207A
:10409000016DC97901290CD0022902D003290CD164
:1040A00003E0022180F84C100BE0032180F84C1053
:1040B00007E0052180F84C1003E0022180F84C1045
:1040C00000BF00BF90F84C1003290BD190F84D10A1
:1040D000022907D10022C16D0A60816D91ED000AAD
:1040E00080ED100A90F84C1080F84D10704710B514
:1040F000044694F84C0070B1022804D0032806D07E
:10410000052810D10BE0204600F01EF90BE02046F8
:10411000FFF7ACFE07E02046FFF7F6FE03E020467F
:1041200000F05AF800BF00BF10BD000090ED210A5A
:10413000F0EE000A20EE200ADFED240A20EE200A2D
:10414000DFED230A20EE200A80ED190A90ED270A00
:10415000F0EE000A20EE200ADFED1C0A20EE200A15
:10416000DFED1B0A20EE200A80ED1A0A90ED2D0AE1
:10417000F0EE000A20EE200ADFED140A20EE200AFD
:10418000DFED130A20EE200A80ED1B0A90ED330AC2
:10419000F0EE000A20EE200ADFED0C0A20EE200AE5
:1041A000DFED0B0A20EE200A80ED1C0A816D91EDF7
:1041B000000AC16DD1ED000AF8EEE00A9FED051A84
:1041C00000EE810A80ED180A70470000DA0F4940BE
:1041D000DE718A3DDB0FC9401CB50446606DD0F826
:1041E000010000EE100A694601A8FCF7BFF8B6EE20
:1041F000000A84ED0F0A94ED0D0ADDED000A20EEB1
:10420000200AD4ED0E0A9DED011A00EEC10A84EDDC
:10421000000A94ED0D0ADDED010A20EE200AD4ED2E
:104220000E0A9DED001A00EE810A84ED010A94ED5C
:10423000000AD4ED010A30EE600AD4ED0F0AB6EEA2
:10424000001A00EE810A84ED030A94ED000AD4ED11
:10425000010A30EE200AD4ED0F0AB6EE001A00EE85
:10426000C10A84ED040A94ED000AD4ED010A30EE8F
:10427000600AD4ED0F0AB6EE001A00EEC10A84ED12
:10428000050A94ED000AD4ED010A30EE200AD4EDBF
:104290000F0AB6EE001A00EE810A84ED060A1CBD74
:1042A00070B52DED028B044694ED000AB0EE408A05
:1042B00001251AE0B0EE480AFDF7A6FBF0EE408AB1
:1042C00004EB8500D0ED000AB0EE600AFDF79CFB20
:1042D000F4EEC08AF1EE10FA05D204EB850090ED01
:1042E000000AB0EE408A681CC5B2022DE2DBB0EED7
:1042F000040AB4EEC08AF1EE10FA06DCB8EE040A45
:10430000B4EEC08AF1EE10FA1BD2B0EE040AC0EE91
:10431000080AF0EE608AB0EE680AFDF775FBB0EEB1
:10432000408A00200BE004EB800191ED000A20EEB2
:10433000080A04EB800181ED000A411CC8B2022882
:10434000F1DBBDEC028B70BD0146002006E00023CE
:1043500001F1440222F81030421CD0B20428F6DBEE
:104360007047000000B587B006A801210023402255
:10437000CDE9001017A11A4801F076FD05A801212A
:1043800000232022CDE9001016A1194801F06CFD90
:1043900004A80421002340F23B12CDE9001015A12E
:1043A000184801F061FD03A8032100238022CDE914
:1043B000001015A1174801F057FD02A803210023A2
:1043C0008022CDE9001014A1164801F04DFD07B080
:1043D00000BD00006C65645F7461736B00000000D9
:1043E0007946000862757A7A65725F7461736B0052
:1043F0003D3C0008436861737369735F7461736B5C
:10440000000000004D1800084759524F5F74617357
:104410006B000000CD1B000872656D6F74655F74E2
:1044200061736B00C95300082DE9F04104460D4645
:1044300016461F4614B10DB106B10FB9BDE8F081A3
:10444000D4ED010A94ED031A60EE810A94ED001A8E
:10445000D4ED021A41EE610AB8EE001A60EE810A4C
:10446000B0EE600AFCF7B7F986ED000A94ED001A89
:1044700021EE011AD4ED011A94ED012A01EE821AFF
:10448000F7EE001AB0EE002A52EE011AF0EE610AC1
:1044900094ED001AD4ED031A21EE211AD4ED011A7D
:1044A00094ED022A01EE821AF0EE001A21EE211A92
:1044B000B0EE410AFCF79BF985ED000A94ED001A75
:1044C00021EE011AD4ED031A94ED032A01EE821AAB
:1044D000F7EE001AB0EE002A52EE011AF0EE610A71
:1044E00094ED001AD4ED011A21EE211AD4ED021A2E
:1044F00094ED032A01EE821AF0EE001A21EE211A41
:10450000B0EE410AFCF773F987ED000A00BF95E7AA
:10451000004870472B0000200048704733000020FF
:104520000EB5064A07CA8DE80700DFED050A9FEDC4
:10453000050A69460448FDF7B8FD0EBDB4630008DE
:104540000000C84200007A4404060020F0B5054689
:10455000059C00207FE093ED050A00EB4006404FEC
:1045600007EB8606D6ED000A20EE200AD3ED060AF8
:1045700000EB400607EB860696ED011A00EE810A75
:10458000D3ED070A00EB400607EB860696ED021A0C
:1045900000EE810A334E06EB8006D6ED000A30EEBF
:1045A000200A05EB800686ED000A93ED010A00EB78
:1045B00040062D4F07EB8606D6ED000A20EE200AB6
:1045C000D3ED020A00EB400607EB860696ED011AD2
:1045D00000EE810AD3ED030A00EB400607EB8606E6
:1045E00096ED021A00EE810A204E06EB8006D6ED0B
:1045F000000A30EE200A01EB800686ED000A94EDF9
:10460000010A00EB40061A4F07EB8606D6ED000ABA
:1046100020EE200AD4ED020A00EB400607EB8606E6
:1046200096ED011A00EE810AD4ED030A00EB400674
:1046300007EB860696ED021A00EE810A0D4E06EB98
:104640008006D6ED000A30EE200A02EB800686EDE9
:10465000000A461CF0B20328FFF67DAFF0BD000053
:10466000700000207C0600209400002088060020B6
:104670004C00002094060020FDF778FC35E04FF454
:1046800000611A48FDF7A0FAFDF766FE18490870A8
:104690004FF4FA7001F06CF84FF400611348FDF725
:1046A00091FA4FF480611148FDF78EFAFDF754FE40
:1046B0000F4908704FF4FA7001F05AF80D48FDF7F1
:1046C000EBFC4FF480610948FDF77CFA084800785C
:1046D000F02805D04FF480510448FDF775FA04E046
:1046E0004FF480510148FDF76DFAC8E7001C024005
:1046F0002A00002029000020B0EE401AB4EEE01A93
:10470000F1EE10FA02DDB0EE600A7047B1EE600A19
:10471000B4EEC01AF1EE10FA02D2B1EE600AF4E77C
:10472000B0EE410AF1E74FF44070FDF7ABFCFDF746
:104730002DFCFDF731FEFDF7DBFFFEF793F9FCF7EB
:104740000BFCFCF7B1FCFFF70DFE01F09FF800BF7A
:10475000FEE7000010B54B780C7843EA0424431EB2
:1047600003EB430322F83340CB788C7843EA0423ED
:104770001CB2431E03EB430302EBC3031C814B79C2
:104780000C7943EA04231CB2431E03EB430302EB00
:10479000C3035C818C79431E03EB430302EBC30329
:1047A0001C73431E03EB430302EBC303B3F908304E
:1047B00000EE103AF8EEC00A9FED071A80EE810A6B
:1047C000F3EE030A80EE201A431E03EB430302EBD1
:1047D000C30383ED041A10BD0000704238B50546CE
:1047E0000C46207806287AD2DFE800F003121C2657
:1047F0003952A52D05D1002060752078401C20700D
:1048000005E0002020701421601CFBF74AFE69E0DF
:10481000617D601C4554607D401C60752078401CA3
:1048200020705FE0617D601C4554607D401C6075B8
:104830002078401C207055E0A52D09D12078401C1F
:104840002070617D601C4554607D401C607505E0F2
:10485000002020701421601CFBF723FE42E0FF2D96
:1048600012D0607D132806DA617D601C4554607D9E
:10487000401C60750BE0002060751421601CFBF784
:1048800010FE0020207002E02078401C207029E0FB
:10489000AA2D14D100200090B4F801000090607D92
:1048A0000A2804D1E11CBDF8000000F0ADFD002095
:1048B000207060751421601CFBF7F3FD0DE0FF21F3
:1048C000627D501C6075601C8154617D481C607560
:1048D000601C45542078401E207003E0FFE7002054
:1048E000207000BF00BF38BD2DE9F04105460E46DF
:1048F0002648076826480068001D00F003FE50B9EE
:104900002348006890F82C1001208840214909684C
:10491000814320480160681CD8B9D6B11E49486857
:104920001B49096888601A4982680968CA60184981
:104930000968091D8268516015490968091D81606F
:10494000154A134909684A6111460968491C1160F2
:104950001AE07C190E4800684460BC4207D20C483B
:104960000168091D0D48006800F0F0FD0CE00848E2
:104970000168091D0A48006800F0E8FD0948006860
:10498000844201D207480460BDE8F08104010020A0
:10499000F00000200801002020080020F80000207E
:1049A000F40000202001002010B5044600F0E8FDCE
:1049B00031480068401C304908603048006840B900
:1049C0002E4804600846006801280DD100F0B2F9B5
:1049D0000AE02B48006838B928480068C06AE16AD4
:1049E000884201D82548046026480068401C2549B3
:1049F000086008460068206494F82C100120884064
:104A000021490968084320490860E16A01EB8101F6
:104A10001E4A02EB81014868A0608268E260211DA5
:104A2000826851608160E16A01EB8101174A02EB03
:104A300081026261E16A01EB8101144A52F821109E
:104A4000491CE26A02EB8202104B43F8221000F08C
:104A5000C1FD0B48006868B108480068C06AE16A97
:104A6000884207D24FF0805009490860BFF34F8F4A
:104A7000BFF36F8F10BD000000010020F000002088
:104A80000C0100201C010020080100206C07002000
:104A900004ED00E010B500F073FD10480068D0B9D7
:104AA0000F4800F043FD0F4800F040FD0C480E4950
:104AB00008600C480D49086000220C210A2001F012
:104AC00035F8064908600846006820B108A1034887
:104AD000006800F0F7FD00F07DFD10BD38010020FA
:104AE0003408002048080020300100203401002054
:104AF000546D72510000000010B516E000F040FD4A
:104B00000C48C068C468201D00F0FCFC0A4800681E
:104B1000401E0949086009480068401E07490860AE
:104B200000F058FD204600F020F8044800680028F6
:104B3000E4D110BD0C08002000010020FC00002082
:104B400070B504460D46206C70B1216CE0680144DC
:104B5000E160D4E90210884201D32168E16028466F
:104B6000226CE168FBF784FC70BD10B50446206B35
:104B700000F04EFD204600F04BFD10BD0146084AF6
:104B8000126812680AB9012200E000220A600A686D
:104B900022B9034A1268D268106800E0002070470A
:104BA0003001002030B54FF49633154800F007046B
:104BB0002CB1C01D20F00700114C041B1B1B02462A
:104BC000104C226000240F4D6C60D018083820F083
:104BD00007000D4C206000240B4D2D686C600A4DC1
:104BE0002D682C601146441A4C60074C24680C60F8
:104BF000064D4C682C60064D4C682C6030BD0000A2
:104C00005C080020440100204C01002054010020D9
:104C10005001002000BFFFF76FFF06480068012821
:104C2000F9D94FF0805004490860BFF34F8FBFF3AC
:104C30006F8FF0E76C07002004ED00E02DE9F041F4
:104C400006460D4617469846069C0DB9246000E0BE
:104C50002760E66325640121204600F09BFF84F86D
:104C60004C80BDE8F0812DE9F05F82460F4690460A
:104C70009B460A9E0C9C4FEA8801A522206BFBF7FD
:104C800009FCA8F10100216B01EB800929F007095B
:104C900009F0070008B9012000E0002050B900BF6A
:104CA000502080F31188BFF34F8FBFF36F8F00BF89
:104CB00000BFFEE77FB1002507E0795D04F1340015
:104CC0004155785D00B902E06D1C0A2DF5D300BF97
:104CD00000213D200155052E01D2012000E00020D9
:104CE00050B900BF502080F31188BFF34F8FBFF33E
:104CF0006F8F00BF00BFFEE7052E00D30426E662DB
:104D0000A664201D00F01FFC04F1180000F01BFC3D
:104D10002461C6F10500A06164625A4651464846C6
:104D200000F0FAFA20600B9808B10B980460BDE817
:104D3000F09F000010B5002407E004EB84010F4A47
:104D400002EB810000F0F2FB641C052CF5D30C484B
:104D500000F0ECFB0B4800F0E9FB0B4800F0E6FB31
:104D60000A4800F0E3FB0A4800F0E0FB0448094968
:104D7000086004480849086010BD00006C07002066
:104D8000D0070020E4070020F80700200C080020CE
:104D900020080020F4000020F800002010B5014693
:104DA000164800E0006803688B42FBD30246436864
:104DB00013448B4204D143684C682344436001464A
:104DC0000A464B6813440468A34211D10C4C036893
:104DD0002468A34208D04B680468646823444B608D
:104DE00003681B680B6005E0054B1B680B6001E066
:104DF00003680B60884200D0016010BD44010020B0
:104E00004C0100202DE9F04104460D4616461F4690
:104E10004FF0000865602461B5420CD8F01BA16911
:104E2000884202D34FF0010811E0211D09480068B3
:104E300000F08CFB0BE0BE4204D2BD4202D34FF027
:104E4000010804E0211D0448006800F07FFB404693
:104E5000BDE8F081340100203001002070B5054626
:104E600000F08EFBA86B08B9012400E0002400F0DC
:104E7000B1FB204670BD000070B505460E460E48D9
:104E80000068C068C468201D00F03CFB94F828004E
:104E900000F0040028B132462946204600F0D6F83A
:104EA00005E094F8280000F0FE0084F82800204671
:104EB000216A884770BD0000300100207FB57FE087
:104EC000019800287CDB039C606908B9012000E0A0
:104ED000002010B9201D00F015FB684600F0E2F834
:104EE000054601980A2869D2DFE800F06805072E18
:104EF000365806082F3700BF00BF00BF94F82800BF
:104F000040F0010084F828000298A2698118034645
:104F10002A462046FFF776FFA8B194F8280000F053
:104F2000040038B10298A26981182A46204600F090
:104F30008DF805E094F8280000F0FE0084F82800C1
:104F40002046216A88473AE000BF94F8280000F024
:104F5000FE0084F8280032E000BF94F8280040F0FA
:104F6000010084F828000298A061A06908B101201E
:104F700000E0002050B900BF502080F31188BFF33B
:104F80004F8FBFF36F8F00BF00BFFEE7A0694119CD
:104F90002B462A462046FFF735FF10E094F82800FC
:104FA00000F0020018B9204600F032FB05E094F84A
:104FB000280000F0FE0084F8280000E000BF00BFD9
:104FC000002201A90348006800F052FE00287FF487
:104FD00077AF7FBD38010020F8B505460C4600F0DC
:104FE000A3FC684600F05EF80646009820BB44B972
:104FF000B54206D801F0F0F831462846FFF73CFFED
:105000001CE03CB10E480068006808B9012000E0CF
:1050100000200446A91B22460A48006800F082FBD3
:1050200001F0DAF850B94FF0805007490860BFF33B
:105030004F8FBFF36F8F01E001F0CEF8F8BD000095
:10504000340100203801002004ED00E070B5044672
:105050000D46164604E0A06905442046216A8847AB
:10506000A06941192B4632462046FFF7CBFE0028A7
:10507000F1D170BD09480068006808B9012000E05E
:10508000002020B14FF0FF300549086005E00348DB
:105090000068C0680068024908607047F40000209A
:1050A0002001002070B5044600F022FF05460748A5
:1050B0000068854204D200F00BF80120206001E076
:1050C0000020206001480560284670BD4001002096
:1050D00070B508E00D480068C06804684FF0FF3103
:1050E0002046FFF7C9FE09480068006808B901209A
:1050F00000E000200028EDD004480568044800685E
:10510000024908600248056070BD000030010020BF
:10511000340100200E480068401C08B9012000E05E
:10512000002050B900BF502080F31188BFF34F8F8B
:10513000BFF36F8F00BF00BFFEE700BF502080F3BA
:105140001188BFF34F8FBFF36F8F00BF00BFFEE723
:105150006001002008B500BF6846FFF70FFD044658
:1051600020460099FFF738FFFFF7A8FEF4E770B577
:10517000044600F005FA94F9455010E0606A08B959
:10518000012000E0002038B904F1240000F094FF71
:1051900018B100F027FB00E003E0681E45B2002DC7
:1051A000ECDC00BFFF2084F8450000F013FA00F0AB
:1051B000E7F994F9445010E0206908B9012000E0B3
:1051C000002048B904F1100000F076FF08B100F0AB
:1051D00009FB681E45B200E001E0002DECDC00BFD9
:1051E000FF2084F8440000F0F5F970BD2DE9F04788
:1051F00005464FF0000900F097FB4248006808B9E7
:10520000FFF7D0FC75B105F00700C0F11008C8F138
:10521000FF30A84201D2012000E0002008B9454437
:1052200000E00025012000EBE570002853D0002DA0
:1052300051D03548006885424DD8344E3046046818
:1052400001E0264624686068A84202D2206800284F
:10525000F7D12C48006884423DD0306800F108093D
:10526000206830606068401B102819D9671907F062
:10527000070008B9012000E0002050B900BF50200D
:1052800080F31188BFF34F8FBFF36F8F00BF00BF54
:10529000FEE76068401B786065603846FFF77EFD7A
:1052A000194960680968081A1749086008460068C3
:1052B00017490968884203D21348006814490860F6
:1052C000606840F000406060002020601148006885
:1052D000401C1049086000F07FFF09F0070008B982
:1052E000012000E0002050B900BF502080F3118859
:1052F000BFF34F8FBFF36F8F00BF00BFFEE748467D
:10530000BDE8F0874C01002050010020440100203E
:105310005401002058010020001F4FF080730360EB
:10532000001F21F001030360001F054B03601438C8
:105330000260001F6FF00203036020387047000016
:105340001551000810B52DED028B04469FED1D0A86
:10535000B0EE408AD4ED000A60EEA00A94ED011A86
:10536000D4ED011A41EE210A94ED021AD4ED021A8D
:1053700041EE210A94ED031AD4ED031A41EE210AFD
:10538000B0EE600AFBF7B8FBB0EE408A94ED000A7D
:1053900020EE080A84ED000A94ED010A20EE080AC6
:1053A00084ED010A94ED020A20EE080A84ED020A57
:1053B00094ED030A20EE080A84ED030ABDEC028B8B
:1053C00010BD0000000000004FF400700B49088081
:1053D0000020C8800A4888600EE006E00748FCF715
:1053E0006CFB04460749FFF7F9F90448C088002818
:1053F000F4D1022000F0BCF9EFE70000BC0300206C
:10540000DE030020C803002070B505460C46A5F257
:10541000555010B101280FD105E0094821680160FD
:105420006168416009E00748216801606168416086
:105430000548FDF78FFC00E000BF00BF70BD000015
:105440002B000020330000202400002010B500EEC7
:10545000100A2DED028BB1EEC08A18EE100A20F072
:105460000040C0F1FF40C00F0AD010EE100A20F03B
:105470000040C0F1FF40C00F04BF0120FDF786FED1
:1054800018EE100ABDEC028B10BD91ED000AB1EED2
:10549000400A80ED010A91ED010AB1EE400A80ED6B
:1054A000020A91ED020AB1EE400A80ED030A91ED85
:1054B000000A80ED040A91ED020A80ED060A91EDE2
:1054C000010AB1EE400A80ED070A91ED010A80ED74
:1054D000080A91ED020AB1EE400A80ED090A91ED49
:1054E000000A80ED0B0A91ED020A80ED0C0A91EDA5
:1054F000010A80ED0D0A91ED000AB1EE400A80ED3F
:105500000E0A704701460A69D1E901309860D1E975
:10551000010358605068884201D1886850600020BB
:1055200008611068401E10601068704700F10801A3
:1055300041604FF0FF31816000F10801C1600161FD
:1055400000210160704700210161704710B50246DB
:105550000B685C1C0CB9106907E002F1080000E060
:105560004068446824689C42FAD944684C604C689E
:10557000A160886041600A611468641C146010BDF9
:1055800000BF502080F31188BFF34F8FBFF36F8FA0
:1055900000BF0E480068401C0C49086008460068BF
:1055A000012812D10A480068C0B208B9012000E001
:1055B000002050B900BF502080F31188BFF34F8FF7
:1055C000BFF36F8F00BF00BFFEE770476001002090
:1055D00004ED00E00D48006850B900BF502080F392
:1055E0001188BFF34F8FBFF36F8F00BF00BFFEE77F
:1055F00006480068401E054908600846006820B952
:10560000002080F3118800BF00BF704760010020B8
:1056100070B506463546002E3BD0083D2C466068E6
:10562000C00F50B900BF502080F31188BFF34F8FD7
:10563000BFF36F8F00BF00BFFEE7206808B90120ED
:1056400000E0002050B900BF502080F31188BFF364
:105650004F8FBFF36F8F00BF00BFFEE76068C00FC2
:10566000B8B12068A8B9606820F00040606000F020
:105670005BF90849606809680844064908602046E3
:10568000FFF78CFB04480068401C0349086000F0E9
:10569000A3FD70BD500100205C01002000204FF0F0
:1056A000E02108618861064800684FF47A71B0FB18
:1056B000F1F0401E4FF0E02148610720086170477B
:1056C0000000002030B502460B46002152B900BF51
:1056D000502484F31188BFF34F8FBFF36F8F00BF47
:1056E00000BFFEE7BBB1002012E00D4C04EBC0048C
:1056F0006468944203D10A4C04EBC0010AE031B95A
:10570000074C54F8304014B9054C04EBC001401C60
:105710000828EAD300BF09B10B604A6030BD000021
:105720002C0700202DE9F04105460E4617462C4671
:10573000FFF726FF94F94400401C10B9002084F8BC
:10574000440094F94500401C10B9002084F845003D
:10575000FFF740FFA06B28B93A46314604F1240018
:1057600000F062F82046FFF702FDBDE8F08100007E
:1057700070B504460025D4B11248006808B901206C
:1057800000E0002050B900BF502080F31188BFF323
:105790004F8FBFF36F8F00BF00BFFEE700F0C4F86C
:1057A00000212046FFF7A0F800F016FD05463DB9A0
:1057B0004FF0805004490860BFF34F8FBFF36F8FE5
:1057C00070BD00002C01002004ED00E003490968D1
:1057D000016003490968416070470000180100201A
:1057E00004010020012001490860704714010020D5
:1057F00070B504460D4654B900BF502080F311889F
:10580000BFF34F8FBFF36F8F00BF00BFFEE70548A8
:10581000016818312046FFF799FE01212846FFF75D
:1058200063F870BDF000002070B504460E461546C2
:1058300054B900BF502080F31188BFF34F8FBFF3DE
:105840006F8F00BF00BFFEE760680F490968C8613D
:105850000D49826809680A620B4909681831826833
:1058600051600949096818318160074909688C62EB
:105870002168491C21600DB14FF0FF3629463046A2
:10588000FFF732F870BD0000F00000201CB51E4884
:1058900000210B468222CDE900101CA11D4800F01A
:1058A000E3FA0446012C02D100F052FD0446012C1B
:1058B00015D100BF502080F31188BFF34F8FBFF385
:1058C0006F8F00BF4FF0FF3013490860012013496C
:1058D000086000201249086000F074F810E0601CB5
:1058E00008B1012000E0002050B900BF502080F333
:1058F0001188BFF34F8FBFF36F8F00BF00BFFEE76C
:10590000084800681CBD00002401002049444C45A3
:1059100000000000154C0008200100200C010020B0
:10592000040100202801002002480068401C0149B1
:10593000086070472C0100201D48006818B1012044
:105940001C49086032E000201A4908601A480068C3
:10595000B0FA80F0C0F11F0101EB8100174A52F844
:10596000200008B1012000E0002050B900BF502005
:1059700080F31188BFF34F8FBFF36F8F00BF00BF5D
:10598000FEE701EB81020D4B03EB82004268526897
:10599000426000F108024368934202D142685268B3
:1059A00042604268D268064B1A6000BF7047000030
:1059B0002C01002014010020080100206C070020A9
:1059C000F00000201CB5524800685249884201D0BE
:1059D000012000E0002050B900BF502080F3118862
:1059E000BFF34F8FBFF36F8F00BF00BFFEE7484884
:1059F00000684849491E884201D0012000E000208B
:105A000050B900BF502080F31188BFF34F8FBFF310
:105A10006F8F00BF00BFFEE73F4908460078019046
:105A2000FF200A4610700846007800909DF800009C
:105A300000F0F0009DF80020904201D1012000E02C
:105A4000002050B900BF502080F31188BFF34F8F62
:105A5000BFF36F8F00BF00BFFEE79DF8000000F0AE
:105A600050002E4A107007202D4A106009E02C4883
:105A70000068401E2A4A10609DF800004006000E93
:105A800000909DF8000000F080008028EFD02448AE
:105A90000068C0F10700042801D1012000E00020C7
:105AA00050B900BF502080F31188BFF34F8FBFF370
:105AB0006F8F00BF00BFFEE7194800680002184A58
:105AC00010601046008800F4E0601060124A0198EF
:105AD00010700F482030006840F470000C492031ED
